{
  "contractName": "CloudAsABlockchainToken",
  "abi": [
    {
      "inputs": [
        {
          "internalType": "address",
          "name": "cstTokenAddress",
          "type": "address"
        },
        {
          "internalType": "address",
          "name": "cctTokenAddress",
          "type": "address"
        }
      ],
      "stateMutability": "nonpayable",
      "type": "constructor"
    },
    {
      "inputs": [
        {
          "internalType": "address",
          "name": "sender",
          "type": "address"
        },
        {
          "internalType": "uint256",
          "name": "balance",
          "type": "uint256"
        },
        {
          "internalType": "uint256",
          "name": "needed",
          "type": "uint256"
        },
        {
          "internalType": "uint256",
          "name": "tokenId",
          "type": "uint256"
        }
      ],
      "name": "ERC1155InsufficientBalance",
      "type": "error"
    },
    {
      "inputs": [
        {
          "internalType": "address",
          "name": "approver",
          "type": "address"
        }
      ],
      "name": "ERC1155InvalidApprover",
      "type": "error"
    },
    {
      "inputs": [
        {
          "internalType": "uint256",
          "name": "idsLength",
          "type": "uint256"
        },
        {
          "internalType": "uint256",
          "name": "valuesLength",
          "type": "uint256"
        }
      ],
      "name": "ERC1155InvalidArrayLength",
      "type": "error"
    },
    {
      "inputs": [
        {
          "internalType": "address",
          "name": "operator",
          "type": "address"
        }
      ],
      "name": "ERC1155InvalidOperator",
      "type": "error"
    },
    {
      "inputs": [
        {
          "internalType": "address",
          "name": "receiver",
          "type": "address"
        }
      ],
      "name": "ERC1155InvalidReceiver",
      "type": "error"
    },
    {
      "inputs": [
        {
          "internalType": "address",
          "name": "sender",
          "type": "address"
        }
      ],
      "name": "ERC1155InvalidSender",
      "type": "error"
    },
    {
      "inputs": [
        {
          "internalType": "address",
          "name": "operator",
          "type": "address"
        },
        {
          "internalType": "address",
          "name": "owner",
          "type": "address"
        }
      ],
      "name": "ERC1155MissingApprovalForAll",
      "type": "error"
    },
    {
      "anonymous": false,
      "inputs": [
        {
          "indexed": true,
          "internalType": "address",
          "name": "account",
          "type": "address"
        },
        {
          "indexed": true,
          "internalType": "address",
          "name": "operator",
          "type": "address"
        },
        {
          "indexed": false,
          "internalType": "bool",
          "name": "approved",
          "type": "bool"
        }
      ],
      "name": "ApprovalForAll",
      "type": "event"
    },
    {
      "anonymous": false,
      "inputs": [
        {
          "indexed": true,
          "internalType": "address",
          "name": "operator",
          "type": "address"
        },
        {
          "indexed": true,
          "internalType": "address",
          "name": "from",
          "type": "address"
        },
        {
          "indexed": true,
          "internalType": "address",
          "name": "to",
          "type": "address"
        },
        {
          "indexed": false,
          "internalType": "uint256[]",
          "name": "ids",
          "type": "uint256[]"
        },
        {
          "indexed": false,
          "internalType": "uint256[]",
          "name": "values",
          "type": "uint256[]"
        }
      ],
      "name": "TransferBatch",
      "type": "event"
    },
    {
      "anonymous": false,
      "inputs": [
        {
          "indexed": true,
          "internalType": "address",
          "name": "operator",
          "type": "address"
        },
        {
          "indexed": true,
          "internalType": "address",
          "name": "from",
          "type": "address"
        },
        {
          "indexed": true,
          "internalType": "address",
          "name": "to",
          "type": "address"
        },
        {
          "indexed": false,
          "internalType": "uint256",
          "name": "id",
          "type": "uint256"
        },
        {
          "indexed": false,
          "internalType": "uint256",
          "name": "value",
          "type": "uint256"
        }
      ],
      "name": "TransferSingle",
      "type": "event"
    },
    {
      "anonymous": false,
      "inputs": [
        {
          "indexed": false,
          "internalType": "string",
          "name": "value",
          "type": "string"
        },
        {
          "indexed": true,
          "internalType": "uint256",
          "name": "id",
          "type": "uint256"
        }
      ],
      "name": "URI",
      "type": "event"
    },
    {
      "anonymous": false,
      "inputs": [
        {
          "indexed": false,
          "internalType": "string",
          "name": "message",
          "type": "string"
        }
      ],
      "name": "rentalSuccess",
      "type": "event"
    },
    {
      "inputs": [],
      "name": "CCT_ERC721_Token",
      "outputs": [
        {
          "internalType": "uint256",
          "name": "",
          "type": "uint256"
        }
      ],
      "stateMutability": "view",
      "type": "function",
      "constant": true
    },
    {
      "inputs": [],
      "name": "CST_ERC20_Token",
      "outputs": [
        {
          "internalType": "uint256",
          "name": "",
          "type": "uint256"
        }
      ],
      "stateMutability": "view",
      "type": "function",
      "constant": true
    },
    {
      "inputs": [
        {
          "internalType": "address",
          "name": "account",
          "type": "address"
        },
        {
          "internalType": "uint256",
          "name": "id",
          "type": "uint256"
        }
      ],
      "name": "balanceOf",
      "outputs": [
        {
          "internalType": "uint256",
          "name": "",
          "type": "uint256"
        }
      ],
      "stateMutability": "view",
      "type": "function",
      "constant": true
    },
    {
      "inputs": [
        {
          "internalType": "address[]",
          "name": "accounts",
          "type": "address[]"
        },
        {
          "internalType": "uint256[]",
          "name": "ids",
          "type": "uint256[]"
        }
      ],
      "name": "balanceOfBatch",
      "outputs": [
        {
          "internalType": "uint256[]",
          "name": "",
          "type": "uint256[]"
        }
      ],
      "stateMutability": "view",
      "type": "function",
      "constant": true
    },
    {
      "inputs": [
        {
          "internalType": "address",
          "name": "account",
          "type": "address"
        },
        {
          "internalType": "address",
          "name": "operator",
          "type": "address"
        }
      ],
      "name": "isApprovedForAll",
      "outputs": [
        {
          "internalType": "bool",
          "name": "",
          "type": "bool"
        }
      ],
      "stateMutability": "view",
      "type": "function",
      "constant": true
    },
    {
      "inputs": [
        {
          "internalType": "address",
          "name": "from",
          "type": "address"
        },
        {
          "internalType": "address",
          "name": "to",
          "type": "address"
        },
        {
          "internalType": "uint256[]",
          "name": "ids",
          "type": "uint256[]"
        },
        {
          "internalType": "uint256[]",
          "name": "values",
          "type": "uint256[]"
        },
        {
          "internalType": "bytes",
          "name": "data",
          "type": "bytes"
        }
      ],
      "name": "safeBatchTransferFrom",
      "outputs": [],
      "stateMutability": "nonpayable",
      "type": "function"
    },
    {
      "inputs": [
        {
          "internalType": "address",
          "name": "from",
          "type": "address"
        },
        {
          "internalType": "address",
          "name": "to",
          "type": "address"
        },
        {
          "internalType": "uint256",
          "name": "id",
          "type": "uint256"
        },
        {
          "internalType": "uint256",
          "name": "value",
          "type": "uint256"
        },
        {
          "internalType": "bytes",
          "name": "data",
          "type": "bytes"
        }
      ],
      "name": "safeTransferFrom",
      "outputs": [],
      "stateMutability": "nonpayable",
      "type": "function"
    },
    {
      "inputs": [
        {
          "internalType": "address",
          "name": "operator",
          "type": "address"
        },
        {
          "internalType": "bool",
          "name": "approved",
          "type": "bool"
        }
      ],
      "name": "setApprovalForAll",
      "outputs": [],
      "stateMutability": "nonpayable",
      "type": "function"
    },
    {
      "inputs": [
        {
          "internalType": "bytes4",
          "name": "interfaceId",
          "type": "bytes4"
        }
      ],
      "name": "supportsInterface",
      "outputs": [
        {
          "internalType": "bool",
          "name": "",
          "type": "bool"
        }
      ],
      "stateMutability": "view",
      "type": "function",
      "constant": true
    },
    {
      "inputs": [
        {
          "internalType": "uint256",
          "name": "",
          "type": "uint256"
        }
      ],
      "name": "uri",
      "outputs": [
        {
          "internalType": "string",
          "name": "",
          "type": "string"
        }
      ],
      "stateMutability": "view",
      "type": "function",
      "constant": true
    },
    {
      "inputs": [
        {
          "internalType": "uint256",
          "name": "cctTokenID",
          "type": "uint256"
        },
        {
          "internalType": "uint256",
          "name": "cstAmount",
          "type": "uint256"
        }
      ],
      "name": "transferinBatch",
      "outputs": [],
      "stateMutability": "nonpayable",
      "type": "function"
    },
    {
      "inputs": [
        {
          "internalType": "uint256",
          "name": "cctTokenID",
          "type": "uint256"
        },
        {
          "internalType": "uint256",
          "name": "cstAmount",
          "type": "uint256"
        }
      ],
      "name": "rentCloudDiskandServer",
      "outputs": [],
      "stateMutability": "nonpayable",
      "type": "function"
    },
    {
      "inputs": [
        {
          "internalType": "address",
          "name": "user",
          "type": "address"
        }
      ],
      "name": "getBalance",
      "outputs": [
        {
          "internalType": "uint256",
          "name": "cst_balance",
          "type": "uint256"
        },
        {
          "internalType": "uint256",
          "name": "cct_balance",
          "type": "uint256"
        }
      ],
      "stateMutability": "view",
      "type": "function",
      "constant": true
    },
    {
      "inputs": [
        {
          "internalType": "address",
          "name": "user",
          "type": "address"
        }
      ],
      "name": "getCSTBalance",
      "outputs": [
        {
          "internalType": "uint256",
          "name": "balance",
          "type": "uint256"
        }
      ],
      "stateMutability": "view",
      "type": "function",
      "constant": true
    },
    {
      "inputs": [
        {
          "internalType": "address",
          "name": "user",
          "type": "address"
        }
      ],
      "name": "getDiskStorageRented",
      "outputs": [
        {
          "internalType": "uint256",
          "name": "storageRented",
          "type": "uint256"
        }
      ],
      "stateMutability": "view",
      "type": "function",
      "constant": true
    },
    {
      "inputs": [
        {
          "internalType": "address",
          "name": "user",
          "type": "address"
        }
      ],
      "name": "getConfigDetails",
      "outputs": [
        {
          "components": [
            {
              "internalType": "uint256",
              "name": "id",
              "type": "uint256"
            },
            {
              "internalType": "string",
              "name": "gpu",
              "type": "string"
            },
            {
              "internalType": "string",
              "name": "processor",
              "type": "string"
            },
            {
              "internalType": "string",
              "name": "ram",
              "type": "string"
            },
            {
              "internalType": "string",
              "name": "cores",
              "type": "string"
            },
            {
              "internalType": "string",
              "name": "os",
              "type": "string"
            },
            {
              "internalType": "string",
              "name": "imageURL",
              "type": "string"
            }
          ],
          "internalType": "struct CloudConfigToken.ServerConfiguration[]",
          "name": "",
          "type": "tuple[]"
        }
      ],
      "stateMutability": "view",
      "type": "function",
      "constant": true
    },
    {
      "inputs": [
        {
          "internalType": "uint256",
          "name": "amount",
          "type": "uint256"
        }
      ],
      "name": "buyCST",
      "outputs": [],
      "stateMutability": "nonpayable",
      "type": "function"
    },
    {
      "inputs": [
        {
          "internalType": "string",
          "name": "gpu",
          "type": "string"
        },
        {
          "internalType": "string",
          "name": "processor",
          "type": "string"
        },
        {
          "internalType": "string",
          "name": "ram",
          "type": "string"
        },
        {
          "internalType": "string",
          "name": "cores",
          "type": "string"
        },
        {
          "internalType": "string",
          "name": "os",
          "type": "string"
        },
        {
          "internalType": "string",
          "name": "imageURL",
          "type": "string"
        },
        {
          "internalType": "string",
          "name": "uri",
          "type": "string"
        }
      ],
      "name": "buyCCT",
      "outputs": [],
      "stateMutability": "nonpayable",
      "type": "function"
    },
    {
      "inputs": [
        {
          "internalType": "address",
          "name": "user",
          "type": "address"
        }
      ],
      "name": "getRentalDetails",
      "outputs": [
        {
          "components": [
            {
              "internalType": "uint256",
              "name": "cstAmount",
              "type": "uint256"
            },
            {
              "internalType": "uint256",
              "name": "cctTokenID",
              "type": "uint256"
            }
          ],
          "internalType": "struct CloudAsABlockchainToken.Data[]",
          "name": "",
          "type": "tuple[]"
        }
      ],
      "stateMutability": "view",
      "type": "function",
      "constant": true
    },
    {
      "inputs": [
        {
          "internalType": "uint256",
          "name": "tokenId",
          "type": "uint256"
        }
      ],
      "name": "getTokenDetails",
      "outputs": [
        {
          "components": [
            {
              "internalType": "uint256",
              "name": "id",
              "type": "uint256"
            },
            {
              "internalType": "string",
              "name": "gpu",
              "type": "string"
            },
            {
              "internalType": "string",
              "name": "processor",
              "type": "string"
            },
            {
              "internalType": "string",
              "name": "ram",
              "type": "string"
            },
            {
              "internalType": "string",
              "name": "cores",
              "type": "string"
            },
            {
              "internalType": "string",
              "name": "os",
              "type": "string"
            },
            {
              "internalType": "string",
              "name": "imageURL",
              "type": "string"
            }
          ],
          "internalType": "struct CloudConfigToken.ServerConfiguration",
          "name": "ret",
          "type": "tuple"
        }
      ],
      "stateMutability": "view",
      "type": "function",
      "constant": true
    }
  ],
  "bytecode": "0x6080604052600160065534801562000015575f80fd5b50604051620053113803806200531183398181016040528101906200003b919062000aec565b6040518060400160405280600381526020017f555249000000000000000000000000000000000000000000000000000000000081525062000082816200017760201b60201c565b508160035f6101000a81548173ffffffffffffffffffffffffffffffffffffffff021916908373ffffffffffffffffffffffffffffffffffffffff1602179055508060045f6101000a81548173ffffffffffffffffffffffffffffffffffffffff021916908373ffffffffffffffffffffffffffffffffffffffff1602179055503360055f6101000a81548173ffffffffffffffffffffffffffffffffffffffff021916908373ffffffffffffffffffffffffffffffffffffffff1602179055506200016f335f69d3c21bcecceda100000060405180602001604052805f8152506200018c60201b60201c565b5050620012cf565b806002908162000188919062000d95565b5050565b5f73ffffffffffffffffffffffffffffffffffffffff168473ffffffffffffffffffffffffffffffffffffffff1603620001ff575f6040517f57f447ce000000000000000000000000000000000000000000000000000000008152600401620001f6919062000e8a565b60405180910390fd5b5f806200021385856200023460201b60201c565b915091506200022c5f878484876200026460201b60201c565b505050505050565b60608060405191506001825283602083015260408201905060018152826020820152604081016040529250929050565b62000278858585856200033760201b60201c565b5f73ffffffffffffffffffffffffffffffffffffffff168473ffffffffffffffffffffffffffffffffffffffff161462000330575f620002bd620006f160201b60201c565b9050600184510362000317575f620002df5f86620006f860201b90919060201c565b90505f620002f75f86620006f860201b90919060201c565b90506200030f8389898585896200070b60201b60201c565b50506200032e565b6200032d818787878787620008c960201b60201c565b5b505b5050505050565b80518251146200038457815181516040517f5b0599910000000000000000000000000000000000000000000000000000000081526004016200037b92919062000eb6565b60405180910390fd5b5f62000395620006f160201b60201c565b90505f5b8351811015620005a6575f620003b98286620006f860201b90919060201c565b90505f620003d18386620006f860201b90919060201c565b90505f73ffffffffffffffffffffffffffffffffffffffff168873ffffffffffffffffffffffffffffffffffffffff1614620004f8575f805f8481526020019081526020015f205f8a73ffffffffffffffffffffffffffffffffffffffff1673ffffffffffffffffffffffffffffffffffffffff1681526020019081526020015f2054905081811015620004a457888183856040517f03dee4c50000000000000000000000000000000000000000000000000000000081526004016200049b949392919062000ee1565b60405180910390fd5b8181035f808581526020019081526020015f205f8b73ffffffffffffffffffffffffffffffffffffffff1673ffffffffffffffffffffffffffffffffffffffff1681526020019081526020015f2081905550505b5f73ffffffffffffffffffffffffffffffffffffffff168773ffffffffffffffffffffffffffffffffffffffff16146200059057805f808481526020019081526020015f205f8973ffffffffffffffffffffffffffffffffffffffff1673ffffffffffffffffffffffffffffffffffffffff1681526020019081526020015f205f82825462000588919062000f59565b925050819055505b5050806200059e9062000f93565b905062000399565b50600183510362000669575f620005c75f85620006f860201b90919060201c565b90505f620005df5f85620006f860201b90919060201c565b90508573ffffffffffffffffffffffffffffffffffffffff168773ffffffffffffffffffffffffffffffffffffffff168473ffffffffffffffffffffffffffffffffffffffff167fc3d58168c5ae7397731d063d5bbf3d657854427343f4c083240f7aacaa2d0f6285856040516200065992919062000eb6565b60405180910390a45050620006ea565b8373ffffffffffffffffffffffffffffffffffffffff168573ffffffffffffffffffffffffffffffffffffffff168273ffffffffffffffffffffffffffffffffffffffff167f4a39dc06d4c0dbc64b70af90fd698a233a518aa5d07e595d983b8c0526c8f7fb8686604051620006e1929190620010a6565b60405180910390a45b5050505050565b5f33905090565b5f60208202602084010151905092915050565b5f8473ffffffffffffffffffffffffffffffffffffffff163b1115620008c1578373ffffffffffffffffffffffffffffffffffffffff1663f23a6e6187878686866040518663ffffffff1660e01b81526004016200076e95949392919062001173565b6020604051808303815f875af1925050508015620007ac57506040513d601f19601f82011682018060405250810190620007a991906200122f565b60015b62000833573d805f8114620007dd576040519150601f19603f3d011682016040523d82523d5f602084013e620007e2565b606091505b505f8151036200082b57846040517f57f447ce00000000000000000000000000000000000000000000000000000000815260040162000822919062000e8a565b60405180910390fd5b805181602001fd5b63f23a6e6160e01b7bffffffffffffffffffffffffffffffffffffffffffffffffffffffff1916817bffffffffffffffffffffffffffffffffffffffffffffffffffffffff191614620008bf57846040517f57f447ce000000000000000000000000000000000000000000000000000000008152600401620008b6919062000e8a565b60405180910390fd5b505b505050505050565b5f8473ffffffffffffffffffffffffffffffffffffffff163b111562000a7f578373ffffffffffffffffffffffffffffffffffffffff1663bc197c8187878686866040518663ffffffff1660e01b81526004016200092c9594939291906200125f565b6020604051808303815f875af19250505080156200096a57506040513d601f19601f820116820180604052508101906200096791906200122f565b60015b620009f1573d805f81146200099b576040519150601f19603f3d011682016040523d82523d5f602084013e620009a0565b606091505b505f815103620009e957846040517f57f447ce000000000000000000000000000000000000000000000000000000008152600401620009e0919062000e8a565b60405180910390fd5b805181602001fd5b63bc197c8160e01b7bffffffffffffffffffffffffffffffffffffffffffffffffffffffff1916817bffffffffffffffffffffffffffffffffffffffffffffffffffffffff19161462000a7d57846040517f57f447ce00000000000000000000000000000000000000000000000000000000815260040162000a74919062000e8a565b60405180910390fd5b505b505050505050565b5f80fd5b5f73ffffffffffffffffffffffffffffffffffffffff82169050919050565b5f62000ab68262000a8b565b9050919050565b62000ac88162000aaa565b811462000ad3575f80fd5b50565b5f8151905062000ae68162000abd565b92915050565b5f806040838503121562000b055762000b0462000a87565b5b5f62000b148582860162000ad6565b925050602062000b278582860162000ad6565b9150509250929050565b5f81519050919050565b7f4e487b71000000000000000000000000000000000000000000000000000000005f52604160045260245ffd5b7f4e487b71000000000000000000000000000000000000000000000000000000005f52602260045260245ffd5b5f600282049050600182168062000bad57607f821691505b60208210810362000bc35762000bc262000b68565b5b50919050565b5f819050815f5260205f209050919050565b5f6020601f8301049050919050565b5f82821b905092915050565b5f6008830262000c277fffffffffffffffffffffffffffffffffffffffffffffffffffffffffffffffff8262000bea565b62000c33868362000bea565b95508019841693508086168417925050509392505050565b5f819050919050565b5f819050919050565b5f62000c7d62000c7762000c718462000c4b565b62000c54565b62000c4b565b9050919050565b5f819050919050565b62000c988362000c5d565b62000cb062000ca78262000c84565b84845462000bf6565b825550505050565b5f90565b62000cc662000cb8565b62000cd381848462000c8d565b505050565b5b8181101562000cfa5762000cee5f8262000cbc565b60018101905062000cd9565b5050565b601f82111562000d495762000d138162000bc9565b62000d1e8462000bdb565b8101602085101562000d2e578190505b62000d4662000d3d8562000bdb565b83018262000cd8565b50505b505050565b5f82821c905092915050565b5f62000d6b5f198460080262000d4e565b1980831691505092915050565b5f62000d85838362000d5a565b9150826002028217905092915050565b62000da08262000b31565b67ffffffffffffffff81111562000dbc5762000dbb62000b3b565b5b62000dc8825462000b95565b62000dd582828562000cfe565b5f60209050601f83116001811462000e0b575f841562000df6578287015190505b62000e02858262000d78565b86555062000e71565b601f19841662000e1b8662000bc9565b5f5b8281101562000e445784890151825560018201915060208501945060208101905062000e1d565b8683101562000e64578489015162000e60601f89168262000d5a565b8355505b6001600288020188555050505b505050505050565b62000e848162000aaa565b82525050565b5f60208201905062000e9f5f83018462000e79565b92915050565b62000eb08162000c4b565b82525050565b5f60408201905062000ecb5f83018562000ea5565b62000eda602083018462000ea5565b9392505050565b5f60808201905062000ef65f83018762000e79565b62000f05602083018662000ea5565b62000f14604083018562000ea5565b62000f23606083018462000ea5565b95945050505050565b7f4e487b71000000000000000000000000000000000000000000000000000000005f52601160045260245ffd5b5f62000f658262000c4b565b915062000f728362000c4b565b925082820190508082111562000f8d5762000f8c62000f2c565b5b92915050565b5f62000f9f8262000c4b565b91507fffffffffffffffffffffffffffffffffffffffffffffffffffffffffffffffff820362000fd45762000fd362000f2c565b5b600182019050919050565b5f81519050919050565b5f82825260208201905092915050565b5f819050602082019050919050565b620010138162000c4b565b82525050565b5f62001026838362001008565b60208301905092915050565b5f602082019050919050565b5f6200104a8262000fdf565b62001056818562000fe9565b9350620010638362000ff9565b805f5b83811015620010995781516200107d888262001019565b97506200108a8362001032565b92505060018101905062001066565b5085935050505092915050565b5f6040820190508181035f830152620010c081856200103e565b90508181036020830152620010d681846200103e565b90509392505050565b5f81519050919050565b5f82825260208201905092915050565b5f5b8381101562001118578082015181840152602081019050620010fb565b5f8484015250505050565b5f601f19601f8301169050919050565b5f6200113f82620010df565b6200114b8185620010e9565b93506200115d818560208601620010f9565b620011688162001123565b840191505092915050565b5f60a082019050620011885f83018862000e79565b62001197602083018762000e79565b620011a6604083018662000ea5565b620011b5606083018562000ea5565b8181036080830152620011c9818462001133565b90509695505050505050565b5f7fffffffff0000000000000000000000000000000000000000000000000000000082169050919050565b6200120b81620011d5565b811462001216575f80fd5b50565b5f81519050620012298162001200565b92915050565b5f6020828403121562001247576200124662000a87565b5b5f620012568482850162001219565b91505092915050565b5f60a082019050620012745f83018862000e79565b62001283602083018762000e79565b81810360408301526200129781866200103e565b90508181036060830152620012ad81856200103e565b90508181036080830152620012c3818462001133565b90509695505050505050565b61403480620012dd5f395ff3fe608060405234801561000f575f80fd5b5060043610610129575f3560e01c80638f1de79e116100ab578063b6f9054e1161006f578063b6f9054e14610361578063c1e0372814610391578063e985e9c5146103c1578063f242432a146103f1578063f8b2cb4f1461040d57610129565b80638f1de79e146102c1578063a22cb465146102dd578063a2bece58146102f9578063a9916ce514610329578063ab50ee661461034557610129565b80632ee713d0116100f25780632ee713d0146101f557806339c7d9611461021357806347e3432e146102315780634e1273f414610261578063603d77ca1461029157610129565b8062fdd58e1461012d57806301ffc9a71461015d5780630e89341c1461018d57806322c2966f146101bd5780632eb2c2d6146101d9575b5f80fd5b610147600480360381019061014291906126f0565b61043e565b604051610154919061273d565b60405180910390f35b610177600480360381019061017291906127ab565b610493565b60405161018491906127f0565b60405180910390f35b6101a760048036038101906101a29190612809565b610574565b6040516101b491906128be565b60405180910390f35b6101d760048036038101906101d29190612a0a565b610606565b005b6101f360048036038101906101ee9190612ccd565b6106d6565b005b6101fd61077d565b60405161020a919061273d565b60405180910390f35b61021b610781565b604051610228919061273d565b60405180910390f35b61024b60048036038101906102469190612d98565b610786565b604051610258919061273d565b60405180910390f35b61027b60048036038101906102769190612e83565b610827565b6040516102889190612fb0565b60405180910390f35b6102ab60048036038101906102a69190612d98565b610934565b6040516102b8919061273d565b60405180910390f35b6102db60048036038101906102d69190612809565b6109eb565b005b6102f760048036038101906102f29190612ffa565b610ab7565b005b610313600480360381019061030e9190612d98565b610acd565b60405161032091906131f7565b60405180910390f35b610343600480360381019061033e9190613217565b610caa565b005b61035f600480360381019061035a9190613217565b61119d565b005b61037b60048036038101906103769190612d98565b611468565b604051610388919061332a565b60405180910390f35b6103ab60048036038101906103a69190612809565b6115df565b6040516103b89190613406565b60405180910390f35b6103db60048036038101906103d69190613426565b61168a565b6040516103e891906127f0565b60405180910390f35b61040b60048036038101906104069190613464565b611718565b005b61042760048036038101906104229190612d98565b6117bf565b6040516104359291906134f7565b60405180910390f35b5f805f8381526020019081526020015f205f8473ffffffffffffffffffffffffffffffffffffffff1673ffffffffffffffffffffffffffffffffffffffff1681526020019081526020015f2054905092915050565b5f7fd9b67a26000000000000000000000000000000000000000000000000000000007bffffffffffffffffffffffffffffffffffffffffffffffffffffffff1916827bffffffffffffffffffffffffffffffffffffffffffffffffffffffff1916148061055d57507f0e89341c000000000000000000000000000000000000000000000000000000007bffffffffffffffffffffffffffffffffffffffffffffffffffffffff1916827bffffffffffffffffffffffffffffffffffffffffffffffffffffffff1916145b8061056d575061056c826119a0565b5b9050919050565b6060600280546105839061354b565b80601f01602080910402602001604051908101604052809291908181526020018280546105af9061354b565b80156105fa5780601f106105d1576101008083540402835291602001916105fa565b820191905f5260205f20905b8154815290600101906020018083116105dd57829003601f168201915b50505050509050919050565b5f60045f9054906101000a900473ffffffffffffffffffffffffffffffffffffffff1673ffffffffffffffffffffffffffffffffffffffff166361b10264338a8a8a8a8a8a8a6040518963ffffffff1660e01b815260040161066f98979695949392919061358a565b6020604051808303815f875af115801561068b573d5f803e3d5ffd5b505050506040513d601f19601f820116820180604052508101906106af919061364b565b90506106cc3360018360405180602001604052805f815250611a09565b5050505050505050565b5f6106df611a9e565b90508073ffffffffffffffffffffffffffffffffffffffff168673ffffffffffffffffffffffffffffffffffffffff16141580156107245750610722868261168a565b155b156107685780866040517fe237d92200000000000000000000000000000000000000000000000000000000815260040161075f929190613676565b60405180910390fd5b6107758686868686611aa5565b505050505050565b5f81565b600181565b5f60035f9054906101000a900473ffffffffffffffffffffffffffffffffffffffff1673ffffffffffffffffffffffffffffffffffffffff1663192c8b27836040518263ffffffff1660e01b81526004016107e1919061369d565b602060405180830381865afa1580156107fc573d5f803e3d5ffd5b505050506040513d601f19601f82011682018060405250810190610820919061364b565b9050919050565b6060815183511461087357815183516040517f5b05999100000000000000000000000000000000000000000000000000000000815260040161086a9291906134f7565b60405180910390fd5b5f835167ffffffffffffffff81111561088f5761088e6128e6565b5b6040519080825280602002602001820160405280156108bd5781602001602082028036833780820191505090505b5090505f5b8451811015610929576108f96108e18287611b9990919063ffffffff16565b6108f48387611bac90919063ffffffff16565b61043e565b82828151811061090c5761090b6136b6565b5b6020026020010181815250508061092290613710565b90506108c2565b508091505092915050565b5f60035f9054906101000a900473ffffffffffffffffffffffffffffffffffffffff1673ffffffffffffffffffffffffffffffffffffffff166370a08231836040518263ffffffff1660e01b815260040161098f919061369d565b602060405180830381865afa1580156109aa573d5f803e3d5ffd5b505050506040513d601f19601f820116820180604052508101906109ce919061364b565b9050670de0b6b3a7640000816109e49190613784565b9050919050565b60035f9054906101000a900473ffffffffffffffffffffffffffffffffffffffff1673ffffffffffffffffffffffffffffffffffffffff16639134709e670de0b6b3a764000083610a3c91906137b4565b336040518363ffffffff1660e01b8152600401610a5a9291906137f5565b5f604051808303815f87803b158015610a71575f80fd5b505af1158015610a83573d5f803e3d5ffd5b50505050610ab4335f670de0b6b3a764000084610aa091906137b4565b60405180602001604052805f815250611a09565b50565b610ac9610ac2611a9e565b8383611bbf565b5050565b6060815f60045f9054906101000a900473ffffffffffffffffffffffffffffffffffffffff1673ffffffffffffffffffffffffffffffffffffffff166370a08231836040518263ffffffff1660e01b8152600401610b2b919061369d565b602060405180830381865afa158015610b46573d5f803e3d5ffd5b505050506040513d601f19601f82011682018060405250810190610b6a919061364b565b11610baa576040517f08c379a0000000000000000000000000000000000000000000000000000000008152600401610ba19061388c565b60405180910390fd5b5f600567ffffffffffffffff811115610bc657610bc56128e6565b5b604051908082528060200260200182016040528015610bff57816020015b610bec6125fe565b815260200190600190039081610be45790505b50905060045f9054906101000a900473ffffffffffffffffffffffffffffffffffffffff1673ffffffffffffffffffffffffffffffffffffffff166390deb05c856040518263ffffffff1660e01b8152600401610c5c919061369d565b5f60405180830381865afa158015610c76573d5f803e3d5ffd5b505050506040513d5f823e3d601f19601f82011682018060405250810190610c9e9190613b57565b90508092505050919050565b338180610cb683610934565b1015610cf7576040517f08c379a0000000000000000000000000000000000000000000000000000000008152600401610cee90613be8565b60405180910390fd5b33848173ffffffffffffffffffffffffffffffffffffffff1660045f9054906101000a900473ffffffffffffffffffffffffffffffffffffffff1673ffffffffffffffffffffffffffffffffffffffff16636352211e836040518263ffffffff1660e01b8152600401610d6a919061273d565b602060405180830381865afa158015610d85573d5f803e3d5ffd5b505050506040513d601f19601f82011682018060405250810190610da99190613c1a565b73ffffffffffffffffffffffffffffffffffffffff1614610dff576040517f08c379a0000000000000000000000000000000000000000000000000000000008152600401610df690613cb5565b60405180910390fd5b60035f9054906101000a900473ffffffffffffffffffffffffffffffffffffffff1673ffffffffffffffffffffffffffffffffffffffff16630832065b3360055f9054906101000a900473ffffffffffffffffffffffffffffffffffffffff16670de0b6b3a764000089610e7391906137b4565b6040518463ffffffff1660e01b8152600401610e9193929190613cd3565b5f604051808303815f87803b158015610ea8575f80fd5b505af1158015610eba573d5f803e3d5ffd5b5050505060035f9054906101000a900473ffffffffffffffffffffffffffffffffffffffff1673ffffffffffffffffffffffffffffffffffffffff16634cc3600533876040518363ffffffff1660e01b8152600401610f1a929190613d08565b5f604051808303815f87803b158015610f31575f80fd5b505af1158015610f43573d5f803e3d5ffd5b5050505060045f9054906101000a900473ffffffffffffffffffffffffffffffffffffffff1673ffffffffffffffffffffffffffffffffffffffff1663451591463360055f9054906101000a900473ffffffffffffffffffffffffffffffffffffffff16896040518463ffffffff1660e01b8152600401610fc693929190613cd3565b5f604051808303815f87803b158015610fdd575f80fd5b505af1158015610fef573d5f803e3d5ffd5b5050505060045f9054906101000a900473ffffffffffffffffffffffffffffffffffffffff1673ffffffffffffffffffffffffffffffffffffffff1663171c00fd3360055f9054906101000a900473ffffffffffffffffffffffffffffffffffffffff16896040518463ffffffff1660e01b815260040161107293929190613cd3565b5f604051808303815f87803b158015611089575f80fd5b505af115801561109b573d5f803e3d5ffd5b505050506110a9868661119d565b60085f3373ffffffffffffffffffffffffffffffffffffffff1673ffffffffffffffffffffffffffffffffffffffff1681526020019081526020015f20600654908060018154018082558091505060019003905f5260205f20015f909190919091505560405180604001604052808681526020018781525060075f60065481526020019081526020015f205f820151815f01556020820151816001015590505060065f81548092919061115b90613710565b91905055507f482957b47469d116c3e3a51e17b580129a2a32ff37c4fc34528ace8b78af2f9e60405161118d90613d9f565b60405180910390a1505050505050565b3381806111a983610934565b10156111ea576040517f08c379a00000000000000000000000000000000000000000000000000000000081526004016111e190613be8565b60405180910390fd5b33848173ffffffffffffffffffffffffffffffffffffffff1660045f9054906101000a900473ffffffffffffffffffffffffffffffffffffffff1673ffffffffffffffffffffffffffffffffffffffff16636352211e836040518263ffffffff1660e01b815260040161125d919061273d565b602060405180830381865afa158015611278573d5f803e3d5ffd5b505050506040513d601f19601f8201168201806040525081019061129c9190613c1a565b73ffffffffffffffffffffffffffffffffffffffff16146112f2576040517f08c379a00000000000000000000000000000000000000000000000000000000081526004016112e990613cb5565b60405180910390fd5b5f600267ffffffffffffffff81111561130e5761130d6128e6565b5b60405190808252806020026020018201604052801561133c5781602001602082028036833780820191505090505b5090505f815f81518110611353576113526136b6565b5b602002602001018181525050600181600181518110611375576113746136b6565b5b6020026020010181815250505f600267ffffffffffffffff81111561139d5761139c6128e6565b5b6040519080825280602002602001820160405280156113cb5781602001602082028036833780820191505090505b509050670de0b6b3a7640000876113e291906137b4565b815f815181106113f5576113f46136b6565b5b6020026020010181815250508781600181518110611416576114156136b6565b5b60200260200101818152505061145e3360055f9054906101000a900473ffffffffffffffffffffffffffffffffffffffff16848460405180602001604052805f8152506106d6565b5050505050505050565b60605f60085f8473ffffffffffffffffffffffffffffffffffffffff1673ffffffffffffffffffffffffffffffffffffffff1681526020019081526020015f208054806020026020016040519081016040528092919081815260200182805480156114f057602002820191905f5260205f20905b8154815260200190600101908083116114dc575b505050505090505f815167ffffffffffffffff811115611513576115126128e6565b5b60405190808252806020026020018201604052801561154c57816020015b61153961263a565b8152602001906001900390816115315790505b5090505f5b82518110156115d45760075f8483815181106115705761156f6136b6565b5b602002602001015181526020019081526020015f206040518060400160405290815f82015481526020016001820154815250508282815181106115b6576115b56136b6565b5b602002602001018190525080806115cc90613710565b915050611551565b508092505050919050565b6115e76125fe565b60045f9054906101000a900473ffffffffffffffffffffffffffffffffffffffff1673ffffffffffffffffffffffffffffffffffffffff1663383a4669836040518263ffffffff1660e01b8152600401611641919061273d565b5f60405180830381865afa15801561165b573d5f803e3d5ffd5b505050506040513d5f823e3d601f19601f820116820180604052508101906116839190613dbd565b9050919050565b5f60015f8473ffffffffffffffffffffffffffffffffffffffff1673ffffffffffffffffffffffffffffffffffffffff1681526020019081526020015f205f8373ffffffffffffffffffffffffffffffffffffffff1673ffffffffffffffffffffffffffffffffffffffff1681526020019081526020015f205f9054906101000a900460ff16905092915050565b5f611721611a9e565b90508073ffffffffffffffffffffffffffffffffffffffff168673ffffffffffffffffffffffffffffffffffffffff16141580156117665750611764868261168a565b155b156117aa5780866040517fe237d9220000000000000000000000000000000000000000000000000000000081526004016117a1929190613676565b60405180910390fd5b6117b78686868686611d28565b505050505050565b5f805f600267ffffffffffffffff8111156117dd576117dc6128e6565b5b60405190808252806020026020018201604052801561180b5781602001602082028036833780820191505090505b5090505f815f81518110611822576118216136b6565b5b602002602001018181525050600181600181518110611844576118436136b6565b5b6020026020010181815250505f600267ffffffffffffffff81111561186c5761186b6128e6565b5b60405190808252806020026020018201604052801561189a5781602001602082028036833780820191505090505b50905084815f815181106118b1576118b06136b6565b5b602002602001019073ffffffffffffffffffffffffffffffffffffffff16908173ffffffffffffffffffffffffffffffffffffffff16815250508481600181518110611900576118ff6136b6565b5b602002602001019073ffffffffffffffffffffffffffffffffffffffff16908173ffffffffffffffffffffffffffffffffffffffff16815250505f6119458284610827565b9050805f8151811061195a576119596136b6565b5b60200260200101519450670de0b6b3a7640000856119789190613784565b94508060018151811061198e5761198d6136b6565b5b60200260200101519350505050915091565b5f7f01ffc9a7000000000000000000000000000000000000000000000000000000007bffffffffffffffffffffffffffffffffffffffffffffffffffffffff1916827bffffffffffffffffffffffffffffffffffffffffffffffffffffffff1916149050919050565b5f73ffffffffffffffffffffffffffffffffffffffff168473ffffffffffffffffffffffffffffffffffffffff1603611a79575f6040517f57f447ce000000000000000000000000000000000000000000000000000000008152600401611a70919061369d565b60405180910390fd5b5f80611a858585611e2e565b91509150611a965f87848487611e5e565b505050505050565b5f33905090565b5f73ffffffffffffffffffffffffffffffffffffffff168473ffffffffffffffffffffffffffffffffffffffff1603611b15575f6040517f57f447ce000000000000000000000000000000000000000000000000000000008152600401611b0c919061369d565b60405180910390fd5b5f73ffffffffffffffffffffffffffffffffffffffff168573ffffffffffffffffffffffffffffffffffffffff1603611b85575f6040517f01a83514000000000000000000000000000000000000000000000000000000008152600401611b7c919061369d565b60405180910390fd5b611b928585858585611e5e565b5050505050565b5f60208202602084010151905092915050565b5f60208202602084010151905092915050565b5f73ffffffffffffffffffffffffffffffffffffffff168273ffffffffffffffffffffffffffffffffffffffff1603611c2f575f6040517fced3e100000000000000000000000000000000000000000000000000000000008152600401611c26919061369d565b60405180910390fd5b8060015f8573ffffffffffffffffffffffffffffffffffffffff1673ffffffffffffffffffffffffffffffffffffffff1681526020019081526020015f205f8473ffffffffffffffffffffffffffffffffffffffff1673ffffffffffffffffffffffffffffffffffffffff1681526020019081526020015f205f6101000a81548160ff0219169083151502179055508173ffffffffffffffffffffffffffffffffffffffff168373ffffffffffffffffffffffffffffffffffffffff167f17307eab39ab6107e8899845ad3d59bd9653f200f220920489ca2b5937696c3183604051611d1b91906127f0565b60405180910390a3505050565b5f73ffffffffffffffffffffffffffffffffffffffff168473ffffffffffffffffffffffffffffffffffffffff1603611d98575f6040517f57f447ce000000000000000000000000000000000000000000000000000000008152600401611d8f919061369d565b60405180910390fd5b5f73ffffffffffffffffffffffffffffffffffffffff168573ffffffffffffffffffffffffffffffffffffffff1603611e08575f6040517f01a83514000000000000000000000000000000000000000000000000000000008152600401611dff919061369d565b60405180910390fd5b5f80611e148585611e2e565b91509150611e258787848487611e5e565b50505050505050565b60608060405191506001825283602083015260408201905060018152826020820152604081016040529250929050565b611e6a85858585611f0a565b5f73ffffffffffffffffffffffffffffffffffffffff168473ffffffffffffffffffffffffffffffffffffffff1614611f03575f611ea6611a9e565b90506001845103611ef2575f611ec55f86611bac90919063ffffffff16565b90505f611edb5f86611bac90919063ffffffff16565b9050611eeb8389898585896122a0565b5050611f01565b611f0081878787878761244f565b5b505b5050505050565b8051825114611f5457815181516040517f5b059991000000000000000000000000000000000000000000000000000000008152600401611f4b9291906134f7565b60405180910390fd5b5f611f5d611a9e565b90505f5b835181101561215f575f611f7e8286611bac90919063ffffffff16565b90505f611f948386611bac90919063ffffffff16565b90505f73ffffffffffffffffffffffffffffffffffffffff168873ffffffffffffffffffffffffffffffffffffffff16146120b7575f805f8481526020019081526020015f205f8a73ffffffffffffffffffffffffffffffffffffffff1673ffffffffffffffffffffffffffffffffffffffff1681526020019081526020015f205490508181101561206357888183856040517f03dee4c500000000000000000000000000000000000000000000000000000000815260040161205a9493929190613e04565b60405180910390fd5b8181035f808581526020019081526020015f205f8b73ffffffffffffffffffffffffffffffffffffffff1673ffffffffffffffffffffffffffffffffffffffff1681526020019081526020015f2081905550505b5f73ffffffffffffffffffffffffffffffffffffffff168773ffffffffffffffffffffffffffffffffffffffff161461214c57805f808481526020019081526020015f205f8973ffffffffffffffffffffffffffffffffffffffff1673ffffffffffffffffffffffffffffffffffffffff1681526020019081526020015f205f8282546121449190613e47565b925050819055505b50508061215890613710565b9050611f61565b50600183510361221a575f61217d5f85611bac90919063ffffffff16565b90505f6121935f85611bac90919063ffffffff16565b90508573ffffffffffffffffffffffffffffffffffffffff168773ffffffffffffffffffffffffffffffffffffffff168473ffffffffffffffffffffffffffffffffffffffff167fc3d58168c5ae7397731d063d5bbf3d657854427343f4c083240f7aacaa2d0f62858560405161220b9291906134f7565b60405180910390a45050612299565b8373ffffffffffffffffffffffffffffffffffffffff168573ffffffffffffffffffffffffffffffffffffffff168273ffffffffffffffffffffffffffffffffffffffff167f4a39dc06d4c0dbc64b70af90fd698a233a518aa5d07e595d983b8c0526c8f7fb8686604051612290929190613e7a565b60405180910390a45b5050505050565b5f8473ffffffffffffffffffffffffffffffffffffffff163b1115612447578373ffffffffffffffffffffffffffffffffffffffff1663f23a6e6187878686866040518663ffffffff1660e01b8152600401612300959493929190613f01565b6020604051808303815f875af192505050801561233b57506040513d601f19601f820116820180604052508101906123389190613f6d565b60015b6123bc573d805f8114612369576040519150601f19603f3d011682016040523d82523d5f602084013e61236e565b606091505b505f8151036123b457846040517f57f447ce0000000000000000000000000000000000000000000000000000000081526004016123ab919061369d565b60405180910390fd5b805181602001fd5b63f23a6e6160e01b7bffffffffffffffffffffffffffffffffffffffffffffffffffffffff1916817bffffffffffffffffffffffffffffffffffffffffffffffffffffffff19161461244557846040517f57f447ce00000000000000000000000000000000000000000000000000000000815260040161243c919061369d565b60405180910390fd5b505b505050505050565b5f8473ffffffffffffffffffffffffffffffffffffffff163b11156125f6578373ffffffffffffffffffffffffffffffffffffffff1663bc197c8187878686866040518663ffffffff1660e01b81526004016124af959493929190613f98565b6020604051808303815f875af19250505080156124ea57506040513d601f19601f820116820180604052508101906124e79190613f6d565b60015b61256b573d805f8114612518576040519150601f19603f3d011682016040523d82523d5f602084013e61251d565b606091505b505f81510361256357846040517f57f447ce00000000000000000000000000000000000000000000000000000000815260040161255a919061369d565b60405180910390fd5b805181602001fd5b63bc197c8160e01b7bffffffffffffffffffffffffffffffffffffffffffffffffffffffff1916817bffffffffffffffffffffffffffffffffffffffffffffffffffffffff1916146125f457846040517f57f447ce0000000000000000000000000000000000000000000000000000000081526004016125eb919061369d565b60405180910390fd5b505b505050505050565b6040518060e001604052805f81526020016060815260200160608152602001606081526020016060815260200160608152602001606081525090565b60405180604001604052805f81526020015f81525090565b5f604051905090565b5f80fd5b5f80fd5b5f73ffffffffffffffffffffffffffffffffffffffff82169050919050565b5f61268c82612663565b9050919050565b61269c81612682565b81146126a6575f80fd5b50565b5f813590506126b781612693565b92915050565b5f819050919050565b6126cf816126bd565b81146126d9575f80fd5b50565b5f813590506126ea816126c6565b92915050565b5f80604083850312156127065761270561265b565b5b5f612713858286016126a9565b9250506020612724858286016126dc565b9150509250929050565b612737816126bd565b82525050565b5f6020820190506127505f83018461272e565b92915050565b5f7fffffffff0000000000000000000000000000000000000000000000000000000082169050919050565b61278a81612756565b8114612794575f80fd5b50565b5f813590506127a581612781565b92915050565b5f602082840312156127c0576127bf61265b565b5b5f6127cd84828501612797565b91505092915050565b5f8115159050919050565b6127ea816127d6565b82525050565b5f6020820190506128035f8301846127e1565b92915050565b5f6020828403121561281e5761281d61265b565b5b5f61282b848285016126dc565b91505092915050565b5f81519050919050565b5f82825260208201905092915050565b5f5b8381101561286b578082015181840152602081019050612850565b5f8484015250505050565b5f601f19601f8301169050919050565b5f61289082612834565b61289a818561283e565b93506128aa81856020860161284e565b6128b381612876565b840191505092915050565b5f6020820190508181035f8301526128d68184612886565b905092915050565b5f80fd5b5f80fd5b7f4e487b71000000000000000000000000000000000000000000000000000000005f52604160045260245ffd5b61291c82612876565b810181811067ffffffffffffffff8211171561293b5761293a6128e6565b5b80604052505050565b5f61294d612652565b90506129598282612913565b919050565b5f67ffffffffffffffff821115612978576129776128e6565b5b61298182612876565b9050602081019050919050565b828183375f83830152505050565b5f6129ae6129a98461295e565b612944565b9050828152602081018484840111156129ca576129c96128e2565b5b6129d584828561298e565b509392505050565b5f82601f8301126129f1576129f06128de565b5b8135612a0184826020860161299c565b91505092915050565b5f805f805f805f60e0888a031215612a2557612a2461265b565b5b5f88013567ffffffffffffffff811115612a4257612a4161265f565b5b612a4e8a828b016129dd565b975050602088013567ffffffffffffffff811115612a6f57612a6e61265f565b5b612a7b8a828b016129dd565b965050604088013567ffffffffffffffff811115612a9c57612a9b61265f565b5b612aa88a828b016129dd565b955050606088013567ffffffffffffffff811115612ac957612ac861265f565b5b612ad58a828b016129dd565b945050608088013567ffffffffffffffff811115612af657612af561265f565b5b612b028a828b016129dd565b93505060a088013567ffffffffffffffff811115612b2357612b2261265f565b5b612b2f8a828b016129dd565b92505060c088013567ffffffffffffffff811115612b5057612b4f61265f565b5b612b5c8a828b016129dd565b91505092959891949750929550565b5f67ffffffffffffffff821115612b8557612b846128e6565b5b602082029050602081019050919050565b5f80fd5b5f612bac612ba784612b6b565b612944565b90508083825260208201905060208402830185811115612bcf57612bce612b96565b5b835b81811015612bf85780612be488826126dc565b845260208401935050602081019050612bd1565b5050509392505050565b5f82601f830112612c1657612c156128de565b5b8135612c26848260208601612b9a565b91505092915050565b5f67ffffffffffffffff821115612c4957612c486128e6565b5b612c5282612876565b9050602081019050919050565b5f612c71612c6c84612c2f565b612944565b905082815260208101848484011115612c8d57612c8c6128e2565b5b612c9884828561298e565b509392505050565b5f82601f830112612cb457612cb36128de565b5b8135612cc4848260208601612c5f565b91505092915050565b5f805f805f60a08688031215612ce657612ce561265b565b5b5f612cf3888289016126a9565b9550506020612d04888289016126a9565b945050604086013567ffffffffffffffff811115612d2557612d2461265f565b5b612d3188828901612c02565b935050606086013567ffffffffffffffff811115612d5257612d5161265f565b5b612d5e88828901612c02565b925050608086013567ffffffffffffffff811115612d7f57612d7e61265f565b5b612d8b88828901612ca0565b9150509295509295909350565b5f60208284031215612dad57612dac61265b565b5b5f612dba848285016126a9565b91505092915050565b5f67ffffffffffffffff821115612ddd57612ddc6128e6565b5b602082029050602081019050919050565b5f612e00612dfb84612dc3565b612944565b90508083825260208201905060208402830185811115612e2357612e22612b96565b5b835b81811015612e4c5780612e3888826126a9565b845260208401935050602081019050612e25565b5050509392505050565b5f82601f830112612e6a57612e696128de565b5b8135612e7a848260208601612dee565b91505092915050565b5f8060408385031215612e9957612e9861265b565b5b5f83013567ffffffffffffffff811115612eb657612eb561265f565b5b612ec285828601612e56565b925050602083013567ffffffffffffffff811115612ee357612ee261265f565b5b612eef85828601612c02565b9150509250929050565b5f81519050919050565b5f82825260208201905092915050565b5f819050602082019050919050565b612f2b816126bd565b82525050565b5f612f3c8383612f22565b60208301905092915050565b5f602082019050919050565b5f612f5e82612ef9565b612f688185612f03565b9350612f7383612f13565b805f5b83811015612fa3578151612f8a8882612f31565b9750612f9583612f48565b925050600181019050612f76565b5085935050505092915050565b5f6020820190508181035f830152612fc88184612f54565b905092915050565b612fd9816127d6565b8114612fe3575f80fd5b50565b5f81359050612ff481612fd0565b92915050565b5f80604083850312156130105761300f61265b565b5b5f61301d858286016126a9565b925050602061302e85828601612fe6565b9150509250929050565b5f81519050919050565b5f82825260208201905092915050565b5f819050602082019050919050565b5f82825260208201905092915050565b5f61307b82612834565b6130858185613061565b935061309581856020860161284e565b61309e81612876565b840191505092915050565b5f60e083015f8301516130be5f860182612f22565b50602083015184820360208601526130d68282613071565b915050604083015184820360408601526130f08282613071565b9150506060830151848203606086015261310a8282613071565b915050608083015184820360808601526131248282613071565b91505060a083015184820360a086015261313e8282613071565b91505060c083015184820360c08601526131588282613071565b9150508091505092915050565b5f61317083836130a9565b905092915050565b5f602082019050919050565b5f61318e82613038565b6131988185613042565b9350836020820285016131aa85613052565b805f5b858110156131e557848403895281516131c68582613165565b94506131d183613178565b925060208a019950506001810190506131ad565b50829750879550505050505092915050565b5f6020820190508181035f83015261320f8184613184565b905092915050565b5f806040838503121561322d5761322c61265b565b5b5f61323a858286016126dc565b925050602061324b858286016126dc565b9150509250929050565b5f81519050919050565b5f82825260208201905092915050565b5f819050602082019050919050565b604082015f8201516132925f850182612f22565b5060208201516132a56020850182612f22565b50505050565b5f6132b6838361327e565b60408301905092915050565b5f602082019050919050565b5f6132d882613255565b6132e2818561325f565b93506132ed8361326f565b805f5b8381101561331d57815161330488826132ab565b975061330f836132c2565b9250506001810190506132f0565b5085935050505092915050565b5f6020820190508181035f83015261334281846132ce565b905092915050565b5f60e083015f83015161335f5f860182612f22565b50602083015184820360208601526133778282613071565b915050604083015184820360408601526133918282613071565b915050606083015184820360608601526133ab8282613071565b915050608083015184820360808601526133c58282613071565b91505060a083015184820360a08601526133df8282613071565b91505060c083015184820360c08601526133f98282613071565b9150508091505092915050565b5f6020820190508181035f83015261341e818461334a565b905092915050565b5f806040838503121561343c5761343b61265b565b5b5f613449858286016126a9565b925050602061345a858286016126a9565b9150509250929050565b5f805f805f60a0868803121561347d5761347c61265b565b5b5f61348a888289016126a9565b955050602061349b888289016126a9565b94505060406134ac888289016126dc565b93505060606134bd888289016126dc565b925050608086013567ffffffffffffffff8111156134de576134dd61265f565b5b6134ea88828901612ca0565b9150509295509295909350565b5f60408201905061350a5f83018561272e565b613517602083018461272e565b9392505050565b7f4e487b71000000000000000000000000000000000000000000000000000000005f52602260045260245ffd5b5f600282049050600182168061356257607f821691505b6020821081036135755761357461351e565b5b50919050565b61358481612682565b82525050565b5f6101008201905061359e5f83018b61357b565b81810360208301526135b0818a612886565b905081810360408301526135c48189612886565b905081810360608301526135d88188612886565b905081810360808301526135ec8187612886565b905081810360a08301526136008186612886565b905081810360c08301526136148185612886565b905081810360e08301526136288184612886565b90509998505050505050505050565b5f81519050613645816126c6565b92915050565b5f602082840312156136605761365f61265b565b5b5f61366d84828501613637565b91505092915050565b5f6040820190506136895f83018561357b565b613696602083018461357b565b9392505050565b5f6020820190506136b05f83018461357b565b92915050565b7f4e487b71000000000000000000000000000000000000000000000000000000005f52603260045260245ffd5b7f4e487b71000000000000000000000000000000000000000000000000000000005f52601160045260245ffd5b5f61371a826126bd565b91507fffffffffffffffffffffffffffffffffffffffffffffffffffffffffffffffff820361374c5761374b6136e3565b5b600182019050919050565b7f4e487b71000000000000000000000000000000000000000000000000000000005f52601260045260245ffd5b5f61378e826126bd565b9150613799836126bd565b9250826137a9576137a8613757565b5b828204905092915050565b5f6137be826126bd565b91506137c9836126bd565b92508282026137d7816126bd565b915082820484148315176137ee576137ed6136e3565b5b5092915050565b5f6040820190506138085f83018561272e565b613815602083018461357b565b9392505050565b7f546865207573657220646f65736e2774206861766520616e79204e46547320285f8201527f4343542921000000000000000000000000000000000000000000000000000000602082015250565b5f61387660258361283e565b91506138818261381c565b604082019050919050565b5f6020820190508181035f8301526138a38161386a565b9050919050565b5f67ffffffffffffffff8211156138c4576138c36128e6565b5b602082029050602081019050919050565b5f80fd5b5f80fd5b5f6138ef6138ea8461295e565b612944565b90508281526020810184848401111561390b5761390a6128e2565b5b61391684828561284e565b509392505050565b5f82601f830112613932576139316128de565b5b81516139428482602086016138dd565b91505092915050565b5f60e082840312156139605761395f6138d5565b5b61396a60e0612944565b90505f61397984828501613637565b5f83015250602082015167ffffffffffffffff81111561399c5761399b6138d9565b5b6139a88482850161391e565b602083015250604082015167ffffffffffffffff8111156139cc576139cb6138d9565b5b6139d88482850161391e565b604083015250606082015167ffffffffffffffff8111156139fc576139fb6138d9565b5b613a088482850161391e565b606083015250608082015167ffffffffffffffff811115613a2c57613a2b6138d9565b5b613a388482850161391e565b60808301525060a082015167ffffffffffffffff811115613a5c57613a5b6138d9565b5b613a688482850161391e565b60a08301525060c082015167ffffffffffffffff811115613a8c57613a8b6138d9565b5b613a988482850161391e565b60c08301525092915050565b5f613ab6613ab1846138aa565b612944565b90508083825260208201905060208402830185811115613ad957613ad8612b96565b5b835b81811015613b2057805167ffffffffffffffff811115613afe57613afd6128de565b5b808601613b0b898261394b565b85526020850194505050602081019050613adb565b5050509392505050565b5f82601f830112613b3e57613b3d6128de565b5b8151613b4e848260208601613aa4565b91505092915050565b5f60208284031215613b6c57613b6b61265b565b5b5f82015167ffffffffffffffff811115613b8957613b8861265f565b5b613b9584828501613b2a565b91505092915050565b7f4e6f7420656e6f7567682073746f7261676520636f696e206c656674210000005f82015250565b5f613bd2601d8361283e565b9150613bdd82613b9e565b602082019050919050565b5f6020820190508181035f830152613bff81613bc6565b9050919050565b5f81519050613c1481612693565b92915050565b5f60208284031215613c2f57613c2e61265b565b5b5f613c3c84828501613c06565b91505092915050565b7f54686520746f6b656e20494420676976656e20666f7220746865204e465420695f8201527f73206e6f74206f776e6564206279207468652075736572000000000000000000602082015250565b5f613c9f60378361283e565b9150613caa82613c45565b604082019050919050565b5f6020820190508181035f830152613ccc81613c93565b9050919050565b5f606082019050613ce65f83018661357b565b613cf3602083018561357b565b613d00604083018461272e565b949350505050565b5f604082019050613d1b5f83018561357b565b613d28602083018461272e565b9392505050565b7f546865207573657220686173207375636365737366756c6c792072656e7465645f8201527f2073657276657220616e64206469736b2073706163652e000000000000000000602082015250565b5f613d8960378361283e565b9150613d9482613d2f565b604082019050919050565b5f6020820190508181035f830152613db681613d7d565b9050919050565b5f60208284031215613dd257613dd161265b565b5b5f82015167ffffffffffffffff811115613def57613dee61265f565b5b613dfb8482850161394b565b91505092915050565b5f608082019050613e175f83018761357b565b613e24602083018661272e565b613e31604083018561272e565b613e3e606083018461272e565b95945050505050565b5f613e51826126bd565b9150613e5c836126bd565b9250828201905080821115613e7457613e736136e3565b5b92915050565b5f6040820190508181035f830152613e928185612f54565b90508181036020830152613ea68184612f54565b90509392505050565b5f81519050919050565b5f82825260208201905092915050565b5f613ed382613eaf565b613edd8185613eb9565b9350613eed81856020860161284e565b613ef681612876565b840191505092915050565b5f60a082019050613f145f83018861357b565b613f21602083018761357b565b613f2e604083018661272e565b613f3b606083018561272e565b8181036080830152613f4d8184613ec9565b90509695505050505050565b5f81519050613f6781612781565b92915050565b5f60208284031215613f8257613f8161265b565b5b5f613f8f84828501613f59565b91505092915050565b5f60a082019050613fab5f83018861357b565b613fb8602083018761357b565b8181036040830152613fca8186612f54565b90508181036060830152613fde8185612f54565b90508181036080830152613ff28184613ec9565b9050969550505050505056fea2646970667358221220852b3554b7ee00ec723ea504ab0dedabb3550e5b359cdb59df946d17cffb139764736f6c63430008140033",
  "immutableReferences": {},
  "source": "// SPDX-License-Identifier: MIT\r\npragma solidity ^0.8.18;\r\n\r\nimport \"@openzeppelin/contracts/token/ERC1155/ERC1155.sol\";\r\nimport \"./CCT_ERC721.sol\";\r\nimport \"./CST_ERC20.sol\";\r\n\r\ncontract CloudAsABlockchainToken is ERC1155 {\r\n    CloudStoragetoken private cstToken;\r\n    CloudConfigToken private cctToken;\r\n    uint256 public constant CST_ERC20_Token = 0;\r\n    uint256 public constant CCT_ERC721_Token = 1;\r\n    struct Data {\r\n        uint256 cstAmount;\r\n        uint256 cctTokenID;\r\n    }\r\n    address owner;\r\n    uint tokenID = 1;\r\n    mapping(uint => Data) rentalDetails;\r\n    mapping(address => uint256[]) rentalIDs;\r\n\r\n    modifier tokenAvailable(address user,uint256 amt) {\r\n        require(\r\n            getCSTBalance(user) >= amt,\r\n            \"Not enough storage coin left!\"\r\n        );\r\n        _;\r\n    }\r\n\r\n    modifier onlyOwner (address user) {\r\n        require(\r\n          user==owner,\r\n          \"The user is not the owner! Function can only be called by the owner of the contract.\"  \r\n        );\r\n        _;\r\n    }\r\n\r\n    modifier CCTAvailable(address user) {\r\n        require(\r\n            cctToken.balanceOf(user)>0,\r\n            \"The user doesn't have any NFTs (CCT)!\"\r\n        );\r\n        _;\r\n    }\r\n\r\n    modifier NFTOwnership(address user, uint256 tokenid) {\r\n        require(\r\n          cctToken.ownerOf(tokenid) == user,\r\n          \"The token ID given for the NFT is not owned by the user\"  \r\n        );\r\n        _;\r\n    }\r\n\r\n    event rentalSuccess(string message);\r\n    \r\n    constructor(address cstTokenAddress, address cctTokenAddress) ERC1155(\"URI\") {\r\n        cstToken = CloudStoragetoken(cstTokenAddress);\r\n        cctToken = CloudConfigToken(cctTokenAddress);\r\n        owner = msg.sender;\r\n        _mint(msg.sender,CST_ERC20_Token,1000000*(10 ** 18), \"\");\r\n    }\r\n\r\n    // function setURI(string memory newURI) external {\r\n    //     _setURI(newURI);\r\n    // }\r\n\r\n    function transferinBatch(uint256 cctTokenID, uint256 cstAmount) public tokenAvailable(msg.sender,cstAmount) NFTOwnership(msg.sender,cctTokenID) \r\n    {\r\n        uint256[] memory ids = new uint256[](2);\r\n        ids[0] = CST_ERC20_Token;\r\n        ids[1] = CCT_ERC721_Token;\r\n        uint256[] memory amounts = new uint256[](2);\r\n        amounts[0] = cstAmount*(10**18);\r\n        amounts[1] = cctTokenID;\r\n        // uint256[] string amounts = [cstAmount*(10 ** 18),cctTokenID];\r\n        safeBatchTransferFrom(msg.sender,owner,ids,amounts,\"\");\r\n    }\r\n\r\n\r\n    function rentCloudDiskandServer(uint256 cctTokenID, uint256 cstAmount) external tokenAvailable(msg.sender,cstAmount) NFTOwnership(msg.sender,cctTokenID) \r\n    {    \r\n        // Transfer ERC20 tokens from the sender to the contract\r\n        cstToken.transferCSTToken(msg.sender, owner, cstAmount*(10 ** 18));\r\n        cstToken.rentStorage(msg.sender,cstAmount);\r\n        \r\n        // Transfer ERC721 token from the sender to the owner\r\n        // cctToken.safeTransferFrom(msg.sender, owner, cctTokenID);\r\n        cctToken.transferCCT(msg.sender,owner,cctTokenID);\r\n        cctToken.transferOwnership(msg.sender, owner, cctTokenID);\r\n        \r\n        // Mint ERC1155 tokens to the sender\r\n        // _mint(msg.sender, tokenID, 1, \"\");\r\n        transferinBatch(cctTokenID,cstAmount);\r\n        rentalIDs[msg.sender].push(tokenID);\r\n        rentalDetails[tokenID] = Data(cstAmount,cctTokenID);\r\n        tokenID++;\r\n        emit rentalSuccess(\"The user has successfully rented server and disk space.\");\r\n    }\r\n\r\n    function getBalance(address user) public view returns (\r\n        uint256 cst_balance,\r\n        uint256 cct_balance\r\n    )\r\n    {\r\n        uint256[] memory ids = new uint256[](2);\r\n        ids[0] = CST_ERC20_Token;\r\n        ids[1] = CCT_ERC721_Token;\r\n        address[] memory add = new address[](2);\r\n        add[0] = user;\r\n        add[1] = user;\r\n        uint256[] memory test = balanceOfBatch(add, ids);\r\n        cst_balance = test[0];\r\n        cst_balance /= (10 ** 18);\r\n        cct_balance = test[1];\r\n    }\r\n\r\n    // function transferTokensToSomeone(address toaddress, uint256 cctTokenID, uint256 cstAmount) external {\r\n        \r\n    //     // Transfer ERC20 tokens from the sender to the contract\r\n    //     cstToken.transferCSTToken(msg.sender, toaddress, cstAmount*(10 ** 18));\r\n    //     cstToken.rentStorage(msg.sender,cstAmount);\r\n        \r\n    //     // Transfer ERC721 token from the sender to the owner\r\n    //     cctToken.safeTransferFrom(msg.sender, toaddress, cctTokenID);\r\n    //     cctToken.transferOwnership(msg.sender, toaddress, cctTokenID);\r\n        \r\n    //     // Mint ERC1155 tokens to the sender\r\n    //     _mint(msg.sender, tokenID, 1, \"\");\r\n    //     rentalIDs[msg.sender].push(tokenID);\r\n    //     rentalDetails[tokenID] = Data(cstAmount,cctTokenID);\r\n    //     tokenID++;\r\n    // }\r\n\r\n    function getCSTBalance(address user) public view returns (\r\n        uint balance\r\n    ){\r\n        balance = cstToken.balanceOf(user);\r\n        balance /= (10 ** 18);\r\n    }\r\n\r\n    function getDiskStorageRented(address user) public view returns (\r\n        uint storageRented\r\n    ){\r\n        storageRented = cstToken.getUserStorageBalance(user);\r\n    }\r\n\r\n    function getConfigDetails(address user) public view CCTAvailable(user) returns (\r\n        CloudConfigToken.ServerConfiguration[] memory\r\n    ){\r\n        CloudConfigToken.ServerConfiguration[] memory configs = new CloudConfigToken.ServerConfiguration[](5);\r\n        configs = cctToken.getConfigList(user);\r\n        return configs;\r\n    }\r\n\r\n    function buyCST(uint256 amount) external  {\r\n        cstToken.buyToken(amount*(10 ** 18), msg.sender);\r\n        _mint(msg.sender,CST_ERC20_Token,amount*(10 ** 18), \"\");\r\n\r\n    }\r\n\r\n    function buyCCT(\r\n        string memory gpu,\r\n        string memory processor,\r\n        string memory ram,\r\n        string memory cores,\r\n        string memory os,\r\n        string memory imageURL,\r\n        string memory uri\r\n    ) external {\r\n        uint256 token = cctToken.mintConfigToken(msg.sender,gpu, processor, ram, cores, os, imageURL,uri);\r\n        _mint(msg.sender,CCT_ERC721_Token,token,\"\");\r\n    }\r\n\r\n    function getRentalDetails(address user) public view returns (\r\n        Data[] memory\r\n    ) {\r\n        uint256[] memory arr = rentalIDs[user];\r\n        Data[] memory configs = new Data[](arr.length);        \r\n        for (uint i=0; i<arr.length ; i++){\r\n            configs[i]= rentalDetails[arr[i]];\r\n        }\r\n        return configs;\r\n    }\r\n\r\n    function getTokenDetails(uint256 tokenId) public view returns (\r\n        CloudConfigToken.ServerConfiguration memory ret\r\n    ) {\r\n        ret = cctToken.getConfigData(tokenId); \r\n    }\r\n\r\n}\r\n",
  "sourcePath": "C:\\Users\\parth\\Downloads\\College\\Fall 2023\\Blockchain\\Caab\\Cloud-as-a-Blockchain-CaaB-\\caab-contract\\contracts\\CAB_ERC1155.sol",
  "compiler": {
    "name": "solc",
    "version": "0.8.20+commit.a1b79de6.Emscripten.clang"
  },
  "schemaVersion": "3.4.16",
  "updatedAt": "2023-12-03T19:39:38.434Z",
  "networkType": "ethereum",
  "devdoc": {
    "errors": {
      "ERC1155InsufficientBalance(address,uint256,uint256,uint256)": [
        {
          "details": "Indicates an error related to the current `balance` of a `sender`. Used in transfers.",
          "params": {
            "balance": "Current balance for the interacting account.",
            "needed": "Minimum amount required to perform a transfer.",
            "sender": "Address whose tokens are being transferred.",
            "tokenId": "Identifier number of a token."
          }
        }
      ],
      "ERC1155InvalidApprover(address)": [
        {
          "details": "Indicates a failure with the `approver` of a token to be approved. Used in approvals.",
          "params": {
            "approver": "Address initiating an approval operation."
          }
        }
      ],
      "ERC1155InvalidArrayLength(uint256,uint256)": [
        {
          "details": "Indicates an array length mismatch between ids and values in a safeBatchTransferFrom operation. Used in batch transfers.",
          "params": {
            "idsLength": "Length of the array of token identifiers",
            "valuesLength": "Length of the array of token amounts"
          }
        }
      ],
      "ERC1155InvalidOperator(address)": [
        {
          "details": "Indicates a failure with the `operator` to be approved. Used in approvals.",
          "params": {
            "operator": "Address that may be allowed to operate on tokens without being their owner."
          }
        }
      ],
      "ERC1155InvalidReceiver(address)": [
        {
          "details": "Indicates a failure with the token `receiver`. Used in transfers.",
          "params": {
            "receiver": "Address to which tokens are being transferred."
          }
        }
      ],
      "ERC1155InvalidSender(address)": [
        {
          "details": "Indicates a failure with the token `sender`. Used in transfers.",
          "params": {
            "sender": "Address whose tokens are being transferred."
          }
        }
      ],
      "ERC1155MissingApprovalForAll(address,address)": [
        {
          "details": "Indicates a failure with the `operator`s approval. Used in transfers.",
          "params": {
            "operator": "Address that may be allowed to operate on tokens without being their owner.",
            "owner": "Address of the current owner of a token."
          }
        }
      ]
    },
    "events": {
      "ApprovalForAll(address,address,bool)": {
        "details": "Emitted when `account` grants or revokes permission to `operator` to transfer their tokens, according to `approved`."
      },
      "TransferBatch(address,address,address,uint256[],uint256[])": {
        "details": "Equivalent to multiple {TransferSingle} events, where `operator`, `from` and `to` are the same for all transfers."
      },
      "TransferSingle(address,address,address,uint256,uint256)": {
        "details": "Emitted when `value` amount of tokens of type `id` are transferred from `from` to `to` by `operator`."
      },
      "URI(string,uint256)": {
        "details": "Emitted when the URI for token type `id` changes to `value`, if it is a non-programmatic URI. If an {URI} event was emitted for `id`, the standard https://eips.ethereum.org/EIPS/eip-1155#metadata-extensions[guarantees] that `value` will equal the value returned by {IERC1155MetadataURI-uri}."
      }
    },
    "kind": "dev",
    "methods": {
      "balanceOf(address,uint256)": {
        "details": "See {IERC1155-balanceOf}."
      },
      "balanceOfBatch(address[],uint256[])": {
        "details": "See {IERC1155-balanceOfBatch}. Requirements: - `accounts` and `ids` must have the same length."
      },
      "isApprovedForAll(address,address)": {
        "details": "See {IERC1155-isApprovedForAll}."
      },
      "safeBatchTransferFrom(address,address,uint256[],uint256[],bytes)": {
        "details": "See {IERC1155-safeBatchTransferFrom}."
      },
      "safeTransferFrom(address,address,uint256,uint256,bytes)": {
        "details": "See {IERC1155-safeTransferFrom}."
      },
      "setApprovalForAll(address,bool)": {
        "details": "See {IERC1155-setApprovalForAll}."
      },
      "supportsInterface(bytes4)": {
        "details": "See {IERC165-supportsInterface}."
      },
      "uri(uint256)": {
        "details": "See {IERC1155MetadataURI-uri}. This implementation returns the same URI for *all* token types. It relies on the token type ID substitution mechanism https://eips.ethereum.org/EIPS/eip-1155#metadata[defined in the EIP]. Clients calling this function must replace the `\\{id\\}` substring with the actual token type ID."
      }
    },
    "version": 1
  },
  "userdoc": {
    "kind": "user",
    "methods": {},
    "version": 1
  }
}