{
  "contractName": "CloudStoragetoken",
  "abi": [
    {
      "inputs": [
        {
          "internalType": "uint256",
          "name": "value",
          "type": "uint256"
        }
      ],
      "stateMutability": "nonpayable",
      "type": "constructor"
    },
    {
      "inputs": [
        {
          "internalType": "address",
          "name": "spender",
          "type": "address"
        },
        {
          "internalType": "uint256",
          "name": "allowance",
          "type": "uint256"
        },
        {
          "internalType": "uint256",
          "name": "needed",
          "type": "uint256"
        }
      ],
      "name": "ERC20InsufficientAllowance",
      "type": "error"
    },
    {
      "inputs": [
        {
          "internalType": "address",
          "name": "sender",
          "type": "address"
        },
        {
          "internalType": "uint256",
          "name": "balance",
          "type": "uint256"
        },
        {
          "internalType": "uint256",
          "name": "needed",
          "type": "uint256"
        }
      ],
      "name": "ERC20InsufficientBalance",
      "type": "error"
    },
    {
      "inputs": [
        {
          "internalType": "address",
          "name": "approver",
          "type": "address"
        }
      ],
      "name": "ERC20InvalidApprover",
      "type": "error"
    },
    {
      "inputs": [
        {
          "internalType": "address",
          "name": "receiver",
          "type": "address"
        }
      ],
      "name": "ERC20InvalidReceiver",
      "type": "error"
    },
    {
      "inputs": [
        {
          "internalType": "address",
          "name": "sender",
          "type": "address"
        }
      ],
      "name": "ERC20InvalidSender",
      "type": "error"
    },
    {
      "inputs": [
        {
          "internalType": "address",
          "name": "spender",
          "type": "address"
        }
      ],
      "name": "ERC20InvalidSpender",
      "type": "error"
    },
    {
      "anonymous": false,
      "inputs": [
        {
          "indexed": true,
          "internalType": "address",
          "name": "owner",
          "type": "address"
        },
        {
          "indexed": true,
          "internalType": "address",
          "name": "spender",
          "type": "address"
        },
        {
          "indexed": false,
          "internalType": "uint256",
          "name": "value",
          "type": "uint256"
        }
      ],
      "name": "Approval",
      "type": "event"
    },
    {
      "anonymous": false,
      "inputs": [
        {
          "indexed": true,
          "internalType": "address",
          "name": "from",
          "type": "address"
        },
        {
          "indexed": true,
          "internalType": "address",
          "name": "to",
          "type": "address"
        },
        {
          "indexed": false,
          "internalType": "uint256",
          "name": "value",
          "type": "uint256"
        }
      ],
      "name": "Transfer",
      "type": "event"
    },
    {
      "anonymous": false,
      "inputs": [
        {
          "indexed": false,
          "internalType": "string",
          "name": "message",
          "type": "string"
        }
      ],
      "name": "storageRented",
      "type": "event"
    },
    {
      "inputs": [
        {
          "internalType": "address",
          "name": "owner",
          "type": "address"
        },
        {
          "internalType": "address",
          "name": "spender",
          "type": "address"
        }
      ],
      "name": "allowance",
      "outputs": [
        {
          "internalType": "uint256",
          "name": "",
          "type": "uint256"
        }
      ],
      "stateMutability": "view",
      "type": "function",
      "constant": true
    },
    {
      "inputs": [
        {
          "internalType": "address",
          "name": "spender",
          "type": "address"
        },
        {
          "internalType": "uint256",
          "name": "value",
          "type": "uint256"
        }
      ],
      "name": "approve",
      "outputs": [
        {
          "internalType": "bool",
          "name": "",
          "type": "bool"
        }
      ],
      "stateMutability": "nonpayable",
      "type": "function"
    },
    {
      "inputs": [],
      "name": "availableStorage",
      "outputs": [
        {
          "internalType": "uint256",
          "name": "",
          "type": "uint256"
        }
      ],
      "stateMutability": "view",
      "type": "function",
      "constant": true
    },
    {
      "inputs": [
        {
          "internalType": "address",
          "name": "account",
          "type": "address"
        }
      ],
      "name": "balanceOf",
      "outputs": [
        {
          "internalType": "uint256",
          "name": "",
          "type": "uint256"
        }
      ],
      "stateMutability": "view",
      "type": "function",
      "constant": true
    },
    {
      "inputs": [],
      "name": "decimals",
      "outputs": [
        {
          "internalType": "uint8",
          "name": "",
          "type": "uint8"
        }
      ],
      "stateMutability": "view",
      "type": "function",
      "constant": true
    },
    {
      "inputs": [],
      "name": "name",
      "outputs": [
        {
          "internalType": "string",
          "name": "",
          "type": "string"
        }
      ],
      "stateMutability": "view",
      "type": "function",
      "constant": true
    },
    {
      "inputs": [
        {
          "internalType": "address",
          "name": "",
          "type": "address"
        }
      ],
      "name": "storageBalances",
      "outputs": [
        {
          "internalType": "uint256",
          "name": "",
          "type": "uint256"
        }
      ],
      "stateMutability": "view",
      "type": "function",
      "constant": true
    },
    {
      "inputs": [],
      "name": "symbol",
      "outputs": [
        {
          "internalType": "string",
          "name": "",
          "type": "string"
        }
      ],
      "stateMutability": "view",
      "type": "function",
      "constant": true
    },
    {
      "inputs": [],
      "name": "totalSupply",
      "outputs": [
        {
          "internalType": "uint256",
          "name": "",
          "type": "uint256"
        }
      ],
      "stateMutability": "view",
      "type": "function",
      "constant": true
    },
    {
      "inputs": [
        {
          "internalType": "address",
          "name": "to",
          "type": "address"
        },
        {
          "internalType": "uint256",
          "name": "value",
          "type": "uint256"
        }
      ],
      "name": "transfer",
      "outputs": [
        {
          "internalType": "bool",
          "name": "",
          "type": "bool"
        }
      ],
      "stateMutability": "nonpayable",
      "type": "function"
    },
    {
      "inputs": [
        {
          "internalType": "address",
          "name": "from",
          "type": "address"
        },
        {
          "internalType": "address",
          "name": "to",
          "type": "address"
        },
        {
          "internalType": "uint256",
          "name": "value",
          "type": "uint256"
        }
      ],
      "name": "transferFrom",
      "outputs": [
        {
          "internalType": "bool",
          "name": "",
          "type": "bool"
        }
      ],
      "stateMutability": "nonpayable",
      "type": "function"
    },
    {
      "inputs": [
        {
          "internalType": "address",
          "name": "user",
          "type": "address"
        },
        {
          "internalType": "uint256",
          "name": "diskrented",
          "type": "uint256"
        }
      ],
      "name": "rentStorage",
      "outputs": [],
      "stateMutability": "nonpayable",
      "type": "function"
    },
    {
      "inputs": [],
      "name": "getAvailableStorage",
      "outputs": [
        {
          "internalType": "uint256",
          "name": "",
          "type": "uint256"
        }
      ],
      "stateMutability": "view",
      "type": "function",
      "constant": true
    },
    {
      "inputs": [
        {
          "internalType": "address",
          "name": "user",
          "type": "address"
        }
      ],
      "name": "getUserStorageBalance",
      "outputs": [
        {
          "internalType": "uint256",
          "name": "",
          "type": "uint256"
        }
      ],
      "stateMutability": "view",
      "type": "function",
      "constant": true
    },
    {
      "inputs": [
        {
          "internalType": "uint256",
          "name": "amount",
          "type": "uint256"
        },
        {
          "internalType": "address",
          "name": "user",
          "type": "address"
        }
      ],
      "name": "buyToken",
      "outputs": [],
      "stateMutability": "nonpayable",
      "type": "function"
    },
    {
      "inputs": [
        {
          "internalType": "address",
          "name": "from",
          "type": "address"
        },
        {
          "internalType": "address",
          "name": "to",
          "type": "address"
        },
        {
          "internalType": "uint256",
          "name": "value",
          "type": "uint256"
        }
      ],
      "name": "transferCSTToken",
      "outputs": [],
      "stateMutability": "nonpayable",
      "type": "function"
    }
  ],
  "bytecode": "0x608060405234801562000010575f80fd5b5060405162001cc038038062001cc0833981810160405281019062000036919062000455565b6040518060400160405280601381526020017f436c6f75642053746f7261676520546f6b656e000000000000000000000000008152506040518060400160405280600381526020017f43535400000000000000000000000000000000000000000000000000000000008152508160039081620000b39190620006e0565b508060049081620000c59190620006e0565b5050503360065f6101000a81548173ffffffffffffffffffffffffffffffffffffffff021916908373ffffffffffffffffffffffffffffffffffffffff160217905550600581620001179190620007f1565b6005819055506200015c33620001326200016360201b60201c565b60ff16600a6200014391906200098b565b83620001509190620007f1565b6200016b60201b60201c565b5062000ada565b5f6012905090565b5f73ffffffffffffffffffffffffffffffffffffffff168273ffffffffffffffffffffffffffffffffffffffff1603620001de575f6040517fec442f05000000000000000000000000000000000000000000000000000000008152600401620001d5919062000a1e565b60405180910390fd5b620001f15f8383620001f560201b60201c565b5050565b5f73ffffffffffffffffffffffffffffffffffffffff168373ffffffffffffffffffffffffffffffffffffffff160362000249578060025f8282546200023c919062000a39565b925050819055506200031a565b5f805f8573ffffffffffffffffffffffffffffffffffffffff1673ffffffffffffffffffffffffffffffffffffffff1681526020019081526020015f2054905081811015620002d5578381836040517fe450d38c000000000000000000000000000000000000000000000000000000008152600401620002cc9392919062000a84565b60405180910390fd5b8181035f808673ffffffffffffffffffffffffffffffffffffffff1673ffffffffffffffffffffffffffffffffffffffff1681526020019081526020015f2081905550505b5f73ffffffffffffffffffffffffffffffffffffffff168273ffffffffffffffffffffffffffffffffffffffff160362000363578060025f8282540392505081905550620003ad565b805f808473ffffffffffffffffffffffffffffffffffffffff1673ffffffffffffffffffffffffffffffffffffffff1681526020019081526020015f205f82825401925050819055505b8173ffffffffffffffffffffffffffffffffffffffff168373ffffffffffffffffffffffffffffffffffffffff167fddf252ad1be2c89b69c2b068fc378daa952ba7f163c4a11628f55a4df523b3ef836040516200040c919062000abf565b60405180910390a3505050565b5f80fd5b5f819050919050565b62000431816200041d565b81146200043c575f80fd5b50565b5f815190506200044f8162000426565b92915050565b5f602082840312156200046d576200046c62000419565b5b5f6200047c848285016200043f565b91505092915050565b5f81519050919050565b7f4e487b71000000000000000000000000000000000000000000000000000000005f52604160045260245ffd5b7f4e487b71000000000000000000000000000000000000000000000000000000005f52602260045260245ffd5b5f60028204905060018216806200050157607f821691505b602082108103620005175762000516620004bc565b5b50919050565b5f819050815f5260205f209050919050565b5f6020601f8301049050919050565b5f82821b905092915050565b5f600883026200057b7fffffffffffffffffffffffffffffffffffffffffffffffffffffffffffffffff826200053e565b6200058786836200053e565b95508019841693508086168417925050509392505050565b5f819050919050565b5f620005c8620005c2620005bc846200041d565b6200059f565b6200041d565b9050919050565b5f819050919050565b620005e383620005a8565b620005fb620005f282620005cf565b8484546200054a565b825550505050565b5f90565b6200061162000603565b6200061e818484620005d8565b505050565b5b818110156200064557620006395f8262000607565b60018101905062000624565b5050565b601f82111562000694576200065e816200051d565b62000669846200052f565b8101602085101562000679578190505b6200069162000688856200052f565b83018262000623565b50505b505050565b5f82821c905092915050565b5f620006b65f198460080262000699565b1980831691505092915050565b5f620006d08383620006a5565b9150826002028217905092915050565b620006eb8262000485565b67ffffffffffffffff8111156200070757620007066200048f565b5b620007138254620004e9565b6200072082828562000649565b5f60209050601f83116001811462000756575f841562000741578287015190505b6200074d8582620006c3565b865550620007bc565b601f19841662000766866200051d565b5f5b828110156200078f5784890151825560018201915060208501945060208101905062000768565b86831015620007af5784890151620007ab601f891682620006a5565b8355505b6001600288020188555050505b505050505050565b7f4e487b71000000000000000000000000000000000000000000000000000000005f52601160045260245ffd5b5f620007fd826200041d565b91506200080a836200041d565b92508282026200081a816200041d565b91508282048414831517620008345762000833620007c4565b5b5092915050565b5f8160011c9050919050565b5f808291508390505b6001851115620008985780860481111562000870576200086f620007c4565b5b6001851615620008805780820291505b808102905062000890856200083b565b945062000850565b94509492505050565b5f82620008b2576001905062000984565b81620008c1575f905062000984565b8160018114620008da5760028114620008e5576200091b565b600191505062000984565b60ff841115620008fa57620008f9620007c4565b5b8360020a915084821115620009145762000913620007c4565b5b5062000984565b5060208310610133831016604e8410600b8410161715620009555782820a9050838111156200094f576200094e620007c4565b5b62000984565b62000964848484600162000847565b925090508184048111156200097e576200097d620007c4565b5b81810290505b9392505050565b5f62000997826200041d565b9150620009a4836200041d565b9250620009d37fffffffffffffffffffffffffffffffffffffffffffffffffffffffffffffffff8484620008a1565b905092915050565b5f73ffffffffffffffffffffffffffffffffffffffff82169050919050565b5f62000a0682620009db565b9050919050565b62000a1881620009fa565b82525050565b5f60208201905062000a335f83018462000a0d565b92915050565b5f62000a45826200041d565b915062000a52836200041d565b925082820190508082111562000a6d5762000a6c620007c4565b5b92915050565b62000a7e816200041d565b82525050565b5f60608201905062000a995f83018662000a0d565b62000aa8602083018562000a73565b62000ab7604083018462000a73565b949350505050565b5f60208201905062000ad45f83018462000a73565b92915050565b6111d88062000ae85f395ff3fe608060405234801561000f575f80fd5b50600436106100fe575f3560e01c8063313ce5671161009557806395d89b411161006457806395d89b41146102be578063a9059cbb146102dc578063dd62ed3e1461030c578063e973baec1461033c576100fe565b8063313ce567146102385780634cc360051461025657806370a08231146102725780639134709e146102a2576100fe565b806318160ddd116100d157806318160ddd1461019c578063192c8b27146101ba5780631a6f33b6146101ea57806323b872dd14610208576100fe565b806306bd04d21461010257806306fdde03146101325780630832065b14610150578063095ea7b31461016c575b5f80fd5b61011c60048036038101906101179190610d0b565b61035a565b6040516101299190610d4e565b60405180910390f35b61013a61036f565b6040516101479190610df1565b60405180910390f35b61016a60048036038101906101659190610e3b565b6103ff565b005b61018660048036038101906101819190610e8b565b61040f565b6040516101939190610ee3565b60405180910390f35b6101a4610431565b6040516101b19190610d4e565b60405180910390f35b6101d460048036038101906101cf9190610d0b565b61043a565b6040516101e19190610d4e565b60405180910390f35b6101f2610480565b6040516101ff9190610d4e565b60405180910390f35b610222600480360381019061021d9190610e3b565b610489565b60405161022f9190610ee3565b60405180910390f35b6102406104b7565b60405161024d9190610f17565b60405180910390f35b610270600480360381019061026b9190610e8b565b6104bf565b005b61028c60048036038101906102879190610d0b565b61057b565b6040516102999190610d4e565b60405180910390f35b6102bc60048036038101906102b79190610f30565b6105c0565b005b6102c66105f0565b6040516102d39190610df1565b60405180910390f35b6102f660048036038101906102f19190610e8b565b610680565b6040516103039190610ee3565b60405180910390f35b61032660048036038101906103219190610f6e565b6106a2565b6040516103339190610d4e565b60405180910390f35b610344610724565b6040516103519190610d4e565b60405180910390f35b6007602052805f5260405f205f915090505481565b60606003805461037e90610fd9565b80601f01602080910402602001604051908101604052809291908181526020018280546103aa90610fd9565b80156103f55780601f106103cc576101008083540402835291602001916103f5565b820191905f5260205f20905b8154815290600101906020018083116103d857829003601f168201915b5050505050905090565b61040a83838361072a565b505050565b5f8061041961081a565b9050610426818585610821565b600191505092915050565b5f600254905090565b5f60075f8373ffffffffffffffffffffffffffffffffffffffff1673ffffffffffffffffffffffffffffffffffffffff1681526020019081526020015f20549050919050565b5f600554905090565b5f8061049361081a565b90506104a0858285610833565b6104ab85858561072a565b60019150509392505050565b5f6012905090565b6005816104cc9190611036565b60075f8473ffffffffffffffffffffffffffffffffffffffff1673ffffffffffffffffffffffffffffffffffffffff1681526020019081526020015f205f8282546105179190611077565b9250508190555060058161052b9190611036565b60055f82825461053b91906110aa565b925050819055507fed89b845643270a8bb65182e5ccd3a33cb988bda2bd8959254e335edb813e37d60405161056f90611127565b60405180910390a15050565b5f805f8373ffffffffffffffffffffffffffffffffffffffff1673ffffffffffffffffffffffffffffffffffffffff1681526020019081526020015f20549050919050565b6105ec60065f9054906101000a900473ffffffffffffffffffffffffffffffffffffffff16828461072a565b5050565b6060600480546105ff90610fd9565b80601f016020809104026020016040519081016040528092919081815260200182805461062b90610fd9565b80156106765780601f1061064d57610100808354040283529160200191610676565b820191905f5260205f20905b81548152906001019060200180831161065957829003601f168201915b5050505050905090565b5f8061068a61081a565b905061069781858561072a565b600191505092915050565b5f60015f8473ffffffffffffffffffffffffffffffffffffffff1673ffffffffffffffffffffffffffffffffffffffff1681526020019081526020015f205f8373ffffffffffffffffffffffffffffffffffffffff1673ffffffffffffffffffffffffffffffffffffffff1681526020019081526020015f2054905092915050565b60055481565b5f73ffffffffffffffffffffffffffffffffffffffff168373ffffffffffffffffffffffffffffffffffffffff160361079a575f6040517f96c6fd1e0000000000000000000000000000000000000000000000000000000081526004016107919190611154565b60405180910390fd5b5f73ffffffffffffffffffffffffffffffffffffffff168273ffffffffffffffffffffffffffffffffffffffff160361080a575f6040517fec442f050000000000000000000000000000000000000000000000000000000081526004016108019190611154565b60405180910390fd5b6108158383836108c5565b505050565b5f33905090565b61082e8383836001610ade565b505050565b5f61083e84846106a2565b90507fffffffffffffffffffffffffffffffffffffffffffffffffffffffffffffffff81146108bf57818110156108b0578281836040517ffb8f41b20000000000000000000000000000000000000000000000000000000081526004016108a79392919061116d565b60405180910390fd5b6108be84848484035f610ade565b5b50505050565b5f73ffffffffffffffffffffffffffffffffffffffff168373ffffffffffffffffffffffffffffffffffffffff1603610915578060025f8282546109099190611077565b925050819055506109e3565b5f805f8573ffffffffffffffffffffffffffffffffffffffff1673ffffffffffffffffffffffffffffffffffffffff1681526020019081526020015f205490508181101561099e578381836040517fe450d38c0000000000000000000000000000000000000000000000000000000081526004016109959392919061116d565b60405180910390fd5b8181035f808673ffffffffffffffffffffffffffffffffffffffff1673ffffffffffffffffffffffffffffffffffffffff1681526020019081526020015f2081905550505b5f73ffffffffffffffffffffffffffffffffffffffff168273ffffffffffffffffffffffffffffffffffffffff1603610a2a578060025f8282540392505081905550610a74565b805f808473ffffffffffffffffffffffffffffffffffffffff1673ffffffffffffffffffffffffffffffffffffffff1681526020019081526020015f205f82825401925050819055505b8173ffffffffffffffffffffffffffffffffffffffff168373ffffffffffffffffffffffffffffffffffffffff167fddf252ad1be2c89b69c2b068fc378daa952ba7f163c4a11628f55a4df523b3ef83604051610ad19190610d4e565b60405180910390a3505050565b5f73ffffffffffffffffffffffffffffffffffffffff168473ffffffffffffffffffffffffffffffffffffffff1603610b4e575f6040517fe602df05000000000000000000000000000000000000000000000000000000008152600401610b459190611154565b60405180910390fd5b5f73ffffffffffffffffffffffffffffffffffffffff168373ffffffffffffffffffffffffffffffffffffffff1603610bbe575f6040517f94280d62000000000000000000000000000000000000000000000000000000008152600401610bb59190611154565b60405180910390fd5b8160015f8673ffffffffffffffffffffffffffffffffffffffff1673ffffffffffffffffffffffffffffffffffffffff1681526020019081526020015f205f8573ffffffffffffffffffffffffffffffffffffffff1673ffffffffffffffffffffffffffffffffffffffff1681526020019081526020015f20819055508015610ca7578273ffffffffffffffffffffffffffffffffffffffff168473ffffffffffffffffffffffffffffffffffffffff167f8c5be1e5ebec7d5bd14f71427d1e84f3dd0314c0f7b2291e5b200ac8c7c3b92584604051610c9e9190610d4e565b60405180910390a35b50505050565b5f80fd5b5f73ffffffffffffffffffffffffffffffffffffffff82169050919050565b5f610cda82610cb1565b9050919050565b610cea81610cd0565b8114610cf4575f80fd5b50565b5f81359050610d0581610ce1565b92915050565b5f60208284031215610d2057610d1f610cad565b5b5f610d2d84828501610cf7565b91505092915050565b5f819050919050565b610d4881610d36565b82525050565b5f602082019050610d615f830184610d3f565b92915050565b5f81519050919050565b5f82825260208201905092915050565b5f5b83811015610d9e578082015181840152602081019050610d83565b5f8484015250505050565b5f601f19601f8301169050919050565b5f610dc382610d67565b610dcd8185610d71565b9350610ddd818560208601610d81565b610de681610da9565b840191505092915050565b5f6020820190508181035f830152610e098184610db9565b905092915050565b610e1a81610d36565b8114610e24575f80fd5b50565b5f81359050610e3581610e11565b92915050565b5f805f60608486031215610e5257610e51610cad565b5b5f610e5f86828701610cf7565b9350506020610e7086828701610cf7565b9250506040610e8186828701610e27565b9150509250925092565b5f8060408385031215610ea157610ea0610cad565b5b5f610eae85828601610cf7565b9250506020610ebf85828601610e27565b9150509250929050565b5f8115159050919050565b610edd81610ec9565b82525050565b5f602082019050610ef65f830184610ed4565b92915050565b5f60ff82169050919050565b610f1181610efc565b82525050565b5f602082019050610f2a5f830184610f08565b92915050565b5f8060408385031215610f4657610f45610cad565b5b5f610f5385828601610e27565b9250506020610f6485828601610cf7565b9150509250929050565b5f8060408385031215610f8457610f83610cad565b5b5f610f9185828601610cf7565b9250506020610fa285828601610cf7565b9150509250929050565b7f4e487b71000000000000000000000000000000000000000000000000000000005f52602260045260245ffd5b5f6002820490506001821680610ff057607f821691505b60208210810361100357611002610fac565b5b50919050565b7f4e487b71000000000000000000000000000000000000000000000000000000005f52601160045260245ffd5b5f61104082610d36565b915061104b83610d36565b925082820261105981610d36565b915082820484148315176110705761106f611009565b5b5092915050565b5f61108182610d36565b915061108c83610d36565b92508282019050808211156110a4576110a3611009565b5b92915050565b5f6110b482610d36565b91506110bf83610d36565b92508282039050818111156110d7576110d6611009565b5b92915050565b7f204469736b2053746f726167652052656e74616c205375636365737366756c2e5f82015250565b5f611111602083610d71565b915061111c826110dd565b602082019050919050565b5f6020820190508181035f83015261113e81611105565b9050919050565b61114e81610cd0565b82525050565b5f6020820190506111675f830184611145565b92915050565b5f6060820190506111805f830186611145565b61118d6020830185610d3f565b61119a6040830184610d3f565b94935050505056fea2646970667358221220ee3a5ad905379a06d13d4a4f5b1431d0612438724ed5870ddd659e300642954964736f6c63430008140033",
  "immutableReferences": {},
  "source": "// SPDX-License-Identifier: MIT\npragma solidity ^0.8.18;\n\nimport \"@openzeppelin/contracts/token/ERC20/ERC20.sol\";\n\ncontract CloudStoragetoken is ERC20 {\n    uint256 public availableStorage;  // Total storage space in GB\n    address owner; // To store the address of the owner of the contract\n\n    mapping(address => uint256) public storageBalances; // To keep track of resources rented by each user\n\n    event storageRented(string message);\n\n\n    constructor(uint256 value) ERC20(\"Cloud Storage Token\", \"CST\") {\n        owner = msg.sender;\n        availableStorage = value*5;\n        _mint(msg.sender, value * 10 ** uint256(decimals()));\n    }\n\n    // used to rent storage\n    // function rentStorage(uint256 amount) external payable {\n    //     require(amount > 0, \"Amount must be greater than 0\");\n    //     require(balanceOf(msg.sender) >= amount * storageCost, \"Not enough CST tokens to purchase storage\");\n    //     require(availableStorage >= amount, \"Not enough storage space available\");\n\n    //     transferFrom(msg.sender, owner, amount * storageCost);\n    //     storageBalances[msg.sender] += amount;\n    //     availableStorage -= amount;\n    // }\n    function rentStorage(address user, uint256 diskrented) external {\n        storageBalances[user] += (diskrented*5);\n        availableStorage -= (diskrented*5);\n        emit storageRented(\" Disk Storage Rental Successful.\");\n    }\n\n    function getAvailableStorage() external view returns (uint256) {\n        return availableStorage;\n    }\n\n    function getUserStorageBalance(address user) external view returns (uint256) {\n        return storageBalances[user];\n    }\n\n    function buyToken(uint256 amount, address user) external {\n        _transfer(owner, user, amount);\n    }\n\n    function transferCSTToken(address from, address to, uint256 value) external {\n        _transfer(from, to, value);\n    }\n\n}",
  "sourcePath": "/Users/anujvadecha/Cloud-as-a-Blockchain-CaaB-/caab-contract/contracts/CST_ERC20.sol",
  "compiler": {
    "name": "solc",
    "version": "0.8.20+commit.a1b79de6.Emscripten.clang"
  },
  "schemaVersion": "3.4.16",
  "updatedAt": "2023-11-19T21:53:36.766Z",
  "networkType": "ethereum",
  "devdoc": {
    "errors": {
      "ERC20InsufficientAllowance(address,uint256,uint256)": [
        {
          "details": "Indicates a failure with the `spender`s `allowance`. Used in transfers.",
          "params": {
            "allowance": "Amount of tokens a `spender` is allowed to operate with.",
            "needed": "Minimum amount required to perform a transfer.",
            "spender": "Address that may be allowed to operate on tokens without being their owner."
          }
        }
      ],
      "ERC20InsufficientBalance(address,uint256,uint256)": [
        {
          "details": "Indicates an error related to the current `balance` of a `sender`. Used in transfers.",
          "params": {
            "balance": "Current balance for the interacting account.",
            "needed": "Minimum amount required to perform a transfer.",
            "sender": "Address whose tokens are being transferred."
          }
        }
      ],
      "ERC20InvalidApprover(address)": [
        {
          "details": "Indicates a failure with the `approver` of a token to be approved. Used in approvals.",
          "params": {
            "approver": "Address initiating an approval operation."
          }
        }
      ],
      "ERC20InvalidReceiver(address)": [
        {
          "details": "Indicates a failure with the token `receiver`. Used in transfers.",
          "params": {
            "receiver": "Address to which tokens are being transferred."
          }
        }
      ],
      "ERC20InvalidSender(address)": [
        {
          "details": "Indicates a failure with the token `sender`. Used in transfers.",
          "params": {
            "sender": "Address whose tokens are being transferred."
          }
        }
      ],
      "ERC20InvalidSpender(address)": [
        {
          "details": "Indicates a failure with the `spender` to be approved. Used in approvals.",
          "params": {
            "spender": "Address that may be allowed to operate on tokens without being their owner."
          }
        }
      ]
    },
    "events": {
      "Approval(address,address,uint256)": {
        "details": "Emitted when the allowance of a `spender` for an `owner` is set by a call to {approve}. `value` is the new allowance."
      },
      "Transfer(address,address,uint256)": {
        "details": "Emitted when `value` tokens are moved from one account (`from`) to another (`to`). Note that `value` may be zero."
      }
    },
    "kind": "dev",
    "methods": {
      "allowance(address,address)": {
        "details": "See {IERC20-allowance}."
      },
      "approve(address,uint256)": {
        "details": "See {IERC20-approve}. NOTE: If `value` is the maximum `uint256`, the allowance is not updated on `transferFrom`. This is semantically equivalent to an infinite approval. Requirements: - `spender` cannot be the zero address."
      },
      "balanceOf(address)": {
        "details": "See {IERC20-balanceOf}."
      },
      "decimals()": {
        "details": "Returns the number of decimals used to get its user representation. For example, if `decimals` equals `2`, a balance of `505` tokens should be displayed to a user as `5.05` (`505 / 10 ** 2`). Tokens usually opt for a value of 18, imitating the relationship between Ether and Wei. This is the default value returned by this function, unless it's overridden. NOTE: This information is only used for _display_ purposes: it in no way affects any of the arithmetic of the contract, including {IERC20-balanceOf} and {IERC20-transfer}."
      },
      "name()": {
        "details": "Returns the name of the token."
      },
      "symbol()": {
        "details": "Returns the symbol of the token, usually a shorter version of the name."
      },
      "totalSupply()": {
        "details": "See {IERC20-totalSupply}."
      },
      "transfer(address,uint256)": {
        "details": "See {IERC20-transfer}. Requirements: - `to` cannot be the zero address. - the caller must have a balance of at least `value`."
      },
      "transferFrom(address,address,uint256)": {
        "details": "See {IERC20-transferFrom}. Emits an {Approval} event indicating the updated allowance. This is not required by the EIP. See the note at the beginning of {ERC20}. NOTE: Does not update the allowance if the current allowance is the maximum `uint256`. Requirements: - `from` and `to` cannot be the zero address. - `from` must have a balance of at least `value`. - the caller must have allowance for ``from``'s tokens of at least `value`."
      }
    },
    "version": 1
  },
  "userdoc": {
    "kind": "user",
    "methods": {},
    "version": 1
  }
}