{
  "contractName": "CloudConfigToken",
  "abi": [
    {
      "inputs": [],
      "stateMutability": "nonpayable",
      "type": "constructor"
    },
    {
      "inputs": [
        {
          "internalType": "address",
          "name": "sender",
          "type": "address"
        },
        {
          "internalType": "uint256",
          "name": "tokenId",
          "type": "uint256"
        },
        {
          "internalType": "address",
          "name": "owner",
          "type": "address"
        }
      ],
      "name": "ERC721IncorrectOwner",
      "type": "error"
    },
    {
      "inputs": [
        {
          "internalType": "address",
          "name": "operator",
          "type": "address"
        },
        {
          "internalType": "uint256",
          "name": "tokenId",
          "type": "uint256"
        }
      ],
      "name": "ERC721InsufficientApproval",
      "type": "error"
    },
    {
      "inputs": [
        {
          "internalType": "address",
          "name": "approver",
          "type": "address"
        }
      ],
      "name": "ERC721InvalidApprover",
      "type": "error"
    },
    {
      "inputs": [
        {
          "internalType": "address",
          "name": "operator",
          "type": "address"
        }
      ],
      "name": "ERC721InvalidOperator",
      "type": "error"
    },
    {
      "inputs": [
        {
          "internalType": "address",
          "name": "owner",
          "type": "address"
        }
      ],
      "name": "ERC721InvalidOwner",
      "type": "error"
    },
    {
      "inputs": [
        {
          "internalType": "address",
          "name": "receiver",
          "type": "address"
        }
      ],
      "name": "ERC721InvalidReceiver",
      "type": "error"
    },
    {
      "inputs": [
        {
          "internalType": "address",
          "name": "sender",
          "type": "address"
        }
      ],
      "name": "ERC721InvalidSender",
      "type": "error"
    },
    {
      "inputs": [
        {
          "internalType": "uint256",
          "name": "tokenId",
          "type": "uint256"
        }
      ],
      "name": "ERC721NonexistentToken",
      "type": "error"
    },
    {
      "anonymous": false,
      "inputs": [
        {
          "indexed": true,
          "internalType": "address",
          "name": "owner",
          "type": "address"
        },
        {
          "indexed": true,
          "internalType": "address",
          "name": "approved",
          "type": "address"
        },
        {
          "indexed": true,
          "internalType": "uint256",
          "name": "tokenId",
          "type": "uint256"
        }
      ],
      "name": "Approval",
      "type": "event"
    },
    {
      "anonymous": false,
      "inputs": [
        {
          "indexed": true,
          "internalType": "address",
          "name": "owner",
          "type": "address"
        },
        {
          "indexed": true,
          "internalType": "address",
          "name": "operator",
          "type": "address"
        },
        {
          "indexed": false,
          "internalType": "bool",
          "name": "approved",
          "type": "bool"
        }
      ],
      "name": "ApprovalForAll",
      "type": "event"
    },
    {
      "anonymous": false,
      "inputs": [
        {
          "indexed": false,
          "internalType": "uint256",
          "name": "_fromTokenId",
          "type": "uint256"
        },
        {
          "indexed": false,
          "internalType": "uint256",
          "name": "_toTokenId",
          "type": "uint256"
        }
      ],
      "name": "BatchMetadataUpdate",
      "type": "event"
    },
    {
      "anonymous": false,
      "inputs": [
        {
          "indexed": false,
          "internalType": "string",
          "name": "message",
          "type": "string"
        }
      ],
      "name": "LogMessage",
      "type": "event"
    },
    {
      "anonymous": false,
      "inputs": [
        {
          "indexed": false,
          "internalType": "uint256[]",
          "name": "message",
          "type": "uint256[]"
        }
      ],
      "name": "LogMessage1",
      "type": "event"
    },
    {
      "anonymous": false,
      "inputs": [
        {
          "indexed": false,
          "internalType": "uint256",
          "name": "_tokenId",
          "type": "uint256"
        }
      ],
      "name": "MetadataUpdate",
      "type": "event"
    },
    {
      "anonymous": false,
      "inputs": [
        {
          "indexed": true,
          "internalType": "address",
          "name": "from",
          "type": "address"
        },
        {
          "indexed": true,
          "internalType": "address",
          "name": "to",
          "type": "address"
        },
        {
          "indexed": true,
          "internalType": "uint256",
          "name": "tokenId",
          "type": "uint256"
        }
      ],
      "name": "Transfer",
      "type": "event"
    },
    {
      "inputs": [
        {
          "internalType": "address",
          "name": "to",
          "type": "address"
        },
        {
          "internalType": "uint256",
          "name": "tokenId",
          "type": "uint256"
        }
      ],
      "name": "approve",
      "outputs": [],
      "stateMutability": "nonpayable",
      "type": "function"
    },
    {
      "inputs": [
        {
          "internalType": "address",
          "name": "owner",
          "type": "address"
        }
      ],
      "name": "balanceOf",
      "outputs": [
        {
          "internalType": "uint256",
          "name": "",
          "type": "uint256"
        }
      ],
      "stateMutability": "view",
      "type": "function",
      "constant": true
    },
    {
      "inputs": [
        {
          "internalType": "uint256",
          "name": "tokenId",
          "type": "uint256"
        }
      ],
      "name": "getApproved",
      "outputs": [
        {
          "internalType": "address",
          "name": "",
          "type": "address"
        }
      ],
      "stateMutability": "view",
      "type": "function",
      "constant": true
    },
    {
      "inputs": [
        {
          "internalType": "address",
          "name": "owner",
          "type": "address"
        },
        {
          "internalType": "address",
          "name": "operator",
          "type": "address"
        }
      ],
      "name": "isApprovedForAll",
      "outputs": [
        {
          "internalType": "bool",
          "name": "",
          "type": "bool"
        }
      ],
      "stateMutability": "view",
      "type": "function",
      "constant": true
    },
    {
      "inputs": [],
      "name": "name",
      "outputs": [
        {
          "internalType": "string",
          "name": "",
          "type": "string"
        }
      ],
      "stateMutability": "view",
      "type": "function",
      "constant": true
    },
    {
      "inputs": [
        {
          "internalType": "uint256",
          "name": "tokenId",
          "type": "uint256"
        }
      ],
      "name": "ownerOf",
      "outputs": [
        {
          "internalType": "address",
          "name": "",
          "type": "address"
        }
      ],
      "stateMutability": "view",
      "type": "function",
      "constant": true
    },
    {
      "inputs": [
        {
          "internalType": "address",
          "name": "from",
          "type": "address"
        },
        {
          "internalType": "address",
          "name": "to",
          "type": "address"
        },
        {
          "internalType": "uint256",
          "name": "tokenId",
          "type": "uint256"
        }
      ],
      "name": "safeTransferFrom",
      "outputs": [],
      "stateMutability": "nonpayable",
      "type": "function"
    },
    {
      "inputs": [
        {
          "internalType": "address",
          "name": "from",
          "type": "address"
        },
        {
          "internalType": "address",
          "name": "to",
          "type": "address"
        },
        {
          "internalType": "uint256",
          "name": "tokenId",
          "type": "uint256"
        },
        {
          "internalType": "bytes",
          "name": "data",
          "type": "bytes"
        }
      ],
      "name": "safeTransferFrom",
      "outputs": [],
      "stateMutability": "nonpayable",
      "type": "function"
    },
    {
      "inputs": [
        {
          "internalType": "uint256",
          "name": "",
          "type": "uint256"
        }
      ],
      "name": "serverConfigs",
      "outputs": [
        {
          "internalType": "uint256",
          "name": "id",
          "type": "uint256"
        },
        {
          "internalType": "string",
          "name": "gpu",
          "type": "string"
        },
        {
          "internalType": "string",
          "name": "processor",
          "type": "string"
        },
        {
          "internalType": "string",
          "name": "ram",
          "type": "string"
        },
        {
          "internalType": "string",
          "name": "cores",
          "type": "string"
        },
        {
          "internalType": "string",
          "name": "os",
          "type": "string"
        },
        {
          "internalType": "string",
          "name": "imageURL",
          "type": "string"
        }
      ],
      "stateMutability": "view",
      "type": "function",
      "constant": true
    },
    {
      "inputs": [
        {
          "internalType": "address",
          "name": "operator",
          "type": "address"
        },
        {
          "internalType": "bool",
          "name": "approved",
          "type": "bool"
        }
      ],
      "name": "setApprovalForAll",
      "outputs": [],
      "stateMutability": "nonpayable",
      "type": "function"
    },
    {
      "inputs": [
        {
          "internalType": "bytes4",
          "name": "interfaceId",
          "type": "bytes4"
        }
      ],
      "name": "supportsInterface",
      "outputs": [
        {
          "internalType": "bool",
          "name": "",
          "type": "bool"
        }
      ],
      "stateMutability": "view",
      "type": "function",
      "constant": true
    },
    {
      "inputs": [],
      "name": "symbol",
      "outputs": [
        {
          "internalType": "string",
          "name": "",
          "type": "string"
        }
      ],
      "stateMutability": "view",
      "type": "function",
      "constant": true
    },
    {
      "inputs": [
        {
          "internalType": "address",
          "name": "",
          "type": "address"
        },
        {
          "internalType": "uint256",
          "name": "",
          "type": "uint256"
        }
      ],
      "name": "tokenList",
      "outputs": [
        {
          "internalType": "uint256",
          "name": "",
          "type": "uint256"
        }
      ],
      "stateMutability": "view",
      "type": "function",
      "constant": true
    },
    {
      "inputs": [
        {
          "internalType": "uint256",
          "name": "",
          "type": "uint256"
        }
      ],
      "name": "tokenToCost",
      "outputs": [
        {
          "internalType": "uint256",
          "name": "",
          "type": "uint256"
        }
      ],
      "stateMutability": "view",
      "type": "function",
      "constant": true
    },
    {
      "inputs": [
        {
          "internalType": "uint256",
          "name": "tokenId",
          "type": "uint256"
        }
      ],
      "name": "tokenURI",
      "outputs": [
        {
          "internalType": "string",
          "name": "",
          "type": "string"
        }
      ],
      "stateMutability": "view",
      "type": "function",
      "constant": true
    },
    {
      "inputs": [
        {
          "internalType": "address",
          "name": "from",
          "type": "address"
        },
        {
          "internalType": "address",
          "name": "to",
          "type": "address"
        },
        {
          "internalType": "uint256",
          "name": "tokenId",
          "type": "uint256"
        }
      ],
      "name": "transferFrom",
      "outputs": [],
      "stateMutability": "nonpayable",
      "type": "function"
    },
    {
      "inputs": [
        {
          "internalType": "address",
          "name": "user",
          "type": "address"
        },
        {
          "internalType": "string",
          "name": "gpu",
          "type": "string"
        },
        {
          "internalType": "string",
          "name": "processor",
          "type": "string"
        },
        {
          "internalType": "string",
          "name": "ram",
          "type": "string"
        },
        {
          "internalType": "string",
          "name": "cores",
          "type": "string"
        },
        {
          "internalType": "string",
          "name": "os",
          "type": "string"
        },
        {
          "internalType": "string",
          "name": "imageURL",
          "type": "string"
        },
        {
          "internalType": "address",
          "name": "operator",
          "type": "address"
        }
      ],
      "name": "mintConfigToken",
      "outputs": [],
      "stateMutability": "nonpayable",
      "type": "function"
    },
    {
      "inputs": [
        {
          "internalType": "uint256",
          "name": "tokenId",
          "type": "uint256"
        }
      ],
      "name": "getConfigData",
      "outputs": [
        {
          "internalType": "uint256",
          "name": "id",
          "type": "uint256"
        },
        {
          "internalType": "string",
          "name": "gpu",
          "type": "string"
        },
        {
          "internalType": "string",
          "name": "processor",
          "type": "string"
        },
        {
          "internalType": "string",
          "name": "ram",
          "type": "string"
        },
        {
          "internalType": "string",
          "name": "cores",
          "type": "string"
        },
        {
          "internalType": "string",
          "name": "os",
          "type": "string"
        },
        {
          "internalType": "string",
          "name": "imageURL",
          "type": "string"
        }
      ],
      "stateMutability": "view",
      "type": "function",
      "constant": true
    },
    {
      "inputs": [
        {
          "internalType": "address",
          "name": "user",
          "type": "address"
        }
      ],
      "name": "getConfigList",
      "outputs": [
        {
          "components": [
            {
              "internalType": "uint256",
              "name": "id",
              "type": "uint256"
            },
            {
              "internalType": "string",
              "name": "gpu",
              "type": "string"
            },
            {
              "internalType": "string",
              "name": "processor",
              "type": "string"
            },
            {
              "internalType": "string",
              "name": "ram",
              "type": "string"
            },
            {
              "internalType": "string",
              "name": "cores",
              "type": "string"
            },
            {
              "internalType": "string",
              "name": "os",
              "type": "string"
            },
            {
              "internalType": "string",
              "name": "imageURL",
              "type": "string"
            }
          ],
          "internalType": "struct CloudConfigToken.ServerConfiguration[]",
          "name": "",
          "type": "tuple[]"
        }
      ],
      "stateMutability": "view",
      "type": "function",
      "constant": true
    },
    {
      "inputs": [
        {
          "internalType": "address",
          "name": "from",
          "type": "address"
        },
        {
          "internalType": "address",
          "name": "to",
          "type": "address"
        },
        {
          "internalType": "uint256",
          "name": "tokenId",
          "type": "uint256"
        }
      ],
      "name": "transferOwnership",
      "outputs": [],
      "stateMutability": "nonpayable",
      "type": "function"
    },
    {
      "inputs": [
        {
          "internalType": "address",
          "name": "from",
          "type": "address"
        },
        {
          "internalType": "address",
          "name": "to",
          "type": "address"
        },
        {
          "internalType": "uint256",
          "name": "tokenId",
          "type": "uint256"
        }
      ],
      "name": "transferCCT",
      "outputs": [],
      "stateMutability": "nonpayable",
      "type": "function"
    }
  ],
  "bytecode": "0x6080604052600160085534801562000015575f80fd5b506040518060400160405280601281526020017f436c6f756420436f6e66696720546f6b656e00000000000000000000000000008152506040518060400160405280600381526020017f4343540000000000000000000000000000000000000000000000000000000000815250815f908162000092919062000351565b508060019081620000a4919062000351565b5050503360075f6101000a81548173ffffffffffffffffffffffffffffffffffffffff021916908373ffffffffffffffffffffffffffffffffffffffff16021790555062000435565b5f81519050919050565b7f4e487b71000000000000000000000000000000000000000000000000000000005f52604160045260245ffd5b7f4e487b71000000000000000000000000000000000000000000000000000000005f52602260045260245ffd5b5f60028204905060018216806200016957607f821691505b6020821081036200017f576200017e62000124565b5b50919050565b5f819050815f5260205f209050919050565b5f6020601f8301049050919050565b5f82821b905092915050565b5f60088302620001e37fffffffffffffffffffffffffffffffffffffffffffffffffffffffffffffffff82620001a6565b620001ef8683620001a6565b95508019841693508086168417925050509392505050565b5f819050919050565b5f819050919050565b5f62000239620002336200022d8462000207565b62000210565b62000207565b9050919050565b5f819050919050565b620002548362000219565b6200026c620002638262000240565b848454620001b2565b825550505050565b5f90565b6200028262000274565b6200028f81848462000249565b505050565b5b81811015620002b657620002aa5f8262000278565b60018101905062000295565b5050565b601f8211156200030557620002cf8162000185565b620002da8462000197565b81016020851015620002ea578190505b62000302620002f98562000197565b83018262000294565b50505b505050565b5f82821c905092915050565b5f620003275f19846008026200030a565b1980831691505092915050565b5f62000341838362000316565b9150826002028217905092915050565b6200035c82620000ed565b67ffffffffffffffff811115620003785762000377620000f7565b5b62000384825462000151565b62000391828285620002ba565b5f60209050601f831160018114620003c7575f8415620003b2578287015190505b620003be858262000334565b8655506200042d565b601f198416620003d78662000185565b5f5b828110156200040057848901518255600182019150602085019450602081019050620003d9565b868310156200042057848901516200041c601f89168262000316565b8355505b6001600288020188555050505b505050505050565b613ac980620004435f395ff3fe608060405234801561000f575f80fd5b5060043610610135575f3560e01c80636352211e116100b6578063b717fc1d1161007a578063b717fc1d14610373578063b88d4fde146103a9578063bebfd690146103c5578063c87b56dd146103f5578063e985e9c514610425578063fa11db331461045557610135565b80636352211e146102a957806370a08231146102d957806390deb05c1461030957806395d89b4114610339578063a22cb4651461035757610135565b806323b872dd116100fd57806323b872dd146101ef578063383a46691461020b57806342842e0e14610241578063451591461461025d57806348e1997f1461027957610135565b806301ffc9a71461013957806306fdde0314610169578063081812fc14610187578063095ea7b3146101b7578063171c00fd146101d3575b5f80fd5b610153600480360381019061014e9190612b3e565b610471565b6040516101609190612b83565b60405180910390f35b6101716104d1565b60405161017e9190612c26565b60405180910390f35b6101a1600480360381019061019c9190612c79565b610560565b6040516101ae9190612ce3565b60405180910390f35b6101d160048036038101906101cc9190612d26565b61057b565b005b6101ed60048036038101906101e89190612d64565b610591565b005b61020960048036038101906102049190612d64565b610601565b005b61022560048036038101906102209190612c79565b610700565b6040516102389796959493929190612dc3565b60405180910390f35b61025b60048036038101906102569190612d64565b610ace565b005b61027760048036038101906102729190612d64565b610aed565b005b610293600480360381019061028e9190612c79565b610afd565b6040516102a09190612e5a565b60405180910390f35b6102c360048036038101906102be9190612c79565b610b12565b6040516102d09190612ce3565b60405180910390f35b6102f360048036038101906102ee9190612e73565b610b23565b6040516103009190612e5a565b60405180910390f35b610323600480360381019061031e9190612e73565b610bd9565b604051610330919061306c565b60405180910390f35b6103416110a6565b60405161034e9190612c26565b60405180910390f35b610371600480360381019061036c91906130b6565b611136565b005b61038d60048036038101906103889190612c79565b61114c565b6040516103a09796959493929190612dc3565b60405180910390f35b6103c360048036038101906103be9190613220565b6114ae565b005b6103df60048036038101906103da9190612d26565b6114cb565b6040516103ec9190612e5a565b60405180910390f35b61040f600480360381019061040a9190612c79565b6114f6565b60405161041c9190612c26565b60405180910390f35b61043f600480360381019061043a91906132a0565b611601565b60405161044c9190612b83565b60405180910390f35b61046f600480360381019061046a919061337c565b61168f565b005b5f634906490660e01b7bffffffffffffffffffffffffffffffffffffffffffffffffffffffff1916827bffffffffffffffffffffffffffffffffffffffffffffffffffffffff191614806104ca57506104c982611834565b5b9050919050565b60605f80546104df90613502565b80601f016020809104026020016040519081016040528092919081815260200182805461050b90613502565b80156105565780601f1061052d57610100808354040283529160200191610556565b820191905f5260205f20905b81548152906001019060200180831161053957829003601f168201915b5050505050905090565b5f61056a82611915565b506105748261199b565b9050919050565b61058d82826105886119d4565b6119db565b5050565b61059b81846119ed565b600b5f8373ffffffffffffffffffffffffffffffffffffffff1673ffffffffffffffffffffffffffffffffffffffff1681526020019081526020015f2081908060018154018082558091505060019003905f5260205f20015f9091909190915055505050565b5f73ffffffffffffffffffffffffffffffffffffffff168273ffffffffffffffffffffffffffffffffffffffff1603610671575f6040517f64a0ae920000000000000000000000000000000000000000000000000000000081526004016106689190612ce3565b60405180910390fd5b5f610684838361067f6119d4565b611c46565b90508373ffffffffffffffffffffffffffffffffffffffff168173ffffffffffffffffffffffffffffffffffffffff16146106fa578382826040517f64283d7b0000000000000000000000000000000000000000000000000000000081526004016106f193929190613532565b60405180910390fd5b50505050565b5f6060806060806060805f60095f8a81526020019081526020015f206040518060e00160405290815f820154815260200160018201805461074090613502565b80601f016020809104026020016040519081016040528092919081815260200182805461076c90613502565b80156107b75780601f1061078e576101008083540402835291602001916107b7565b820191905f5260205f20905b81548152906001019060200180831161079a57829003601f168201915b505050505081526020016002820180546107d090613502565b80601f01602080910402602001604051908101604052809291908181526020018280546107fc90613502565b80156108475780601f1061081e57610100808354040283529160200191610847565b820191905f5260205f20905b81548152906001019060200180831161082a57829003601f168201915b5050505050815260200160038201805461086090613502565b80601f016020809104026020016040519081016040528092919081815260200182805461088c90613502565b80156108d75780601f106108ae576101008083540402835291602001916108d7565b820191905f5260205f20905b8154815290600101906020018083116108ba57829003601f168201915b505050505081526020016004820180546108f090613502565b80601f016020809104026020016040519081016040528092919081815260200182805461091c90613502565b80156109675780601f1061093e57610100808354040283529160200191610967565b820191905f5260205f20905b81548152906001019060200180831161094a57829003601f168201915b5050505050815260200160058201805461098090613502565b80601f01602080910402602001604051908101604052809291908181526020018280546109ac90613502565b80156109f75780601f106109ce576101008083540402835291602001916109f7565b820191905f5260205f20905b8154815290600101906020018083116109da57829003601f168201915b50505050508152602001600682018054610a1090613502565b80601f0160208091040260200160405190810160405280929190818152602001828054610a3c90613502565b8015610a875780601f10610a5e57610100808354040283529160200191610a87565b820191905f5260205f20905b815481529060010190602001808311610a6a57829003601f168201915b5050505050815250509050805f01519750806020015196508060400151955080606001519450806080015193508060a0015192508060c00151915050919395979092949650565b610ae883838360405180602001604052805f8152506114ae565b505050565b610af8838383611e51565b505050565b600a602052805f5260405f205f915090505481565b5f610b1c82611915565b9050919050565b5f8073ffffffffffffffffffffffffffffffffffffffff168273ffffffffffffffffffffffffffffffffffffffff1603610b94575f6040517f89c62b64000000000000000000000000000000000000000000000000000000008152600401610b8b9190612ce3565b60405180910390fd5b60035f8373ffffffffffffffffffffffffffffffffffffffff1673ffffffffffffffffffffffffffffffffffffffff1681526020019081526020015f20549050919050565b60605f600b5f8473ffffffffffffffffffffffffffffffffffffffff1673ffffffffffffffffffffffffffffffffffffffff1681526020019081526020015f20805480602002602001604051908101604052809291908181526020018280548015610c6157602002820191905f5260205f20905b815481526020019060010190808311610c4d575b505050505090505f815167ffffffffffffffff811115610c8457610c836130fc565b5b604051908082528060200260200182016040528015610cbd57816020015b610caa612a9c565b815260200190600190039081610ca25790505b5090505f5b825181101561109b5760095f848381518110610ce157610ce0613567565b5b602002602001015181526020019081526020015f206040518060e00160405290815f8201548152602001600182018054610d1a90613502565b80601f0160208091040260200160405190810160405280929190818152602001828054610d4690613502565b8015610d915780601f10610d6857610100808354040283529160200191610d91565b820191905f5260205f20905b815481529060010190602001808311610d7457829003601f168201915b50505050508152602001600282018054610daa90613502565b80601f0160208091040260200160405190810160405280929190818152602001828054610dd690613502565b8015610e215780601f10610df857610100808354040283529160200191610e21565b820191905f5260205f20905b815481529060010190602001808311610e0457829003601f168201915b50505050508152602001600382018054610e3a90613502565b80601f0160208091040260200160405190810160405280929190818152602001828054610e6690613502565b8015610eb15780601f10610e8857610100808354040283529160200191610eb1565b820191905f5260205f20905b815481529060010190602001808311610e9457829003601f168201915b50505050508152602001600482018054610eca90613502565b80601f0160208091040260200160405190810160405280929190818152602001828054610ef690613502565b8015610f415780601f10610f1857610100808354040283529160200191610f41565b820191905f5260205f20905b815481529060010190602001808311610f2457829003601f168201915b50505050508152602001600582018054610f5a90613502565b80601f0160208091040260200160405190810160405280929190818152602001828054610f8690613502565b8015610fd15780601f10610fa857610100808354040283529160200191610fd1565b820191905f5260205f20905b815481529060010190602001808311610fb457829003601f168201915b50505050508152602001600682018054610fea90613502565b80601f016020809104026020016040519081016040528092919081815260200182805461101690613502565b80156110615780601f1061103857610100808354040283529160200191611061565b820191905f5260205f20905b81548152906001019060200180831161104457829003601f168201915b50505050508152505082828151811061107d5761107c613567565b5b60200260200101819052508080611093906135c1565b915050610cc2565b508092505050919050565b6060600180546110b590613502565b80601f01602080910402602001604051908101604052809291908181526020018280546110e190613502565b801561112c5780601f106111035761010080835404028352916020019161112c565b820191905f5260205f20905b81548152906001019060200180831161110f57829003601f168201915b5050505050905090565b6111486111416119d4565b8383611fb9565b5050565b6009602052805f5260405f205f91509050805f01549080600101805461117190613502565b80601f016020809104026020016040519081016040528092919081815260200182805461119d90613502565b80156111e85780601f106111bf576101008083540402835291602001916111e8565b820191905f5260205f20905b8154815290600101906020018083116111cb57829003601f168201915b5050505050908060020180546111fd90613502565b80601f016020809104026020016040519081016040528092919081815260200182805461122990613502565b80156112745780601f1061124b57610100808354040283529160200191611274565b820191905f5260205f20905b81548152906001019060200180831161125757829003601f168201915b50505050509080600301805461128990613502565b80601f01602080910402602001604051908101604052809291908181526020018280546112b590613502565b80156113005780601f106112d757610100808354040283529160200191611300565b820191905f5260205f20905b8154815290600101906020018083116112e357829003601f168201915b50505050509080600401805461131590613502565b80601f016020809104026020016040519081016040528092919081815260200182805461134190613502565b801561138c5780601f106113635761010080835404028352916020019161138c565b820191905f5260205f20905b81548152906001019060200180831161136f57829003601f168201915b5050505050908060050180546113a190613502565b80601f01602080910402602001604051908101604052809291908181526020018280546113cd90613502565b80156114185780601f106113ef57610100808354040283529160200191611418565b820191905f5260205f20905b8154815290600101906020018083116113fb57829003601f168201915b50505050509080600601805461142d90613502565b80601f016020809104026020016040519081016040528092919081815260200182805461145990613502565b80156114a45780601f1061147b576101008083540402835291602001916114a4565b820191905f5260205f20905b81548152906001019060200180831161148757829003601f168201915b5050505050905087565b6114b9848484610601565b6114c584848484612122565b50505050565b600b602052815f5260405f2081815481106114e4575f80fd5b905f5260205f20015f91509150505481565b606061150182611915565b505f60065f8481526020019081526020015f20805461151f90613502565b80601f016020809104026020016040519081016040528092919081815260200182805461154b90613502565b80156115965780601f1061156d57610100808354040283529160200191611596565b820191905f5260205f20905b81548152906001019060200180831161157957829003601f168201915b505050505090505f6115a66122d4565b90505f8151036115ba5781925050506115fc565b5f825111156115ee5780826040516020016115d6929190613642565b604051602081830303815290604052925050506115fc565b6115f7846122ea565b925050505b919050565b5f60055f8473ffffffffffffffffffffffffffffffffffffffff1673ffffffffffffffffffffffffffffffffffffffff1681526020019081526020015f205f8373ffffffffffffffffffffffffffffffffffffffff1673ffffffffffffffffffffffffffffffffffffffff1681526020019081526020015f205f9054906101000a900460ff16905092915050565b61169b88600854612350565b6116b560085460405180602001604052805f815250612443565b6040518060e0016040528060085481526020018881526020018781526020018681526020018581526020018481526020018381525060095f60085481526020019081526020015f205f820151815f0155602082015181600101908161171a9190613802565b5060408201518160020190816117309190613802565b5060608201518160030190816117469190613802565b50608082015181600401908161175c9190613802565b5060a08201518160050190816117729190613802565b5060c08201518160060190816117889190613802565b509050506001600a5f60085481526020019081526020015f2081905550600b5f8973ffffffffffffffffffffffffffffffffffffffff1673ffffffffffffffffffffffffffffffffffffffff1681526020019081526020015f20600854908060018154018082558091505060019003905f5260205f20015f909190919091505560085f81548092919061181a906135c1565b919050555061182a816001611136565b5050505050505050565b5f7f80ac58cd000000000000000000000000000000000000000000000000000000007bffffffffffffffffffffffffffffffffffffffffffffffffffffffff1916827bffffffffffffffffffffffffffffffffffffffffffffffffffffffff191614806118fe57507f5b5e139f000000000000000000000000000000000000000000000000000000007bffffffffffffffffffffffffffffffffffffffffffffffffffffffff1916827bffffffffffffffffffffffffffffffffffffffffffffffffffffffff1916145b8061190e575061190d8261249d565b5b9050919050565b5f8061192083612506565b90505f73ffffffffffffffffffffffffffffffffffffffff168173ffffffffffffffffffffffffffffffffffffffff160361199257826040517f7e2732890000000000000000000000000000000000000000000000000000000081526004016119899190612e5a565b60405180910390fd5b80915050919050565b5f60045f8381526020019081526020015f205f9054906101000a900473ffffffffffffffffffffffffffffffffffffffff169050919050565b5f33905090565b6119e8838383600161253f565b505050565b5f805f90505b600b5f8473ffffffffffffffffffffffffffffffffffffffff1673ffffffffffffffffffffffffffffffffffffffff1681526020019081526020015f2080549050811015611ab45783600b5f8573ffffffffffffffffffffffffffffffffffffffff1673ffffffffffffffffffffffffffffffffffffffff1681526020019081526020015f208281548110611a8b57611a8a613567565b5b905f5260205f20015403611aa157809150611ab4565b8080611aac906135c1565b9150506119f3565b505f8190505b6001600b5f8573ffffffffffffffffffffffffffffffffffffffff1673ffffffffffffffffffffffffffffffffffffffff1681526020019081526020015f2080549050611b0791906138d1565b811015611be057600b5f8473ffffffffffffffffffffffffffffffffffffffff1673ffffffffffffffffffffffffffffffffffffffff1681526020019081526020015f20600182611b589190613904565b81548110611b6957611b68613567565b5b905f5260205f200154600b5f8573ffffffffffffffffffffffffffffffffffffffff1673ffffffffffffffffffffffffffffffffffffffff1681526020019081526020015f208281548110611bc157611bc0613567565b5b905f5260205f2001819055508080611bd8906135c1565b915050611aba565b50600b5f8373ffffffffffffffffffffffffffffffffffffffff1673ffffffffffffffffffffffffffffffffffffffff1681526020019081526020015f20805480611c2e57611c2d613937565b5b600190038181905f5260205f20015f90559055505050565b5f80611c5184612506565b90505f73ffffffffffffffffffffffffffffffffffffffff168373ffffffffffffffffffffffffffffffffffffffff1614611c9257611c918184866126fe565b5b5f73ffffffffffffffffffffffffffffffffffffffff168173ffffffffffffffffffffffffffffffffffffffff1614611d1d57611cd15f855f8061253f565b600160035f8373ffffffffffffffffffffffffffffffffffffffff1673ffffffffffffffffffffffffffffffffffffffff1681526020019081526020015f205f82825403925050819055505b5f73ffffffffffffffffffffffffffffffffffffffff168573ffffffffffffffffffffffffffffffffffffffff1614611d9c57600160035f8773ffffffffffffffffffffffffffffffffffffffff1673ffffffffffffffffffffffffffffffffffffffff1681526020019081526020015f205f82825401925050819055505b8460025f8681526020019081526020015f205f6101000a81548173ffffffffffffffffffffffffffffffffffffffff021916908373ffffffffffffffffffffffffffffffffffffffff160217905550838573ffffffffffffffffffffffffffffffffffffffff168273ffffffffffffffffffffffffffffffffffffffff167fddf252ad1be2c89b69c2b068fc378daa952ba7f163c4a11628f55a4df523b3ef60405160405180910390a4809150509392505050565b5f73ffffffffffffffffffffffffffffffffffffffff168273ffffffffffffffffffffffffffffffffffffffff1603611ec1575f6040517f64a0ae92000000000000000000000000000000000000000000000000000000008152600401611eb89190612ce3565b60405180910390fd5b5f611ecd83835f611c46565b90505f73ffffffffffffffffffffffffffffffffffffffff168173ffffffffffffffffffffffffffffffffffffffff1603611f3f57816040517f7e273289000000000000000000000000000000000000000000000000000000008152600401611f369190612e5a565b60405180910390fd5b8373ffffffffffffffffffffffffffffffffffffffff168173ffffffffffffffffffffffffffffffffffffffff1614611fb3578382826040517f64283d7b000000000000000000000000000000000000000000000000000000008152600401611faa93929190613532565b60405180910390fd5b50505050565b5f73ffffffffffffffffffffffffffffffffffffffff168273ffffffffffffffffffffffffffffffffffffffff160361202957816040517f5b08ba180000000000000000000000000000000000000000000000000000000081526004016120209190612ce3565b60405180910390fd5b8060055f8573ffffffffffffffffffffffffffffffffffffffff1673ffffffffffffffffffffffffffffffffffffffff1681526020019081526020015f205f8473ffffffffffffffffffffffffffffffffffffffff1673ffffffffffffffffffffffffffffffffffffffff1681526020019081526020015f205f6101000a81548160ff0219169083151502179055508173ffffffffffffffffffffffffffffffffffffffff168373ffffffffffffffffffffffffffffffffffffffff167f17307eab39ab6107e8899845ad3d59bd9653f200f220920489ca2b5937696c31836040516121159190612b83565b60405180910390a3505050565b5f8373ffffffffffffffffffffffffffffffffffffffff163b11156122ce578273ffffffffffffffffffffffffffffffffffffffff1663150b7a026121656119d4565b8685856040518563ffffffff1660e01b815260040161218794939291906139b6565b6020604051808303815f875af19250505080156121c257506040513d601f19601f820116820180604052508101906121bf9190613a14565b60015b612243573d805f81146121f0576040519150601f19603f3d011682016040523d82523d5f602084013e6121f5565b606091505b505f81510361223b57836040517f64a0ae920000000000000000000000000000000000000000000000000000000081526004016122329190612ce3565b60405180910390fd5b805181602001fd5b63150b7a0260e01b7bffffffffffffffffffffffffffffffffffffffffffffffffffffffff1916817bffffffffffffffffffffffffffffffffffffffffffffffffffffffff1916146122cc57836040517f64a0ae920000000000000000000000000000000000000000000000000000000081526004016122c39190612ce3565b60405180910390fd5b505b50505050565b606060405180602001604052805f815250905090565b60606122f582611915565b505f6122ff6122d4565b90505f81511161231d5760405180602001604052805f815250612348565b80612327846127c1565b604051602001612338929190613642565b6040516020818303038152906040525b915050919050565b5f73ffffffffffffffffffffffffffffffffffffffff168273ffffffffffffffffffffffffffffffffffffffff16036123c0575f6040517f64a0ae920000000000000000000000000000000000000000000000000000000081526004016123b79190612ce3565b60405180910390fd5b5f6123cc83835f611c46565b90505f73ffffffffffffffffffffffffffffffffffffffff168173ffffffffffffffffffffffffffffffffffffffff161461243e575f6040517f73c6ac6e0000000000000000000000000000000000000000000000000000000081526004016124359190612ce3565b60405180910390fd5b505050565b8060065f8481526020019081526020015f2090816124619190613802565b507ff8e1a15aba9398e019f0b49df1a4fde98ee17ae345cb5f6b5e2c27f5033e8ce7826040516124919190612e5a565b60405180910390a15050565b5f7f01ffc9a7000000000000000000000000000000000000000000000000000000007bffffffffffffffffffffffffffffffffffffffffffffffffffffffff1916827bffffffffffffffffffffffffffffffffffffffffffffffffffffffff1916149050919050565b5f60025f8381526020019081526020015f205f9054906101000a900473ffffffffffffffffffffffffffffffffffffffff169050919050565b808061257757505f73ffffffffffffffffffffffffffffffffffffffff168273ffffffffffffffffffffffffffffffffffffffff1614155b156126a9575f61258684611915565b90505f73ffffffffffffffffffffffffffffffffffffffff168373ffffffffffffffffffffffffffffffffffffffff16141580156125f057508273ffffffffffffffffffffffffffffffffffffffff168173ffffffffffffffffffffffffffffffffffffffff1614155b801561260357506126018184611601565b155b1561264557826040517fa9fbf51f00000000000000000000000000000000000000000000000000000000815260040161263c9190612ce3565b60405180910390fd5b81156126a757838573ffffffffffffffffffffffffffffffffffffffff168273ffffffffffffffffffffffffffffffffffffffff167f8c5be1e5ebec7d5bd14f71427d1e84f3dd0314c0f7b2291e5b200ac8c7c3b92560405160405180910390a45b505b8360045f8581526020019081526020015f205f6101000a81548173ffffffffffffffffffffffffffffffffffffffff021916908373ffffffffffffffffffffffffffffffffffffffff16021790555050505050565b61270983838361288b565b6127bc575f73ffffffffffffffffffffffffffffffffffffffff168373ffffffffffffffffffffffffffffffffffffffff160361277d57806040517f7e2732890000000000000000000000000000000000000000000000000000000081526004016127749190612e5a565b60405180910390fd5b81816040517f177e802f0000000000000000000000000000000000000000000000000000000081526004016127b3929190613a3f565b60405180910390fd5b505050565b60605f60016127cf8461294b565b0190505f8167ffffffffffffffff8111156127ed576127ec6130fc565b5b6040519080825280601f01601f19166020018201604052801561281f5781602001600182028036833780820191505090505b5090505f82602001820190505b600115612880578080600190039150507f3031323334353637383961626364656600000000000000000000000000000000600a86061a8153600a858161287557612874613a66565b5b0494505f850361282c575b819350505050919050565b5f8073ffffffffffffffffffffffffffffffffffffffff168373ffffffffffffffffffffffffffffffffffffffff161415801561294257508273ffffffffffffffffffffffffffffffffffffffff168473ffffffffffffffffffffffffffffffffffffffff16148061290357506129028484611601565b5b8061294157508273ffffffffffffffffffffffffffffffffffffffff166129298361199b565b73ffffffffffffffffffffffffffffffffffffffff16145b5b90509392505050565b5f805f90507a184f03e93ff9f4daa797ed6e38ed64bf6a1f01000000000000000083106129a7577a184f03e93ff9f4daa797ed6e38ed64bf6a1f010000000000000000838161299d5761299c613a66565b5b0492506040810190505b6d04ee2d6d415b85acef810000000083106129e4576d04ee2d6d415b85acef810000000083816129da576129d9613a66565b5b0492506020810190505b662386f26fc100008310612a1357662386f26fc100008381612a0957612a08613a66565b5b0492506010810190505b6305f5e1008310612a3c576305f5e1008381612a3257612a31613a66565b5b0492506008810190505b6127108310612a61576127108381612a5757612a56613a66565b5b0492506004810190505b60648310612a845760648381612a7a57612a79613a66565b5b0492506002810190505b600a8310612a93576001810190505b80915050919050565b6040518060e001604052805f81526020016060815260200160608152602001606081526020016060815260200160608152602001606081525090565b5f604051905090565b5f80fd5b5f80fd5b5f7fffffffff0000000000000000000000000000000000000000000000000000000082169050919050565b612b1d81612ae9565b8114612b27575f80fd5b50565b5f81359050612b3881612b14565b92915050565b5f60208284031215612b5357612b52612ae1565b5b5f612b6084828501612b2a565b91505092915050565b5f8115159050919050565b612b7d81612b69565b82525050565b5f602082019050612b965f830184612b74565b92915050565b5f81519050919050565b5f82825260208201905092915050565b5f5b83811015612bd3578082015181840152602081019050612bb8565b5f8484015250505050565b5f601f19601f8301169050919050565b5f612bf882612b9c565b612c028185612ba6565b9350612c12818560208601612bb6565b612c1b81612bde565b840191505092915050565b5f6020820190508181035f830152612c3e8184612bee565b905092915050565b5f819050919050565b612c5881612c46565b8114612c62575f80fd5b50565b5f81359050612c7381612c4f565b92915050565b5f60208284031215612c8e57612c8d612ae1565b5b5f612c9b84828501612c65565b91505092915050565b5f73ffffffffffffffffffffffffffffffffffffffff82169050919050565b5f612ccd82612ca4565b9050919050565b612cdd81612cc3565b82525050565b5f602082019050612cf65f830184612cd4565b92915050565b612d0581612cc3565b8114612d0f575f80fd5b50565b5f81359050612d2081612cfc565b92915050565b5f8060408385031215612d3c57612d3b612ae1565b5b5f612d4985828601612d12565b9250506020612d5a85828601612c65565b9150509250929050565b5f805f60608486031215612d7b57612d7a612ae1565b5b5f612d8886828701612d12565b9350506020612d9986828701612d12565b9250506040612daa86828701612c65565b9150509250925092565b612dbd81612c46565b82525050565b5f60e082019050612dd65f83018a612db4565b8181036020830152612de88189612bee565b90508181036040830152612dfc8188612bee565b90508181036060830152612e108187612bee565b90508181036080830152612e248186612bee565b905081810360a0830152612e388185612bee565b905081810360c0830152612e4c8184612bee565b905098975050505050505050565b5f602082019050612e6d5f830184612db4565b92915050565b5f60208284031215612e8857612e87612ae1565b5b5f612e9584828501612d12565b91505092915050565b5f81519050919050565b5f82825260208201905092915050565b5f819050602082019050919050565b612ed081612c46565b82525050565b5f82825260208201905092915050565b5f612ef082612b9c565b612efa8185612ed6565b9350612f0a818560208601612bb6565b612f1381612bde565b840191505092915050565b5f60e083015f830151612f335f860182612ec7565b5060208301518482036020860152612f4b8282612ee6565b91505060408301518482036040860152612f658282612ee6565b91505060608301518482036060860152612f7f8282612ee6565b91505060808301518482036080860152612f998282612ee6565b91505060a083015184820360a0860152612fb38282612ee6565b91505060c083015184820360c0860152612fcd8282612ee6565b9150508091505092915050565b5f612fe58383612f1e565b905092915050565b5f602082019050919050565b5f61300382612e9e565b61300d8185612ea8565b93508360208202850161301f85612eb8565b805f5b8581101561305a578484038952815161303b8582612fda565b945061304683612fed565b925060208a01995050600181019050613022565b50829750879550505050505092915050565b5f6020820190508181035f8301526130848184612ff9565b905092915050565b61309581612b69565b811461309f575f80fd5b50565b5f813590506130b08161308c565b92915050565b5f80604083850312156130cc576130cb612ae1565b5b5f6130d985828601612d12565b92505060206130ea858286016130a2565b9150509250929050565b5f80fd5b5f80fd5b7f4e487b71000000000000000000000000000000000000000000000000000000005f52604160045260245ffd5b61313282612bde565b810181811067ffffffffffffffff82111715613151576131506130fc565b5b80604052505050565b5f613163612ad8565b905061316f8282613129565b919050565b5f67ffffffffffffffff82111561318e5761318d6130fc565b5b61319782612bde565b9050602081019050919050565b828183375f83830152505050565b5f6131c46131bf84613174565b61315a565b9050828152602081018484840111156131e0576131df6130f8565b5b6131eb8482856131a4565b509392505050565b5f82601f830112613207576132066130f4565b5b81356132178482602086016131b2565b91505092915050565b5f805f806080858703121561323857613237612ae1565b5b5f61324587828801612d12565b945050602061325687828801612d12565b935050604061326787828801612c65565b925050606085013567ffffffffffffffff81111561328857613287612ae5565b5b613294878288016131f3565b91505092959194509250565b5f80604083850312156132b6576132b5612ae1565b5b5f6132c385828601612d12565b92505060206132d485828601612d12565b9150509250929050565b5f67ffffffffffffffff8211156132f8576132f76130fc565b5b61330182612bde565b9050602081019050919050565b5f61332061331b846132de565b61315a565b90508281526020810184848401111561333c5761333b6130f8565b5b6133478482856131a4565b509392505050565b5f82601f830112613363576133626130f4565b5b813561337384826020860161330e565b91505092915050565b5f805f805f805f80610100898b03121561339957613398612ae1565b5b5f6133a68b828c01612d12565b985050602089013567ffffffffffffffff8111156133c7576133c6612ae5565b5b6133d38b828c0161334f565b975050604089013567ffffffffffffffff8111156133f4576133f3612ae5565b5b6134008b828c0161334f565b965050606089013567ffffffffffffffff81111561342157613420612ae5565b5b61342d8b828c0161334f565b955050608089013567ffffffffffffffff81111561344e5761344d612ae5565b5b61345a8b828c0161334f565b94505060a089013567ffffffffffffffff81111561347b5761347a612ae5565b5b6134878b828c0161334f565b93505060c089013567ffffffffffffffff8111156134a8576134a7612ae5565b5b6134b48b828c0161334f565b92505060e06134c58b828c01612d12565b9150509295985092959890939650565b7f4e487b71000000000000000000000000000000000000000000000000000000005f52602260045260245ffd5b5f600282049050600182168061351957607f821691505b60208210810361352c5761352b6134d5565b5b50919050565b5f6060820190506135455f830186612cd4565b6135526020830185612db4565b61355f6040830184612cd4565b949350505050565b7f4e487b71000000000000000000000000000000000000000000000000000000005f52603260045260245ffd5b7f4e487b71000000000000000000000000000000000000000000000000000000005f52601160045260245ffd5b5f6135cb82612c46565b91507fffffffffffffffffffffffffffffffffffffffffffffffffffffffffffffffff82036135fd576135fc613594565b5b600182019050919050565b5f81905092915050565b5f61361c82612b9c565b6136268185613608565b9350613636818560208601612bb6565b80840191505092915050565b5f61364d8285613612565b91506136598284613612565b91508190509392505050565b5f819050815f5260205f209050919050565b5f6020601f8301049050919050565b5f82821b905092915050565b5f600883026136c17fffffffffffffffffffffffffffffffffffffffffffffffffffffffffffffffff82613686565b6136cb8683613686565b95508019841693508086168417925050509392505050565b5f819050919050565b5f6137066137016136fc84612c46565b6136e3565b612c46565b9050919050565b5f819050919050565b61371f836136ec565b61373361372b8261370d565b848454613692565b825550505050565b5f90565b61374761373b565b613752818484613716565b505050565b5b818110156137755761376a5f8261373f565b600181019050613758565b5050565b601f8211156137ba5761378b81613665565b61379484613677565b810160208510156137a3578190505b6137b76137af85613677565b830182613757565b50505b505050565b5f82821c905092915050565b5f6137da5f19846008026137bf565b1980831691505092915050565b5f6137f283836137cb565b9150826002028217905092915050565b61380b82612b9c565b67ffffffffffffffff811115613824576138236130fc565b5b61382e8254613502565b613839828285613779565b5f60209050601f83116001811461386a575f8415613858578287015190505b61386285826137e7565b8655506138c9565b601f19841661387886613665565b5f5b8281101561389f5784890151825560018201915060208501945060208101905061387a565b868310156138bc57848901516138b8601f8916826137cb565b8355505b6001600288020188555050505b505050505050565b5f6138db82612c46565b91506138e683612c46565b92508282039050818111156138fe576138fd613594565b5b92915050565b5f61390e82612c46565b915061391983612c46565b925082820190508082111561393157613930613594565b5b92915050565b7f4e487b71000000000000000000000000000000000000000000000000000000005f52603160045260245ffd5b5f81519050919050565b5f82825260208201905092915050565b5f61398882613964565b613992818561396e565b93506139a2818560208601612bb6565b6139ab81612bde565b840191505092915050565b5f6080820190506139c95f830187612cd4565b6139d66020830186612cd4565b6139e36040830185612db4565b81810360608301526139f5818461397e565b905095945050505050565b5f81519050613a0e81612b14565b92915050565b5f60208284031215613a2957613a28612ae1565b5b5f613a3684828501613a00565b91505092915050565b5f604082019050613a525f830185612cd4565b613a5f6020830184612db4565b9392505050565b7f4e487b71000000000000000000000000000000000000000000000000000000005f52601260045260245ffdfea2646970667358221220f49940633ab08dba6330427e892696cba803381fc706f36ab95a351429f9d77a64736f6c63430008140033",
  "immutableReferences": {},
  "source": "// SPDX-License-Identifier: MIT\r\npragma solidity ^0.8.20;\r\n\r\nimport \"@openzeppelin/contracts/token/ERC721/extensions/ERC721URIStorage.sol\";\r\n\r\ncontract CloudConfigToken is ERC721URIStorage {\r\n    // To store the address of the owner of the contract\r\n    address owner;\r\n    uint256 tokenID = 1;\r\n    // To store server configurations and map it to a particular ID for the NFT.\r\n    struct ServerConfiguration {\r\n        uint256 id;\r\n        string gpu;\r\n        string processor;\r\n        string ram;\r\n        string cores;\r\n        string os;\r\n        string imageURL;\r\n    }\r\n    event LogMessage(string message);\r\n    event LogMessage1(uint256[] message);\r\n\r\n\r\n    mapping (uint256 => ServerConfiguration) public serverConfigs;\r\n    mapping (uint256 => uint256) public tokenToCost;\r\n    mapping (address => uint256[]) public tokenList;\r\n\r\n    constructor() ERC721(\"Cloud Config Token\", \"CCT\") {\r\n        owner = msg.sender;\r\n    }\r\n\r\n    function mintConfigToken(\r\n        // address owner,\r\n        // uint256 tokenID,\r\n        // string memory tURI,\r\n        address user,\r\n        string memory gpu,\r\n        string memory processor,\r\n        string memory ram,\r\n        string memory cores,\r\n        string memory os,\r\n        string memory imageURL,\r\n        address operator\r\n    ) external {\r\n        _mint(user, tokenID);\r\n        _setTokenURI(tokenID, \"\");\r\n\r\n        serverConfigs[tokenID] = ServerConfiguration(tokenID, gpu, processor, ram, cores, os, imageURL);\r\n        tokenToCost[tokenID] = 1;\r\n        tokenList[user].push(tokenID);\r\n        tokenID++;\r\n        setApprovalForAll(operator, true);\r\n    }\r\n\r\n    function getConfigData(uint256 tokenId) public view returns (\r\n        uint256 id,\r\n        string memory gpu,\r\n        string memory processor,\r\n        string memory ram,\r\n        string memory cores,\r\n        string memory os,\r\n        string memory imageURL\r\n    ) {\r\n        ServerConfiguration memory config = serverConfigs[tokenId];\r\n        id = config.id;\r\n        gpu = config.gpu;\r\n        processor = config.processor;\r\n        ram = config.ram;\r\n        cores = config.cores;\r\n        os = config.os;\r\n        imageURL = config.imageURL;\r\n    }\r\n\r\n    // function buyServerConfig(uint256 tokenId) external payable {\r\n    //     uint256 cost = tokenToCost[tokenId];\r\n    //     require(cost > 0, \"Invalid token ID\");\r\n    //     require(msg.value >= cost, \"Insufficient funds to purchase server config\");\r\n\r\n    //     // Transfer the token to the buyer\r\n    //     safeTransferFrom(ownerOf(tokenId), msg.sender, tokenId);\r\n\r\n    //     // Send the payment to the seller (contract owner)\r\n    //     address payable seller = payable(owner);\r\n    //     seller.transfer(msg.value);\r\n    // }\r\n\r\n    function getConfigList(address user) public view returns (\r\n        ServerConfiguration[] memory\r\n    ) {\r\n        uint256[] memory arr = tokenList[user];\r\n        ServerConfiguration[] memory configs = new ServerConfiguration[](arr.length);\r\n        for (uint256 i=0; i<arr.length ; i++){\r\n            configs[i]= serverConfigs[arr[i]];\r\n        }\r\n        return configs;\r\n    }\r\n\r\n    function remove(uint val, address user) internal{\r\n        uint index;\r\n        for (uint i = 0 ; i < tokenList[user].length ; i++) {\r\n            if (tokenList[user][i]==val){\r\n                index=i;\r\n                break;\r\n            }\r\n        }\r\n        for (uint i = index; i < tokenList[user].length - 1; i++) {\r\n            tokenList[user][i] = tokenList[user][i + 1];\r\n        }\r\n        tokenList[user].pop();\r\n    }\r\n\r\n    function transferOwnership(address from, address to, uint256 tokenId) public {\r\n        remove(tokenId,from);\r\n        tokenList[to].push(tokenId);\r\n    }\r\n\r\n    function transferCCT(address from, address to, uint256 tokenId) public {\r\n        _transfer(from, to, tokenId);\r\n    }\r\n    \r\n}",
  "sourcePath": "C:\\Users\\parth\\Downloads\\College\\Fall 2023\\Blockchain\\Caab\\Cloud-as-a-Blockchain-CaaB-\\caab-contract\\contracts\\CCT_ERC721.sol",
  "compiler": {
    "name": "solc",
    "version": "0.8.20+commit.a1b79de6.Emscripten.clang"
  },
  "schemaVersion": "3.4.16",
  "updatedAt": "2023-11-18T08:19:41.778Z",
  "networkType": "ethereum",
  "devdoc": {
    "errors": {
      "ERC721IncorrectOwner(address,uint256,address)": [
        {
          "details": "Indicates an error related to the ownership over a particular token. Used in transfers.",
          "params": {
            "owner": "Address of the current owner of a token.",
            "sender": "Address whose tokens are being transferred.",
            "tokenId": "Identifier number of a token."
          }
        }
      ],
      "ERC721InsufficientApproval(address,uint256)": [
        {
          "details": "Indicates a failure with the `operator`s approval. Used in transfers.",
          "params": {
            "operator": "Address that may be allowed to operate on tokens without being their owner.",
            "tokenId": "Identifier number of a token."
          }
        }
      ],
      "ERC721InvalidApprover(address)": [
        {
          "details": "Indicates a failure with the `approver` of a token to be approved. Used in approvals.",
          "params": {
            "approver": "Address initiating an approval operation."
          }
        }
      ],
      "ERC721InvalidOperator(address)": [
        {
          "details": "Indicates a failure with the `operator` to be approved. Used in approvals.",
          "params": {
            "operator": "Address that may be allowed to operate on tokens without being their owner."
          }
        }
      ],
      "ERC721InvalidOwner(address)": [
        {
          "details": "Indicates that an address can't be an owner. For example, `address(0)` is a forbidden owner in EIP-20. Used in balance queries.",
          "params": {
            "owner": "Address of the current owner of a token."
          }
        }
      ],
      "ERC721InvalidReceiver(address)": [
        {
          "details": "Indicates a failure with the token `receiver`. Used in transfers.",
          "params": {
            "receiver": "Address to which tokens are being transferred."
          }
        }
      ],
      "ERC721InvalidSender(address)": [
        {
          "details": "Indicates a failure with the token `sender`. Used in transfers.",
          "params": {
            "sender": "Address whose tokens are being transferred."
          }
        }
      ],
      "ERC721NonexistentToken(uint256)": [
        {
          "details": "Indicates a `tokenId` whose `owner` is the zero address.",
          "params": {
            "tokenId": "Identifier number of a token."
          }
        }
      ]
    },
    "events": {
      "Approval(address,address,uint256)": {
        "details": "Emitted when `owner` enables `approved` to manage the `tokenId` token."
      },
      "ApprovalForAll(address,address,bool)": {
        "details": "Emitted when `owner` enables or disables (`approved`) `operator` to manage all of its assets."
      },
      "BatchMetadataUpdate(uint256,uint256)": {
        "details": "This event emits when the metadata of a range of tokens is changed. So that the third-party platforms such as NFT market could timely update the images and related attributes of the NFTs."
      },
      "MetadataUpdate(uint256)": {
        "details": "This event emits when the metadata of a token is changed. So that the third-party platforms such as NFT market could timely update the images and related attributes of the NFT."
      },
      "Transfer(address,address,uint256)": {
        "details": "Emitted when `tokenId` token is transferred from `from` to `to`."
      }
    },
    "kind": "dev",
    "methods": {
      "approve(address,uint256)": {
        "details": "See {IERC721-approve}."
      },
      "balanceOf(address)": {
        "details": "See {IERC721-balanceOf}."
      },
      "getApproved(uint256)": {
        "details": "See {IERC721-getApproved}."
      },
      "isApprovedForAll(address,address)": {
        "details": "See {IERC721-isApprovedForAll}."
      },
      "name()": {
        "details": "See {IERC721Metadata-name}."
      },
      "ownerOf(uint256)": {
        "details": "See {IERC721-ownerOf}."
      },
      "safeTransferFrom(address,address,uint256)": {
        "details": "See {IERC721-safeTransferFrom}."
      },
      "safeTransferFrom(address,address,uint256,bytes)": {
        "details": "See {IERC721-safeTransferFrom}."
      },
      "setApprovalForAll(address,bool)": {
        "details": "See {IERC721-setApprovalForAll}."
      },
      "supportsInterface(bytes4)": {
        "details": "See {IERC165-supportsInterface}"
      },
      "symbol()": {
        "details": "See {IERC721Metadata-symbol}."
      },
      "tokenURI(uint256)": {
        "details": "See {IERC721Metadata-tokenURI}."
      },
      "transferFrom(address,address,uint256)": {
        "details": "See {IERC721-transferFrom}."
      }
    },
    "version": 1
  },
  "userdoc": {
    "kind": "user",
    "methods": {},
    "version": 1
  }
}