{
  "contractName": "CloudConfigToken",
  "abi": [
    {
      "inputs": [],
      "stateMutability": "nonpayable",
      "type": "constructor"
    },
    {
      "inputs": [
        {
          "internalType": "address",
          "name": "sender",
          "type": "address"
        },
        {
          "internalType": "uint256",
          "name": "tokenId",
          "type": "uint256"
        },
        {
          "internalType": "address",
          "name": "owner",
          "type": "address"
        }
      ],
      "name": "ERC721IncorrectOwner",
      "type": "error"
    },
    {
      "inputs": [
        {
          "internalType": "address",
          "name": "operator",
          "type": "address"
        },
        {
          "internalType": "uint256",
          "name": "tokenId",
          "type": "uint256"
        }
      ],
      "name": "ERC721InsufficientApproval",
      "type": "error"
    },
    {
      "inputs": [
        {
          "internalType": "address",
          "name": "approver",
          "type": "address"
        }
      ],
      "name": "ERC721InvalidApprover",
      "type": "error"
    },
    {
      "inputs": [
        {
          "internalType": "address",
          "name": "operator",
          "type": "address"
        }
      ],
      "name": "ERC721InvalidOperator",
      "type": "error"
    },
    {
      "inputs": [
        {
          "internalType": "address",
          "name": "owner",
          "type": "address"
        }
      ],
      "name": "ERC721InvalidOwner",
      "type": "error"
    },
    {
      "inputs": [
        {
          "internalType": "address",
          "name": "receiver",
          "type": "address"
        }
      ],
      "name": "ERC721InvalidReceiver",
      "type": "error"
    },
    {
      "inputs": [
        {
          "internalType": "address",
          "name": "sender",
          "type": "address"
        }
      ],
      "name": "ERC721InvalidSender",
      "type": "error"
    },
    {
      "inputs": [
        {
          "internalType": "uint256",
          "name": "tokenId",
          "type": "uint256"
        }
      ],
      "name": "ERC721NonexistentToken",
      "type": "error"
    },
    {
      "anonymous": false,
      "inputs": [
        {
          "indexed": true,
          "internalType": "address",
          "name": "owner",
          "type": "address"
        },
        {
          "indexed": true,
          "internalType": "address",
          "name": "approved",
          "type": "address"
        },
        {
          "indexed": true,
          "internalType": "uint256",
          "name": "tokenId",
          "type": "uint256"
        }
      ],
      "name": "Approval",
      "type": "event"
    },
    {
      "anonymous": false,
      "inputs": [
        {
          "indexed": true,
          "internalType": "address",
          "name": "owner",
          "type": "address"
        },
        {
          "indexed": true,
          "internalType": "address",
          "name": "operator",
          "type": "address"
        },
        {
          "indexed": false,
          "internalType": "bool",
          "name": "approved",
          "type": "bool"
        }
      ],
      "name": "ApprovalForAll",
      "type": "event"
    },
    {
      "anonymous": false,
      "inputs": [
        {
          "indexed": false,
          "internalType": "uint256",
          "name": "_fromTokenId",
          "type": "uint256"
        },
        {
          "indexed": false,
          "internalType": "uint256",
          "name": "_toTokenId",
          "type": "uint256"
        }
      ],
      "name": "BatchMetadataUpdate",
      "type": "event"
    },
    {
      "anonymous": false,
      "inputs": [
        {
          "indexed": false,
          "internalType": "uint256",
          "name": "_tokenId",
          "type": "uint256"
        }
      ],
      "name": "MetadataUpdate",
      "type": "event"
    },
    {
      "anonymous": false,
      "inputs": [
        {
          "indexed": false,
          "internalType": "string",
          "name": "message",
          "type": "string"
        }
      ],
      "name": "NFTOwnershipTransferred",
      "type": "event"
    },
    {
      "anonymous": false,
      "inputs": [
        {
          "indexed": false,
          "internalType": "string",
          "name": "message",
          "type": "string"
        }
      ],
      "name": "NFTminted",
      "type": "event"
    },
    {
      "anonymous": false,
      "inputs": [
        {
          "indexed": true,
          "internalType": "address",
          "name": "from",
          "type": "address"
        },
        {
          "indexed": true,
          "internalType": "address",
          "name": "to",
          "type": "address"
        },
        {
          "indexed": true,
          "internalType": "uint256",
          "name": "tokenId",
          "type": "uint256"
        }
      ],
      "name": "Transfer",
      "type": "event"
    },
    {
      "inputs": [
        {
          "internalType": "address",
          "name": "to",
          "type": "address"
        },
        {
          "internalType": "uint256",
          "name": "tokenId",
          "type": "uint256"
        }
      ],
      "name": "approve",
      "outputs": [],
      "stateMutability": "nonpayable",
      "type": "function"
    },
    {
      "inputs": [
        {
          "internalType": "address",
          "name": "owner",
          "type": "address"
        }
      ],
      "name": "balanceOf",
      "outputs": [
        {
          "internalType": "uint256",
          "name": "",
          "type": "uint256"
        }
      ],
      "stateMutability": "view",
      "type": "function",
      "constant": true
    },
    {
      "inputs": [
        {
          "internalType": "uint256",
          "name": "tokenId",
          "type": "uint256"
        }
      ],
      "name": "getApproved",
      "outputs": [
        {
          "internalType": "address",
          "name": "",
          "type": "address"
        }
      ],
      "stateMutability": "view",
      "type": "function",
      "constant": true
    },
    {
      "inputs": [
        {
          "internalType": "address",
          "name": "owner",
          "type": "address"
        },
        {
          "internalType": "address",
          "name": "operator",
          "type": "address"
        }
      ],
      "name": "isApprovedForAll",
      "outputs": [
        {
          "internalType": "bool",
          "name": "",
          "type": "bool"
        }
      ],
      "stateMutability": "view",
      "type": "function",
      "constant": true
    },
    {
      "inputs": [],
      "name": "name",
      "outputs": [
        {
          "internalType": "string",
          "name": "",
          "type": "string"
        }
      ],
      "stateMutability": "view",
      "type": "function",
      "constant": true
    },
    {
      "inputs": [
        {
          "internalType": "uint256",
          "name": "tokenId",
          "type": "uint256"
        }
      ],
      "name": "ownerOf",
      "outputs": [
        {
          "internalType": "address",
          "name": "",
          "type": "address"
        }
      ],
      "stateMutability": "view",
      "type": "function",
      "constant": true
    },
    {
      "inputs": [
        {
          "internalType": "address",
          "name": "from",
          "type": "address"
        },
        {
          "internalType": "address",
          "name": "to",
          "type": "address"
        },
        {
          "internalType": "uint256",
          "name": "tokenId",
          "type": "uint256"
        }
      ],
      "name": "safeTransferFrom",
      "outputs": [],
      "stateMutability": "nonpayable",
      "type": "function"
    },
    {
      "inputs": [
        {
          "internalType": "address",
          "name": "from",
          "type": "address"
        },
        {
          "internalType": "address",
          "name": "to",
          "type": "address"
        },
        {
          "internalType": "uint256",
          "name": "tokenId",
          "type": "uint256"
        },
        {
          "internalType": "bytes",
          "name": "data",
          "type": "bytes"
        }
      ],
      "name": "safeTransferFrom",
      "outputs": [],
      "stateMutability": "nonpayable",
      "type": "function"
    },
    {
      "inputs": [
        {
          "internalType": "uint256",
          "name": "",
          "type": "uint256"
        }
      ],
      "name": "serverConfigs",
      "outputs": [
        {
          "internalType": "uint256",
          "name": "id",
          "type": "uint256"
        },
        {
          "internalType": "string",
          "name": "gpu",
          "type": "string"
        },
        {
          "internalType": "string",
          "name": "processor",
          "type": "string"
        },
        {
          "internalType": "string",
          "name": "ram",
          "type": "string"
        },
        {
          "internalType": "string",
          "name": "cores",
          "type": "string"
        },
        {
          "internalType": "string",
          "name": "os",
          "type": "string"
        },
        {
          "internalType": "string",
          "name": "imageURL",
          "type": "string"
        }
      ],
      "stateMutability": "view",
      "type": "function",
      "constant": true
    },
    {
      "inputs": [
        {
          "internalType": "address",
          "name": "operator",
          "type": "address"
        },
        {
          "internalType": "bool",
          "name": "approved",
          "type": "bool"
        }
      ],
      "name": "setApprovalForAll",
      "outputs": [],
      "stateMutability": "nonpayable",
      "type": "function"
    },
    {
      "inputs": [
        {
          "internalType": "bytes4",
          "name": "interfaceId",
          "type": "bytes4"
        }
      ],
      "name": "supportsInterface",
      "outputs": [
        {
          "internalType": "bool",
          "name": "",
          "type": "bool"
        }
      ],
      "stateMutability": "view",
      "type": "function",
      "constant": true
    },
    {
      "inputs": [],
      "name": "symbol",
      "outputs": [
        {
          "internalType": "string",
          "name": "",
          "type": "string"
        }
      ],
      "stateMutability": "view",
      "type": "function",
      "constant": true
    },
    {
      "inputs": [
        {
          "internalType": "address",
          "name": "",
          "type": "address"
        },
        {
          "internalType": "uint256",
          "name": "",
          "type": "uint256"
        }
      ],
      "name": "tokenList",
      "outputs": [
        {
          "internalType": "uint256",
          "name": "",
          "type": "uint256"
        }
      ],
      "stateMutability": "view",
      "type": "function",
      "constant": true
    },
    {
      "inputs": [
        {
          "internalType": "uint256",
          "name": "",
          "type": "uint256"
        }
      ],
      "name": "tokenToCost",
      "outputs": [
        {
          "internalType": "uint256",
          "name": "",
          "type": "uint256"
        }
      ],
      "stateMutability": "view",
      "type": "function",
      "constant": true
    },
    {
      "inputs": [
        {
          "internalType": "uint256",
          "name": "tokenId",
          "type": "uint256"
        }
      ],
      "name": "tokenURI",
      "outputs": [
        {
          "internalType": "string",
          "name": "",
          "type": "string"
        }
      ],
      "stateMutability": "view",
      "type": "function",
      "constant": true
    },
    {
      "inputs": [
        {
          "internalType": "address",
          "name": "from",
          "type": "address"
        },
        {
          "internalType": "address",
          "name": "to",
          "type": "address"
        },
        {
          "internalType": "uint256",
          "name": "tokenId",
          "type": "uint256"
        }
      ],
      "name": "transferFrom",
      "outputs": [],
      "stateMutability": "nonpayable",
      "type": "function"
    },
    {
      "inputs": [
        {
          "internalType": "address",
          "name": "user",
          "type": "address"
        },
        {
          "internalType": "string",
          "name": "gpu",
          "type": "string"
        },
        {
          "internalType": "string",
          "name": "processor",
          "type": "string"
        },
        {
          "internalType": "string",
          "name": "ram",
          "type": "string"
        },
        {
          "internalType": "string",
          "name": "cores",
          "type": "string"
        },
        {
          "internalType": "string",
          "name": "os",
          "type": "string"
        },
        {
          "internalType": "string",
          "name": "imageURL",
          "type": "string"
        }
      ],
      "name": "mintConfigToken",
      "outputs": [],
      "stateMutability": "nonpayable",
      "type": "function"
    },
    {
      "inputs": [
        {
          "internalType": "uint256",
          "name": "tokenId",
          "type": "uint256"
        }
      ],
      "name": "getConfigData",
      "outputs": [
        {
          "components": [
            {
              "internalType": "uint256",
              "name": "id",
              "type": "uint256"
            },
            {
              "internalType": "string",
              "name": "gpu",
              "type": "string"
            },
            {
              "internalType": "string",
              "name": "processor",
              "type": "string"
            },
            {
              "internalType": "string",
              "name": "ram",
              "type": "string"
            },
            {
              "internalType": "string",
              "name": "cores",
              "type": "string"
            },
            {
              "internalType": "string",
              "name": "os",
              "type": "string"
            },
            {
              "internalType": "string",
              "name": "imageURL",
              "type": "string"
            }
          ],
          "internalType": "struct CloudConfigToken.ServerConfiguration",
          "name": "config",
          "type": "tuple"
        }
      ],
      "stateMutability": "view",
      "type": "function",
      "constant": true
    },
    {
      "inputs": [
        {
          "internalType": "address",
          "name": "user",
          "type": "address"
        }
      ],
      "name": "getConfigList",
      "outputs": [
        {
          "components": [
            {
              "internalType": "uint256",
              "name": "id",
              "type": "uint256"
            },
            {
              "internalType": "string",
              "name": "gpu",
              "type": "string"
            },
            {
              "internalType": "string",
              "name": "processor",
              "type": "string"
            },
            {
              "internalType": "string",
              "name": "ram",
              "type": "string"
            },
            {
              "internalType": "string",
              "name": "cores",
              "type": "string"
            },
            {
              "internalType": "string",
              "name": "os",
              "type": "string"
            },
            {
              "internalType": "string",
              "name": "imageURL",
              "type": "string"
            }
          ],
          "internalType": "struct CloudConfigToken.ServerConfiguration[]",
          "name": "",
          "type": "tuple[]"
        }
      ],
      "stateMutability": "view",
      "type": "function",
      "constant": true
    },
    {
      "inputs": [
        {
          "internalType": "address",
          "name": "from",
          "type": "address"
        },
        {
          "internalType": "address",
          "name": "to",
          "type": "address"
        },
        {
          "internalType": "uint256",
          "name": "tokenId",
          "type": "uint256"
        }
      ],
      "name": "transferOwnership",
      "outputs": [],
      "stateMutability": "nonpayable",
      "type": "function"
    },
    {
      "inputs": [
        {
          "internalType": "address",
          "name": "from",
          "type": "address"
        },
        {
          "internalType": "address",
          "name": "to",
          "type": "address"
        },
        {
          "internalType": "uint256",
          "name": "tokenId",
          "type": "uint256"
        }
      ],
      "name": "transferCCT",
      "outputs": [],
      "stateMutability": "nonpayable",
      "type": "function"
    }
  ],
  "bytecode": "0x6080604052600160085534801562000015575f80fd5b506040518060400160405280601281526020017f436c6f756420436f6e66696720546f6b656e00000000000000000000000000008152506040518060400160405280600381526020017f4343540000000000000000000000000000000000000000000000000000000000815250815f908162000092919062000351565b508060019081620000a4919062000351565b5050503360075f6101000a81548173ffffffffffffffffffffffffffffffffffffffff021916908373ffffffffffffffffffffffffffffffffffffffff16021790555062000435565b5f81519050919050565b7f4e487b71000000000000000000000000000000000000000000000000000000005f52604160045260245ffd5b7f4e487b71000000000000000000000000000000000000000000000000000000005f52602260045260245ffd5b5f60028204905060018216806200016957607f821691505b6020821081036200017f576200017e62000124565b5b50919050565b5f819050815f5260205f209050919050565b5f6020601f8301049050919050565b5f82821b905092915050565b5f60088302620001e37fffffffffffffffffffffffffffffffffffffffffffffffffffffffffffffffff82620001a6565b620001ef8683620001a6565b95508019841693508086168417925050509392505050565b5f819050919050565b5f819050919050565b5f62000239620002336200022d8462000207565b62000210565b62000207565b9050919050565b5f819050919050565b620002548362000219565b6200026c620002638262000240565b848454620001b2565b825550505050565b5f90565b6200028262000274565b6200028f81848462000249565b505050565b5b81811015620002b657620002aa5f8262000278565b60018101905062000295565b5050565b601f8211156200030557620002cf8162000185565b620002da8462000197565b81016020851015620002ea578190505b62000302620002f98562000197565b83018262000294565b50505b505050565b5f82821c905092915050565b5f620003275f19846008026200030a565b1980831691505092915050565b5f62000341838362000316565b9150826002028217905092915050565b6200035c82620000ed565b67ffffffffffffffff811115620003785762000377620000f7565b5b62000384825462000151565b62000391828285620002ba565b5f60209050601f831160018114620003c7575f8415620003b2578287015190505b620003be858262000334565b8655506200042d565b601f198416620003d78662000185565b5f5b828110156200040057848901518255600182019150602085019450602081019050620003d9565b868310156200042057848901516200041c601f89168262000316565b8355505b6001600288020188555050505b505050505050565b613e1780620004435f395ff3fe608060405234801561000f575f80fd5b5060043610610135575f3560e01c80636352211e116100b6578063a22cb4651161007a578063a22cb4651461036d578063b717fc1d14610389578063b88d4fde146103bf578063bebfd690146103db578063c87b56dd1461040b578063e985e9c51461043b57610135565b80636352211e146102a357806370a08231146102d3578063877528851461030357806390deb05c1461031f57806395d89b411461034f57610135565b806323b872dd116100fd57806323b872dd146101ef578063383a46691461020b57806342842e0e1461023b578063451591461461025757806348e1997f1461027357610135565b806301ffc9a71461013957806306fdde0314610169578063081812fc14610187578063095ea7b3146101b7578063171c00fd146101d3575b5f80fd5b610153600480360381019061014e9190612bce565b61046b565b6040516101609190612c13565b60405180910390f35b6101716104cb565b60405161017e9190612cb6565b60405180910390f35b6101a1600480360381019061019c9190612d09565b61055a565b6040516101ae9190612d73565b60405180910390f35b6101d160048036038101906101cc9190612db6565b610575565b005b6101ed60048036038101906101e89190612df4565b61058b565b005b61020960048036038101906102049190612df4565b610630565b005b61022560048036038101906102209190612d09565b61072f565b6040516102329190612f57565b60405180910390f35b61025560048036038101906102509190612df4565b610ac3565b005b610271600480360381019061026c9190612df4565b610ae2565b005b61028d60048036038101906102889190612d09565b610af2565b60405161029a9190612f86565b60405180910390f35b6102bd60048036038101906102b89190612d09565b610b07565b6040516102ca9190612d73565b60405180910390f35b6102ed60048036038101906102e89190612f9f565b610b18565b6040516102fa9190612f86565b60405180910390f35b61031d600480360381019061031891906130f6565b610bce565b005b61033960048036038101906103349190612f9f565b610e0e565b60405161034691906133b2565b60405180910390f35b6103576112db565b6040516103649190612cb6565b60405180910390f35b610387600480360381019061038291906133fc565b61136b565b005b6103a3600480360381019061039e9190612d09565b611381565b6040516103b6979695949392919061343a565b60405180910390f35b6103d960048036038101906103d4919061356f565b6116e3565b005b6103f560048036038101906103f09190612db6565b611700565b6040516104029190612f86565b60405180910390f35b61042560048036038101906104209190612d09565b61172b565b6040516104329190612cb6565b60405180910390f35b610455600480360381019061045091906135ef565b611836565b6040516104629190612c13565b60405180910390f35b5f634906490660e01b7bffffffffffffffffffffffffffffffffffffffffffffffffffffffff1916827bffffffffffffffffffffffffffffffffffffffffffffffffffffffff191614806104c457506104c3826118c4565b5b9050919050565b60605f80546104d99061365a565b80601f01602080910402602001604051908101604052809291908181526020018280546105059061365a565b80156105505780601f1061052757610100808354040283529160200191610550565b820191905f5260205f20905b81548152906001019060200180831161053357829003601f168201915b5050505050905090565b5f610564826119a5565b5061056e82611a2b565b9050919050565b6105878282610582611a64565b611a6b565b5050565b6105958184611a7d565b600b5f8373ffffffffffffffffffffffffffffffffffffffff1673ffffffffffffffffffffffffffffffffffffffff1681526020019081526020015f2081908060018154018082558091505060019003905f5260205f20015f90919091909150557f85aead5abc35ec20c6befe2b34624beef9e6ebe07d7eda1025f05757d62e1358604051610623906136fa565b60405180910390a1505050565b5f73ffffffffffffffffffffffffffffffffffffffff168273ffffffffffffffffffffffffffffffffffffffff16036106a0575f6040517f64a0ae920000000000000000000000000000000000000000000000000000000081526004016106979190612d73565b60405180910390fd5b5f6106b383836106ae611a64565b611cd6565b90508373ffffffffffffffffffffffffffffffffffffffff168173ffffffffffffffffffffffffffffffffffffffff1614610729578382826040517f64283d7b00000000000000000000000000000000000000000000000000000000815260040161072093929190613718565b60405180910390fd5b50505050565b610737612b2c565b60095f8381526020019081526020015f206040518060e00160405290815f820154815260200160018201805461076c9061365a565b80601f01602080910402602001604051908101604052809291908181526020018280546107989061365a565b80156107e35780601f106107ba576101008083540402835291602001916107e3565b820191905f5260205f20905b8154815290600101906020018083116107c657829003601f168201915b505050505081526020016002820180546107fc9061365a565b80601f01602080910402602001604051908101604052809291908181526020018280546108289061365a565b80156108735780601f1061084a57610100808354040283529160200191610873565b820191905f5260205f20905b81548152906001019060200180831161085657829003601f168201915b5050505050815260200160038201805461088c9061365a565b80601f01602080910402602001604051908101604052809291908181526020018280546108b89061365a565b80156109035780601f106108da57610100808354040283529160200191610903565b820191905f5260205f20905b8154815290600101906020018083116108e657829003601f168201915b5050505050815260200160048201805461091c9061365a565b80601f01602080910402602001604051908101604052809291908181526020018280546109489061365a565b80156109935780601f1061096a57610100808354040283529160200191610993565b820191905f5260205f20905b81548152906001019060200180831161097657829003601f168201915b505050505081526020016005820180546109ac9061365a565b80601f01602080910402602001604051908101604052809291908181526020018280546109d89061365a565b8015610a235780601f106109fa57610100808354040283529160200191610a23565b820191905f5260205f20905b815481529060010190602001808311610a0657829003601f168201915b50505050508152602001600682018054610a3c9061365a565b80601f0160208091040260200160405190810160405280929190818152602001828054610a689061365a565b8015610ab35780601f10610a8a57610100808354040283529160200191610ab3565b820191905f5260205f20905b815481529060010190602001808311610a9657829003601f168201915b5050505050815250509050919050565b610add83838360405180602001604052805f8152506116e3565b505050565b610aed838383611ee1565b505050565b600a602052805f5260405f205f915090505481565b5f610b11826119a5565b9050919050565b5f8073ffffffffffffffffffffffffffffffffffffffff168273ffffffffffffffffffffffffffffffffffffffff1603610b89575f6040517f89c62b64000000000000000000000000000000000000000000000000000000008152600401610b809190612d73565b60405180910390fd5b60035f8373ffffffffffffffffffffffffffffffffffffffff1673ffffffffffffffffffffffffffffffffffffffff1681526020019081526020015f20549050919050565b86338073ffffffffffffffffffffffffffffffffffffffff168273ffffffffffffffffffffffffffffffffffffffff1603610c3e576040517f08c379a0000000000000000000000000000000000000000000000000000000008152600401610c3590613809565b60405180910390fd5b610c4a89600854612049565b610c6460085460405180602001604052805f81525061213c565b6040518060e0016040528060085481526020018981526020018881526020018781526020018681526020018581526020018481525060095f60085481526020019081526020015f205f820151815f01556020820151816001019081610cc991906139c4565b506040820151816002019081610cdf91906139c4565b506060820151816003019081610cf591906139c4565b506080820151816004019081610d0b91906139c4565b5060a0820151816005019081610d2191906139c4565b5060c0820151816006019081610d3791906139c4565b509050506001600a5f60085481526020019081526020015f2081905550600b5f8a73ffffffffffffffffffffffffffffffffffffffff1673ffffffffffffffffffffffffffffffffffffffff1681526020019081526020015f20600854908060018154018082558091505060019003905f5260205f20015f909190919091505560085f815480929190610dc990613ac0565b91905055507fdfc52999434f16071e7b16c9e590dc1fda0620311d708c266ce9b894bac98db2604051610dfb90613b77565b60405180910390a1505050505050505050565b60605f600b5f8473ffffffffffffffffffffffffffffffffffffffff1673ffffffffffffffffffffffffffffffffffffffff1681526020019081526020015f20805480602002602001604051908101604052809291908181526020018280548015610e9657602002820191905f5260205f20905b815481526020019060010190808311610e82575b505050505090505f815167ffffffffffffffff811115610eb957610eb8612fd2565b5b604051908082528060200260200182016040528015610ef257816020015b610edf612b2c565b815260200190600190039081610ed75790505b5090505f5b82518110156112d05760095f848381518110610f1657610f15613b95565b5b602002602001015181526020019081526020015f206040518060e00160405290815f8201548152602001600182018054610f4f9061365a565b80601f0160208091040260200160405190810160405280929190818152602001828054610f7b9061365a565b8015610fc65780601f10610f9d57610100808354040283529160200191610fc6565b820191905f5260205f20905b815481529060010190602001808311610fa957829003601f168201915b50505050508152602001600282018054610fdf9061365a565b80601f016020809104026020016040519081016040528092919081815260200182805461100b9061365a565b80156110565780601f1061102d57610100808354040283529160200191611056565b820191905f5260205f20905b81548152906001019060200180831161103957829003601f168201915b5050505050815260200160038201805461106f9061365a565b80601f016020809104026020016040519081016040528092919081815260200182805461109b9061365a565b80156110e65780601f106110bd576101008083540402835291602001916110e6565b820191905f5260205f20905b8154815290600101906020018083116110c957829003601f168201915b505050505081526020016004820180546110ff9061365a565b80601f016020809104026020016040519081016040528092919081815260200182805461112b9061365a565b80156111765780601f1061114d57610100808354040283529160200191611176565b820191905f5260205f20905b81548152906001019060200180831161115957829003601f168201915b5050505050815260200160058201805461118f9061365a565b80601f01602080910402602001604051908101604052809291908181526020018280546111bb9061365a565b80156112065780601f106111dd57610100808354040283529160200191611206565b820191905f5260205f20905b8154815290600101906020018083116111e957829003601f168201915b5050505050815260200160068201805461121f9061365a565b80601f016020809104026020016040519081016040528092919081815260200182805461124b9061365a565b80156112965780601f1061126d57610100808354040283529160200191611296565b820191905f5260205f20905b81548152906001019060200180831161127957829003601f168201915b5050505050815250508282815181106112b2576112b1613b95565b5b602002602001018190525080806112c890613ac0565b915050610ef7565b508092505050919050565b6060600180546112ea9061365a565b80601f01602080910402602001604051908101604052809291908181526020018280546113169061365a565b80156113615780601f1061133857610100808354040283529160200191611361565b820191905f5260205f20905b81548152906001019060200180831161134457829003601f168201915b5050505050905090565b61137d611376611a64565b8383612196565b5050565b6009602052805f5260405f205f91509050805f0154908060010180546113a69061365a565b80601f01602080910402602001604051908101604052809291908181526020018280546113d29061365a565b801561141d5780601f106113f45761010080835404028352916020019161141d565b820191905f5260205f20905b81548152906001019060200180831161140057829003601f168201915b5050505050908060020180546114329061365a565b80601f016020809104026020016040519081016040528092919081815260200182805461145e9061365a565b80156114a95780601f10611480576101008083540402835291602001916114a9565b820191905f5260205f20905b81548152906001019060200180831161148c57829003601f168201915b5050505050908060030180546114be9061365a565b80601f01602080910402602001604051908101604052809291908181526020018280546114ea9061365a565b80156115355780601f1061150c57610100808354040283529160200191611535565b820191905f5260205f20905b81548152906001019060200180831161151857829003601f168201915b50505050509080600401805461154a9061365a565b80601f01602080910402602001604051908101604052809291908181526020018280546115769061365a565b80156115c15780601f10611598576101008083540402835291602001916115c1565b820191905f5260205f20905b8154815290600101906020018083116115a457829003601f168201915b5050505050908060050180546115d69061365a565b80601f01602080910402602001604051908101604052809291908181526020018280546116029061365a565b801561164d5780601f106116245761010080835404028352916020019161164d565b820191905f5260205f20905b81548152906001019060200180831161163057829003601f168201915b5050505050908060060180546116629061365a565b80601f016020809104026020016040519081016040528092919081815260200182805461168e9061365a565b80156116d95780601f106116b0576101008083540402835291602001916116d9565b820191905f5260205f20905b8154815290600101906020018083116116bc57829003601f168201915b5050505050905087565b6116ee848484610630565b6116fa848484846122ff565b50505050565b600b602052815f5260405f208181548110611719575f80fd5b905f5260205f20015f91509150505481565b6060611736826119a5565b505f60065f8481526020019081526020015f2080546117549061365a565b80601f01602080910402602001604051908101604052809291908181526020018280546117809061365a565b80156117cb5780601f106117a2576101008083540402835291602001916117cb565b820191905f5260205f20905b8154815290600101906020018083116117ae57829003601f168201915b505050505090505f6117db6124b1565b90505f8151036117ef578192505050611831565b5f8251111561182357808260405160200161180b929190613bfc565b60405160208183030381529060405292505050611831565b61182c846124c7565b925050505b919050565b5f60055f8473ffffffffffffffffffffffffffffffffffffffff1673ffffffffffffffffffffffffffffffffffffffff1681526020019081526020015f205f8373ffffffffffffffffffffffffffffffffffffffff1673ffffffffffffffffffffffffffffffffffffffff1681526020019081526020015f205f9054906101000a900460ff16905092915050565b5f7f80ac58cd000000000000000000000000000000000000000000000000000000007bffffffffffffffffffffffffffffffffffffffffffffffffffffffff1916827bffffffffffffffffffffffffffffffffffffffffffffffffffffffff1916148061198e57507f5b5e139f000000000000000000000000000000000000000000000000000000007bffffffffffffffffffffffffffffffffffffffffffffffffffffffff1916827bffffffffffffffffffffffffffffffffffffffffffffffffffffffff1916145b8061199e575061199d8261252d565b5b9050919050565b5f806119b083612596565b90505f73ffffffffffffffffffffffffffffffffffffffff168173ffffffffffffffffffffffffffffffffffffffff1603611a2257826040517f7e273289000000000000000000000000000000000000000000000000000000008152600401611a199190612f86565b60405180910390fd5b80915050919050565b5f60045f8381526020019081526020015f205f9054906101000a900473ffffffffffffffffffffffffffffffffffffffff169050919050565b5f33905090565b611a7883838360016125cf565b505050565b5f805f90505b600b5f8473ffffffffffffffffffffffffffffffffffffffff1673ffffffffffffffffffffffffffffffffffffffff1681526020019081526020015f2080549050811015611b445783600b5f8573ffffffffffffffffffffffffffffffffffffffff1673ffffffffffffffffffffffffffffffffffffffff1681526020019081526020015f208281548110611b1b57611b1a613b95565b5b905f5260205f20015403611b3157809150611b44565b8080611b3c90613ac0565b915050611a83565b505f8190505b6001600b5f8573ffffffffffffffffffffffffffffffffffffffff1673ffffffffffffffffffffffffffffffffffffffff1681526020019081526020015f2080549050611b979190613c1f565b811015611c7057600b5f8473ffffffffffffffffffffffffffffffffffffffff1673ffffffffffffffffffffffffffffffffffffffff1681526020019081526020015f20600182611be89190613c52565b81548110611bf957611bf8613b95565b5b905f5260205f200154600b5f8573ffffffffffffffffffffffffffffffffffffffff1673ffffffffffffffffffffffffffffffffffffffff1681526020019081526020015f208281548110611c5157611c50613b95565b5b905f5260205f2001819055508080611c6890613ac0565b915050611b4a565b50600b5f8373ffffffffffffffffffffffffffffffffffffffff1673ffffffffffffffffffffffffffffffffffffffff1681526020019081526020015f20805480611cbe57611cbd613c85565b5b600190038181905f5260205f20015f90559055505050565b5f80611ce184612596565b90505f73ffffffffffffffffffffffffffffffffffffffff168373ffffffffffffffffffffffffffffffffffffffff1614611d2257611d2181848661278e565b5b5f73ffffffffffffffffffffffffffffffffffffffff168173ffffffffffffffffffffffffffffffffffffffff1614611dad57611d615f855f806125cf565b600160035f8373ffffffffffffffffffffffffffffffffffffffff1673ffffffffffffffffffffffffffffffffffffffff1681526020019081526020015f205f82825403925050819055505b5f73ffffffffffffffffffffffffffffffffffffffff168573ffffffffffffffffffffffffffffffffffffffff1614611e2c57600160035f8773ffffffffffffffffffffffffffffffffffffffff1673ffffffffffffffffffffffffffffffffffffffff1681526020019081526020015f205f82825401925050819055505b8460025f8681526020019081526020015f205f6101000a81548173ffffffffffffffffffffffffffffffffffffffff021916908373ffffffffffffffffffffffffffffffffffffffff160217905550838573ffffffffffffffffffffffffffffffffffffffff168273ffffffffffffffffffffffffffffffffffffffff167fddf252ad1be2c89b69c2b068fc378daa952ba7f163c4a11628f55a4df523b3ef60405160405180910390a4809150509392505050565b5f73ffffffffffffffffffffffffffffffffffffffff168273ffffffffffffffffffffffffffffffffffffffff1603611f51575f6040517f64a0ae92000000000000000000000000000000000000000000000000000000008152600401611f489190612d73565b60405180910390fd5b5f611f5d83835f611cd6565b90505f73ffffffffffffffffffffffffffffffffffffffff168173ffffffffffffffffffffffffffffffffffffffff1603611fcf57816040517f7e273289000000000000000000000000000000000000000000000000000000008152600401611fc69190612f86565b60405180910390fd5b8373ffffffffffffffffffffffffffffffffffffffff168173ffffffffffffffffffffffffffffffffffffffff1614612043578382826040517f64283d7b00000000000000000000000000000000000000000000000000000000815260040161203a93929190613718565b60405180910390fd5b50505050565b5f73ffffffffffffffffffffffffffffffffffffffff168273ffffffffffffffffffffffffffffffffffffffff16036120b9575f6040517f64a0ae920000000000000000000000000000000000000000000000000000000081526004016120b09190612d73565b60405180910390fd5b5f6120c583835f611cd6565b90505f73ffffffffffffffffffffffffffffffffffffffff168173ffffffffffffffffffffffffffffffffffffffff1614612137575f6040517f73c6ac6e00000000000000000000000000000000000000000000000000000000815260040161212e9190612d73565b60405180910390fd5b505050565b8060065f8481526020019081526020015f20908161215a91906139c4565b507ff8e1a15aba9398e019f0b49df1a4fde98ee17ae345cb5f6b5e2c27f5033e8ce78260405161218a9190612f86565b60405180910390a15050565b5f73ffffffffffffffffffffffffffffffffffffffff168273ffffffffffffffffffffffffffffffffffffffff160361220657816040517f5b08ba180000000000000000000000000000000000000000000000000000000081526004016121fd9190612d73565b60405180910390fd5b8060055f8573ffffffffffffffffffffffffffffffffffffffff1673ffffffffffffffffffffffffffffffffffffffff1681526020019081526020015f205f8473ffffffffffffffffffffffffffffffffffffffff1673ffffffffffffffffffffffffffffffffffffffff1681526020019081526020015f205f6101000a81548160ff0219169083151502179055508173ffffffffffffffffffffffffffffffffffffffff168373ffffffffffffffffffffffffffffffffffffffff167f17307eab39ab6107e8899845ad3d59bd9653f200f220920489ca2b5937696c31836040516122f29190612c13565b60405180910390a3505050565b5f8373ffffffffffffffffffffffffffffffffffffffff163b11156124ab578273ffffffffffffffffffffffffffffffffffffffff1663150b7a02612342611a64565b8685856040518563ffffffff1660e01b81526004016123649493929190613d04565b6020604051808303815f875af192505050801561239f57506040513d601f19601f8201168201806040525081019061239c9190613d62565b60015b612420573d805f81146123cd576040519150601f19603f3d011682016040523d82523d5f602084013e6123d2565b606091505b505f81510361241857836040517f64a0ae9200000000000000000000000000000000000000000000000000000000815260040161240f9190612d73565b60405180910390fd5b805181602001fd5b63150b7a0260e01b7bffffffffffffffffffffffffffffffffffffffffffffffffffffffff1916817bffffffffffffffffffffffffffffffffffffffffffffffffffffffff1916146124a957836040517f64a0ae920000000000000000000000000000000000000000000000000000000081526004016124a09190612d73565b60405180910390fd5b505b50505050565b606060405180602001604052805f815250905090565b60606124d2826119a5565b505f6124dc6124b1565b90505f8151116124fa5760405180602001604052805f815250612525565b8061250484612851565b604051602001612515929190613bfc565b6040516020818303038152906040525b915050919050565b5f7f01ffc9a7000000000000000000000000000000000000000000000000000000007bffffffffffffffffffffffffffffffffffffffffffffffffffffffff1916827bffffffffffffffffffffffffffffffffffffffffffffffffffffffff1916149050919050565b5f60025f8381526020019081526020015f205f9054906101000a900473ffffffffffffffffffffffffffffffffffffffff169050919050565b808061260757505f73ffffffffffffffffffffffffffffffffffffffff168273ffffffffffffffffffffffffffffffffffffffff1614155b15612739575f612616846119a5565b90505f73ffffffffffffffffffffffffffffffffffffffff168373ffffffffffffffffffffffffffffffffffffffff161415801561268057508273ffffffffffffffffffffffffffffffffffffffff168173ffffffffffffffffffffffffffffffffffffffff1614155b801561269357506126918184611836565b155b156126d557826040517fa9fbf51f0000000000000000000000000000000000000000000000000000000081526004016126cc9190612d73565b60405180910390fd5b811561273757838573ffffffffffffffffffffffffffffffffffffffff168273ffffffffffffffffffffffffffffffffffffffff167f8c5be1e5ebec7d5bd14f71427d1e84f3dd0314c0f7b2291e5b200ac8c7c3b92560405160405180910390a45b505b8360045f8581526020019081526020015f205f6101000a81548173ffffffffffffffffffffffffffffffffffffffff021916908373ffffffffffffffffffffffffffffffffffffffff16021790555050505050565b61279983838361291b565b61284c575f73ffffffffffffffffffffffffffffffffffffffff168373ffffffffffffffffffffffffffffffffffffffff160361280d57806040517f7e2732890000000000000000000000000000000000000000000000000000000081526004016128049190612f86565b60405180910390fd5b81816040517f177e802f000000000000000000000000000000000000000000000000000000008152600401612843929190613d8d565b60405180910390fd5b505050565b60605f600161285f846129db565b0190505f8167ffffffffffffffff81111561287d5761287c612fd2565b5b6040519080825280601f01601f1916602001820160405280156128af5781602001600182028036833780820191505090505b5090505f82602001820190505b600115612910578080600190039150507f3031323334353637383961626364656600000000000000000000000000000000600a86061a8153600a858161290557612904613db4565b5b0494505f85036128bc575b819350505050919050565b5f8073ffffffffffffffffffffffffffffffffffffffff168373ffffffffffffffffffffffffffffffffffffffff16141580156129d257508273ffffffffffffffffffffffffffffffffffffffff168473ffffffffffffffffffffffffffffffffffffffff16148061299357506129928484611836565b5b806129d157508273ffffffffffffffffffffffffffffffffffffffff166129b983611a2b565b73ffffffffffffffffffffffffffffffffffffffff16145b5b90509392505050565b5f805f90507a184f03e93ff9f4daa797ed6e38ed64bf6a1f0100000000000000008310612a37577a184f03e93ff9f4daa797ed6e38ed64bf6a1f0100000000000000008381612a2d57612a2c613db4565b5b0492506040810190505b6d04ee2d6d415b85acef81000000008310612a74576d04ee2d6d415b85acef81000000008381612a6a57612a69613db4565b5b0492506020810190505b662386f26fc100008310612aa357662386f26fc100008381612a9957612a98613db4565b5b0492506010810190505b6305f5e1008310612acc576305f5e1008381612ac257612ac1613db4565b5b0492506008810190505b6127108310612af1576127108381612ae757612ae6613db4565b5b0492506004810190505b60648310612b145760648381612b0a57612b09613db4565b5b0492506002810190505b600a8310612b23576001810190505b80915050919050565b6040518060e001604052805f81526020016060815260200160608152602001606081526020016060815260200160608152602001606081525090565b5f604051905090565b5f80fd5b5f80fd5b5f7fffffffff0000000000000000000000000000000000000000000000000000000082169050919050565b612bad81612b79565b8114612bb7575f80fd5b50565b5f81359050612bc881612ba4565b92915050565b5f60208284031215612be357612be2612b71565b5b5f612bf084828501612bba565b91505092915050565b5f8115159050919050565b612c0d81612bf9565b82525050565b5f602082019050612c265f830184612c04565b92915050565b5f81519050919050565b5f82825260208201905092915050565b5f5b83811015612c63578082015181840152602081019050612c48565b5f8484015250505050565b5f601f19601f8301169050919050565b5f612c8882612c2c565b612c928185612c36565b9350612ca2818560208601612c46565b612cab81612c6e565b840191505092915050565b5f6020820190508181035f830152612cce8184612c7e565b905092915050565b5f819050919050565b612ce881612cd6565b8114612cf2575f80fd5b50565b5f81359050612d0381612cdf565b92915050565b5f60208284031215612d1e57612d1d612b71565b5b5f612d2b84828501612cf5565b91505092915050565b5f73ffffffffffffffffffffffffffffffffffffffff82169050919050565b5f612d5d82612d34565b9050919050565b612d6d81612d53565b82525050565b5f602082019050612d865f830184612d64565b92915050565b612d9581612d53565b8114612d9f575f80fd5b50565b5f81359050612db081612d8c565b92915050565b5f8060408385031215612dcc57612dcb612b71565b5b5f612dd985828601612da2565b9250506020612dea85828601612cf5565b9150509250929050565b5f805f60608486031215612e0b57612e0a612b71565b5b5f612e1886828701612da2565b9350506020612e2986828701612da2565b9250506040612e3a86828701612cf5565b9150509250925092565b612e4d81612cd6565b82525050565b5f82825260208201905092915050565b5f612e6d82612c2c565b612e778185612e53565b9350612e87818560208601612c46565b612e9081612c6e565b840191505092915050565b5f60e083015f830151612eb05f860182612e44565b5060208301518482036020860152612ec88282612e63565b91505060408301518482036040860152612ee28282612e63565b91505060608301518482036060860152612efc8282612e63565b91505060808301518482036080860152612f168282612e63565b91505060a083015184820360a0860152612f308282612e63565b91505060c083015184820360c0860152612f4a8282612e63565b9150508091505092915050565b5f6020820190508181035f830152612f6f8184612e9b565b905092915050565b612f8081612cd6565b82525050565b5f602082019050612f995f830184612f77565b92915050565b5f60208284031215612fb457612fb3612b71565b5b5f612fc184828501612da2565b91505092915050565b5f80fd5b5f80fd5b7f4e487b71000000000000000000000000000000000000000000000000000000005f52604160045260245ffd5b61300882612c6e565b810181811067ffffffffffffffff8211171561302757613026612fd2565b5b80604052505050565b5f613039612b68565b90506130458282612fff565b919050565b5f67ffffffffffffffff82111561306457613063612fd2565b5b61306d82612c6e565b9050602081019050919050565b828183375f83830152505050565b5f61309a6130958461304a565b613030565b9050828152602081018484840111156130b6576130b5612fce565b5b6130c184828561307a565b509392505050565b5f82601f8301126130dd576130dc612fca565b5b81356130ed848260208601613088565b91505092915050565b5f805f805f805f60e0888a03121561311157613110612b71565b5b5f61311e8a828b01612da2565b975050602088013567ffffffffffffffff81111561313f5761313e612b75565b5b61314b8a828b016130c9565b965050604088013567ffffffffffffffff81111561316c5761316b612b75565b5b6131788a828b016130c9565b955050606088013567ffffffffffffffff81111561319957613198612b75565b5b6131a58a828b016130c9565b945050608088013567ffffffffffffffff8111156131c6576131c5612b75565b5b6131d28a828b016130c9565b93505060a088013567ffffffffffffffff8111156131f3576131f2612b75565b5b6131ff8a828b016130c9565b92505060c088013567ffffffffffffffff8111156132205761321f612b75565b5b61322c8a828b016130c9565b91505092959891949750929550565b5f81519050919050565b5f82825260208201905092915050565b5f819050602082019050919050565b5f60e083015f8301516132795f860182612e44565b50602083015184820360208601526132918282612e63565b915050604083015184820360408601526132ab8282612e63565b915050606083015184820360608601526132c58282612e63565b915050608083015184820360808601526132df8282612e63565b91505060a083015184820360a08601526132f98282612e63565b91505060c083015184820360c08601526133138282612e63565b9150508091505092915050565b5f61332b8383613264565b905092915050565b5f602082019050919050565b5f6133498261323b565b6133538185613245565b93508360208202850161336585613255565b805f5b858110156133a057848403895281516133818582613320565b945061338c83613333565b925060208a01995050600181019050613368565b50829750879550505050505092915050565b5f6020820190508181035f8301526133ca818461333f565b905092915050565b6133db81612bf9565b81146133e5575f80fd5b50565b5f813590506133f6816133d2565b92915050565b5f806040838503121561341257613411612b71565b5b5f61341f85828601612da2565b9250506020613430858286016133e8565b9150509250929050565b5f60e08201905061344d5f83018a612f77565b818103602083015261345f8189612c7e565b905081810360408301526134738188612c7e565b905081810360608301526134878187612c7e565b9050818103608083015261349b8186612c7e565b905081810360a08301526134af8185612c7e565b905081810360c08301526134c38184612c7e565b905098975050505050505050565b5f67ffffffffffffffff8211156134eb576134ea612fd2565b5b6134f482612c6e565b9050602081019050919050565b5f61351361350e846134d1565b613030565b90508281526020810184848401111561352f5761352e612fce565b5b61353a84828561307a565b509392505050565b5f82601f83011261355657613555612fca565b5b8135613566848260208601613501565b91505092915050565b5f805f806080858703121561358757613586612b71565b5b5f61359487828801612da2565b94505060206135a587828801612da2565b93505060406135b687828801612cf5565b925050606085013567ffffffffffffffff8111156135d7576135d6612b75565b5b6135e387828801613542565b91505092959194509250565b5f806040838503121561360557613604612b71565b5b5f61361285828601612da2565b925050602061362385828601612da2565b9150509250929050565b7f4e487b71000000000000000000000000000000000000000000000000000000005f52602260045260245ffd5b5f600282049050600182168061367157607f821691505b6020821081036136845761368361362d565b5b50919050565b7f546865206f776e657273686970207472616e73666572206f6620746865204e465f8201527f54206973207375636365737366756c0000000000000000000000000000000000602082015250565b5f6136e4602f83612c36565b91506136ef8261368a565b604082019050919050565b5f6020820190508181035f830152613711816136d8565b9050919050565b5f60608201905061372b5f830186612d64565b6137386020830185612f77565b6137456040830184612d64565b949350505050565b7f54686520757365722073686f756c64206265207468652063616c6c6572206f665f8201527f206d696e74436f6e666967546f6b656e2066756e6374696f6e2e20497420736860208201527f6f756c642062652063616c6c656420627920746865206f776e6572206f72207460408201527f6865204552433131353520636f6e747261637421000000000000000000000000606082015250565b5f6137f3607483612c36565b91506137fe8261374d565b608082019050919050565b5f6020820190508181035f830152613820816137e7565b9050919050565b5f819050815f5260205f209050919050565b5f6020601f8301049050919050565b5f82821b905092915050565b5f600883026138837fffffffffffffffffffffffffffffffffffffffffffffffffffffffffffffffff82613848565b61388d8683613848565b95508019841693508086168417925050509392505050565b5f819050919050565b5f6138c86138c36138be84612cd6565b6138a5565b612cd6565b9050919050565b5f819050919050565b6138e1836138ae565b6138f56138ed826138cf565b848454613854565b825550505050565b5f90565b6139096138fd565b6139148184846138d8565b505050565b5b818110156139375761392c5f82613901565b60018101905061391a565b5050565b601f82111561397c5761394d81613827565b61395684613839565b81016020851015613965578190505b61397961397185613839565b830182613919565b50505b505050565b5f82821c905092915050565b5f61399c5f1984600802613981565b1980831691505092915050565b5f6139b4838361398d565b9150826002028217905092915050565b6139cd82612c2c565b67ffffffffffffffff8111156139e6576139e5612fd2565b5b6139f0825461365a565b6139fb82828561393b565b5f60209050601f831160018114613a2c575f8415613a1a578287015190505b613a2485826139a9565b865550613a8b565b601f198416613a3a86613827565b5f5b82811015613a6157848901518255600182019150602085019450602081019050613a3c565b86831015613a7e5784890151613a7a601f89168261398d565b8355505b6001600288020188555050505b505050505050565b7f4e487b71000000000000000000000000000000000000000000000000000000005f52601160045260245ffd5b5f613aca82612cd6565b91507fffffffffffffffffffffffffffffffffffffffffffffffffffffffffffffffff8203613afc57613afb613a93565b5b600182019050919050565b7f4d696e746564204e4654207375636365737366756c6c7920666f7220746865205f8201527f757365722e000000000000000000000000000000000000000000000000000000602082015250565b5f613b61602583612c36565b9150613b6c82613b07565b604082019050919050565b5f6020820190508181035f830152613b8e81613b55565b9050919050565b7f4e487b71000000000000000000000000000000000000000000000000000000005f52603260045260245ffd5b5f81905092915050565b5f613bd682612c2c565b613be08185613bc2565b9350613bf0818560208601612c46565b80840191505092915050565b5f613c078285613bcc565b9150613c138284613bcc565b91508190509392505050565b5f613c2982612cd6565b9150613c3483612cd6565b9250828203905081811115613c4c57613c4b613a93565b5b92915050565b5f613c5c82612cd6565b9150613c6783612cd6565b9250828201905080821115613c7f57613c7e613a93565b5b92915050565b7f4e487b71000000000000000000000000000000000000000000000000000000005f52603160045260245ffd5b5f81519050919050565b5f82825260208201905092915050565b5f613cd682613cb2565b613ce08185613cbc565b9350613cf0818560208601612c46565b613cf981612c6e565b840191505092915050565b5f608082019050613d175f830187612d64565b613d246020830186612d64565b613d316040830185612f77565b8181036060830152613d438184613ccc565b905095945050505050565b5f81519050613d5c81612ba4565b92915050565b5f60208284031215613d7757613d76612b71565b5b5f613d8484828501613d4e565b91505092915050565b5f604082019050613da05f830185612d64565b613dad6020830184612f77565b9392505050565b7f4e487b71000000000000000000000000000000000000000000000000000000005f52601260045260245ffdfea26469706673582212200c7a1ccb7e2b3f6f2edfc600022319d7daa04429e3480563298f5a89de352c6564736f6c63430008140033",
  "immutableReferences": {},
  "source": "// SPDX-License-Identifier: MIT\r\npragma solidity ^0.8.18;\r\n\r\nimport \"@openzeppelin/contracts/token/ERC721/extensions/ERC721URIStorage.sol\";\r\n\r\ncontract CloudConfigToken is ERC721URIStorage {\r\n    // To store the address of the owner of the contract\r\n    address owner;\r\n    uint256 tokenID = 1;\r\n    // To store server configurations and map it to a particular ID for the NFT.\r\n    struct ServerConfiguration {\r\n        uint256 id;\r\n        string gpu;\r\n        string processor;\r\n        string ram;\r\n        string cores;\r\n        string os;\r\n        string imageURL;\r\n    }\r\n\r\n    mapping (uint256 => ServerConfiguration) public serverConfigs;\r\n    mapping (uint256 => uint256) public tokenToCost;\r\n    mapping (address => uint256[]) public tokenList;\r\n\r\n    event NFTminted(string message);\r\n    event NFTOwnershipTransferred(string message);\r\n\r\n    modifier userNotCaller (address user, address functionCaller) {\r\n        require(\r\n          user!=functionCaller,\r\n          \"The user should be the caller of mintConfigToken function. It should be called by the owner or the ERC1155 contract!\"\r\n        );\r\n        _;\r\n    }\r\n\r\n    constructor() ERC721(\"Cloud Config Token\", \"CCT\") {\r\n        owner = msg.sender;\r\n    }\r\n\r\n    function mintConfigToken(\r\n        address user,\r\n        string memory gpu,\r\n        string memory processor,\r\n        string memory ram,\r\n        string memory cores,\r\n        string memory os,\r\n        string memory imageURL\r\n    ) external userNotCaller(user,msg.sender) {\r\n        _mint(user, tokenID);\r\n        _setTokenURI(tokenID, \"\");\r\n\r\n        serverConfigs[tokenID] = ServerConfiguration(tokenID, gpu, processor, ram, cores, os, imageURL);\r\n        tokenToCost[tokenID] = 1;\r\n        tokenList[user].push(tokenID);\r\n        tokenID++;\r\n        // setApprovalForAll(operator, true);\r\n        emit NFTminted(\"Minted NFT successfully for the user.\");\r\n    }\r\n\r\n    function getConfigData(uint256 tokenId) public view returns (\r\n        ServerConfiguration memory config\r\n    ) {\r\n        config = serverConfigs[tokenId];\r\n    }\r\n\r\n    // function buyServerConfig(uint256 tokenId) external payable {\r\n    //     uint256 cost = tokenToCost[tokenId];\r\n    //     require(cost > 0, \"Invalid token ID\");\r\n    //     require(msg.value >= cost, \"Insufficient funds to purchase server config\");\r\n\r\n    //     // Transfer the token to the buyer\r\n    //     safeTransferFrom(ownerOf(tokenId), msg.sender, tokenId);\r\n\r\n    //     // Send the payment to the seller (contract owner)\r\n    //     address payable seller = payable(owner);\r\n    //     seller.transfer(msg.value);\r\n    // }\r\n\r\n    function getConfigList(address user) public view returns (\r\n        ServerConfiguration[] memory\r\n    ) {\r\n        uint256[] memory arr = tokenList[user];\r\n        ServerConfiguration[] memory configs = new ServerConfiguration[](arr.length);\r\n        for (uint256 i=0; i<arr.length ; i++){\r\n            configs[i]= serverConfigs[arr[i]];\r\n        }\r\n        return configs;\r\n    }\r\n\r\n    function remove(uint val, address user) internal{\r\n        uint index;\r\n        for (uint i = 0 ; i < tokenList[user].length ; i++) {\r\n            if (tokenList[user][i]==val){\r\n                index=i;\r\n                break;\r\n            }\r\n        }\r\n        for (uint i = index; i < tokenList[user].length - 1; i++) {\r\n            tokenList[user][i] = tokenList[user][i + 1];\r\n        }\r\n        tokenList[user].pop();\r\n    }\r\n\r\n    function transferOwnership(address from, address to, uint256 tokenId) public {\r\n        remove(tokenId,from);\r\n        tokenList[to].push(tokenId);\r\n        emit NFTOwnershipTransferred(\"The ownership transfer of the NFT is successful\");\r\n    }\r\n\r\n    function transferCCT(address from, address to, uint256 tokenId) public {\r\n        _transfer(from, to, tokenId);\r\n    }\r\n    \r\n}",
  "sourcePath": "C:\\Users\\parth\\Downloads\\College\\Fall 2023\\Blockchain\\Caab\\Cloud-as-a-Blockchain-CaaB-\\caab-contract\\contracts\\CCT_ERC721.sol",
  "compiler": {
    "name": "solc",
    "version": "0.8.20+commit.a1b79de6.Emscripten.clang"
  },
  "schemaVersion": "3.4.16",
  "updatedAt": "2023-11-19T19:18:36.175Z",
  "networkType": "ethereum",
  "devdoc": {
    "errors": {
      "ERC721IncorrectOwner(address,uint256,address)": [
        {
          "details": "Indicates an error related to the ownership over a particular token. Used in transfers.",
          "params": {
            "owner": "Address of the current owner of a token.",
            "sender": "Address whose tokens are being transferred.",
            "tokenId": "Identifier number of a token."
          }
        }
      ],
      "ERC721InsufficientApproval(address,uint256)": [
        {
          "details": "Indicates a failure with the `operator`s approval. Used in transfers.",
          "params": {
            "operator": "Address that may be allowed to operate on tokens without being their owner.",
            "tokenId": "Identifier number of a token."
          }
        }
      ],
      "ERC721InvalidApprover(address)": [
        {
          "details": "Indicates a failure with the `approver` of a token to be approved. Used in approvals.",
          "params": {
            "approver": "Address initiating an approval operation."
          }
        }
      ],
      "ERC721InvalidOperator(address)": [
        {
          "details": "Indicates a failure with the `operator` to be approved. Used in approvals.",
          "params": {
            "operator": "Address that may be allowed to operate on tokens without being their owner."
          }
        }
      ],
      "ERC721InvalidOwner(address)": [
        {
          "details": "Indicates that an address can't be an owner. For example, `address(0)` is a forbidden owner in EIP-20. Used in balance queries.",
          "params": {
            "owner": "Address of the current owner of a token."
          }
        }
      ],
      "ERC721InvalidReceiver(address)": [
        {
          "details": "Indicates a failure with the token `receiver`. Used in transfers.",
          "params": {
            "receiver": "Address to which tokens are being transferred."
          }
        }
      ],
      "ERC721InvalidSender(address)": [
        {
          "details": "Indicates a failure with the token `sender`. Used in transfers.",
          "params": {
            "sender": "Address whose tokens are being transferred."
          }
        }
      ],
      "ERC721NonexistentToken(uint256)": [
        {
          "details": "Indicates a `tokenId` whose `owner` is the zero address.",
          "params": {
            "tokenId": "Identifier number of a token."
          }
        }
      ]
    },
    "events": {
      "Approval(address,address,uint256)": {
        "details": "Emitted when `owner` enables `approved` to manage the `tokenId` token."
      },
      "ApprovalForAll(address,address,bool)": {
        "details": "Emitted when `owner` enables or disables (`approved`) `operator` to manage all of its assets."
      },
      "BatchMetadataUpdate(uint256,uint256)": {
        "details": "This event emits when the metadata of a range of tokens is changed. So that the third-party platforms such as NFT market could timely update the images and related attributes of the NFTs."
      },
      "MetadataUpdate(uint256)": {
        "details": "This event emits when the metadata of a token is changed. So that the third-party platforms such as NFT market could timely update the images and related attributes of the NFT."
      },
      "Transfer(address,address,uint256)": {
        "details": "Emitted when `tokenId` token is transferred from `from` to `to`."
      }
    },
    "kind": "dev",
    "methods": {
      "approve(address,uint256)": {
        "details": "See {IERC721-approve}."
      },
      "balanceOf(address)": {
        "details": "See {IERC721-balanceOf}."
      },
      "getApproved(uint256)": {
        "details": "See {IERC721-getApproved}."
      },
      "isApprovedForAll(address,address)": {
        "details": "See {IERC721-isApprovedForAll}."
      },
      "name()": {
        "details": "See {IERC721Metadata-name}."
      },
      "ownerOf(uint256)": {
        "details": "See {IERC721-ownerOf}."
      },
      "safeTransferFrom(address,address,uint256)": {
        "details": "See {IERC721-safeTransferFrom}."
      },
      "safeTransferFrom(address,address,uint256,bytes)": {
        "details": "See {IERC721-safeTransferFrom}."
      },
      "setApprovalForAll(address,bool)": {
        "details": "See {IERC721-setApprovalForAll}."
      },
      "supportsInterface(bytes4)": {
        "details": "See {IERC165-supportsInterface}"
      },
      "symbol()": {
        "details": "See {IERC721Metadata-symbol}."
      },
      "tokenURI(uint256)": {
        "details": "See {IERC721Metadata-tokenURI}."
      },
      "transferFrom(address,address,uint256)": {
        "details": "See {IERC721-transferFrom}."
      }
    },
    "version": 1
  },
  "userdoc": {
    "kind": "user",
    "methods": {},
    "version": 1
  }
}