{
  "contractName": "CloudStoragetoken",
  "abi": [
    {
      "inputs": [
        {
          "internalType": "uint256",
          "name": "value",
          "type": "uint256"
        }
      ],
      "stateMutability": "nonpayable",
      "type": "constructor"
    },
    {
      "inputs": [
        {
          "internalType": "address",
          "name": "spender",
          "type": "address"
        },
        {
          "internalType": "uint256",
          "name": "allowance",
          "type": "uint256"
        },
        {
          "internalType": "uint256",
          "name": "needed",
          "type": "uint256"
        }
      ],
      "name": "ERC20InsufficientAllowance",
      "type": "error"
    },
    {
      "inputs": [
        {
          "internalType": "address",
          "name": "sender",
          "type": "address"
        },
        {
          "internalType": "uint256",
          "name": "balance",
          "type": "uint256"
        },
        {
          "internalType": "uint256",
          "name": "needed",
          "type": "uint256"
        }
      ],
      "name": "ERC20InsufficientBalance",
      "type": "error"
    },
    {
      "inputs": [
        {
          "internalType": "address",
          "name": "approver",
          "type": "address"
        }
      ],
      "name": "ERC20InvalidApprover",
      "type": "error"
    },
    {
      "inputs": [
        {
          "internalType": "address",
          "name": "receiver",
          "type": "address"
        }
      ],
      "name": "ERC20InvalidReceiver",
      "type": "error"
    },
    {
      "inputs": [
        {
          "internalType": "address",
          "name": "sender",
          "type": "address"
        }
      ],
      "name": "ERC20InvalidSender",
      "type": "error"
    },
    {
      "inputs": [
        {
          "internalType": "address",
          "name": "spender",
          "type": "address"
        }
      ],
      "name": "ERC20InvalidSpender",
      "type": "error"
    },
    {
      "anonymous": false,
      "inputs": [
        {
          "indexed": true,
          "internalType": "address",
          "name": "owner",
          "type": "address"
        },
        {
          "indexed": true,
          "internalType": "address",
          "name": "spender",
          "type": "address"
        },
        {
          "indexed": false,
          "internalType": "uint256",
          "name": "value",
          "type": "uint256"
        }
      ],
      "name": "Approval",
      "type": "event"
    },
    {
      "anonymous": false,
      "inputs": [
        {
          "indexed": true,
          "internalType": "address",
          "name": "from",
          "type": "address"
        },
        {
          "indexed": true,
          "internalType": "address",
          "name": "to",
          "type": "address"
        },
        {
          "indexed": false,
          "internalType": "uint256",
          "name": "value",
          "type": "uint256"
        }
      ],
      "name": "Transfer",
      "type": "event"
    },
    {
      "inputs": [
        {
          "internalType": "address",
          "name": "owner",
          "type": "address"
        },
        {
          "internalType": "address",
          "name": "spender",
          "type": "address"
        }
      ],
      "name": "allowance",
      "outputs": [
        {
          "internalType": "uint256",
          "name": "",
          "type": "uint256"
        }
      ],
      "stateMutability": "view",
      "type": "function",
      "constant": true
    },
    {
      "inputs": [
        {
          "internalType": "address",
          "name": "spender",
          "type": "address"
        },
        {
          "internalType": "uint256",
          "name": "value",
          "type": "uint256"
        }
      ],
      "name": "approve",
      "outputs": [
        {
          "internalType": "bool",
          "name": "",
          "type": "bool"
        }
      ],
      "stateMutability": "nonpayable",
      "type": "function"
    },
    {
      "inputs": [],
      "name": "availableStorage",
      "outputs": [
        {
          "internalType": "uint256",
          "name": "",
          "type": "uint256"
        }
      ],
      "stateMutability": "view",
      "type": "function",
      "constant": true
    },
    {
      "inputs": [
        {
          "internalType": "address",
          "name": "account",
          "type": "address"
        }
      ],
      "name": "balanceOf",
      "outputs": [
        {
          "internalType": "uint256",
          "name": "",
          "type": "uint256"
        }
      ],
      "stateMutability": "view",
      "type": "function",
      "constant": true
    },
    {
      "inputs": [],
      "name": "decimals",
      "outputs": [
        {
          "internalType": "uint8",
          "name": "",
          "type": "uint8"
        }
      ],
      "stateMutability": "view",
      "type": "function",
      "constant": true
    },
    {
      "inputs": [],
      "name": "name",
      "outputs": [
        {
          "internalType": "string",
          "name": "",
          "type": "string"
        }
      ],
      "stateMutability": "view",
      "type": "function",
      "constant": true
    },
    {
      "inputs": [
        {
          "internalType": "address",
          "name": "",
          "type": "address"
        }
      ],
      "name": "storageBalances",
      "outputs": [
        {
          "internalType": "uint256",
          "name": "",
          "type": "uint256"
        }
      ],
      "stateMutability": "view",
      "type": "function",
      "constant": true
    },
    {
      "inputs": [],
      "name": "storageCost",
      "outputs": [
        {
          "internalType": "uint256",
          "name": "",
          "type": "uint256"
        }
      ],
      "stateMutability": "view",
      "type": "function",
      "constant": true
    },
    {
      "inputs": [],
      "name": "symbol",
      "outputs": [
        {
          "internalType": "string",
          "name": "",
          "type": "string"
        }
      ],
      "stateMutability": "view",
      "type": "function",
      "constant": true
    },
    {
      "inputs": [],
      "name": "totalSupply",
      "outputs": [
        {
          "internalType": "uint256",
          "name": "",
          "type": "uint256"
        }
      ],
      "stateMutability": "view",
      "type": "function",
      "constant": true
    },
    {
      "inputs": [
        {
          "internalType": "address",
          "name": "to",
          "type": "address"
        },
        {
          "internalType": "uint256",
          "name": "value",
          "type": "uint256"
        }
      ],
      "name": "transfer",
      "outputs": [
        {
          "internalType": "bool",
          "name": "",
          "type": "bool"
        }
      ],
      "stateMutability": "nonpayable",
      "type": "function"
    },
    {
      "inputs": [
        {
          "internalType": "address",
          "name": "from",
          "type": "address"
        },
        {
          "internalType": "address",
          "name": "to",
          "type": "address"
        },
        {
          "internalType": "uint256",
          "name": "value",
          "type": "uint256"
        }
      ],
      "name": "transferFrom",
      "outputs": [
        {
          "internalType": "bool",
          "name": "",
          "type": "bool"
        }
      ],
      "stateMutability": "nonpayable",
      "type": "function"
    },
    {
      "inputs": [
        {
          "internalType": "address",
          "name": "user",
          "type": "address"
        },
        {
          "internalType": "uint256",
          "name": "diskrented",
          "type": "uint256"
        }
      ],
      "name": "rentStorage",
      "outputs": [],
      "stateMutability": "nonpayable",
      "type": "function"
    },
    {
      "inputs": [],
      "name": "getAvailableStorage",
      "outputs": [
        {
          "internalType": "uint256",
          "name": "",
          "type": "uint256"
        }
      ],
      "stateMutability": "view",
      "type": "function",
      "constant": true
    },
    {
      "inputs": [
        {
          "internalType": "address",
          "name": "user",
          "type": "address"
        }
      ],
      "name": "getUserStorageBalance",
      "outputs": [
        {
          "internalType": "uint256",
          "name": "",
          "type": "uint256"
        }
      ],
      "stateMutability": "view",
      "type": "function",
      "constant": true
    },
    {
      "inputs": [
        {
          "internalType": "uint256",
          "name": "amount",
          "type": "uint256"
        },
        {
          "internalType": "address",
          "name": "user",
          "type": "address"
        }
      ],
      "name": "buyToken",
      "outputs": [],
      "stateMutability": "nonpayable",
      "type": "function"
    },
    {
      "inputs": [
        {
          "internalType": "address",
          "name": "from",
          "type": "address"
        },
        {
          "internalType": "address",
          "name": "to",
          "type": "address"
        },
        {
          "internalType": "uint256",
          "name": "value",
          "type": "uint256"
        }
      ],
      "name": "transferCSTToken",
      "outputs": [],
      "stateMutability": "nonpayable",
      "type": "function"
    }
  ],
  "bytecode": "0x6080604052624c4b4060055534801562000017575f80fd5b5060405162001c4a38038062001c4a83398181016040528101906200003d919062000447565b6040518060400160405280601381526020017f436c6f75642053746f7261676520546f6b656e000000000000000000000000008152506040518060400160405280600381526020017f43535400000000000000000000000000000000000000000000000000000000008152508160039081620000ba9190620006d2565b508060049081620000cc9190620006d2565b5050503360065f6101000a81548173ffffffffffffffffffffffffffffffffffffffff021916908373ffffffffffffffffffffffffffffffffffffffff1602179055506200014e33620001246200015560201b60201c565b60ff16600a62000135919062000933565b8362000142919062000983565b6200015d60201b60201c565b5062000acc565b5f6012905090565b5f73ffffffffffffffffffffffffffffffffffffffff168273ffffffffffffffffffffffffffffffffffffffff1603620001d0575f6040517fec442f05000000000000000000000000000000000000000000000000000000008152600401620001c7919062000a10565b60405180910390fd5b620001e35f8383620001e760201b60201c565b5050565b5f73ffffffffffffffffffffffffffffffffffffffff168373ffffffffffffffffffffffffffffffffffffffff16036200023b578060025f8282546200022e919062000a2b565b925050819055506200030c565b5f805f8573ffffffffffffffffffffffffffffffffffffffff1673ffffffffffffffffffffffffffffffffffffffff1681526020019081526020015f2054905081811015620002c7578381836040517fe450d38c000000000000000000000000000000000000000000000000000000008152600401620002be9392919062000a76565b60405180910390fd5b8181035f808673ffffffffffffffffffffffffffffffffffffffff1673ffffffffffffffffffffffffffffffffffffffff1681526020019081526020015f2081905550505b5f73ffffffffffffffffffffffffffffffffffffffff168273ffffffffffffffffffffffffffffffffffffffff160362000355578060025f82825403925050819055506200039f565b805f808473ffffffffffffffffffffffffffffffffffffffff1673ffffffffffffffffffffffffffffffffffffffff1681526020019081526020015f205f82825401925050819055505b8173ffffffffffffffffffffffffffffffffffffffff168373ffffffffffffffffffffffffffffffffffffffff167fddf252ad1be2c89b69c2b068fc378daa952ba7f163c4a11628f55a4df523b3ef83604051620003fe919062000ab1565b60405180910390a3505050565b5f80fd5b5f819050919050565b62000423816200040f565b81146200042e575f80fd5b50565b5f81519050620004418162000418565b92915050565b5f602082840312156200045f576200045e6200040b565b5b5f6200046e8482850162000431565b91505092915050565b5f81519050919050565b7f4e487b71000000000000000000000000000000000000000000000000000000005f52604160045260245ffd5b7f4e487b71000000000000000000000000000000000000000000000000000000005f52602260045260245ffd5b5f6002820490506001821680620004f357607f821691505b602082108103620005095762000508620004ae565b5b50919050565b5f819050815f5260205f209050919050565b5f6020601f8301049050919050565b5f82821b905092915050565b5f600883026200056d7fffffffffffffffffffffffffffffffffffffffffffffffffffffffffffffffff8262000530565b62000579868362000530565b95508019841693508086168417925050509392505050565b5f819050919050565b5f620005ba620005b4620005ae846200040f565b62000591565b6200040f565b9050919050565b5f819050919050565b620005d5836200059a565b620005ed620005e482620005c1565b8484546200053c565b825550505050565b5f90565b62000603620005f5565b62000610818484620005ca565b505050565b5b8181101562000637576200062b5f82620005f9565b60018101905062000616565b5050565b601f821115620006865762000650816200050f565b6200065b8462000521565b810160208510156200066b578190505b620006836200067a8562000521565b83018262000615565b50505b505050565b5f82821c905092915050565b5f620006a85f19846008026200068b565b1980831691505092915050565b5f620006c2838362000697565b9150826002028217905092915050565b620006dd8262000477565b67ffffffffffffffff811115620006f957620006f862000481565b5b620007058254620004db565b620007128282856200063b565b5f60209050601f83116001811462000748575f841562000733578287015190505b6200073f8582620006b5565b865550620007ae565b601f19841662000758866200050f565b5f5b8281101562000781578489015182556001820191506020850194506020810190506200075a565b86831015620007a157848901516200079d601f89168262000697565b8355505b6001600288020188555050505b505050505050565b7f4e487b71000000000000000000000000000000000000000000000000000000005f52601160045260245ffd5b5f8160011c9050919050565b5f808291508390505b60018511156200084057808604811115620008185762000817620007b6565b5b6001851615620008285780820291505b80810290506200083885620007e3565b9450620007f8565b94509492505050565b5f826200085a57600190506200092c565b8162000869575f90506200092c565b81600181146200088257600281146200088d57620008c3565b60019150506200092c565b60ff841115620008a257620008a1620007b6565b5b8360020a915084821115620008bc57620008bb620007b6565b5b506200092c565b5060208310610133831016604e8410600b8410161715620008fd5782820a905083811115620008f757620008f6620007b6565b5b6200092c565b6200090c8484846001620007ef565b92509050818404811115620009265762000925620007b6565b5b81810290505b9392505050565b5f6200093f826200040f565b91506200094c836200040f565b92506200097b7fffffffffffffffffffffffffffffffffffffffffffffffffffffffffffffffff848462000849565b905092915050565b5f6200098f826200040f565b91506200099c836200040f565b9250828202620009ac816200040f565b91508282048414831517620009c657620009c5620007b6565b5b5092915050565b5f73ffffffffffffffffffffffffffffffffffffffff82169050919050565b5f620009f882620009cd565b9050919050565b62000a0a81620009ec565b82525050565b5f60208201905062000a255f830184620009ff565b92915050565b5f62000a37826200040f565b915062000a44836200040f565b925082820190508082111562000a5f5762000a5e620007b6565b5b92915050565b62000a70816200040f565b82525050565b5f60608201905062000a8b5f830186620009ff565b62000a9a602083018562000a65565b62000aa9604083018462000a65565b949350505050565b5f60208201905062000ac65f83018462000a65565b92915050565b6111708062000ada5f395ff3fe608060405234801561000f575f80fd5b5060043610610109575f3560e01c8063313ce567116100a05780639134709e1161006f5780639134709e146102cb57806395d89b41146102e7578063a9059cbb14610305578063dd62ed3e14610335578063e973baec1461036557610109565b8063313ce567146102435780633cb2fecc146102615780634cc360051461027f57806370a082311461029b57610109565b806318160ddd116100dc57806318160ddd146101a7578063192c8b27146101c55780631a6f33b6146101f557806323b872dd1461021357610109565b806306bd04d21461010d57806306fdde031461013d5780630832065b1461015b578063095ea7b314610177575b5f80fd5b61012760048036038101906101229190610d0b565b610383565b6040516101349190610d4e565b60405180910390f35b610145610398565b6040516101529190610df1565b60405180910390f35b61017560048036038101906101709190610e3b565b610428565b005b610191600480360381019061018c9190610e8b565b610438565b60405161019e9190610ee3565b60405180910390f35b6101af61045a565b6040516101bc9190610d4e565b60405180910390f35b6101df60048036038101906101da9190610d0b565b610463565b6040516101ec9190610d4e565b60405180910390f35b6101fd6104a9565b60405161020a9190610d4e565b60405180910390f35b61022d60048036038101906102289190610e3b565b6104b2565b60405161023a9190610ee3565b60405180910390f35b61024b6104e0565b6040516102589190610f17565b60405180910390f35b6102696104e8565b6040516102769190610d4e565b60405180910390f35b61029960048036038101906102949190610e8b565b6104f4565b005b6102b560048036038101906102b09190610d0b565b61057b565b6040516102c29190610d4e565b60405180910390f35b6102e560048036038101906102e09190610f30565b6105c0565b005b6102ef6105f0565b6040516102fc9190610df1565b60405180910390f35b61031f600480360381019061031a9190610e8b565b610680565b60405161032c9190610ee3565b60405180910390f35b61034f600480360381019061034a9190610f6e565b6106a2565b60405161035c9190610d4e565b60405180910390f35b61036d610724565b60405161037a9190610d4e565b60405180910390f35b6007602052805f5260405f205f915090505481565b6060600380546103a790610fd9565b80601f01602080910402602001604051908101604052809291908181526020018280546103d390610fd9565b801561041e5780601f106103f55761010080835404028352916020019161041e565b820191905f5260205f20905b81548152906001019060200180831161040157829003601f168201915b5050505050905090565b61043383838361072a565b505050565b5f8061044261081a565b905061044f818585610821565b600191505092915050565b5f600254905090565b5f60075f8373ffffffffffffffffffffffffffffffffffffffff1673ffffffffffffffffffffffffffffffffffffffff1681526020019081526020015f20549050919050565b5f600554905090565b5f806104bc61081a565b90506104c9858285610833565b6104d485858561072a565b60019150509392505050565b5f6012905090565b6702c68af0bb14000081565b6005816105019190611036565b60075f8473ffffffffffffffffffffffffffffffffffffffff1673ffffffffffffffffffffffffffffffffffffffff1681526020019081526020015f205f82825461054c9190611077565b925050819055506005816105609190611036565b60055f82825461057091906110aa565b925050819055505050565b5f805f8373ffffffffffffffffffffffffffffffffffffffff1673ffffffffffffffffffffffffffffffffffffffff1681526020019081526020015f20549050919050565b6105ec60065f9054906101000a900473ffffffffffffffffffffffffffffffffffffffff16828461072a565b5050565b6060600480546105ff90610fd9565b80601f016020809104026020016040519081016040528092919081815260200182805461062b90610fd9565b80156106765780601f1061064d57610100808354040283529160200191610676565b820191905f5260205f20905b81548152906001019060200180831161065957829003601f168201915b5050505050905090565b5f8061068a61081a565b905061069781858561072a565b600191505092915050565b5f60015f8473ffffffffffffffffffffffffffffffffffffffff1673ffffffffffffffffffffffffffffffffffffffff1681526020019081526020015f205f8373ffffffffffffffffffffffffffffffffffffffff1673ffffffffffffffffffffffffffffffffffffffff1681526020019081526020015f2054905092915050565b60055481565b5f73ffffffffffffffffffffffffffffffffffffffff168373ffffffffffffffffffffffffffffffffffffffff160361079a575f6040517f96c6fd1e00000000000000000000000000000000000000000000000000000000815260040161079191906110ec565b60405180910390fd5b5f73ffffffffffffffffffffffffffffffffffffffff168273ffffffffffffffffffffffffffffffffffffffff160361080a575f6040517fec442f0500000000000000000000000000000000000000000000000000000000815260040161080191906110ec565b60405180910390fd5b6108158383836108c5565b505050565b5f33905090565b61082e8383836001610ade565b505050565b5f61083e84846106a2565b90507fffffffffffffffffffffffffffffffffffffffffffffffffffffffffffffffff81146108bf57818110156108b0578281836040517ffb8f41b20000000000000000000000000000000000000000000000000000000081526004016108a793929190611105565b60405180910390fd5b6108be84848484035f610ade565b5b50505050565b5f73ffffffffffffffffffffffffffffffffffffffff168373ffffffffffffffffffffffffffffffffffffffff1603610915578060025f8282546109099190611077565b925050819055506109e3565b5f805f8573ffffffffffffffffffffffffffffffffffffffff1673ffffffffffffffffffffffffffffffffffffffff1681526020019081526020015f205490508181101561099e578381836040517fe450d38c00000000000000000000000000000000000000000000000000000000815260040161099593929190611105565b60405180910390fd5b8181035f808673ffffffffffffffffffffffffffffffffffffffff1673ffffffffffffffffffffffffffffffffffffffff1681526020019081526020015f2081905550505b5f73ffffffffffffffffffffffffffffffffffffffff168273ffffffffffffffffffffffffffffffffffffffff1603610a2a578060025f8282540392505081905550610a74565b805f808473ffffffffffffffffffffffffffffffffffffffff1673ffffffffffffffffffffffffffffffffffffffff1681526020019081526020015f205f82825401925050819055505b8173ffffffffffffffffffffffffffffffffffffffff168373ffffffffffffffffffffffffffffffffffffffff167fddf252ad1be2c89b69c2b068fc378daa952ba7f163c4a11628f55a4df523b3ef83604051610ad19190610d4e565b60405180910390a3505050565b5f73ffffffffffffffffffffffffffffffffffffffff168473ffffffffffffffffffffffffffffffffffffffff1603610b4e575f6040517fe602df05000000000000000000000000000000000000000000000000000000008152600401610b4591906110ec565b60405180910390fd5b5f73ffffffffffffffffffffffffffffffffffffffff168373ffffffffffffffffffffffffffffffffffffffff1603610bbe575f6040517f94280d62000000000000000000000000000000000000000000000000000000008152600401610bb591906110ec565b60405180910390fd5b8160015f8673ffffffffffffffffffffffffffffffffffffffff1673ffffffffffffffffffffffffffffffffffffffff1681526020019081526020015f205f8573ffffffffffffffffffffffffffffffffffffffff1673ffffffffffffffffffffffffffffffffffffffff1681526020019081526020015f20819055508015610ca7578273ffffffffffffffffffffffffffffffffffffffff168473ffffffffffffffffffffffffffffffffffffffff167f8c5be1e5ebec7d5bd14f71427d1e84f3dd0314c0f7b2291e5b200ac8c7c3b92584604051610c9e9190610d4e565b60405180910390a35b50505050565b5f80fd5b5f73ffffffffffffffffffffffffffffffffffffffff82169050919050565b5f610cda82610cb1565b9050919050565b610cea81610cd0565b8114610cf4575f80fd5b50565b5f81359050610d0581610ce1565b92915050565b5f60208284031215610d2057610d1f610cad565b5b5f610d2d84828501610cf7565b91505092915050565b5f819050919050565b610d4881610d36565b82525050565b5f602082019050610d615f830184610d3f565b92915050565b5f81519050919050565b5f82825260208201905092915050565b5f5b83811015610d9e578082015181840152602081019050610d83565b5f8484015250505050565b5f601f19601f8301169050919050565b5f610dc382610d67565b610dcd8185610d71565b9350610ddd818560208601610d81565b610de681610da9565b840191505092915050565b5f6020820190508181035f830152610e098184610db9565b905092915050565b610e1a81610d36565b8114610e24575f80fd5b50565b5f81359050610e3581610e11565b92915050565b5f805f60608486031215610e5257610e51610cad565b5b5f610e5f86828701610cf7565b9350506020610e7086828701610cf7565b9250506040610e8186828701610e27565b9150509250925092565b5f8060408385031215610ea157610ea0610cad565b5b5f610eae85828601610cf7565b9250506020610ebf85828601610e27565b9150509250929050565b5f8115159050919050565b610edd81610ec9565b82525050565b5f602082019050610ef65f830184610ed4565b92915050565b5f60ff82169050919050565b610f1181610efc565b82525050565b5f602082019050610f2a5f830184610f08565b92915050565b5f8060408385031215610f4657610f45610cad565b5b5f610f5385828601610e27565b9250506020610f6485828601610cf7565b9150509250929050565b5f8060408385031215610f8457610f83610cad565b5b5f610f9185828601610cf7565b9250506020610fa285828601610cf7565b9150509250929050565b7f4e487b71000000000000000000000000000000000000000000000000000000005f52602260045260245ffd5b5f6002820490506001821680610ff057607f821691505b60208210810361100357611002610fac565b5b50919050565b7f4e487b71000000000000000000000000000000000000000000000000000000005f52601160045260245ffd5b5f61104082610d36565b915061104b83610d36565b925082820261105981610d36565b915082820484148315176110705761106f611009565b5b5092915050565b5f61108182610d36565b915061108c83610d36565b92508282019050808211156110a4576110a3611009565b5b92915050565b5f6110b482610d36565b91506110bf83610d36565b92508282039050818111156110d7576110d6611009565b5b92915050565b6110e681610cd0565b82525050565b5f6020820190506110ff5f8301846110dd565b92915050565b5f6060820190506111185f8301866110dd565b6111256020830185610d3f565b6111326040830184610d3f565b94935050505056fea2646970667358221220a90b4fc04512fa9ec6b8d3d37664203214345506480eed47506a3a1c8884c92164736f6c63430008140033",
  "immutableReferences": {},
  "source": "// SPDX-License-Identifier: MIT\npragma solidity ^0.8.20;\n\nimport \"@openzeppelin/contracts/token/ERC20/ERC20.sol\";\n\ncontract CloudStoragetoken is ERC20 {\n    uint256 public constant storageCost = 2 * 10**17; // Cost of 1GB data is 0.2 Token\n    uint256 public availableStorage = 5000000;  // Total storage space in GB\n    address owner; // To store the address of the owner of the contract\n\n    mapping(address => uint256) public storageBalances; // To keep track of resources rented by each user\n\n    constructor(uint256 value) ERC20(\"Cloud Storage Token\", \"CST\") {\n        owner = msg.sender;\n        _mint(msg.sender, value * 10 ** uint256(decimals()));\n    }\n\n    // used to rent storage.s\n    // function rentStorage(uint256 amount) external payable {\n    //     require(amount > 0, \"Amount must be greater than 0\");\n    //     require(balanceOf(msg.sender) >= amount * storageCost, \"Not enough CST tokens to purchase storage\");\n    //     require(availableStorage >= amount, \"Not enough storage space available\");\n\n    //     transferFrom(msg.sender, owner, amount * storageCost);\n    //     storageBalances[msg.sender] += amount;\n    //     availableStorage -= amount;\n    // }\n    function rentStorage(address user, uint256 diskrented) external {\n        storageBalances[user] += (diskrented*5);\n        availableStorage -= (diskrented*5);\n    }\n\n    function getAvailableStorage() external view returns (uint256) {\n        return availableStorage;\n    }\n\n    function getUserStorageBalance(address user) external view returns (uint256) {\n        return storageBalances[user];\n    }\n\n    function buyToken(uint256 amount, address user) external {\n\n        // transferFrom(owner, user, amount);\n        _transfer(owner, user, amount);\n    }\n\n    function transferCSTToken(address from, address to, uint256 value) external {\n\n        _transfer(from, to, value);\n    }\n\n    // function approveContract() external \n\n}",
  "sourcePath": "/Users/anujvadecha/Cloud-as-a-Blockchain-CaaB-/caab-contract/contracts/CST_ERC20.sol",
  "compiler": {
    "name": "solc",
    "version": "0.8.20+commit.a1b79de6.Emscripten.clang"
  },
  "schemaVersion": "3.4.16",
  "updatedAt": "2023-11-18T20:46:07.252Z",
  "networkType": "ethereum",
  "devdoc": {
    "errors": {
      "ERC20InsufficientAllowance(address,uint256,uint256)": [
        {
          "details": "Indicates a failure with the `spender`s `allowance`. Used in transfers.",
          "params": {
            "allowance": "Amount of tokens a `spender` is allowed to operate with.",
            "needed": "Minimum amount required to perform a transfer.",
            "spender": "Address that may be allowed to operate on tokens without being their owner."
          }
        }
      ],
      "ERC20InsufficientBalance(address,uint256,uint256)": [
        {
          "details": "Indicates an error related to the current `balance` of a `sender`. Used in transfers.",
          "params": {
            "balance": "Current balance for the interacting account.",
            "needed": "Minimum amount required to perform a transfer.",
            "sender": "Address whose tokens are being transferred."
          }
        }
      ],
      "ERC20InvalidApprover(address)": [
        {
          "details": "Indicates a failure with the `approver` of a token to be approved. Used in approvals.",
          "params": {
            "approver": "Address initiating an approval operation."
          }
        }
      ],
      "ERC20InvalidReceiver(address)": [
        {
          "details": "Indicates a failure with the token `receiver`. Used in transfers.",
          "params": {
            "receiver": "Address to which tokens are being transferred."
          }
        }
      ],
      "ERC20InvalidSender(address)": [
        {
          "details": "Indicates a failure with the token `sender`. Used in transfers.",
          "params": {
            "sender": "Address whose tokens are being transferred."
          }
        }
      ],
      "ERC20InvalidSpender(address)": [
        {
          "details": "Indicates a failure with the `spender` to be approved. Used in approvals.",
          "params": {
            "spender": "Address that may be allowed to operate on tokens without being their owner."
          }
        }
      ]
    },
    "events": {
      "Approval(address,address,uint256)": {
        "details": "Emitted when the allowance of a `spender` for an `owner` is set by a call to {approve}. `value` is the new allowance."
      },
      "Transfer(address,address,uint256)": {
        "details": "Emitted when `value` tokens are moved from one account (`from`) to another (`to`). Note that `value` may be zero."
      }
    },
    "kind": "dev",
    "methods": {
      "allowance(address,address)": {
        "details": "See {IERC20-allowance}."
      },
      "approve(address,uint256)": {
        "details": "See {IERC20-approve}. NOTE: If `value` is the maximum `uint256`, the allowance is not updated on `transferFrom`. This is semantically equivalent to an infinite approval. Requirements: - `spender` cannot be the zero address."
      },
      "balanceOf(address)": {
        "details": "See {IERC20-balanceOf}."
      },
      "decimals()": {
        "details": "Returns the number of decimals used to get its user representation. For example, if `decimals` equals `2`, a balance of `505` tokens should be displayed to a user as `5.05` (`505 / 10 ** 2`). Tokens usually opt for a value of 18, imitating the relationship between Ether and Wei. This is the default value returned by this function, unless it's overridden. NOTE: This information is only used for _display_ purposes: it in no way affects any of the arithmetic of the contract, including {IERC20-balanceOf} and {IERC20-transfer}."
      },
      "name()": {
        "details": "Returns the name of the token."
      },
      "symbol()": {
        "details": "Returns the symbol of the token, usually a shorter version of the name."
      },
      "totalSupply()": {
        "details": "See {IERC20-totalSupply}."
      },
      "transfer(address,uint256)": {
        "details": "See {IERC20-transfer}. Requirements: - `to` cannot be the zero address. - the caller must have a balance of at least `value`."
      },
      "transferFrom(address,address,uint256)": {
        "details": "See {IERC20-transferFrom}. Emits an {Approval} event indicating the updated allowance. This is not required by the EIP. See the note at the beginning of {ERC20}. NOTE: Does not update the allowance if the current allowance is the maximum `uint256`. Requirements: - `from` and `to` cannot be the zero address. - `from` must have a balance of at least `value`. - the caller must have allowance for ``from``'s tokens of at least `value`."
      }
    },
    "version": 1
  },
  "userdoc": {
    "kind": "user",
    "methods": {},
    "version": 1
  }
}