{
  "contractName": "CloudAsABlockchainToken",
  "abi": [
    {
      "inputs": [
        {
          "internalType": "address",
          "name": "cstTokenAddress",
          "type": "address"
        },
        {
          "internalType": "address",
          "name": "cctTokenAddress",
          "type": "address"
        }
      ],
      "stateMutability": "nonpayable",
      "type": "constructor"
    },
    {
      "inputs": [
        {
          "internalType": "address",
          "name": "sender",
          "type": "address"
        },
        {
          "internalType": "uint256",
          "name": "balance",
          "type": "uint256"
        },
        {
          "internalType": "uint256",
          "name": "needed",
          "type": "uint256"
        },
        {
          "internalType": "uint256",
          "name": "tokenId",
          "type": "uint256"
        }
      ],
      "name": "ERC1155InsufficientBalance",
      "type": "error"
    },
    {
      "inputs": [
        {
          "internalType": "address",
          "name": "approver",
          "type": "address"
        }
      ],
      "name": "ERC1155InvalidApprover",
      "type": "error"
    },
    {
      "inputs": [
        {
          "internalType": "uint256",
          "name": "idsLength",
          "type": "uint256"
        },
        {
          "internalType": "uint256",
          "name": "valuesLength",
          "type": "uint256"
        }
      ],
      "name": "ERC1155InvalidArrayLength",
      "type": "error"
    },
    {
      "inputs": [
        {
          "internalType": "address",
          "name": "operator",
          "type": "address"
        }
      ],
      "name": "ERC1155InvalidOperator",
      "type": "error"
    },
    {
      "inputs": [
        {
          "internalType": "address",
          "name": "receiver",
          "type": "address"
        }
      ],
      "name": "ERC1155InvalidReceiver",
      "type": "error"
    },
    {
      "inputs": [
        {
          "internalType": "address",
          "name": "sender",
          "type": "address"
        }
      ],
      "name": "ERC1155InvalidSender",
      "type": "error"
    },
    {
      "inputs": [
        {
          "internalType": "address",
          "name": "operator",
          "type": "address"
        },
        {
          "internalType": "address",
          "name": "owner",
          "type": "address"
        }
      ],
      "name": "ERC1155MissingApprovalForAll",
      "type": "error"
    },
    {
      "anonymous": false,
      "inputs": [
        {
          "indexed": true,
          "internalType": "address",
          "name": "account",
          "type": "address"
        },
        {
          "indexed": true,
          "internalType": "address",
          "name": "operator",
          "type": "address"
        },
        {
          "indexed": false,
          "internalType": "bool",
          "name": "approved",
          "type": "bool"
        }
      ],
      "name": "ApprovalForAll",
      "type": "event"
    },
    {
      "anonymous": false,
      "inputs": [
        {
          "indexed": true,
          "internalType": "address",
          "name": "buyer",
          "type": "address"
        },
        {
          "indexed": false,
          "internalType": "string",
          "name": "gpu",
          "type": "string"
        },
        {
          "indexed": false,
          "internalType": "string",
          "name": "processor",
          "type": "string"
        },
        {
          "indexed": false,
          "internalType": "string",
          "name": "ram",
          "type": "string"
        },
        {
          "indexed": false,
          "internalType": "string",
          "name": "cores",
          "type": "string"
        },
        {
          "indexed": false,
          "internalType": "string",
          "name": "os",
          "type": "string"
        },
        {
          "indexed": false,
          "internalType": "string",
          "name": "imageURL",
          "type": "string"
        }
      ],
      "name": "PurchaseReceipt",
      "type": "event"
    },
    {
      "anonymous": false,
      "inputs": [
        {
          "indexed": true,
          "internalType": "address",
          "name": "operator",
          "type": "address"
        },
        {
          "indexed": true,
          "internalType": "address",
          "name": "from",
          "type": "address"
        },
        {
          "indexed": true,
          "internalType": "address",
          "name": "to",
          "type": "address"
        },
        {
          "indexed": false,
          "internalType": "uint256[]",
          "name": "ids",
          "type": "uint256[]"
        },
        {
          "indexed": false,
          "internalType": "uint256[]",
          "name": "values",
          "type": "uint256[]"
        }
      ],
      "name": "TransferBatch",
      "type": "event"
    },
    {
      "anonymous": false,
      "inputs": [
        {
          "indexed": true,
          "internalType": "address",
          "name": "operator",
          "type": "address"
        },
        {
          "indexed": true,
          "internalType": "address",
          "name": "from",
          "type": "address"
        },
        {
          "indexed": true,
          "internalType": "address",
          "name": "to",
          "type": "address"
        },
        {
          "indexed": false,
          "internalType": "uint256",
          "name": "id",
          "type": "uint256"
        },
        {
          "indexed": false,
          "internalType": "uint256",
          "name": "value",
          "type": "uint256"
        }
      ],
      "name": "TransferSingle",
      "type": "event"
    },
    {
      "anonymous": false,
      "inputs": [
        {
          "indexed": false,
          "internalType": "string",
          "name": "value",
          "type": "string"
        },
        {
          "indexed": true,
          "internalType": "uint256",
          "name": "id",
          "type": "uint256"
        }
      ],
      "name": "URI",
      "type": "event"
    },
    {
      "anonymous": false,
      "inputs": [
        {
          "indexed": false,
          "internalType": "string",
          "name": "message",
          "type": "string"
        }
      ],
      "name": "rentalSuccess",
      "type": "event"
    },
    {
      "inputs": [
        {
          "internalType": "address",
          "name": "account",
          "type": "address"
        },
        {
          "internalType": "uint256",
          "name": "id",
          "type": "uint256"
        }
      ],
      "name": "balanceOf",
      "outputs": [
        {
          "internalType": "uint256",
          "name": "",
          "type": "uint256"
        }
      ],
      "stateMutability": "view",
      "type": "function",
      "constant": true
    },
    {
      "inputs": [
        {
          "internalType": "address[]",
          "name": "accounts",
          "type": "address[]"
        },
        {
          "internalType": "uint256[]",
          "name": "ids",
          "type": "uint256[]"
        }
      ],
      "name": "balanceOfBatch",
      "outputs": [
        {
          "internalType": "uint256[]",
          "name": "",
          "type": "uint256[]"
        }
      ],
      "stateMutability": "view",
      "type": "function",
      "constant": true
    },
    {
      "inputs": [
        {
          "internalType": "address",
          "name": "account",
          "type": "address"
        },
        {
          "internalType": "address",
          "name": "operator",
          "type": "address"
        }
      ],
      "name": "isApprovedForAll",
      "outputs": [
        {
          "internalType": "bool",
          "name": "",
          "type": "bool"
        }
      ],
      "stateMutability": "view",
      "type": "function",
      "constant": true
    },
    {
      "inputs": [
        {
          "internalType": "address",
          "name": "from",
          "type": "address"
        },
        {
          "internalType": "address",
          "name": "to",
          "type": "address"
        },
        {
          "internalType": "uint256[]",
          "name": "ids",
          "type": "uint256[]"
        },
        {
          "internalType": "uint256[]",
          "name": "values",
          "type": "uint256[]"
        },
        {
          "internalType": "bytes",
          "name": "data",
          "type": "bytes"
        }
      ],
      "name": "safeBatchTransferFrom",
      "outputs": [],
      "stateMutability": "nonpayable",
      "type": "function"
    },
    {
      "inputs": [
        {
          "internalType": "address",
          "name": "from",
          "type": "address"
        },
        {
          "internalType": "address",
          "name": "to",
          "type": "address"
        },
        {
          "internalType": "uint256",
          "name": "id",
          "type": "uint256"
        },
        {
          "internalType": "uint256",
          "name": "value",
          "type": "uint256"
        },
        {
          "internalType": "bytes",
          "name": "data",
          "type": "bytes"
        }
      ],
      "name": "safeTransferFrom",
      "outputs": [],
      "stateMutability": "nonpayable",
      "type": "function"
    },
    {
      "inputs": [
        {
          "internalType": "address",
          "name": "operator",
          "type": "address"
        },
        {
          "internalType": "bool",
          "name": "approved",
          "type": "bool"
        }
      ],
      "name": "setApprovalForAll",
      "outputs": [],
      "stateMutability": "nonpayable",
      "type": "function"
    },
    {
      "inputs": [
        {
          "internalType": "bytes4",
          "name": "interfaceId",
          "type": "bytes4"
        }
      ],
      "name": "supportsInterface",
      "outputs": [
        {
          "internalType": "bool",
          "name": "",
          "type": "bool"
        }
      ],
      "stateMutability": "view",
      "type": "function",
      "constant": true
    },
    {
      "inputs": [
        {
          "internalType": "uint256",
          "name": "",
          "type": "uint256"
        }
      ],
      "name": "uri",
      "outputs": [
        {
          "internalType": "string",
          "name": "",
          "type": "string"
        }
      ],
      "stateMutability": "view",
      "type": "function",
      "constant": true
    },
    {
      "inputs": [
        {
          "internalType": "uint256",
          "name": "cctTokenID",
          "type": "uint256"
        },
        {
          "internalType": "uint256",
          "name": "cstAmount",
          "type": "uint256"
        }
      ],
      "name": "rentCloudDiskandServer",
      "outputs": [],
      "stateMutability": "nonpayable",
      "type": "function"
    },
    {
      "inputs": [
        {
          "internalType": "address",
          "name": "user",
          "type": "address"
        }
      ],
      "name": "getCSTBalance",
      "outputs": [
        {
          "internalType": "uint256",
          "name": "balance",
          "type": "uint256"
        }
      ],
      "stateMutability": "view",
      "type": "function",
      "constant": true
    },
    {
      "inputs": [
        {
          "internalType": "address",
          "name": "user",
          "type": "address"
        }
      ],
      "name": "getDiskStorageRented",
      "outputs": [
        {
          "internalType": "uint256",
          "name": "storageRented",
          "type": "uint256"
        }
      ],
      "stateMutability": "view",
      "type": "function",
      "constant": true
    },
    {
      "inputs": [
        {
          "internalType": "address",
          "name": "user",
          "type": "address"
        }
      ],
      "name": "getConfigDetails",
      "outputs": [
        {
          "components": [
            {
              "internalType": "uint256",
              "name": "id",
              "type": "uint256"
            },
            {
              "internalType": "string",
              "name": "gpu",
              "type": "string"
            },
            {
              "internalType": "string",
              "name": "processor",
              "type": "string"
            },
            {
              "internalType": "string",
              "name": "ram",
              "type": "string"
            },
            {
              "internalType": "string",
              "name": "cores",
              "type": "string"
            },
            {
              "internalType": "string",
              "name": "os",
              "type": "string"
            },
            {
              "internalType": "string",
              "name": "imageURL",
              "type": "string"
            }
          ],
          "internalType": "struct CloudConfigToken.ServerConfiguration[]",
          "name": "",
          "type": "tuple[]"
        }
      ],
      "stateMutability": "view",
      "type": "function",
      "constant": true
    },
    {
      "inputs": [
        {
          "internalType": "uint256",
          "name": "amount",
          "type": "uint256"
        }
      ],
      "name": "buyCST",
      "outputs": [],
      "stateMutability": "nonpayable",
      "type": "function"
    },
    {
      "inputs": [
        {
          "internalType": "string",
          "name": "gpu",
          "type": "string"
        },
        {
          "internalType": "string",
          "name": "processor",
          "type": "string"
        },
        {
          "internalType": "string",
          "name": "ram",
          "type": "string"
        },
        {
          "internalType": "string",
          "name": "cores",
          "type": "string"
        },
        {
          "internalType": "string",
          "name": "os",
          "type": "string"
        },
        {
          "internalType": "string",
          "name": "imageURL",
          "type": "string"
        }
      ],
      "name": "buyCCT",
      "outputs": [],
      "stateMutability": "nonpayable",
      "type": "function"
    },
    {
      "inputs": [
        {
          "internalType": "address",
          "name": "user",
          "type": "address"
        }
      ],
      "name": "getRentalDetails",
      "outputs": [
        {
          "components": [
            {
              "internalType": "uint256",
              "name": "cstAmount",
              "type": "uint256"
            },
            {
              "internalType": "uint256",
              "name": "cctTokenID",
              "type": "uint256"
            }
          ],
          "internalType": "struct CloudAsABlockchainToken.Data[]",
          "name": "",
          "type": "tuple[]"
        }
      ],
      "stateMutability": "view",
      "type": "function",
      "constant": true
    },
    {
      "inputs": [
        {
          "internalType": "uint256",
          "name": "tokenId",
          "type": "uint256"
        }
      ],
      "name": "getTokenDetails",
      "outputs": [
        {
          "components": [
            {
              "internalType": "uint256",
              "name": "id",
              "type": "uint256"
            },
            {
              "internalType": "string",
              "name": "gpu",
              "type": "string"
            },
            {
              "internalType": "string",
              "name": "processor",
              "type": "string"
            },
            {
              "internalType": "string",
              "name": "ram",
              "type": "string"
            },
            {
              "internalType": "string",
              "name": "cores",
              "type": "string"
            },
            {
              "internalType": "string",
              "name": "os",
              "type": "string"
            },
            {
              "internalType": "string",
              "name": "imageURL",
              "type": "string"
            }
          ],
          "internalType": "struct CloudConfigToken.ServerConfiguration",
          "name": "ret",
          "type": "tuple"
        }
      ],
      "stateMutability": "view",
      "type": "function",
      "constant": true
    }
  ],
  "bytecode": "0x6080604052600160065534801562000015575f80fd5b50604051620040763803806200407683398181016040528101906200003b9190620001c5565b6040518060400160405280600381526020017f555249000000000000000000000000000000000000000000000000000000000081525062000082816200014b60201b60201c565b508160035f6101000a81548173ffffffffffffffffffffffffffffffffffffffff021916908373ffffffffffffffffffffffffffffffffffffffff1602179055508060045f6101000a81548173ffffffffffffffffffffffffffffffffffffffff021916908373ffffffffffffffffffffffffffffffffffffffff1602179055503360055f6101000a81548173ffffffffffffffffffffffffffffffffffffffff021916908373ffffffffffffffffffffffffffffffffffffffff160217905550505062000552565b80600290816200015c91906200046e565b5050565b5f80fd5b5f73ffffffffffffffffffffffffffffffffffffffff82169050919050565b5f6200018f8262000164565b9050919050565b620001a18162000183565b8114620001ac575f80fd5b50565b5f81519050620001bf8162000196565b92915050565b5f8060408385031215620001de57620001dd62000160565b5b5f620001ed85828601620001af565b92505060206200020085828601620001af565b9150509250929050565b5f81519050919050565b7f4e487b71000000000000000000000000000000000000000000000000000000005f52604160045260245ffd5b7f4e487b71000000000000000000000000000000000000000000000000000000005f52602260045260245ffd5b5f60028204905060018216806200028657607f821691505b6020821081036200029c576200029b62000241565b5b50919050565b5f819050815f5260205f209050919050565b5f6020601f8301049050919050565b5f82821b905092915050565b5f60088302620003007fffffffffffffffffffffffffffffffffffffffffffffffffffffffffffffffff82620002c3565b6200030c8683620002c3565b95508019841693508086168417925050509392505050565b5f819050919050565b5f819050919050565b5f62000356620003506200034a8462000324565b6200032d565b62000324565b9050919050565b5f819050919050565b620003718362000336565b6200038962000380826200035d565b848454620002cf565b825550505050565b5f90565b6200039f62000391565b620003ac81848462000366565b505050565b5b81811015620003d357620003c75f8262000395565b600181019050620003b2565b5050565b601f8211156200042257620003ec81620002a2565b620003f784620002b4565b8101602085101562000407578190505b6200041f6200041685620002b4565b830182620003b1565b50505b505050565b5f82821c905092915050565b5f620004445f198460080262000427565b1980831691505092915050565b5f6200045e838362000433565b9150826002028217905092915050565b62000479826200020a565b67ffffffffffffffff81111562000495576200049462000214565b5b620004a182546200026e565b620004ae828285620003d7565b5f60209050601f831160018114620004e4575f8415620004cf578287015190505b620004db858262000451565b8655506200054a565b601f198416620004f486620002a2565b5f5b828110156200051d57848901518255600182019150602085019450602081019050620004f6565b868310156200053d578489015162000539601f89168262000433565b8355505b6001600288020188555050505b505050505050565b613b1680620005605f395ff3fe608060405234801561000f575f80fd5b50600436106100fd575f3560e01c8063a22cb46511610095578063b7eb22ae11610064578063b7eb22ae146102f1578063c1e037281461030d578063e985e9c51461033d578063f242432a1461036d576100fd565b8063a22cb46514610259578063a2bece5814610275578063a9916ce5146102a5578063b6f9054e146102c1576100fd565b806347e3432e116100d157806347e3432e146101ad5780634e1273f4146101dd578063603d77ca1461020d5780638f1de79e1461023d576100fd565b8062fdd58e1461010157806301ffc9a7146101315780630e89341c146101615780632eb2c2d614610191575b5f80fd5b61011b6004803603810190610116919061218f565b610389565b60405161012891906121dc565b60405180910390f35b61014b6004803603810190610146919061224a565b6103de565b604051610158919061228f565b60405180910390f35b61017b600480360381019061017691906122a8565b6104bf565b604051610188919061235d565b60405180910390f35b6101ab60048036038101906101a6919061256d565b610551565b005b6101c760048036038101906101c29190612638565b6105f8565b6040516101d491906121dc565b60405180910390f35b6101f760048036038101906101f29190612723565b610699565b6040516102049190612850565b60405180910390f35b61022760048036038101906102229190612638565b6107a6565b60405161023491906121dc565b60405180910390f35b610257600480360381019061025291906122a8565b61085d565b005b610273600480360381019061026e919061289a565b6108fc565b005b61028f600480360381019061028a9190612638565b610912565b60405161029c9190612a97565b60405180910390f35b6102bf60048036038101906102ba9190612ab7565b610aef565b005b6102db60048036038101906102d69190612638565b610ff5565b6040516102e89190612bca565b60405180910390f35b61030b60048036038101906103069190612c88565b61116c565b005b610327600480360381019061032291906122a8565b61125f565b6040516103349190612e75565b60405180910390f35b61035760048036038101906103529190612e95565b61130a565b604051610364919061228f565b60405180910390f35b61038760048036038101906103829190612ed3565b611398565b005b5f805f8381526020019081526020015f205f8473ffffffffffffffffffffffffffffffffffffffff1673ffffffffffffffffffffffffffffffffffffffff1681526020019081526020015f2054905092915050565b5f7fd9b67a26000000000000000000000000000000000000000000000000000000007bffffffffffffffffffffffffffffffffffffffffffffffffffffffff1916827bffffffffffffffffffffffffffffffffffffffffffffffffffffffff191614806104a857507f0e89341c000000000000000000000000000000000000000000000000000000007bffffffffffffffffffffffffffffffffffffffffffffffffffffffff1916827bffffffffffffffffffffffffffffffffffffffffffffffffffffffff1916145b806104b857506104b78261143f565b5b9050919050565b6060600280546104ce90612f93565b80601f01602080910402602001604051908101604052809291908181526020018280546104fa90612f93565b80156105455780601f1061051c57610100808354040283529160200191610545565b820191905f5260205f20905b81548152906001019060200180831161052857829003601f168201915b50505050509050919050565b5f61055a6114a8565b90508073ffffffffffffffffffffffffffffffffffffffff168673ffffffffffffffffffffffffffffffffffffffff161415801561059f575061059d868261130a565b155b156105e35780866040517fe237d9220000000000000000000000000000000000000000000000000000000081526004016105da929190612fd2565b60405180910390fd5b6105f086868686866114af565b505050505050565b5f60035f9054906101000a900473ffffffffffffffffffffffffffffffffffffffff1673ffffffffffffffffffffffffffffffffffffffff1663192c8b27836040518263ffffffff1660e01b81526004016106539190612ff9565b602060405180830381865afa15801561066e573d5f803e3d5ffd5b505050506040513d601f19601f820116820180604052508101906106929190613026565b9050919050565b606081518351146106e557815183516040517f5b0599910000000000000000000000000000000000000000000000000000000081526004016106dc929190613051565b60405180910390fd5b5f835167ffffffffffffffff81111561070157610700612381565b5b60405190808252806020026020018201604052801561072f5781602001602082028036833780820191505090505b5090505f5b845181101561079b5761076b61075382876115a390919063ffffffff16565b61076683876115b690919063ffffffff16565b610389565b82828151811061077e5761077d613078565b5b60200260200101818152505080610794906130d2565b9050610734565b508091505092915050565b5f60035f9054906101000a900473ffffffffffffffffffffffffffffffffffffffff1673ffffffffffffffffffffffffffffffffffffffff166370a08231836040518263ffffffff1660e01b81526004016108019190612ff9565b602060405180830381865afa15801561081c573d5f803e3d5ffd5b505050506040513d601f19601f820116820180604052508101906108409190613026565b9050670de0b6b3a7640000816108569190613146565b9050919050565b60035f9054906101000a900473ffffffffffffffffffffffffffffffffffffffff1673ffffffffffffffffffffffffffffffffffffffff16639134709e670de0b6b3a7640000836108ae9190613176565b336040518363ffffffff1660e01b81526004016108cc9291906131b7565b5f604051808303815f87803b1580156108e3575f80fd5b505af11580156108f5573d5f803e3d5ffd5b5050505050565b61090e6109076114a8565b83836115c9565b5050565b6060815f60045f9054906101000a900473ffffffffffffffffffffffffffffffffffffffff1673ffffffffffffffffffffffffffffffffffffffff166370a08231836040518263ffffffff1660e01b81526004016109709190612ff9565b602060405180830381865afa15801561098b573d5f803e3d5ffd5b505050506040513d601f19601f820116820180604052508101906109af9190613026565b116109ef576040517f08c379a00000000000000000000000000000000000000000000000000000000081526004016109e69061324e565b60405180910390fd5b5f600567ffffffffffffffff811115610a0b57610a0a612381565b5b604051908082528060200260200182016040528015610a4457816020015b610a3161209d565b815260200190600190039081610a295790505b50905060045f9054906101000a900473ffffffffffffffffffffffffffffffffffffffff1673ffffffffffffffffffffffffffffffffffffffff166390deb05c856040518263ffffffff1660e01b8152600401610aa19190612ff9565b5f60405180830381865afa158015610abb573d5f803e3d5ffd5b505050506040513d5f823e3d601f19601f82011682018060405250810190610ae39190613519565b90508092505050919050565b338180610afb836107a6565b1015610b3c576040517f08c379a0000000000000000000000000000000000000000000000000000000008152600401610b33906135aa565b60405180910390fd5b33848173ffffffffffffffffffffffffffffffffffffffff1660045f9054906101000a900473ffffffffffffffffffffffffffffffffffffffff1673ffffffffffffffffffffffffffffffffffffffff16636352211e836040518263ffffffff1660e01b8152600401610baf91906121dc565b602060405180830381865afa158015610bca573d5f803e3d5ffd5b505050506040513d601f19601f82011682018060405250810190610bee91906135dc565b73ffffffffffffffffffffffffffffffffffffffff1614610c44576040517f08c379a0000000000000000000000000000000000000000000000000000000008152600401610c3b90613677565b60405180910390fd5b60035f9054906101000a900473ffffffffffffffffffffffffffffffffffffffff1673ffffffffffffffffffffffffffffffffffffffff16630832065b3360055f9054906101000a900473ffffffffffffffffffffffffffffffffffffffff16670de0b6b3a764000089610cb89190613176565b6040518463ffffffff1660e01b8152600401610cd693929190613695565b5f604051808303815f87803b158015610ced575f80fd5b505af1158015610cff573d5f803e3d5ffd5b5050505060035f9054906101000a900473ffffffffffffffffffffffffffffffffffffffff1673ffffffffffffffffffffffffffffffffffffffff16634cc3600533876040518363ffffffff1660e01b8152600401610d5f9291906136ca565b5f604051808303815f87803b158015610d76575f80fd5b505af1158015610d88573d5f803e3d5ffd5b5050505060045f9054906101000a900473ffffffffffffffffffffffffffffffffffffffff1673ffffffffffffffffffffffffffffffffffffffff1663451591463360055f9054906101000a900473ffffffffffffffffffffffffffffffffffffffff16896040518463ffffffff1660e01b8152600401610e0b93929190613695565b5f604051808303815f87803b158015610e22575f80fd5b505af1158015610e34573d5f803e3d5ffd5b5050505060045f9054906101000a900473ffffffffffffffffffffffffffffffffffffffff1673ffffffffffffffffffffffffffffffffffffffff1663171c00fd3360055f9054906101000a900473ffffffffffffffffffffffffffffffffffffffff16896040518463ffffffff1660e01b8152600401610eb793929190613695565b5f604051808303815f87803b158015610ece575f80fd5b505af1158015610ee0573d5f803e3d5ffd5b50505050610f0133600654600160405180602001604052805f815250611732565b60085f3373ffffffffffffffffffffffffffffffffffffffff1673ffffffffffffffffffffffffffffffffffffffff1681526020019081526020015f20600654908060018154018082558091505060019003905f5260205f20015f909190919091505560405180604001604052808681526020018781525060075f60065481526020019081526020015f205f820151815f01556020820151816001015590505060065f815480929190610fb3906130d2565b91905055507f482957b47469d116c3e3a51e17b580129a2a32ff37c4fc34528ace8b78af2f9e604051610fe590613761565b60405180910390a1505050505050565b60605f60085f8473ffffffffffffffffffffffffffffffffffffffff1673ffffffffffffffffffffffffffffffffffffffff1681526020019081526020015f2080548060200260200160405190810160405280929190818152602001828054801561107d57602002820191905f5260205f20905b815481526020019060010190808311611069575b505050505090505f815167ffffffffffffffff8111156110a05761109f612381565b5b6040519080825280602002602001820160405280156110d957816020015b6110c66120d9565b8152602001906001900390816110be5790505b5090505f5b82518110156111615760075f8483815181106110fd576110fc613078565b5b602002602001015181526020019081526020015f206040518060400160405290815f820154815260200160018201548152505082828151811061114357611142613078565b5b60200260200101819052508080611159906130d2565b9150506110de565b508092505050919050565b60045f9054906101000a900473ffffffffffffffffffffffffffffffffffffffff1673ffffffffffffffffffffffffffffffffffffffff166387752885338888888888886040518863ffffffff1660e01b81526004016111d2979695949392919061377f565b5f604051808303815f87803b1580156111e9575f80fd5b505af11580156111fb573d5f803e3d5ffd5b505050503373ffffffffffffffffffffffffffffffffffffffff167fb1015b8248b4613b07e342f17298c38b422af26a9fb56e946486b26ec7044ebb87878787878760405161124f96959493929190613816565b60405180910390a2505050505050565b61126761209d565b60045f9054906101000a900473ffffffffffffffffffffffffffffffffffffffff1673ffffffffffffffffffffffffffffffffffffffff1663383a4669836040518263ffffffff1660e01b81526004016112c191906121dc565b5f60405180830381865afa1580156112db573d5f803e3d5ffd5b505050506040513d5f823e3d601f19601f82011682018060405250810190611303919061389f565b9050919050565b5f60015f8473ffffffffffffffffffffffffffffffffffffffff1673ffffffffffffffffffffffffffffffffffffffff1681526020019081526020015f205f8373ffffffffffffffffffffffffffffffffffffffff1673ffffffffffffffffffffffffffffffffffffffff1681526020019081526020015f205f9054906101000a900460ff16905092915050565b5f6113a16114a8565b90508073ffffffffffffffffffffffffffffffffffffffff168673ffffffffffffffffffffffffffffffffffffffff16141580156113e657506113e4868261130a565b155b1561142a5780866040517fe237d922000000000000000000000000000000000000000000000000000000008152600401611421929190612fd2565b60405180910390fd5b61143786868686866117c7565b505050505050565b5f7f01ffc9a7000000000000000000000000000000000000000000000000000000007bffffffffffffffffffffffffffffffffffffffffffffffffffffffff1916827bffffffffffffffffffffffffffffffffffffffffffffffffffffffff1916149050919050565b5f33905090565b5f73ffffffffffffffffffffffffffffffffffffffff168473ffffffffffffffffffffffffffffffffffffffff160361151f575f6040517f57f447ce0000000000000000000000000000000000000000000000000000000081526004016115169190612ff9565b60405180910390fd5b5f73ffffffffffffffffffffffffffffffffffffffff168573ffffffffffffffffffffffffffffffffffffffff160361158f575f6040517f01a835140000000000000000000000000000000000000000000000000000000081526004016115869190612ff9565b60405180910390fd5b61159c85858585856118cd565b5050505050565b5f60208202602084010151905092915050565b5f60208202602084010151905092915050565b5f73ffffffffffffffffffffffffffffffffffffffff168273ffffffffffffffffffffffffffffffffffffffff1603611639575f6040517fced3e1000000000000000000000000000000000000000000000000000000000081526004016116309190612ff9565b60405180910390fd5b8060015f8573ffffffffffffffffffffffffffffffffffffffff1673ffffffffffffffffffffffffffffffffffffffff1681526020019081526020015f205f8473ffffffffffffffffffffffffffffffffffffffff1673ffffffffffffffffffffffffffffffffffffffff1681526020019081526020015f205f6101000a81548160ff0219169083151502179055508173ffffffffffffffffffffffffffffffffffffffff168373ffffffffffffffffffffffffffffffffffffffff167f17307eab39ab6107e8899845ad3d59bd9653f200f220920489ca2b5937696c3183604051611725919061228f565b60405180910390a3505050565b5f73ffffffffffffffffffffffffffffffffffffffff168473ffffffffffffffffffffffffffffffffffffffff16036117a2575f6040517f57f447ce0000000000000000000000000000000000000000000000000000000081526004016117999190612ff9565b60405180910390fd5b5f806117ae8585611979565b915091506117bf5f878484876118cd565b505050505050565b5f73ffffffffffffffffffffffffffffffffffffffff168473ffffffffffffffffffffffffffffffffffffffff1603611837575f6040517f57f447ce00000000000000000000000000000000000000000000000000000000815260040161182e9190612ff9565b60405180910390fd5b5f73ffffffffffffffffffffffffffffffffffffffff168573ffffffffffffffffffffffffffffffffffffffff16036118a7575f6040517f01a8351400000000000000000000000000000000000000000000000000000000815260040161189e9190612ff9565b60405180910390fd5b5f806118b38585611979565b915091506118c487878484876118cd565b50505050505050565b6118d9858585856119a9565b5f73ffffffffffffffffffffffffffffffffffffffff168473ffffffffffffffffffffffffffffffffffffffff1614611972575f6119156114a8565b90506001845103611961575f6119345f866115b690919063ffffffff16565b90505f61194a5f866115b690919063ffffffff16565b905061195a838989858589611d3f565b5050611970565b61196f818787878787611eee565b5b505b5050505050565b60608060405191506001825283602083015260408201905060018152826020820152604081016040529250929050565b80518251146119f357815181516040517f5b0599910000000000000000000000000000000000000000000000000000000081526004016119ea929190613051565b60405180910390fd5b5f6119fc6114a8565b90505f5b8351811015611bfe575f611a1d82866115b690919063ffffffff16565b90505f611a3383866115b690919063ffffffff16565b90505f73ffffffffffffffffffffffffffffffffffffffff168873ffffffffffffffffffffffffffffffffffffffff1614611b56575f805f8481526020019081526020015f205f8a73ffffffffffffffffffffffffffffffffffffffff1673ffffffffffffffffffffffffffffffffffffffff1681526020019081526020015f2054905081811015611b0257888183856040517f03dee4c5000000000000000000000000000000000000000000000000000000008152600401611af994939291906138e6565b60405180910390fd5b8181035f808581526020019081526020015f205f8b73ffffffffffffffffffffffffffffffffffffffff1673ffffffffffffffffffffffffffffffffffffffff1681526020019081526020015f2081905550505b5f73ffffffffffffffffffffffffffffffffffffffff168773ffffffffffffffffffffffffffffffffffffffff1614611beb57805f808481526020019081526020015f205f8973ffffffffffffffffffffffffffffffffffffffff1673ffffffffffffffffffffffffffffffffffffffff1681526020019081526020015f205f828254611be39190613929565b925050819055505b505080611bf7906130d2565b9050611a00565b506001835103611cb9575f611c1c5f856115b690919063ffffffff16565b90505f611c325f856115b690919063ffffffff16565b90508573ffffffffffffffffffffffffffffffffffffffff168773ffffffffffffffffffffffffffffffffffffffff168473ffffffffffffffffffffffffffffffffffffffff167fc3d58168c5ae7397731d063d5bbf3d657854427343f4c083240f7aacaa2d0f628585604051611caa929190613051565b60405180910390a45050611d38565b8373ffffffffffffffffffffffffffffffffffffffff168573ffffffffffffffffffffffffffffffffffffffff168273ffffffffffffffffffffffffffffffffffffffff167f4a39dc06d4c0dbc64b70af90fd698a233a518aa5d07e595d983b8c0526c8f7fb8686604051611d2f92919061395c565b60405180910390a45b5050505050565b5f8473ffffffffffffffffffffffffffffffffffffffff163b1115611ee6578373ffffffffffffffffffffffffffffffffffffffff1663f23a6e6187878686866040518663ffffffff1660e01b8152600401611d9f9594939291906139e3565b6020604051808303815f875af1925050508015611dda57506040513d601f19601f82011682018060405250810190611dd79190613a4f565b60015b611e5b573d805f8114611e08576040519150601f19603f3d011682016040523d82523d5f602084013e611e0d565b606091505b505f815103611e5357846040517f57f447ce000000000000000000000000000000000000000000000000000000008152600401611e4a9190612ff9565b60405180910390fd5b805181602001fd5b63f23a6e6160e01b7bffffffffffffffffffffffffffffffffffffffffffffffffffffffff1916817bffffffffffffffffffffffffffffffffffffffffffffffffffffffff191614611ee457846040517f57f447ce000000000000000000000000000000000000000000000000000000008152600401611edb9190612ff9565b60405180910390fd5b505b505050505050565b5f8473ffffffffffffffffffffffffffffffffffffffff163b1115612095578373ffffffffffffffffffffffffffffffffffffffff1663bc197c8187878686866040518663ffffffff1660e01b8152600401611f4e959493929190613a7a565b6020604051808303815f875af1925050508015611f8957506040513d601f19601f82011682018060405250810190611f869190613a4f565b60015b61200a573d805f8114611fb7576040519150601f19603f3d011682016040523d82523d5f602084013e611fbc565b606091505b505f81510361200257846040517f57f447ce000000000000000000000000000000000000000000000000000000008152600401611ff99190612ff9565b60405180910390fd5b805181602001fd5b63bc197c8160e01b7bffffffffffffffffffffffffffffffffffffffffffffffffffffffff1916817bffffffffffffffffffffffffffffffffffffffffffffffffffffffff19161461209357846040517f57f447ce00000000000000000000000000000000000000000000000000000000815260040161208a9190612ff9565b60405180910390fd5b505b505050505050565b6040518060e001604052805f81526020016060815260200160608152602001606081526020016060815260200160608152602001606081525090565b60405180604001604052805f81526020015f81525090565b5f604051905090565b5f80fd5b5f80fd5b5f73ffffffffffffffffffffffffffffffffffffffff82169050919050565b5f61212b82612102565b9050919050565b61213b81612121565b8114612145575f80fd5b50565b5f8135905061215681612132565b92915050565b5f819050919050565b61216e8161215c565b8114612178575f80fd5b50565b5f8135905061218981612165565b92915050565b5f80604083850312156121a5576121a46120fa565b5b5f6121b285828601612148565b92505060206121c38582860161217b565b9150509250929050565b6121d68161215c565b82525050565b5f6020820190506121ef5f8301846121cd565b92915050565b5f7fffffffff0000000000000000000000000000000000000000000000000000000082169050919050565b612229816121f5565b8114612233575f80fd5b50565b5f8135905061224481612220565b92915050565b5f6020828403121561225f5761225e6120fa565b5b5f61226c84828501612236565b91505092915050565b5f8115159050919050565b61228981612275565b82525050565b5f6020820190506122a25f830184612280565b92915050565b5f602082840312156122bd576122bc6120fa565b5b5f6122ca8482850161217b565b91505092915050565b5f81519050919050565b5f82825260208201905092915050565b5f5b8381101561230a5780820151818401526020810190506122ef565b5f8484015250505050565b5f601f19601f8301169050919050565b5f61232f826122d3565b61233981856122dd565b93506123498185602086016122ed565b61235281612315565b840191505092915050565b5f6020820190508181035f8301526123758184612325565b905092915050565b5f80fd5b7f4e487b71000000000000000000000000000000000000000000000000000000005f52604160045260245ffd5b6123b782612315565b810181811067ffffffffffffffff821117156123d6576123d5612381565b5b80604052505050565b5f6123e86120f1565b90506123f482826123ae565b919050565b5f67ffffffffffffffff82111561241357612412612381565b5b602082029050602081019050919050565b5f80fd5b5f61243a612435846123f9565b6123df565b9050808382526020820190506020840283018581111561245d5761245c612424565b5b835b818110156124865780612472888261217b565b84526020840193505060208101905061245f565b5050509392505050565b5f82601f8301126124a4576124a361237d565b5b81356124b4848260208601612428565b91505092915050565b5f80fd5b5f67ffffffffffffffff8211156124db576124da612381565b5b6124e482612315565b9050602081019050919050565b828183375f83830152505050565b5f61251161250c846124c1565b6123df565b90508281526020810184848401111561252d5761252c6124bd565b5b6125388482856124f1565b509392505050565b5f82601f8301126125545761255361237d565b5b81356125648482602086016124ff565b91505092915050565b5f805f805f60a08688031215612586576125856120fa565b5b5f61259388828901612148565b95505060206125a488828901612148565b945050604086013567ffffffffffffffff8111156125c5576125c46120fe565b5b6125d188828901612490565b935050606086013567ffffffffffffffff8111156125f2576125f16120fe565b5b6125fe88828901612490565b925050608086013567ffffffffffffffff81111561261f5761261e6120fe565b5b61262b88828901612540565b9150509295509295909350565b5f6020828403121561264d5761264c6120fa565b5b5f61265a84828501612148565b91505092915050565b5f67ffffffffffffffff82111561267d5761267c612381565b5b602082029050602081019050919050565b5f6126a061269b84612663565b6123df565b905080838252602082019050602084028301858111156126c3576126c2612424565b5b835b818110156126ec57806126d88882612148565b8452602084019350506020810190506126c5565b5050509392505050565b5f82601f83011261270a5761270961237d565b5b813561271a84826020860161268e565b91505092915050565b5f8060408385031215612739576127386120fa565b5b5f83013567ffffffffffffffff811115612756576127556120fe565b5b612762858286016126f6565b925050602083013567ffffffffffffffff811115612783576127826120fe565b5b61278f85828601612490565b9150509250929050565b5f81519050919050565b5f82825260208201905092915050565b5f819050602082019050919050565b6127cb8161215c565b82525050565b5f6127dc83836127c2565b60208301905092915050565b5f602082019050919050565b5f6127fe82612799565b61280881856127a3565b9350612813836127b3565b805f5b8381101561284357815161282a88826127d1565b9750612835836127e8565b925050600181019050612816565b5085935050505092915050565b5f6020820190508181035f83015261286881846127f4565b905092915050565b61287981612275565b8114612883575f80fd5b50565b5f8135905061289481612870565b92915050565b5f80604083850312156128b0576128af6120fa565b5b5f6128bd85828601612148565b92505060206128ce85828601612886565b9150509250929050565b5f81519050919050565b5f82825260208201905092915050565b5f819050602082019050919050565b5f82825260208201905092915050565b5f61291b826122d3565b6129258185612901565b93506129358185602086016122ed565b61293e81612315565b840191505092915050565b5f60e083015f83015161295e5f8601826127c2565b50602083015184820360208601526129768282612911565b915050604083015184820360408601526129908282612911565b915050606083015184820360608601526129aa8282612911565b915050608083015184820360808601526129c48282612911565b91505060a083015184820360a08601526129de8282612911565b91505060c083015184820360c08601526129f88282612911565b9150508091505092915050565b5f612a108383612949565b905092915050565b5f602082019050919050565b5f612a2e826128d8565b612a3881856128e2565b935083602082028501612a4a856128f2565b805f5b85811015612a855784840389528151612a668582612a05565b9450612a7183612a18565b925060208a01995050600181019050612a4d565b50829750879550505050505092915050565b5f6020820190508181035f830152612aaf8184612a24565b905092915050565b5f8060408385031215612acd57612acc6120fa565b5b5f612ada8582860161217b565b9250506020612aeb8582860161217b565b9150509250929050565b5f81519050919050565b5f82825260208201905092915050565b5f819050602082019050919050565b604082015f820151612b325f8501826127c2565b506020820151612b4560208501826127c2565b50505050565b5f612b568383612b1e565b60408301905092915050565b5f602082019050919050565b5f612b7882612af5565b612b828185612aff565b9350612b8d83612b0f565b805f5b83811015612bbd578151612ba48882612b4b565b9750612baf83612b62565b925050600181019050612b90565b5085935050505092915050565b5f6020820190508181035f830152612be28184612b6e565b905092915050565b5f67ffffffffffffffff821115612c0457612c03612381565b5b612c0d82612315565b9050602081019050919050565b5f612c2c612c2784612bea565b6123df565b905082815260208101848484011115612c4857612c476124bd565b5b612c538482856124f1565b509392505050565b5f82601f830112612c6f57612c6e61237d565b5b8135612c7f848260208601612c1a565b91505092915050565b5f805f805f8060c08789031215612ca257612ca16120fa565b5b5f87013567ffffffffffffffff811115612cbf57612cbe6120fe565b5b612ccb89828a01612c5b565b965050602087013567ffffffffffffffff811115612cec57612ceb6120fe565b5b612cf889828a01612c5b565b955050604087013567ffffffffffffffff811115612d1957612d186120fe565b5b612d2589828a01612c5b565b945050606087013567ffffffffffffffff811115612d4657612d456120fe565b5b612d5289828a01612c5b565b935050608087013567ffffffffffffffff811115612d7357612d726120fe565b5b612d7f89828a01612c5b565b92505060a087013567ffffffffffffffff811115612da057612d9f6120fe565b5b612dac89828a01612c5b565b9150509295509295509295565b5f60e083015f830151612dce5f8601826127c2565b5060208301518482036020860152612de68282612911565b91505060408301518482036040860152612e008282612911565b91505060608301518482036060860152612e1a8282612911565b91505060808301518482036080860152612e348282612911565b91505060a083015184820360a0860152612e4e8282612911565b91505060c083015184820360c0860152612e688282612911565b9150508091505092915050565b5f6020820190508181035f830152612e8d8184612db9565b905092915050565b5f8060408385031215612eab57612eaa6120fa565b5b5f612eb885828601612148565b9250506020612ec985828601612148565b9150509250929050565b5f805f805f60a08688031215612eec57612eeb6120fa565b5b5f612ef988828901612148565b9550506020612f0a88828901612148565b9450506040612f1b8882890161217b565b9350506060612f2c8882890161217b565b925050608086013567ffffffffffffffff811115612f4d57612f4c6120fe565b5b612f5988828901612540565b9150509295509295909350565b7f4e487b71000000000000000000000000000000000000000000000000000000005f52602260045260245ffd5b5f6002820490506001821680612faa57607f821691505b602082108103612fbd57612fbc612f66565b5b50919050565b612fcc81612121565b82525050565b5f604082019050612fe55f830185612fc3565b612ff26020830184612fc3565b9392505050565b5f60208201905061300c5f830184612fc3565b92915050565b5f8151905061302081612165565b92915050565b5f6020828403121561303b5761303a6120fa565b5b5f61304884828501613012565b91505092915050565b5f6040820190506130645f8301856121cd565b61307160208301846121cd565b9392505050565b7f4e487b71000000000000000000000000000000000000000000000000000000005f52603260045260245ffd5b7f4e487b71000000000000000000000000000000000000000000000000000000005f52601160045260245ffd5b5f6130dc8261215c565b91507fffffffffffffffffffffffffffffffffffffffffffffffffffffffffffffffff820361310e5761310d6130a5565b5b600182019050919050565b7f4e487b71000000000000000000000000000000000000000000000000000000005f52601260045260245ffd5b5f6131508261215c565b915061315b8361215c565b92508261316b5761316a613119565b5b828204905092915050565b5f6131808261215c565b915061318b8361215c565b92508282026131998161215c565b915082820484148315176131b0576131af6130a5565b5b5092915050565b5f6040820190506131ca5f8301856121cd565b6131d76020830184612fc3565b9392505050565b7f546865207573657220646f65736e2774206861766520616e79204e46547320285f8201527f4343542921000000000000000000000000000000000000000000000000000000602082015250565b5f6132386025836122dd565b9150613243826131de565b604082019050919050565b5f6020820190508181035f8301526132658161322c565b9050919050565b5f67ffffffffffffffff82111561328657613285612381565b5b602082029050602081019050919050565b5f80fd5b5f80fd5b5f6132b16132ac84612bea565b6123df565b9050828152602081018484840111156132cd576132cc6124bd565b5b6132d88482856122ed565b509392505050565b5f82601f8301126132f4576132f361237d565b5b815161330484826020860161329f565b91505092915050565b5f60e0828403121561332257613321613297565b5b61332c60e06123df565b90505f61333b84828501613012565b5f83015250602082015167ffffffffffffffff81111561335e5761335d61329b565b5b61336a848285016132e0565b602083015250604082015167ffffffffffffffff81111561338e5761338d61329b565b5b61339a848285016132e0565b604083015250606082015167ffffffffffffffff8111156133be576133bd61329b565b5b6133ca848285016132e0565b606083015250608082015167ffffffffffffffff8111156133ee576133ed61329b565b5b6133fa848285016132e0565b60808301525060a082015167ffffffffffffffff81111561341e5761341d61329b565b5b61342a848285016132e0565b60a08301525060c082015167ffffffffffffffff81111561344e5761344d61329b565b5b61345a848285016132e0565b60c08301525092915050565b5f6134786134738461326c565b6123df565b9050808382526020820190506020840283018581111561349b5761349a612424565b5b835b818110156134e257805167ffffffffffffffff8111156134c0576134bf61237d565b5b8086016134cd898261330d565b8552602085019450505060208101905061349d565b5050509392505050565b5f82601f830112613500576134ff61237d565b5b8151613510848260208601613466565b91505092915050565b5f6020828403121561352e5761352d6120fa565b5b5f82015167ffffffffffffffff81111561354b5761354a6120fe565b5b613557848285016134ec565b91505092915050565b7f4e6f7420656e6f7567682073746f7261676520636f696e206c656674210000005f82015250565b5f613594601d836122dd565b915061359f82613560565b602082019050919050565b5f6020820190508181035f8301526135c181613588565b9050919050565b5f815190506135d681612132565b92915050565b5f602082840312156135f1576135f06120fa565b5b5f6135fe848285016135c8565b91505092915050565b7f54686520746f6b656e20494420676976656e20666f7220746865204e465420695f8201527f73206e6f74206f776e6564206279207468652075736572000000000000000000602082015250565b5f6136616037836122dd565b915061366c82613607565b604082019050919050565b5f6020820190508181035f83015261368e81613655565b9050919050565b5f6060820190506136a85f830186612fc3565b6136b56020830185612fc3565b6136c260408301846121cd565b949350505050565b5f6040820190506136dd5f830185612fc3565b6136ea60208301846121cd565b9392505050565b7f546865207573657220686173207375636365737366756c6c792072656e7465645f8201527f2073657276657220616e64206469736b2073706163652e000000000000000000602082015250565b5f61374b6037836122dd565b9150613756826136f1565b604082019050919050565b5f6020820190508181035f8301526137788161373f565b9050919050565b5f60e0820190506137925f83018a612fc3565b81810360208301526137a48189612325565b905081810360408301526137b88188612325565b905081810360608301526137cc8187612325565b905081810360808301526137e08186612325565b905081810360a08301526137f48185612325565b905081810360c08301526138088184612325565b905098975050505050505050565b5f60c0820190508181035f83015261382e8189612325565b905081810360208301526138428188612325565b905081810360408301526138568187612325565b9050818103606083015261386a8186612325565b9050818103608083015261387e8185612325565b905081810360a08301526138928184612325565b9050979650505050505050565b5f602082840312156138b4576138b36120fa565b5b5f82015167ffffffffffffffff8111156138d1576138d06120fe565b5b6138dd8482850161330d565b91505092915050565b5f6080820190506138f95f830187612fc3565b61390660208301866121cd565b61391360408301856121cd565b61392060608301846121cd565b95945050505050565b5f6139338261215c565b915061393e8361215c565b9250828201905080821115613956576139556130a5565b5b92915050565b5f6040820190508181035f83015261397481856127f4565b9050818103602083015261398881846127f4565b90509392505050565b5f81519050919050565b5f82825260208201905092915050565b5f6139b582613991565b6139bf818561399b565b93506139cf8185602086016122ed565b6139d881612315565b840191505092915050565b5f60a0820190506139f65f830188612fc3565b613a036020830187612fc3565b613a1060408301866121cd565b613a1d60608301856121cd565b8181036080830152613a2f81846139ab565b90509695505050505050565b5f81519050613a4981612220565b92915050565b5f60208284031215613a6457613a636120fa565b5b5f613a7184828501613a3b565b91505092915050565b5f60a082019050613a8d5f830188612fc3565b613a9a6020830187612fc3565b8181036040830152613aac81866127f4565b90508181036060830152613ac081856127f4565b90508181036080830152613ad481846139ab565b9050969550505050505056fea2646970667358221220198e47df91b474b7f851740818f2acb980ee4ddc3dcc1ba3d1f94ad42b90361164736f6c63430008140033",
  "immutableReferences": {},
  "source": "// SPDX-License-Identifier: MIT\r\npragma solidity ^0.8.18;\r\n\r\nimport \"@openzeppelin/contracts/token/ERC1155/ERC1155.sol\";\r\nimport \"./CCT_ERC721.sol\";\r\nimport \"./CST_ERC20.sol\";\r\n\r\ncontract CloudAsABlockchainToken is ERC1155 {\r\n    CloudStoragetoken private cstToken;\r\n    CloudConfigToken private cctToken;\r\n    struct Data {\r\n        uint256 cstAmount;\r\n        uint256 cctTokenID;\r\n    }\r\n    address owner;\r\n    uint tokenID = 1;\r\n    mapping(uint => Data) rentalDetails;\r\n    mapping(address => uint256[]) rentalIDs;\r\n\r\n    modifier tokenAvailable(address user,uint256 amt) {\r\n        require(\r\n            getCSTBalance(user) >= amt,\r\n            \"Not enough storage coin left!\"\r\n        );\r\n        _;\r\n    }\r\n\r\n    modifier onlyOwner (address user) {\r\n        require(\r\n          user==owner,\r\n          \"The user is not the owner! Function can only be called by the owner of the contract.\"  \r\n        );\r\n        _;\r\n    }\r\n\r\n    modifier CCTAvailable(address user) {\r\n        require(\r\n            cctToken.balanceOf(user)>0,\r\n            \"The user doesn't have any NFTs (CCT)!\"\r\n        );\r\n        _;\r\n    }\r\n\r\n    modifier NFTOwnership(address user, uint256 tokenid) {\r\n        require(\r\n          cctToken.ownerOf(tokenid) == user,\r\n          \"The token ID given for the NFT is not owned by the user\"  \r\n        );\r\n        _;\r\n    }\r\n\r\n    event rentalSuccess(string message);\r\n    \r\n    constructor(address cstTokenAddress, address cctTokenAddress) ERC1155(\"URI\") {\r\n        cstToken = CloudStoragetoken(cstTokenAddress);\r\n        cctToken = CloudConfigToken(cctTokenAddress);\r\n        owner = msg.sender;\r\n    }\r\n\r\n    // function setURI(string memory newURI) external {\r\n    //     _setURI(newURI);\r\n    // }\r\n\r\n    function rentCloudDiskandServer(uint256 cctTokenID, uint256 cstAmount) external tokenAvailable(msg.sender,cstAmount) NFTOwnership(msg.sender,cctTokenID) \r\n    {    \r\n        // Transfer ERC20 tokens from the sender to the contract\r\n        cstToken.transferCSTToken(msg.sender, owner, cstAmount*(10 ** 18));\r\n        cstToken.rentStorage(msg.sender,cstAmount);\r\n        \r\n        // Transfer ERC721 token from the sender to the owner\r\n        // cctToken.safeTransferFrom(msg.sender, owner, cctTokenID);\r\n        cctToken.transferCCT(msg.sender,owner,cctTokenID);\r\n        cctToken.transferOwnership(msg.sender, owner, cctTokenID);\r\n        \r\n        // Mint ERC1155 tokens to the sender\r\n        _mint(msg.sender, tokenID, 1, \"\");\r\n        rentalIDs[msg.sender].push(tokenID);\r\n        rentalDetails[tokenID] = Data(cstAmount,cctTokenID);\r\n        tokenID++;\r\n        emit rentalSuccess(\"The user has successfully rented server and disk space.\");\r\n    }\r\n\r\n    // function transferTokensToSomeone(address toaddress, uint256 cctTokenID, uint256 cstAmount) external {\r\n        \r\n    //     // Transfer ERC20 tokens from the sender to the contract\r\n    //     cstToken.transferCSTToken(msg.sender, toaddress, cstAmount*(10 ** 18));\r\n    //     cstToken.rentStorage(msg.sender,cstAmount);\r\n        \r\n    //     // Transfer ERC721 token from the sender to the owner\r\n    //     cctToken.safeTransferFrom(msg.sender, toaddress, cctTokenID);\r\n    //     cctToken.transferOwnership(msg.sender, toaddress, cctTokenID);\r\n        \r\n    //     // Mint ERC1155 tokens to the sender\r\n    //     _mint(msg.sender, tokenID, 1, \"\");\r\n    //     rentalIDs[msg.sender].push(tokenID);\r\n    //     rentalDetails[tokenID] = Data(cstAmount,cctTokenID);\r\n    //     tokenID++;\r\n    // }\r\n\r\n    function getCSTBalance(address user) public view returns (\r\n        uint balance\r\n    ){\r\n        balance = cstToken.balanceOf(user);\r\n        balance /= (10 ** 18);\r\n    }\r\n\r\n    function getDiskStorageRented(address user) public view returns (\r\n        uint storageRented\r\n    ){\r\n        storageRented = cstToken.getUserStorageBalance(user);\r\n    }\r\n\r\n    function getConfigDetails(address user) public view CCTAvailable(user) returns (\r\n        CloudConfigToken.ServerConfiguration[] memory\r\n    ){\r\n        CloudConfigToken.ServerConfiguration[] memory configs = new CloudConfigToken.ServerConfiguration[](5);\r\n        configs = cctToken.getConfigList(user);\r\n        return configs;\r\n    }\r\n\r\n    function buyCST(uint256 amount) external  {\r\n        cstToken.buyToken(amount*(10 ** 18), msg.sender);\r\n    }\r\n    event PurchaseReceipt(\r\n        address indexed buyer,\r\n        string gpu,\r\n        string processor,\r\n        string ram,\r\n        string cores,\r\n        string os,\r\n        string imageURL\r\n    );\r\n\r\n    function buyCCT(\r\n        string memory gpu,\r\n        string memory processor,\r\n        string memory ram,\r\n        string memory cores,\r\n        string memory os,\r\n        string memory imageURL\r\n    ) external {\r\n        cctToken.mintConfigToken(msg.sender,gpu, processor, ram, cores, os, imageURL);\r\n        emit PurchaseReceipt(\r\n            msg.sender,\r\n            gpu,\r\n            processor,\r\n            ram,\r\n            cores,\r\n            os,\r\n            imageURL\r\n        );\r\n    }\r\n\r\n    function getRentalDetails(address user) public view returns (\r\n        Data[] memory\r\n    ) {\r\n        uint256[] memory arr = rentalIDs[user];\r\n        Data[] memory configs = new Data[](arr.length);        \r\n        for (uint i=0; i<arr.length ; i++){\r\n            configs[i]= rentalDetails[arr[i]];\r\n        }\r\n        return configs;\r\n    }\r\n\r\n    function getTokenDetails(uint256 tokenId) public view returns (\r\n        CloudConfigToken.ServerConfiguration memory ret\r\n    ) {\r\n        ret = cctToken.getConfigData(tokenId); \r\n    }\r\n\r\n}\r\n",
  "sourcePath": "C:\\Users\\parth\\Downloads\\College\\Fall 2023\\Blockchain\\Caab\\Cloud-as-a-Blockchain-CaaB-\\caab-contract\\contracts\\CAB_ERC1155.sol",
  "compiler": {
    "name": "solc",
    "version": "0.8.20+commit.a1b79de6.Emscripten.clang"
  },
  "schemaVersion": "3.4.16",
  "updatedAt": "2023-11-21T04:56:37.185Z",
  "networkType": "ethereum",
  "devdoc": {
    "errors": {
      "ERC1155InsufficientBalance(address,uint256,uint256,uint256)": [
        {
          "details": "Indicates an error related to the current `balance` of a `sender`. Used in transfers.",
          "params": {
            "balance": "Current balance for the interacting account.",
            "needed": "Minimum amount required to perform a transfer.",
            "sender": "Address whose tokens are being transferred.",
            "tokenId": "Identifier number of a token."
          }
        }
      ],
      "ERC1155InvalidApprover(address)": [
        {
          "details": "Indicates a failure with the `approver` of a token to be approved. Used in approvals.",
          "params": {
            "approver": "Address initiating an approval operation."
          }
        }
      ],
      "ERC1155InvalidArrayLength(uint256,uint256)": [
        {
          "details": "Indicates an array length mismatch between ids and values in a safeBatchTransferFrom operation. Used in batch transfers.",
          "params": {
            "idsLength": "Length of the array of token identifiers",
            "valuesLength": "Length of the array of token amounts"
          }
        }
      ],
      "ERC1155InvalidOperator(address)": [
        {
          "details": "Indicates a failure with the `operator` to be approved. Used in approvals.",
          "params": {
            "operator": "Address that may be allowed to operate on tokens without being their owner."
          }
        }
      ],
      "ERC1155InvalidReceiver(address)": [
        {
          "details": "Indicates a failure with the token `receiver`. Used in transfers.",
          "params": {
            "receiver": "Address to which tokens are being transferred."
          }
        }
      ],
      "ERC1155InvalidSender(address)": [
        {
          "details": "Indicates a failure with the token `sender`. Used in transfers.",
          "params": {
            "sender": "Address whose tokens are being transferred."
          }
        }
      ],
      "ERC1155MissingApprovalForAll(address,address)": [
        {
          "details": "Indicates a failure with the `operator`s approval. Used in transfers.",
          "params": {
            "operator": "Address that may be allowed to operate on tokens without being their owner.",
            "owner": "Address of the current owner of a token."
          }
        }
      ]
    },
    "events": {
      "ApprovalForAll(address,address,bool)": {
        "details": "Emitted when `account` grants or revokes permission to `operator` to transfer their tokens, according to `approved`."
      },
      "TransferBatch(address,address,address,uint256[],uint256[])": {
        "details": "Equivalent to multiple {TransferSingle} events, where `operator`, `from` and `to` are the same for all transfers."
      },
      "TransferSingle(address,address,address,uint256,uint256)": {
        "details": "Emitted when `value` amount of tokens of type `id` are transferred from `from` to `to` by `operator`."
      },
      "URI(string,uint256)": {
        "details": "Emitted when the URI for token type `id` changes to `value`, if it is a non-programmatic URI. If an {URI} event was emitted for `id`, the standard https://eips.ethereum.org/EIPS/eip-1155#metadata-extensions[guarantees] that `value` will equal the value returned by {IERC1155MetadataURI-uri}."
      }
    },
    "kind": "dev",
    "methods": {
      "balanceOf(address,uint256)": {
        "details": "See {IERC1155-balanceOf}."
      },
      "balanceOfBatch(address[],uint256[])": {
        "details": "See {IERC1155-balanceOfBatch}. Requirements: - `accounts` and `ids` must have the same length."
      },
      "isApprovedForAll(address,address)": {
        "details": "See {IERC1155-isApprovedForAll}."
      },
      "safeBatchTransferFrom(address,address,uint256[],uint256[],bytes)": {
        "details": "See {IERC1155-safeBatchTransferFrom}."
      },
      "safeTransferFrom(address,address,uint256,uint256,bytes)": {
        "details": "See {IERC1155-safeTransferFrom}."
      },
      "setApprovalForAll(address,bool)": {
        "details": "See {IERC1155-setApprovalForAll}."
      },
      "supportsInterface(bytes4)": {
        "details": "See {IERC165-supportsInterface}."
      },
      "uri(uint256)": {
        "details": "See {IERC1155MetadataURI-uri}. This implementation returns the same URI for *all* token types. It relies on the token type ID substitution mechanism https://eips.ethereum.org/EIPS/eip-1155#metadata[defined in the EIP]. Clients calling this function must replace the `\\{id\\}` substring with the actual token type ID."
      }
    },
    "version": 1
  },
  "userdoc": {
    "kind": "user",
    "methods": {},
    "version": 1
  }
}