{
  "contractName": "CloudConfigToken",
  "abi": [
    {
      "inputs": [],
      "stateMutability": "nonpayable",
      "type": "constructor"
    },
    {
      "inputs": [
        {
          "internalType": "address",
          "name": "sender",
          "type": "address"
        },
        {
          "internalType": "uint256",
          "name": "tokenId",
          "type": "uint256"
        },
        {
          "internalType": "address",
          "name": "owner",
          "type": "address"
        }
      ],
      "name": "ERC721IncorrectOwner",
      "type": "error"
    },
    {
      "inputs": [
        {
          "internalType": "address",
          "name": "operator",
          "type": "address"
        },
        {
          "internalType": "uint256",
          "name": "tokenId",
          "type": "uint256"
        }
      ],
      "name": "ERC721InsufficientApproval",
      "type": "error"
    },
    {
      "inputs": [
        {
          "internalType": "address",
          "name": "approver",
          "type": "address"
        }
      ],
      "name": "ERC721InvalidApprover",
      "type": "error"
    },
    {
      "inputs": [
        {
          "internalType": "address",
          "name": "operator",
          "type": "address"
        }
      ],
      "name": "ERC721InvalidOperator",
      "type": "error"
    },
    {
      "inputs": [
        {
          "internalType": "address",
          "name": "owner",
          "type": "address"
        }
      ],
      "name": "ERC721InvalidOwner",
      "type": "error"
    },
    {
      "inputs": [
        {
          "internalType": "address",
          "name": "receiver",
          "type": "address"
        }
      ],
      "name": "ERC721InvalidReceiver",
      "type": "error"
    },
    {
      "inputs": [
        {
          "internalType": "address",
          "name": "sender",
          "type": "address"
        }
      ],
      "name": "ERC721InvalidSender",
      "type": "error"
    },
    {
      "inputs": [
        {
          "internalType": "uint256",
          "name": "tokenId",
          "type": "uint256"
        }
      ],
      "name": "ERC721NonexistentToken",
      "type": "error"
    },
    {
      "anonymous": false,
      "inputs": [
        {
          "indexed": true,
          "internalType": "address",
          "name": "owner",
          "type": "address"
        },
        {
          "indexed": true,
          "internalType": "address",
          "name": "approved",
          "type": "address"
        },
        {
          "indexed": true,
          "internalType": "uint256",
          "name": "tokenId",
          "type": "uint256"
        }
      ],
      "name": "Approval",
      "type": "event"
    },
    {
      "anonymous": false,
      "inputs": [
        {
          "indexed": true,
          "internalType": "address",
          "name": "owner",
          "type": "address"
        },
        {
          "indexed": true,
          "internalType": "address",
          "name": "operator",
          "type": "address"
        },
        {
          "indexed": false,
          "internalType": "bool",
          "name": "approved",
          "type": "bool"
        }
      ],
      "name": "ApprovalForAll",
      "type": "event"
    },
    {
      "anonymous": false,
      "inputs": [
        {
          "indexed": false,
          "internalType": "uint256",
          "name": "_fromTokenId",
          "type": "uint256"
        },
        {
          "indexed": false,
          "internalType": "uint256",
          "name": "_toTokenId",
          "type": "uint256"
        }
      ],
      "name": "BatchMetadataUpdate",
      "type": "event"
    },
    {
      "anonymous": false,
      "inputs": [
        {
          "indexed": false,
          "internalType": "uint256",
          "name": "_tokenId",
          "type": "uint256"
        }
      ],
      "name": "MetadataUpdate",
      "type": "event"
    },
    {
      "anonymous": false,
      "inputs": [
        {
          "indexed": false,
          "internalType": "string",
          "name": "message",
          "type": "string"
        }
      ],
      "name": "NFTOwnershipTransferred",
      "type": "event"
    },
    {
      "anonymous": false,
      "inputs": [
        {
          "indexed": false,
          "internalType": "string",
          "name": "message",
          "type": "string"
        }
      ],
      "name": "NFTminted",
      "type": "event"
    },
    {
      "anonymous": false,
      "inputs": [
        {
          "indexed": true,
          "internalType": "address",
          "name": "from",
          "type": "address"
        },
        {
          "indexed": true,
          "internalType": "address",
          "name": "to",
          "type": "address"
        },
        {
          "indexed": true,
          "internalType": "uint256",
          "name": "tokenId",
          "type": "uint256"
        }
      ],
      "name": "Transfer",
      "type": "event"
    },
    {
      "inputs": [
        {
          "internalType": "address",
          "name": "to",
          "type": "address"
        },
        {
          "internalType": "uint256",
          "name": "tokenId",
          "type": "uint256"
        }
      ],
      "name": "approve",
      "outputs": [],
      "stateMutability": "nonpayable",
      "type": "function"
    },
    {
      "inputs": [
        {
          "internalType": "address",
          "name": "owner",
          "type": "address"
        }
      ],
      "name": "balanceOf",
      "outputs": [
        {
          "internalType": "uint256",
          "name": "",
          "type": "uint256"
        }
      ],
      "stateMutability": "view",
      "type": "function",
      "constant": true
    },
    {
      "inputs": [
        {
          "internalType": "uint256",
          "name": "tokenId",
          "type": "uint256"
        }
      ],
      "name": "getApproved",
      "outputs": [
        {
          "internalType": "address",
          "name": "",
          "type": "address"
        }
      ],
      "stateMutability": "view",
      "type": "function",
      "constant": true
    },
    {
      "inputs": [
        {
          "internalType": "address",
          "name": "owner",
          "type": "address"
        },
        {
          "internalType": "address",
          "name": "operator",
          "type": "address"
        }
      ],
      "name": "isApprovedForAll",
      "outputs": [
        {
          "internalType": "bool",
          "name": "",
          "type": "bool"
        }
      ],
      "stateMutability": "view",
      "type": "function",
      "constant": true
    },
    {
      "inputs": [],
      "name": "name",
      "outputs": [
        {
          "internalType": "string",
          "name": "",
          "type": "string"
        }
      ],
      "stateMutability": "view",
      "type": "function",
      "constant": true
    },
    {
      "inputs": [
        {
          "internalType": "uint256",
          "name": "tokenId",
          "type": "uint256"
        }
      ],
      "name": "ownerOf",
      "outputs": [
        {
          "internalType": "address",
          "name": "",
          "type": "address"
        }
      ],
      "stateMutability": "view",
      "type": "function",
      "constant": true
    },
    {
      "inputs": [
        {
          "internalType": "address",
          "name": "from",
          "type": "address"
        },
        {
          "internalType": "address",
          "name": "to",
          "type": "address"
        },
        {
          "internalType": "uint256",
          "name": "tokenId",
          "type": "uint256"
        }
      ],
      "name": "safeTransferFrom",
      "outputs": [],
      "stateMutability": "nonpayable",
      "type": "function"
    },
    {
      "inputs": [
        {
          "internalType": "address",
          "name": "from",
          "type": "address"
        },
        {
          "internalType": "address",
          "name": "to",
          "type": "address"
        },
        {
          "internalType": "uint256",
          "name": "tokenId",
          "type": "uint256"
        },
        {
          "internalType": "bytes",
          "name": "data",
          "type": "bytes"
        }
      ],
      "name": "safeTransferFrom",
      "outputs": [],
      "stateMutability": "nonpayable",
      "type": "function"
    },
    {
      "inputs": [
        {
          "internalType": "uint256",
          "name": "",
          "type": "uint256"
        }
      ],
      "name": "serverConfigs",
      "outputs": [
        {
          "internalType": "uint256",
          "name": "id",
          "type": "uint256"
        },
        {
          "internalType": "string",
          "name": "gpu",
          "type": "string"
        },
        {
          "internalType": "string",
          "name": "processor",
          "type": "string"
        },
        {
          "internalType": "string",
          "name": "ram",
          "type": "string"
        },
        {
          "internalType": "string",
          "name": "cores",
          "type": "string"
        },
        {
          "internalType": "string",
          "name": "os",
          "type": "string"
        },
        {
          "internalType": "string",
          "name": "imageURL",
          "type": "string"
        }
      ],
      "stateMutability": "view",
      "type": "function",
      "constant": true
    },
    {
      "inputs": [
        {
          "internalType": "address",
          "name": "operator",
          "type": "address"
        },
        {
          "internalType": "bool",
          "name": "approved",
          "type": "bool"
        }
      ],
      "name": "setApprovalForAll",
      "outputs": [],
      "stateMutability": "nonpayable",
      "type": "function"
    },
    {
      "inputs": [
        {
          "internalType": "bytes4",
          "name": "interfaceId",
          "type": "bytes4"
        }
      ],
      "name": "supportsInterface",
      "outputs": [
        {
          "internalType": "bool",
          "name": "",
          "type": "bool"
        }
      ],
      "stateMutability": "view",
      "type": "function",
      "constant": true
    },
    {
      "inputs": [],
      "name": "symbol",
      "outputs": [
        {
          "internalType": "string",
          "name": "",
          "type": "string"
        }
      ],
      "stateMutability": "view",
      "type": "function",
      "constant": true
    },
    {
      "inputs": [],
      "name": "tokenID",
      "outputs": [
        {
          "internalType": "uint256",
          "name": "",
          "type": "uint256"
        }
      ],
      "stateMutability": "view",
      "type": "function",
      "constant": true
    },
    {
      "inputs": [
        {
          "internalType": "address",
          "name": "",
          "type": "address"
        },
        {
          "internalType": "uint256",
          "name": "",
          "type": "uint256"
        }
      ],
      "name": "tokenList",
      "outputs": [
        {
          "internalType": "uint256",
          "name": "",
          "type": "uint256"
        }
      ],
      "stateMutability": "view",
      "type": "function",
      "constant": true
    },
    {
      "inputs": [
        {
          "internalType": "uint256",
          "name": "",
          "type": "uint256"
        }
      ],
      "name": "tokenToCost",
      "outputs": [
        {
          "internalType": "uint256",
          "name": "",
          "type": "uint256"
        }
      ],
      "stateMutability": "view",
      "type": "function",
      "constant": true
    },
    {
      "inputs": [
        {
          "internalType": "uint256",
          "name": "tokenId",
          "type": "uint256"
        }
      ],
      "name": "tokenURI",
      "outputs": [
        {
          "internalType": "string",
          "name": "",
          "type": "string"
        }
      ],
      "stateMutability": "view",
      "type": "function",
      "constant": true
    },
    {
      "inputs": [
        {
          "internalType": "address",
          "name": "from",
          "type": "address"
        },
        {
          "internalType": "address",
          "name": "to",
          "type": "address"
        },
        {
          "internalType": "uint256",
          "name": "tokenId",
          "type": "uint256"
        }
      ],
      "name": "transferFrom",
      "outputs": [],
      "stateMutability": "nonpayable",
      "type": "function"
    },
    {
      "inputs": [],
      "name": "getTokenId",
      "outputs": [
        {
          "internalType": "uint256",
          "name": "t",
          "type": "uint256"
        }
      ],
      "stateMutability": "view",
      "type": "function",
      "constant": true
    },
    {
      "inputs": [
        {
          "internalType": "address",
          "name": "user",
          "type": "address"
        },
        {
          "internalType": "string",
          "name": "gpu",
          "type": "string"
        },
        {
          "internalType": "string",
          "name": "processor",
          "type": "string"
        },
        {
          "internalType": "string",
          "name": "ram",
          "type": "string"
        },
        {
          "internalType": "string",
          "name": "cores",
          "type": "string"
        },
        {
          "internalType": "string",
          "name": "os",
          "type": "string"
        },
        {
          "internalType": "string",
          "name": "imageURL",
          "type": "string"
        },
        {
          "internalType": "string",
          "name": "uri",
          "type": "string"
        }
      ],
      "name": "mintConfigToken",
      "outputs": [
        {
          "internalType": "uint256",
          "name": "token",
          "type": "uint256"
        }
      ],
      "stateMutability": "nonpayable",
      "type": "function"
    },
    {
      "inputs": [
        {
          "internalType": "uint256",
          "name": "tokenId",
          "type": "uint256"
        }
      ],
      "name": "getConfigData",
      "outputs": [
        {
          "components": [
            {
              "internalType": "uint256",
              "name": "id",
              "type": "uint256"
            },
            {
              "internalType": "string",
              "name": "gpu",
              "type": "string"
            },
            {
              "internalType": "string",
              "name": "processor",
              "type": "string"
            },
            {
              "internalType": "string",
              "name": "ram",
              "type": "string"
            },
            {
              "internalType": "string",
              "name": "cores",
              "type": "string"
            },
            {
              "internalType": "string",
              "name": "os",
              "type": "string"
            },
            {
              "internalType": "string",
              "name": "imageURL",
              "type": "string"
            }
          ],
          "internalType": "struct CloudConfigToken.ServerConfiguration",
          "name": "config",
          "type": "tuple"
        }
      ],
      "stateMutability": "view",
      "type": "function",
      "constant": true
    },
    {
      "inputs": [
        {
          "internalType": "address",
          "name": "user",
          "type": "address"
        }
      ],
      "name": "getConfigList",
      "outputs": [
        {
          "components": [
            {
              "internalType": "uint256",
              "name": "id",
              "type": "uint256"
            },
            {
              "internalType": "string",
              "name": "gpu",
              "type": "string"
            },
            {
              "internalType": "string",
              "name": "processor",
              "type": "string"
            },
            {
              "internalType": "string",
              "name": "ram",
              "type": "string"
            },
            {
              "internalType": "string",
              "name": "cores",
              "type": "string"
            },
            {
              "internalType": "string",
              "name": "os",
              "type": "string"
            },
            {
              "internalType": "string",
              "name": "imageURL",
              "type": "string"
            }
          ],
          "internalType": "struct CloudConfigToken.ServerConfiguration[]",
          "name": "",
          "type": "tuple[]"
        }
      ],
      "stateMutability": "view",
      "type": "function",
      "constant": true
    },
    {
      "inputs": [
        {
          "internalType": "address",
          "name": "from",
          "type": "address"
        },
        {
          "internalType": "address",
          "name": "to",
          "type": "address"
        },
        {
          "internalType": "uint256",
          "name": "tokenId",
          "type": "uint256"
        }
      ],
      "name": "transferOwnership",
      "outputs": [],
      "stateMutability": "nonpayable",
      "type": "function"
    },
    {
      "inputs": [
        {
          "internalType": "address",
          "name": "from",
          "type": "address"
        },
        {
          "internalType": "address",
          "name": "to",
          "type": "address"
        },
        {
          "internalType": "uint256",
          "name": "tokenId",
          "type": "uint256"
        }
      ],
      "name": "transferCCT",
      "outputs": [],
      "stateMutability": "nonpayable",
      "type": "function"
    }
  ],
  "bytecode": "0x6080604052600160085534801562000015575f80fd5b506040518060400160405280601281526020017f436c6f756420436f6e66696720546f6b656e00000000000000000000000000008152506040518060400160405280600381526020017f4343540000000000000000000000000000000000000000000000000000000000815250815f908162000092919062000351565b508060019081620000a4919062000351565b5050503360075f6101000a81548173ffffffffffffffffffffffffffffffffffffffff021916908373ffffffffffffffffffffffffffffffffffffffff16021790555062000435565b5f81519050919050565b7f4e487b71000000000000000000000000000000000000000000000000000000005f52604160045260245ffd5b7f4e487b71000000000000000000000000000000000000000000000000000000005f52602260045260245ffd5b5f60028204905060018216806200016957607f821691505b6020821081036200017f576200017e62000124565b5b50919050565b5f819050815f5260205f209050919050565b5f6020601f8301049050919050565b5f82821b905092915050565b5f60088302620001e37fffffffffffffffffffffffffffffffffffffffffffffffffffffffffffffffff82620001a6565b620001ef8683620001a6565b95508019841693508086168417925050509392505050565b5f819050919050565b5f819050919050565b5f62000239620002336200022d8462000207565b62000210565b62000207565b9050919050565b5f819050919050565b620002548362000219565b6200026c620002638262000240565b848454620001b2565b825550505050565b5f90565b6200028262000274565b6200028f81848462000249565b505050565b5b81811015620002b657620002aa5f8262000278565b60018101905062000295565b5050565b601f8211156200030557620002cf8162000185565b620002da8462000197565b81016020851015620002ea578190505b62000302620002f98562000197565b83018262000294565b50505b505050565b5f82821c905092915050565b5f620003275f19846008026200030a565b1980831691505092915050565b5f62000341838362000316565b9150826002028217905092915050565b6200035c82620000ed565b67ffffffffffffffff811115620003785762000377620000f7565b5b62000384825462000151565b62000391828285620002ba565b5f60209050601f831160018114620003c7575f8415620003b2578287015190505b620003be858262000334565b8655506200042d565b601f198416620003d78662000185565b5f5b828110156200040057848901518255600182019150602085019450602081019050620003d9565b868310156200042057848901516200041c601f89168262000316565b8355505b6001600288020188555050505b505050505050565b613d6b80620004435f395ff3fe608060405234801561000f575f80fd5b506004361061014b575f3560e01c806361b10264116100c1578063a5c42ef11161007a578063a5c42ef1146103d1578063b717fc1d146103ef578063b88d4fde14610425578063bebfd69014610441578063c87b56dd14610471578063e985e9c5146104a15761014b565b806361b10264146102d75780636352211e1461030757806370a082311461033757806390deb05c1461036757806395d89b4114610397578063a22cb465146103b55761014b565b8063171c00fd11610113578063171c00fd1461020757806323b872dd14610223578063383a46691461023f57806342842e0e1461026f578063451591461461028b57806348e1997f146102a75761014b565b8063010a38f51461014f57806301ffc9a71461016d57806306fdde031461019d578063081812fc146101bb578063095ea7b3146101eb575b5f80fd5b6101576104d1565b6040516101649190612b7e565b60405180910390f35b61018760048036038101906101829190612bfd565b6104da565b6040516101949190612c42565b60405180910390f35b6101a561053a565b6040516101b29190612ce5565b60405180910390f35b6101d560048036038101906101d09190612d2f565b6105c9565b6040516101e29190612d99565b60405180910390f35b61020560048036038101906102009190612ddc565b6105e4565b005b610221600480360381019061021c9190612e1a565b6105fa565b005b61023d60048036038101906102389190612e1a565b61069f565b005b61025960048036038101906102549190612d2f565b61079e565b6040516102669190612f7d565b60405180910390f35b61028960048036038101906102849190612e1a565b610b32565b005b6102a560048036038101906102a09190612e1a565b610b51565b005b6102c160048036038101906102bc9190612d2f565b610b61565b6040516102ce9190612b7e565b60405180910390f35b6102f160048036038101906102ec91906130c9565b610b76565b6040516102fe9190612b7e565b60405180910390f35b610321600480360381019061031c9190612d2f565b610d3f565b60405161032e9190612d99565b60405180910390f35b610351600480360381019061034c919061323e565b610d50565b60405161035e9190612b7e565b60405180910390f35b610381600480360381019061037c919061323e565b610e06565b60405161038e91906133e0565b60405180910390f35b61039f6112d3565b6040516103ac9190612ce5565b60405180910390f35b6103cf60048036038101906103ca919061342a565b611363565b005b6103d9611379565b6040516103e69190612b7e565b60405180910390f35b61040960048036038101906104049190612d2f565b61137f565b60405161041c9796959493929190613468565b60405180910390f35b61043f600480360381019061043a919061359d565b6116e1565b005b61045b60048036038101906104569190612ddc565b6116fe565b6040516104689190612b7e565b60405180910390f35b61048b60048036038101906104869190612d2f565b611729565b6040516104989190612ce5565b60405180910390f35b6104bb60048036038101906104b6919061361d565b611834565b6040516104c89190612c42565b60405180910390f35b5f600854905090565b5f634906490660e01b7bffffffffffffffffffffffffffffffffffffffffffffffffffffffff1916827bffffffffffffffffffffffffffffffffffffffffffffffffffffffff191614806105335750610532826118c2565b5b9050919050565b60605f805461054890613688565b80601f016020809104026020016040519081016040528092919081815260200182805461057490613688565b80156105bf5780601f10610596576101008083540402835291602001916105bf565b820191905f5260205f20905b8154815290600101906020018083116105a257829003601f168201915b5050505050905090565b5f6105d3826119a3565b506105dd82611a29565b9050919050565b6105f682826105f1611a62565b611a69565b5050565b6106048184611a7b565b600b5f8373ffffffffffffffffffffffffffffffffffffffff1673ffffffffffffffffffffffffffffffffffffffff1681526020019081526020015f2081908060018154018082558091505060019003905f5260205f20015f90919091909150557f85aead5abc35ec20c6befe2b34624beef9e6ebe07d7eda1025f05757d62e135860405161069290613728565b60405180910390a1505050565b5f73ffffffffffffffffffffffffffffffffffffffff168273ffffffffffffffffffffffffffffffffffffffff160361070f575f6040517f64a0ae920000000000000000000000000000000000000000000000000000000081526004016107069190612d99565b60405180910390fd5b5f610722838361071d611a62565b611cd4565b90508373ffffffffffffffffffffffffffffffffffffffff168173ffffffffffffffffffffffffffffffffffffffff1614610798578382826040517f64283d7b00000000000000000000000000000000000000000000000000000000815260040161078f93929190613746565b60405180910390fd5b50505050565b6107a6612b2a565b60095f8381526020019081526020015f206040518060e00160405290815f82015481526020016001820180546107db90613688565b80601f016020809104026020016040519081016040528092919081815260200182805461080790613688565b80156108525780601f1061082957610100808354040283529160200191610852565b820191905f5260205f20905b81548152906001019060200180831161083557829003601f168201915b5050505050815260200160028201805461086b90613688565b80601f016020809104026020016040519081016040528092919081815260200182805461089790613688565b80156108e25780601f106108b9576101008083540402835291602001916108e2565b820191905f5260205f20905b8154815290600101906020018083116108c557829003601f168201915b505050505081526020016003820180546108fb90613688565b80601f016020809104026020016040519081016040528092919081815260200182805461092790613688565b80156109725780601f1061094957610100808354040283529160200191610972565b820191905f5260205f20905b81548152906001019060200180831161095557829003601f168201915b5050505050815260200160048201805461098b90613688565b80601f01602080910402602001604051908101604052809291908181526020018280546109b790613688565b8015610a025780601f106109d957610100808354040283529160200191610a02565b820191905f5260205f20905b8154815290600101906020018083116109e557829003601f168201915b50505050508152602001600582018054610a1b90613688565b80601f0160208091040260200160405190810160405280929190818152602001828054610a4790613688565b8015610a925780601f10610a6957610100808354040283529160200191610a92565b820191905f5260205f20905b815481529060010190602001808311610a7557829003601f168201915b50505050508152602001600682018054610aab90613688565b80601f0160208091040260200160405190810160405280929190818152602001828054610ad790613688565b8015610b225780601f10610af957610100808354040283529160200191610b22565b820191905f5260205f20905b815481529060010190602001808311610b0557829003601f168201915b5050505050815250509050919050565b610b4c83838360405180602001604052805f8152506116e1565b505050565b610b5c838383611edf565b505050565b600a602052805f5260405f205f915090505481565b5f610b8389600854612047565b610b8f6008548361213a565b6040518060e0016040528060085481526020018981526020018881526020018781526020018681526020018581526020018481525060095f60085481526020019081526020015f205f820151815f01556020820151816001019081610bf49190613918565b506040820151816002019081610c0a9190613918565b506060820151816003019081610c209190613918565b506080820151816004019081610c369190613918565b5060a0820151816005019081610c4c9190613918565b5060c0820151816006019081610c629190613918565b509050506001600a5f60085481526020019081526020015f2081905550600b5f8a73ffffffffffffffffffffffffffffffffffffffff1673ffffffffffffffffffffffffffffffffffffffff1681526020019081526020015f20600854908060018154018082558091505060019003905f5260205f20015f9091909190915055600854905060085f815480929190610cf990613a14565b91905055507fdfc52999434f16071e7b16c9e590dc1fda0620311d708c266ce9b894bac98db2604051610d2b90613acb565b60405180910390a198975050505050505050565b5f610d49826119a3565b9050919050565b5f8073ffffffffffffffffffffffffffffffffffffffff168273ffffffffffffffffffffffffffffffffffffffff1603610dc1575f6040517f89c62b64000000000000000000000000000000000000000000000000000000008152600401610db89190612d99565b60405180910390fd5b60035f8373ffffffffffffffffffffffffffffffffffffffff1673ffffffffffffffffffffffffffffffffffffffff1681526020019081526020015f20549050919050565b60605f600b5f8473ffffffffffffffffffffffffffffffffffffffff1673ffffffffffffffffffffffffffffffffffffffff1681526020019081526020015f20805480602002602001604051908101604052809291908181526020018280548015610e8e57602002820191905f5260205f20905b815481526020019060010190808311610e7a575b505050505090505f815167ffffffffffffffff811115610eb157610eb0612fa5565b5b604051908082528060200260200182016040528015610eea57816020015b610ed7612b2a565b815260200190600190039081610ecf5790505b5090505f5b82518110156112c85760095f848381518110610f0e57610f0d613ae9565b5b602002602001015181526020019081526020015f206040518060e00160405290815f8201548152602001600182018054610f4790613688565b80601f0160208091040260200160405190810160405280929190818152602001828054610f7390613688565b8015610fbe5780601f10610f9557610100808354040283529160200191610fbe565b820191905f5260205f20905b815481529060010190602001808311610fa157829003601f168201915b50505050508152602001600282018054610fd790613688565b80601f016020809104026020016040519081016040528092919081815260200182805461100390613688565b801561104e5780601f106110255761010080835404028352916020019161104e565b820191905f5260205f20905b81548152906001019060200180831161103157829003601f168201915b5050505050815260200160038201805461106790613688565b80601f016020809104026020016040519081016040528092919081815260200182805461109390613688565b80156110de5780601f106110b5576101008083540402835291602001916110de565b820191905f5260205f20905b8154815290600101906020018083116110c157829003601f168201915b505050505081526020016004820180546110f790613688565b80601f016020809104026020016040519081016040528092919081815260200182805461112390613688565b801561116e5780601f106111455761010080835404028352916020019161116e565b820191905f5260205f20905b81548152906001019060200180831161115157829003601f168201915b5050505050815260200160058201805461118790613688565b80601f01602080910402602001604051908101604052809291908181526020018280546111b390613688565b80156111fe5780601f106111d5576101008083540402835291602001916111fe565b820191905f5260205f20905b8154815290600101906020018083116111e157829003601f168201915b5050505050815260200160068201805461121790613688565b80601f016020809104026020016040519081016040528092919081815260200182805461124390613688565b801561128e5780601f106112655761010080835404028352916020019161128e565b820191905f5260205f20905b81548152906001019060200180831161127157829003601f168201915b5050505050815250508282815181106112aa576112a9613ae9565b5b602002602001018190525080806112c090613a14565b915050610eef565b508092505050919050565b6060600180546112e290613688565b80601f016020809104026020016040519081016040528092919081815260200182805461130e90613688565b80156113595780601f1061133057610100808354040283529160200191611359565b820191905f5260205f20905b81548152906001019060200180831161133c57829003601f168201915b5050505050905090565b61137561136e611a62565b8383612194565b5050565b60085481565b6009602052805f5260405f205f91509050805f0154908060010180546113a490613688565b80601f01602080910402602001604051908101604052809291908181526020018280546113d090613688565b801561141b5780601f106113f25761010080835404028352916020019161141b565b820191905f5260205f20905b8154815290600101906020018083116113fe57829003601f168201915b50505050509080600201805461143090613688565b80601f016020809104026020016040519081016040528092919081815260200182805461145c90613688565b80156114a75780601f1061147e576101008083540402835291602001916114a7565b820191905f5260205f20905b81548152906001019060200180831161148a57829003601f168201915b5050505050908060030180546114bc90613688565b80601f01602080910402602001604051908101604052809291908181526020018280546114e890613688565b80156115335780601f1061150a57610100808354040283529160200191611533565b820191905f5260205f20905b81548152906001019060200180831161151657829003601f168201915b50505050509080600401805461154890613688565b80601f016020809104026020016040519081016040528092919081815260200182805461157490613688565b80156115bf5780601f10611596576101008083540402835291602001916115bf565b820191905f5260205f20905b8154815290600101906020018083116115a257829003601f168201915b5050505050908060050180546115d490613688565b80601f016020809104026020016040519081016040528092919081815260200182805461160090613688565b801561164b5780601f106116225761010080835404028352916020019161164b565b820191905f5260205f20905b81548152906001019060200180831161162e57829003601f168201915b50505050509080600601805461166090613688565b80601f016020809104026020016040519081016040528092919081815260200182805461168c90613688565b80156116d75780601f106116ae576101008083540402835291602001916116d7565b820191905f5260205f20905b8154815290600101906020018083116116ba57829003601f168201915b5050505050905087565b6116ec84848461069f565b6116f8848484846122fd565b50505050565b600b602052815f5260405f208181548110611717575f80fd5b905f5260205f20015f91509150505481565b6060611734826119a3565b505f60065f8481526020019081526020015f20805461175290613688565b80601f016020809104026020016040519081016040528092919081815260200182805461177e90613688565b80156117c95780601f106117a0576101008083540402835291602001916117c9565b820191905f5260205f20905b8154815290600101906020018083116117ac57829003601f168201915b505050505090505f6117d96124af565b90505f8151036117ed57819250505061182f565b5f82511115611821578082604051602001611809929190613b50565b6040516020818303038152906040529250505061182f565b61182a846124c5565b925050505b919050565b5f60055f8473ffffffffffffffffffffffffffffffffffffffff1673ffffffffffffffffffffffffffffffffffffffff1681526020019081526020015f205f8373ffffffffffffffffffffffffffffffffffffffff1673ffffffffffffffffffffffffffffffffffffffff1681526020019081526020015f205f9054906101000a900460ff16905092915050565b5f7f80ac58cd000000000000000000000000000000000000000000000000000000007bffffffffffffffffffffffffffffffffffffffffffffffffffffffff1916827bffffffffffffffffffffffffffffffffffffffffffffffffffffffff1916148061198c57507f5b5e139f000000000000000000000000000000000000000000000000000000007bffffffffffffffffffffffffffffffffffffffffffffffffffffffff1916827bffffffffffffffffffffffffffffffffffffffffffffffffffffffff1916145b8061199c575061199b8261252b565b5b9050919050565b5f806119ae83612594565b90505f73ffffffffffffffffffffffffffffffffffffffff168173ffffffffffffffffffffffffffffffffffffffff1603611a2057826040517f7e273289000000000000000000000000000000000000000000000000000000008152600401611a179190612b7e565b60405180910390fd5b80915050919050565b5f60045f8381526020019081526020015f205f9054906101000a900473ffffffffffffffffffffffffffffffffffffffff169050919050565b5f33905090565b611a7683838360016125cd565b505050565b5f805f90505b600b5f8473ffffffffffffffffffffffffffffffffffffffff1673ffffffffffffffffffffffffffffffffffffffff1681526020019081526020015f2080549050811015611b425783600b5f8573ffffffffffffffffffffffffffffffffffffffff1673ffffffffffffffffffffffffffffffffffffffff1681526020019081526020015f208281548110611b1957611b18613ae9565b5b905f5260205f20015403611b2f57809150611b42565b8080611b3a90613a14565b915050611a81565b505f8190505b6001600b5f8573ffffffffffffffffffffffffffffffffffffffff1673ffffffffffffffffffffffffffffffffffffffff1681526020019081526020015f2080549050611b959190613b73565b811015611c6e57600b5f8473ffffffffffffffffffffffffffffffffffffffff1673ffffffffffffffffffffffffffffffffffffffff1681526020019081526020015f20600182611be69190613ba6565b81548110611bf757611bf6613ae9565b5b905f5260205f200154600b5f8573ffffffffffffffffffffffffffffffffffffffff1673ffffffffffffffffffffffffffffffffffffffff1681526020019081526020015f208281548110611c4f57611c4e613ae9565b5b905f5260205f2001819055508080611c6690613a14565b915050611b48565b50600b5f8373ffffffffffffffffffffffffffffffffffffffff1673ffffffffffffffffffffffffffffffffffffffff1681526020019081526020015f20805480611cbc57611cbb613bd9565b5b600190038181905f5260205f20015f90559055505050565b5f80611cdf84612594565b90505f73ffffffffffffffffffffffffffffffffffffffff168373ffffffffffffffffffffffffffffffffffffffff1614611d2057611d1f81848661278c565b5b5f73ffffffffffffffffffffffffffffffffffffffff168173ffffffffffffffffffffffffffffffffffffffff1614611dab57611d5f5f855f806125cd565b600160035f8373ffffffffffffffffffffffffffffffffffffffff1673ffffffffffffffffffffffffffffffffffffffff1681526020019081526020015f205f82825403925050819055505b5f73ffffffffffffffffffffffffffffffffffffffff168573ffffffffffffffffffffffffffffffffffffffff1614611e2a57600160035f8773ffffffffffffffffffffffffffffffffffffffff1673ffffffffffffffffffffffffffffffffffffffff1681526020019081526020015f205f82825401925050819055505b8460025f8681526020019081526020015f205f6101000a81548173ffffffffffffffffffffffffffffffffffffffff021916908373ffffffffffffffffffffffffffffffffffffffff160217905550838573ffffffffffffffffffffffffffffffffffffffff168273ffffffffffffffffffffffffffffffffffffffff167fddf252ad1be2c89b69c2b068fc378daa952ba7f163c4a11628f55a4df523b3ef60405160405180910390a4809150509392505050565b5f73ffffffffffffffffffffffffffffffffffffffff168273ffffffffffffffffffffffffffffffffffffffff1603611f4f575f6040517f64a0ae92000000000000000000000000000000000000000000000000000000008152600401611f469190612d99565b60405180910390fd5b5f611f5b83835f611cd4565b90505f73ffffffffffffffffffffffffffffffffffffffff168173ffffffffffffffffffffffffffffffffffffffff1603611fcd57816040517f7e273289000000000000000000000000000000000000000000000000000000008152600401611fc49190612b7e565b60405180910390fd5b8373ffffffffffffffffffffffffffffffffffffffff168173ffffffffffffffffffffffffffffffffffffffff1614612041578382826040517f64283d7b00000000000000000000000000000000000000000000000000000000815260040161203893929190613746565b60405180910390fd5b50505050565b5f73ffffffffffffffffffffffffffffffffffffffff168273ffffffffffffffffffffffffffffffffffffffff16036120b7575f6040517f64a0ae920000000000000000000000000000000000000000000000000000000081526004016120ae9190612d99565b60405180910390fd5b5f6120c383835f611cd4565b90505f73ffffffffffffffffffffffffffffffffffffffff168173ffffffffffffffffffffffffffffffffffffffff1614612135575f6040517f73c6ac6e00000000000000000000000000000000000000000000000000000000815260040161212c9190612d99565b60405180910390fd5b505050565b8060065f8481526020019081526020015f2090816121589190613918565b507ff8e1a15aba9398e019f0b49df1a4fde98ee17ae345cb5f6b5e2c27f5033e8ce7826040516121889190612b7e565b60405180910390a15050565b5f73ffffffffffffffffffffffffffffffffffffffff168273ffffffffffffffffffffffffffffffffffffffff160361220457816040517f5b08ba180000000000000000000000000000000000000000000000000000000081526004016121fb9190612d99565b60405180910390fd5b8060055f8573ffffffffffffffffffffffffffffffffffffffff1673ffffffffffffffffffffffffffffffffffffffff1681526020019081526020015f205f8473ffffffffffffffffffffffffffffffffffffffff1673ffffffffffffffffffffffffffffffffffffffff1681526020019081526020015f205f6101000a81548160ff0219169083151502179055508173ffffffffffffffffffffffffffffffffffffffff168373ffffffffffffffffffffffffffffffffffffffff167f17307eab39ab6107e8899845ad3d59bd9653f200f220920489ca2b5937696c31836040516122f09190612c42565b60405180910390a3505050565b5f8373ffffffffffffffffffffffffffffffffffffffff163b11156124a9578273ffffffffffffffffffffffffffffffffffffffff1663150b7a02612340611a62565b8685856040518563ffffffff1660e01b81526004016123629493929190613c58565b6020604051808303815f875af192505050801561239d57506040513d601f19601f8201168201806040525081019061239a9190613cb6565b60015b61241e573d805f81146123cb576040519150601f19603f3d011682016040523d82523d5f602084013e6123d0565b606091505b505f81510361241657836040517f64a0ae9200000000000000000000000000000000000000000000000000000000815260040161240d9190612d99565b60405180910390fd5b805181602001fd5b63150b7a0260e01b7bffffffffffffffffffffffffffffffffffffffffffffffffffffffff1916817bffffffffffffffffffffffffffffffffffffffffffffffffffffffff1916146124a757836040517f64a0ae9200000000000000000000000000000000000000000000000000000000815260040161249e9190612d99565b60405180910390fd5b505b50505050565b606060405180602001604052805f815250905090565b60606124d0826119a3565b505f6124da6124af565b90505f8151116124f85760405180602001604052805f815250612523565b806125028461284f565b604051602001612513929190613b50565b6040516020818303038152906040525b915050919050565b5f7f01ffc9a7000000000000000000000000000000000000000000000000000000007bffffffffffffffffffffffffffffffffffffffffffffffffffffffff1916827bffffffffffffffffffffffffffffffffffffffffffffffffffffffff1916149050919050565b5f60025f8381526020019081526020015f205f9054906101000a900473ffffffffffffffffffffffffffffffffffffffff169050919050565b808061260557505f73ffffffffffffffffffffffffffffffffffffffff168273ffffffffffffffffffffffffffffffffffffffff1614155b15612737575f612614846119a3565b90505f73ffffffffffffffffffffffffffffffffffffffff168373ffffffffffffffffffffffffffffffffffffffff161415801561267e57508273ffffffffffffffffffffffffffffffffffffffff168173ffffffffffffffffffffffffffffffffffffffff1614155b8015612691575061268f8184611834565b155b156126d357826040517fa9fbf51f0000000000000000000000000000000000000000000000000000000081526004016126ca9190612d99565b60405180910390fd5b811561273557838573ffffffffffffffffffffffffffffffffffffffff168273ffffffffffffffffffffffffffffffffffffffff167f8c5be1e5ebec7d5bd14f71427d1e84f3dd0314c0f7b2291e5b200ac8c7c3b92560405160405180910390a45b505b8360045f8581526020019081526020015f205f6101000a81548173ffffffffffffffffffffffffffffffffffffffff021916908373ffffffffffffffffffffffffffffffffffffffff16021790555050505050565b612797838383612919565b61284a575f73ffffffffffffffffffffffffffffffffffffffff168373ffffffffffffffffffffffffffffffffffffffff160361280b57806040517f7e2732890000000000000000000000000000000000000000000000000000000081526004016128029190612b7e565b60405180910390fd5b81816040517f177e802f000000000000000000000000000000000000000000000000000000008152600401612841929190613ce1565b60405180910390fd5b505050565b60605f600161285d846129d9565b0190505f8167ffffffffffffffff81111561287b5761287a612fa5565b5b6040519080825280601f01601f1916602001820160405280156128ad5781602001600182028036833780820191505090505b5090505f82602001820190505b60011561290e578080600190039150507f3031323334353637383961626364656600000000000000000000000000000000600a86061a8153600a858161290357612902613d08565b5b0494505f85036128ba575b819350505050919050565b5f8073ffffffffffffffffffffffffffffffffffffffff168373ffffffffffffffffffffffffffffffffffffffff16141580156129d057508273ffffffffffffffffffffffffffffffffffffffff168473ffffffffffffffffffffffffffffffffffffffff16148061299157506129908484611834565b5b806129cf57508273ffffffffffffffffffffffffffffffffffffffff166129b783611a29565b73ffffffffffffffffffffffffffffffffffffffff16145b5b90509392505050565b5f805f90507a184f03e93ff9f4daa797ed6e38ed64bf6a1f0100000000000000008310612a35577a184f03e93ff9f4daa797ed6e38ed64bf6a1f0100000000000000008381612a2b57612a2a613d08565b5b0492506040810190505b6d04ee2d6d415b85acef81000000008310612a72576d04ee2d6d415b85acef81000000008381612a6857612a67613d08565b5b0492506020810190505b662386f26fc100008310612aa157662386f26fc100008381612a9757612a96613d08565b5b0492506010810190505b6305f5e1008310612aca576305f5e1008381612ac057612abf613d08565b5b0492506008810190505b6127108310612aef576127108381612ae557612ae4613d08565b5b0492506004810190505b60648310612b125760648381612b0857612b07613d08565b5b0492506002810190505b600a8310612b21576001810190505b80915050919050565b6040518060e001604052805f81526020016060815260200160608152602001606081526020016060815260200160608152602001606081525090565b5f819050919050565b612b7881612b66565b82525050565b5f602082019050612b915f830184612b6f565b92915050565b5f604051905090565b5f80fd5b5f80fd5b5f7fffffffff0000000000000000000000000000000000000000000000000000000082169050919050565b612bdc81612ba8565b8114612be6575f80fd5b50565b5f81359050612bf781612bd3565b92915050565b5f60208284031215612c1257612c11612ba0565b5b5f612c1f84828501612be9565b91505092915050565b5f8115159050919050565b612c3c81612c28565b82525050565b5f602082019050612c555f830184612c33565b92915050565b5f81519050919050565b5f82825260208201905092915050565b5f5b83811015612c92578082015181840152602081019050612c77565b5f8484015250505050565b5f601f19601f8301169050919050565b5f612cb782612c5b565b612cc18185612c65565b9350612cd1818560208601612c75565b612cda81612c9d565b840191505092915050565b5f6020820190508181035f830152612cfd8184612cad565b905092915050565b612d0e81612b66565b8114612d18575f80fd5b50565b5f81359050612d2981612d05565b92915050565b5f60208284031215612d4457612d43612ba0565b5b5f612d5184828501612d1b565b91505092915050565b5f73ffffffffffffffffffffffffffffffffffffffff82169050919050565b5f612d8382612d5a565b9050919050565b612d9381612d79565b82525050565b5f602082019050612dac5f830184612d8a565b92915050565b612dbb81612d79565b8114612dc5575f80fd5b50565b5f81359050612dd681612db2565b92915050565b5f8060408385031215612df257612df1612ba0565b5b5f612dff85828601612dc8565b9250506020612e1085828601612d1b565b9150509250929050565b5f805f60608486031215612e3157612e30612ba0565b5b5f612e3e86828701612dc8565b9350506020612e4f86828701612dc8565b9250506040612e6086828701612d1b565b9150509250925092565b612e7381612b66565b82525050565b5f82825260208201905092915050565b5f612e9382612c5b565b612e9d8185612e79565b9350612ead818560208601612c75565b612eb681612c9d565b840191505092915050565b5f60e083015f830151612ed65f860182612e6a565b5060208301518482036020860152612eee8282612e89565b91505060408301518482036040860152612f088282612e89565b91505060608301518482036060860152612f228282612e89565b91505060808301518482036080860152612f3c8282612e89565b91505060a083015184820360a0860152612f568282612e89565b91505060c083015184820360c0860152612f708282612e89565b9150508091505092915050565b5f6020820190508181035f830152612f958184612ec1565b905092915050565b5f80fd5b5f80fd5b7f4e487b71000000000000000000000000000000000000000000000000000000005f52604160045260245ffd5b612fdb82612c9d565b810181811067ffffffffffffffff82111715612ffa57612ff9612fa5565b5b80604052505050565b5f61300c612b97565b90506130188282612fd2565b919050565b5f67ffffffffffffffff82111561303757613036612fa5565b5b61304082612c9d565b9050602081019050919050565b828183375f83830152505050565b5f61306d6130688461301d565b613003565b90508281526020810184848401111561308957613088612fa1565b5b61309484828561304d565b509392505050565b5f82601f8301126130b0576130af612f9d565b5b81356130c084826020860161305b565b91505092915050565b5f805f805f805f80610100898b0312156130e6576130e5612ba0565b5b5f6130f38b828c01612dc8565b985050602089013567ffffffffffffffff81111561311457613113612ba4565b5b6131208b828c0161309c565b975050604089013567ffffffffffffffff81111561314157613140612ba4565b5b61314d8b828c0161309c565b965050606089013567ffffffffffffffff81111561316e5761316d612ba4565b5b61317a8b828c0161309c565b955050608089013567ffffffffffffffff81111561319b5761319a612ba4565b5b6131a78b828c0161309c565b94505060a089013567ffffffffffffffff8111156131c8576131c7612ba4565b5b6131d48b828c0161309c565b93505060c089013567ffffffffffffffff8111156131f5576131f4612ba4565b5b6132018b828c0161309c565b92505060e089013567ffffffffffffffff81111561322257613221612ba4565b5b61322e8b828c0161309c565b9150509295985092959890939650565b5f6020828403121561325357613252612ba0565b5b5f61326084828501612dc8565b91505092915050565b5f81519050919050565b5f82825260208201905092915050565b5f819050602082019050919050565b5f60e083015f8301516132a75f860182612e6a565b50602083015184820360208601526132bf8282612e89565b915050604083015184820360408601526132d98282612e89565b915050606083015184820360608601526132f38282612e89565b9150506080830151848203608086015261330d8282612e89565b91505060a083015184820360a08601526133278282612e89565b91505060c083015184820360c08601526133418282612e89565b9150508091505092915050565b5f6133598383613292565b905092915050565b5f602082019050919050565b5f61337782613269565b6133818185613273565b93508360208202850161339385613283565b805f5b858110156133ce57848403895281516133af858261334e565b94506133ba83613361565b925060208a01995050600181019050613396565b50829750879550505050505092915050565b5f6020820190508181035f8301526133f8818461336d565b905092915050565b61340981612c28565b8114613413575f80fd5b50565b5f8135905061342481613400565b92915050565b5f80604083850312156134405761343f612ba0565b5b5f61344d85828601612dc8565b925050602061345e85828601613416565b9150509250929050565b5f60e08201905061347b5f83018a612b6f565b818103602083015261348d8189612cad565b905081810360408301526134a18188612cad565b905081810360608301526134b58187612cad565b905081810360808301526134c98186612cad565b905081810360a08301526134dd8185612cad565b905081810360c08301526134f18184612cad565b905098975050505050505050565b5f67ffffffffffffffff82111561351957613518612fa5565b5b61352282612c9d565b9050602081019050919050565b5f61354161353c846134ff565b613003565b90508281526020810184848401111561355d5761355c612fa1565b5b61356884828561304d565b509392505050565b5f82601f83011261358457613583612f9d565b5b813561359484826020860161352f565b91505092915050565b5f805f80608085870312156135b5576135b4612ba0565b5b5f6135c287828801612dc8565b94505060206135d387828801612dc8565b93505060406135e487828801612d1b565b925050606085013567ffffffffffffffff81111561360557613604612ba4565b5b61361187828801613570565b91505092959194509250565b5f806040838503121561363357613632612ba0565b5b5f61364085828601612dc8565b925050602061365185828601612dc8565b9150509250929050565b7f4e487b71000000000000000000000000000000000000000000000000000000005f52602260045260245ffd5b5f600282049050600182168061369f57607f821691505b6020821081036136b2576136b161365b565b5b50919050565b7f546865206f776e657273686970207472616e73666572206f6620746865204e465f8201527f54206973207375636365737366756c0000000000000000000000000000000000602082015250565b5f613712602f83612c65565b915061371d826136b8565b604082019050919050565b5f6020820190508181035f83015261373f81613706565b9050919050565b5f6060820190506137595f830186612d8a565b6137666020830185612b6f565b6137736040830184612d8a565b949350505050565b5f819050815f5260205f209050919050565b5f6020601f8301049050919050565b5f82821b905092915050565b5f600883026137d77fffffffffffffffffffffffffffffffffffffffffffffffffffffffffffffffff8261379c565b6137e1868361379c565b95508019841693508086168417925050509392505050565b5f819050919050565b5f61381c61381761381284612b66565b6137f9565b612b66565b9050919050565b5f819050919050565b61383583613802565b61384961384182613823565b8484546137a8565b825550505050565b5f90565b61385d613851565b61386881848461382c565b505050565b5b8181101561388b576138805f82613855565b60018101905061386e565b5050565b601f8211156138d0576138a18161377b565b6138aa8461378d565b810160208510156138b9578190505b6138cd6138c58561378d565b83018261386d565b50505b505050565b5f82821c905092915050565b5f6138f05f19846008026138d5565b1980831691505092915050565b5f61390883836138e1565b9150826002028217905092915050565b61392182612c5b565b67ffffffffffffffff81111561393a57613939612fa5565b5b6139448254613688565b61394f82828561388f565b5f60209050601f831160018114613980575f841561396e578287015190505b61397885826138fd565b8655506139df565b601f19841661398e8661377b565b5f5b828110156139b557848901518255600182019150602085019450602081019050613990565b868310156139d257848901516139ce601f8916826138e1565b8355505b6001600288020188555050505b505050505050565b7f4e487b71000000000000000000000000000000000000000000000000000000005f52601160045260245ffd5b5f613a1e82612b66565b91507fffffffffffffffffffffffffffffffffffffffffffffffffffffffffffffffff8203613a5057613a4f6139e7565b5b600182019050919050565b7f4d696e746564204e4654207375636365737366756c6c7920666f7220746865205f8201527f757365722e000000000000000000000000000000000000000000000000000000602082015250565b5f613ab5602583612c65565b9150613ac082613a5b565b604082019050919050565b5f6020820190508181035f830152613ae281613aa9565b9050919050565b7f4e487b71000000000000000000000000000000000000000000000000000000005f52603260045260245ffd5b5f81905092915050565b5f613b2a82612c5b565b613b348185613b16565b9350613b44818560208601612c75565b80840191505092915050565b5f613b5b8285613b20565b9150613b678284613b20565b91508190509392505050565b5f613b7d82612b66565b9150613b8883612b66565b9250828203905081811115613ba057613b9f6139e7565b5b92915050565b5f613bb082612b66565b9150613bbb83612b66565b9250828201905080821115613bd357613bd26139e7565b5b92915050565b7f4e487b71000000000000000000000000000000000000000000000000000000005f52603160045260245ffd5b5f81519050919050565b5f82825260208201905092915050565b5f613c2a82613c06565b613c348185613c10565b9350613c44818560208601612c75565b613c4d81612c9d565b840191505092915050565b5f608082019050613c6b5f830187612d8a565b613c786020830186612d8a565b613c856040830185612b6f565b8181036060830152613c978184613c20565b905095945050505050565b5f81519050613cb081612bd3565b92915050565b5f60208284031215613ccb57613cca612ba0565b5b5f613cd884828501613ca2565b91505092915050565b5f604082019050613cf45f830185612d8a565b613d016020830184612b6f565b9392505050565b7f4e487b71000000000000000000000000000000000000000000000000000000005f52601260045260245ffdfea26469706673582212203542718d5b3d70b22210902556c4011e95deef9b17645957e57ae380329c58ee64736f6c63430008140033",
  "immutableReferences": {},
  "source": "// SPDX-License-Identifier: MIT\r\npragma solidity ^0.8.18;\r\n\r\nimport \"@openzeppelin/contracts/token/ERC721/extensions/ERC721URIStorage.sol\";\r\n\r\ncontract CloudConfigToken is ERC721URIStorage {\r\n    // To store the address of the owner of the contract\r\n    address owner;\r\n    uint256 public tokenID = 1;\r\n    // To store server configurations and map it to a particular ID for the NFT.\r\n    struct ServerConfiguration {\r\n        uint256 id;\r\n        string gpu;\r\n        string processor;\r\n        string ram;\r\n        string cores;\r\n        string os;\r\n        string imageURL;\r\n    }\r\n\r\n    mapping (uint256 => ServerConfiguration) public serverConfigs;\r\n    mapping (uint256 => uint256) public tokenToCost;\r\n    mapping (address => uint256[]) public tokenList;\r\n\r\n    event NFTminted(string message);\r\n    event NFTOwnershipTransferred(string message);\r\n\r\n    modifier userNotCaller (address user, address functionCaller) {\r\n        require(\r\n          user!=functionCaller,\r\n          \"The user should be the caller of mintConfigToken function. It should be called by the owner or the ERC1155 contract!\"\r\n        );\r\n        _;\r\n    }\r\n\r\n    constructor() ERC721(\"Cloud Config Token\", \"CCT\") {\r\n        owner = msg.sender;\r\n    }\r\n\r\n    function getTokenId() public view returns (\r\n        uint256 t\r\n    )\r\n    {\r\n        t=tokenID;\r\n    }\r\n\r\n    function mintConfigToken(\r\n        address user,\r\n        string memory gpu,\r\n        string memory processor,\r\n        string memory ram,\r\n        string memory cores,\r\n        string memory os,\r\n        string memory imageURL,\r\n        string memory uri \r\n    ) public returns (\r\n        uint256 token\r\n    ) {\r\n        _mint(user, tokenID);\r\n        _setTokenURI(tokenID, uri);\r\n        // _setTokenURI(tokenID, uri);\r\n\r\n        serverConfigs[tokenID] = ServerConfiguration(tokenID, gpu, processor, ram, cores, os, imageURL);\r\n        tokenToCost[tokenID] = 1;\r\n        tokenList[user].push(tokenID);\r\n        token=tokenID;\r\n        tokenID++;\r\n        // setApprovalForAll(operator, true);\r\n        emit NFTminted(\"Minted NFT successfully for the user.\");\r\n\r\n    }\r\n\r\n    function getConfigData(uint256 tokenId) public view returns (\r\n        ServerConfiguration memory config\r\n    ) {\r\n        config = serverConfigs[tokenId];\r\n    }\r\n\r\n    // function buyServerConfig(uint256 tokenId) external payable {\r\n    //     uint256 cost = tokenToCost[tokenId];\r\n    //     require(cost > 0, \"Invalid token ID\");\r\n    //     require(msg.value >= cost, \"Insufficient funds to purchase server config\");\r\n\r\n    //     // Transfer the token to the buyer\r\n    //     safeTransferFrom(ownerOf(tokenId), msg.sender, tokenId);\r\n\r\n    //     // Send the payment to the seller (contract owner)\r\n    //     address payable seller = payable(owner);\r\n    //     seller.transfer(msg.value);\r\n    // }\r\n\r\n    function getConfigList(address user) public view returns (\r\n        ServerConfiguration[] memory\r\n    ) {\r\n        uint256[] memory arr = tokenList[user];\r\n        ServerConfiguration[] memory configs = new ServerConfiguration[](arr.length);\r\n        for (uint256 i=0; i<arr.length ; i++){\r\n            configs[i]= serverConfigs[arr[i]];\r\n        }\r\n        return configs;\r\n    }\r\n\r\n    function remove(uint val, address user) internal{\r\n        uint index;\r\n        for (uint i = 0 ; i < tokenList[user].length ; i++) {\r\n            if (tokenList[user][i]==val){\r\n                index=i;\r\n                break;\r\n            }\r\n        }\r\n        for (uint i = index; i < tokenList[user].length - 1; i++) {\r\n            tokenList[user][i] = tokenList[user][i + 1];\r\n        }\r\n        tokenList[user].pop();\r\n    }\r\n\r\n    function transferOwnership(address from, address to, uint256 tokenId) public {\r\n        remove(tokenId,from);\r\n        tokenList[to].push(tokenId);\r\n        emit NFTOwnershipTransferred(\"The ownership transfer of the NFT is successful\");\r\n    }\r\n\r\n    function transferCCT(address from, address to, uint256 tokenId) public {\r\n        _transfer(from, to, tokenId);\r\n    }\r\n    \r\n}",
  "sourcePath": "C:\\Users\\parth\\Downloads\\College\\Fall 2023\\Blockchain\\Caab\\Cloud-as-a-Blockchain-CaaB-\\caab-contract\\contracts\\CCT_ERC721.sol",
  "compiler": {
    "name": "solc",
    "version": "0.8.20+commit.a1b79de6.Emscripten.clang"
  },
  "schemaVersion": "3.4.16",
  "updatedAt": "2023-12-03T19:39:38.417Z",
  "networkType": "ethereum",
  "devdoc": {
    "errors": {
      "ERC721IncorrectOwner(address,uint256,address)": [
        {
          "details": "Indicates an error related to the ownership over a particular token. Used in transfers.",
          "params": {
            "owner": "Address of the current owner of a token.",
            "sender": "Address whose tokens are being transferred.",
            "tokenId": "Identifier number of a token."
          }
        }
      ],
      "ERC721InsufficientApproval(address,uint256)": [
        {
          "details": "Indicates a failure with the `operator`s approval. Used in transfers.",
          "params": {
            "operator": "Address that may be allowed to operate on tokens without being their owner.",
            "tokenId": "Identifier number of a token."
          }
        }
      ],
      "ERC721InvalidApprover(address)": [
        {
          "details": "Indicates a failure with the `approver` of a token to be approved. Used in approvals.",
          "params": {
            "approver": "Address initiating an approval operation."
          }
        }
      ],
      "ERC721InvalidOperator(address)": [
        {
          "details": "Indicates a failure with the `operator` to be approved. Used in approvals.",
          "params": {
            "operator": "Address that may be allowed to operate on tokens without being their owner."
          }
        }
      ],
      "ERC721InvalidOwner(address)": [
        {
          "details": "Indicates that an address can't be an owner. For example, `address(0)` is a forbidden owner in EIP-20. Used in balance queries.",
          "params": {
            "owner": "Address of the current owner of a token."
          }
        }
      ],
      "ERC721InvalidReceiver(address)": [
        {
          "details": "Indicates a failure with the token `receiver`. Used in transfers.",
          "params": {
            "receiver": "Address to which tokens are being transferred."
          }
        }
      ],
      "ERC721InvalidSender(address)": [
        {
          "details": "Indicates a failure with the token `sender`. Used in transfers.",
          "params": {
            "sender": "Address whose tokens are being transferred."
          }
        }
      ],
      "ERC721NonexistentToken(uint256)": [
        {
          "details": "Indicates a `tokenId` whose `owner` is the zero address.",
          "params": {
            "tokenId": "Identifier number of a token."
          }
        }
      ]
    },
    "events": {
      "Approval(address,address,uint256)": {
        "details": "Emitted when `owner` enables `approved` to manage the `tokenId` token."
      },
      "ApprovalForAll(address,address,bool)": {
        "details": "Emitted when `owner` enables or disables (`approved`) `operator` to manage all of its assets."
      },
      "BatchMetadataUpdate(uint256,uint256)": {
        "details": "This event emits when the metadata of a range of tokens is changed. So that the third-party platforms such as NFT market could timely update the images and related attributes of the NFTs."
      },
      "MetadataUpdate(uint256)": {
        "details": "This event emits when the metadata of a token is changed. So that the third-party platforms such as NFT market could timely update the images and related attributes of the NFT."
      },
      "Transfer(address,address,uint256)": {
        "details": "Emitted when `tokenId` token is transferred from `from` to `to`."
      }
    },
    "kind": "dev",
    "methods": {
      "approve(address,uint256)": {
        "details": "See {IERC721-approve}."
      },
      "balanceOf(address)": {
        "details": "See {IERC721-balanceOf}."
      },
      "getApproved(uint256)": {
        "details": "See {IERC721-getApproved}."
      },
      "isApprovedForAll(address,address)": {
        "details": "See {IERC721-isApprovedForAll}."
      },
      "name()": {
        "details": "See {IERC721Metadata-name}."
      },
      "ownerOf(uint256)": {
        "details": "See {IERC721-ownerOf}."
      },
      "safeTransferFrom(address,address,uint256)": {
        "details": "See {IERC721-safeTransferFrom}."
      },
      "safeTransferFrom(address,address,uint256,bytes)": {
        "details": "See {IERC721-safeTransferFrom}."
      },
      "setApprovalForAll(address,bool)": {
        "details": "See {IERC721-setApprovalForAll}."
      },
      "supportsInterface(bytes4)": {
        "details": "See {IERC165-supportsInterface}"
      },
      "symbol()": {
        "details": "See {IERC721Metadata-symbol}."
      },
      "tokenURI(uint256)": {
        "details": "See {IERC721Metadata-tokenURI}."
      },
      "transferFrom(address,address,uint256)": {
        "details": "See {IERC721-transferFrom}."
      }
    },
    "version": 1
  },
  "userdoc": {
    "kind": "user",
    "methods": {},
    "version": 1
  }
}