{
  "contractName": "TokenTransfer",
  "abi": [
    {
      "inputs": [
        {
          "internalType": "address",
          "name": "cstTokenAddress",
          "type": "address"
        },
        {
          "internalType": "address",
          "name": "cctTokenAddress",
          "type": "address"
        }
      ],
      "stateMutability": "nonpayable",
      "type": "constructor"
    },
    {
      "inputs": [
        {
          "internalType": "address",
          "name": "sender",
          "type": "address"
        },
        {
          "internalType": "uint256",
          "name": "balance",
          "type": "uint256"
        },
        {
          "internalType": "uint256",
          "name": "needed",
          "type": "uint256"
        },
        {
          "internalType": "uint256",
          "name": "tokenId",
          "type": "uint256"
        }
      ],
      "name": "ERC1155InsufficientBalance",
      "type": "error"
    },
    {
      "inputs": [
        {
          "internalType": "address",
          "name": "approver",
          "type": "address"
        }
      ],
      "name": "ERC1155InvalidApprover",
      "type": "error"
    },
    {
      "inputs": [
        {
          "internalType": "uint256",
          "name": "idsLength",
          "type": "uint256"
        },
        {
          "internalType": "uint256",
          "name": "valuesLength",
          "type": "uint256"
        }
      ],
      "name": "ERC1155InvalidArrayLength",
      "type": "error"
    },
    {
      "inputs": [
        {
          "internalType": "address",
          "name": "operator",
          "type": "address"
        }
      ],
      "name": "ERC1155InvalidOperator",
      "type": "error"
    },
    {
      "inputs": [
        {
          "internalType": "address",
          "name": "receiver",
          "type": "address"
        }
      ],
      "name": "ERC1155InvalidReceiver",
      "type": "error"
    },
    {
      "inputs": [
        {
          "internalType": "address",
          "name": "sender",
          "type": "address"
        }
      ],
      "name": "ERC1155InvalidSender",
      "type": "error"
    },
    {
      "inputs": [
        {
          "internalType": "address",
          "name": "operator",
          "type": "address"
        },
        {
          "internalType": "address",
          "name": "owner",
          "type": "address"
        }
      ],
      "name": "ERC1155MissingApprovalForAll",
      "type": "error"
    },
    {
      "anonymous": false,
      "inputs": [
        {
          "indexed": true,
          "internalType": "address",
          "name": "account",
          "type": "address"
        },
        {
          "indexed": true,
          "internalType": "address",
          "name": "operator",
          "type": "address"
        },
        {
          "indexed": false,
          "internalType": "bool",
          "name": "approved",
          "type": "bool"
        }
      ],
      "name": "ApprovalForAll",
      "type": "event"
    },
    {
      "anonymous": false,
      "inputs": [
        {
          "indexed": true,
          "internalType": "address",
          "name": "operator",
          "type": "address"
        },
        {
          "indexed": true,
          "internalType": "address",
          "name": "from",
          "type": "address"
        },
        {
          "indexed": true,
          "internalType": "address",
          "name": "to",
          "type": "address"
        },
        {
          "indexed": false,
          "internalType": "uint256[]",
          "name": "ids",
          "type": "uint256[]"
        },
        {
          "indexed": false,
          "internalType": "uint256[]",
          "name": "values",
          "type": "uint256[]"
        }
      ],
      "name": "TransferBatch",
      "type": "event"
    },
    {
      "anonymous": false,
      "inputs": [
        {
          "indexed": true,
          "internalType": "address",
          "name": "operator",
          "type": "address"
        },
        {
          "indexed": true,
          "internalType": "address",
          "name": "from",
          "type": "address"
        },
        {
          "indexed": true,
          "internalType": "address",
          "name": "to",
          "type": "address"
        },
        {
          "indexed": false,
          "internalType": "uint256",
          "name": "id",
          "type": "uint256"
        },
        {
          "indexed": false,
          "internalType": "uint256",
          "name": "value",
          "type": "uint256"
        }
      ],
      "name": "TransferSingle",
      "type": "event"
    },
    {
      "anonymous": false,
      "inputs": [
        {
          "indexed": false,
          "internalType": "string",
          "name": "value",
          "type": "string"
        },
        {
          "indexed": true,
          "internalType": "uint256",
          "name": "id",
          "type": "uint256"
        }
      ],
      "name": "URI",
      "type": "event"
    },
    {
      "inputs": [
        {
          "internalType": "address",
          "name": "account",
          "type": "address"
        },
        {
          "internalType": "uint256",
          "name": "id",
          "type": "uint256"
        }
      ],
      "name": "balanceOf",
      "outputs": [
        {
          "internalType": "uint256",
          "name": "",
          "type": "uint256"
        }
      ],
      "stateMutability": "view",
      "type": "function",
      "constant": true
    },
    {
      "inputs": [
        {
          "internalType": "address[]",
          "name": "accounts",
          "type": "address[]"
        },
        {
          "internalType": "uint256[]",
          "name": "ids",
          "type": "uint256[]"
        }
      ],
      "name": "balanceOfBatch",
      "outputs": [
        {
          "internalType": "uint256[]",
          "name": "",
          "type": "uint256[]"
        }
      ],
      "stateMutability": "view",
      "type": "function",
      "constant": true
    },
    {
      "inputs": [
        {
          "internalType": "address",
          "name": "account",
          "type": "address"
        },
        {
          "internalType": "address",
          "name": "operator",
          "type": "address"
        }
      ],
      "name": "isApprovedForAll",
      "outputs": [
        {
          "internalType": "bool",
          "name": "",
          "type": "bool"
        }
      ],
      "stateMutability": "view",
      "type": "function",
      "constant": true
    },
    {
      "inputs": [
        {
          "internalType": "address",
          "name": "from",
          "type": "address"
        },
        {
          "internalType": "address",
          "name": "to",
          "type": "address"
        },
        {
          "internalType": "uint256[]",
          "name": "ids",
          "type": "uint256[]"
        },
        {
          "internalType": "uint256[]",
          "name": "values",
          "type": "uint256[]"
        },
        {
          "internalType": "bytes",
          "name": "data",
          "type": "bytes"
        }
      ],
      "name": "safeBatchTransferFrom",
      "outputs": [],
      "stateMutability": "nonpayable",
      "type": "function"
    },
    {
      "inputs": [
        {
          "internalType": "address",
          "name": "from",
          "type": "address"
        },
        {
          "internalType": "address",
          "name": "to",
          "type": "address"
        },
        {
          "internalType": "uint256",
          "name": "id",
          "type": "uint256"
        },
        {
          "internalType": "uint256",
          "name": "value",
          "type": "uint256"
        },
        {
          "internalType": "bytes",
          "name": "data",
          "type": "bytes"
        }
      ],
      "name": "safeTransferFrom",
      "outputs": [],
      "stateMutability": "nonpayable",
      "type": "function"
    },
    {
      "inputs": [
        {
          "internalType": "address",
          "name": "operator",
          "type": "address"
        },
        {
          "internalType": "bool",
          "name": "approved",
          "type": "bool"
        }
      ],
      "name": "setApprovalForAll",
      "outputs": [],
      "stateMutability": "nonpayable",
      "type": "function"
    },
    {
      "inputs": [
        {
          "internalType": "bytes4",
          "name": "interfaceId",
          "type": "bytes4"
        }
      ],
      "name": "supportsInterface",
      "outputs": [
        {
          "internalType": "bool",
          "name": "",
          "type": "bool"
        }
      ],
      "stateMutability": "view",
      "type": "function",
      "constant": true
    },
    {
      "inputs": [
        {
          "internalType": "uint256",
          "name": "",
          "type": "uint256"
        }
      ],
      "name": "uri",
      "outputs": [
        {
          "internalType": "string",
          "name": "",
          "type": "string"
        }
      ],
      "stateMutability": "view",
      "type": "function",
      "constant": true
    },
    {
      "inputs": [
        {
          "internalType": "string",
          "name": "newURI",
          "type": "string"
        }
      ],
      "name": "setURI",
      "outputs": [],
      "stateMutability": "nonpayable",
      "type": "function"
    },
    {
      "inputs": [
        {
          "internalType": "uint256",
          "name": "cctTokenID",
          "type": "uint256"
        },
        {
          "internalType": "uint256",
          "name": "cstAmount",
          "type": "uint256"
        }
      ],
      "name": "transferTokensToOwner",
      "outputs": [],
      "stateMutability": "nonpayable",
      "type": "function"
    },
    {
      "inputs": [
        {
          "internalType": "address",
          "name": "toaddress",
          "type": "address"
        },
        {
          "internalType": "uint256",
          "name": "cctTokenID",
          "type": "uint256"
        },
        {
          "internalType": "uint256",
          "name": "cstAmount",
          "type": "uint256"
        }
      ],
      "name": "transferTokensToSomeone",
      "outputs": [],
      "stateMutability": "nonpayable",
      "type": "function"
    },
    {
      "inputs": [
        {
          "internalType": "address",
          "name": "user",
          "type": "address"
        }
      ],
      "name": "getCSTBalance",
      "outputs": [
        {
          "internalType": "uint256",
          "name": "balance",
          "type": "uint256"
        }
      ],
      "stateMutability": "view",
      "type": "function",
      "constant": true
    },
    {
      "inputs": [
        {
          "internalType": "address",
          "name": "user",
          "type": "address"
        }
      ],
      "name": "getDiskStorageRented",
      "outputs": [
        {
          "internalType": "uint256",
          "name": "storageRented",
          "type": "uint256"
        }
      ],
      "stateMutability": "view",
      "type": "function",
      "constant": true
    },
    {
      "inputs": [
        {
          "internalType": "address",
          "name": "user",
          "type": "address"
        }
      ],
      "name": "getConfigDetails",
      "outputs": [
        {
          "components": [
            {
              "internalType": "uint256",
              "name": "id",
              "type": "uint256"
            },
            {
              "internalType": "string",
              "name": "gpu",
              "type": "string"
            },
            {
              "internalType": "string",
              "name": "processor",
              "type": "string"
            },
            {
              "internalType": "string",
              "name": "ram",
              "type": "string"
            },
            {
              "internalType": "string",
              "name": "cores",
              "type": "string"
            },
            {
              "internalType": "string",
              "name": "os",
              "type": "string"
            },
            {
              "internalType": "string",
              "name": "imageURL",
              "type": "string"
            }
          ],
          "internalType": "struct CloudConfigToken.ServerConfiguration[]",
          "name": "",
          "type": "tuple[]"
        }
      ],
      "stateMutability": "view",
      "type": "function",
      "constant": true
    },
    {
      "inputs": [
        {
          "internalType": "uint256",
          "name": "amount",
          "type": "uint256"
        }
      ],
      "name": "buyCST",
      "outputs": [],
      "stateMutability": "nonpayable",
      "type": "function"
    },
    {
      "inputs": [
        {
          "internalType": "string",
          "name": "gpu",
          "type": "string"
        },
        {
          "internalType": "string",
          "name": "processor",
          "type": "string"
        },
        {
          "internalType": "string",
          "name": "ram",
          "type": "string"
        },
        {
          "internalType": "string",
          "name": "cores",
          "type": "string"
        },
        {
          "internalType": "string",
          "name": "os",
          "type": "string"
        },
        {
          "internalType": "string",
          "name": "imageURL",
          "type": "string"
        }
      ],
      "name": "buyCCT",
      "outputs": [],
      "stateMutability": "nonpayable",
      "type": "function"
    },
    {
      "inputs": [
        {
          "internalType": "address",
          "name": "user",
          "type": "address"
        }
      ],
      "name": "getRentalDetails",
      "outputs": [
        {
          "components": [
            {
              "internalType": "uint256",
              "name": "cstAmount",
              "type": "uint256"
            },
            {
              "internalType": "uint256",
              "name": "cctTokenID",
              "type": "uint256"
            }
          ],
          "internalType": "struct TokenTransfer.Data[]",
          "name": "configs",
          "type": "tuple[]"
        }
      ],
      "stateMutability": "view",
      "type": "function",
      "constant": true
    },
    {
      "inputs": [
        {
          "internalType": "uint256",
          "name": "tokenId",
          "type": "uint256"
        }
      ],
      "name": "getTokenDetails",
      "outputs": [
        {
          "internalType": "uint256",
          "name": "id",
          "type": "uint256"
        },
        {
          "internalType": "string",
          "name": "gpu",
          "type": "string"
        },
        {
          "internalType": "string",
          "name": "processor",
          "type": "string"
        },
        {
          "internalType": "string",
          "name": "ram",
          "type": "string"
        },
        {
          "internalType": "string",
          "name": "cores",
          "type": "string"
        },
        {
          "internalType": "string",
          "name": "os",
          "type": "string"
        },
        {
          "internalType": "string",
          "name": "imageURL",
          "type": "string"
        }
      ],
      "stateMutability": "view",
      "type": "function",
      "constant": true
    }
  ],
  "bytecode": "0x6080604052600160065534801562000015575f80fd5b50604051620041de380380620041de83398181016040528101906200003b9190620001c5565b6040518060400160405280600381526020017f555249000000000000000000000000000000000000000000000000000000000081525062000082816200014b60201b60201c565b508160035f6101000a81548173ffffffffffffffffffffffffffffffffffffffff021916908373ffffffffffffffffffffffffffffffffffffffff1602179055508060045f6101000a81548173ffffffffffffffffffffffffffffffffffffffff021916908373ffffffffffffffffffffffffffffffffffffffff1602179055503360055f6101000a81548173ffffffffffffffffffffffffffffffffffffffff021916908373ffffffffffffffffffffffffffffffffffffffff160217905550505062000552565b80600290816200015c91906200046e565b5050565b5f80fd5b5f73ffffffffffffffffffffffffffffffffffffffff82169050919050565b5f6200018f8262000164565b9050919050565b620001a18162000183565b8114620001ac575f80fd5b50565b5f81519050620001bf8162000196565b92915050565b5f8060408385031215620001de57620001dd62000160565b5b5f620001ed85828601620001af565b92505060206200020085828601620001af565b9150509250929050565b5f81519050919050565b7f4e487b71000000000000000000000000000000000000000000000000000000005f52604160045260245ffd5b7f4e487b71000000000000000000000000000000000000000000000000000000005f52602260045260245ffd5b5f60028204905060018216806200028657607f821691505b6020821081036200029c576200029b62000241565b5b50919050565b5f819050815f5260205f209050919050565b5f6020601f8301049050919050565b5f82821b905092915050565b5f60088302620003007fffffffffffffffffffffffffffffffffffffffffffffffffffffffffffffffff82620002c3565b6200030c8683620002c3565b95508019841693508086168417925050509392505050565b5f819050919050565b5f819050919050565b5f62000356620003506200034a8462000324565b6200032d565b62000324565b9050919050565b5f819050919050565b620003718362000336565b6200038962000380826200035d565b848454620002cf565b825550505050565b5f90565b6200039f62000391565b620003ac81848462000366565b505050565b5b81811015620003d357620003c75f8262000395565b600181019050620003b2565b5050565b601f8211156200042257620003ec81620002a2565b620003f784620002b4565b8101602085101562000407578190505b6200041f6200041685620002b4565b830182620003b1565b50505b505050565b5f82821c905092915050565b5f620004445f198460080262000427565b1980831691505092915050565b5f6200045e838362000433565b9150826002028217905092915050565b62000479826200020a565b67ffffffffffffffff81111562000495576200049462000214565b5b620004a182546200026e565b620004ae828285620003d7565b5f60209050601f831160018114620004e4575f8415620004cf578287015190505b620004db858262000451565b8655506200054a565b601f198416620004f486620002a2565b5f5b828110156200051d57848901518255600182019150602085019450602081019050620004f6565b868310156200053d578489015162000539601f89168262000433565b8355505b6001600288020188555050505b505050505050565b613c7e80620005605f395ff3fe608060405234801561000f575f80fd5b5060043610610113575f3560e01c80638f1de79e116100a0578063b7eb22ae1161006f578063b7eb22ae14610323578063c1e037281461033f578063c2f6acec14610375578063e985e9c514610391578063f242432a146103c157610113565b80638f1de79e1461028b578063a22cb465146102a7578063a2bece58146102c3578063b6f9054e146102f357610113565b80632eb2c2d6116100e75780632eb2c2d6146101c357806347e3432e146101df5780634e1273f41461020f578063603d77ca1461023f57806375968a1e1461026f57610113565b8062fdd58e1461011757806301ffc9a71461014757806302fe5305146101775780630e89341c14610193575b5f80fd5b610131600480360381019061012c9190612206565b6103dd565b60405161013e9190612253565b60405180910390f35b610161600480360381019061015c91906122c1565b610432565b60405161016e9190612306565b60405180910390f35b610191600480360381019061018c919061245b565b610513565b005b6101ad60048036038101906101a891906124a2565b61051f565b6040516101ba9190612547565b60405180910390f35b6101dd60048036038101906101d891906126c9565b6105b1565b005b6101f960048036038101906101f49190612794565b610658565b6040516102069190612253565b60405180910390f35b6102296004803603810190610224919061287f565b6106f9565b60405161023691906129ac565b60405180910390f35b61025960048036038101906102549190612794565b610806565b6040516102669190612253565b60405180910390f35b610289600480360381019061028491906129cc565b6108bd565b005b6102a560048036038101906102a091906124a2565b610bd3565b005b6102c160048036038101906102bc9190612a46565b610c72565b005b6102dd60048036038101906102d89190612794565b610c88565b6040516102ea9190612c43565b60405180910390f35b61030d60048036038101906103089190612794565b610d89565b60405161031a9190612d38565b60405180910390f35b61033d60048036038101906103389190612d58565b610ea4565b005b610359600480360381019061035491906124a2565b610f41565b60405161036c9796959493929190612e89565b60405180910390f35b61038f600480360381019061038a9190612f20565b61100e565b005b6103ab60048036038101906103a69190612f5e565b611386565b6040516103b89190612306565b60405180910390f35b6103db60048036038101906103d69190612f9c565b611414565b005b5f805f8381526020019081526020015f205f8473ffffffffffffffffffffffffffffffffffffffff1673ffffffffffffffffffffffffffffffffffffffff1681526020019081526020015f2054905092915050565b5f7fd9b67a26000000000000000000000000000000000000000000000000000000007bffffffffffffffffffffffffffffffffffffffffffffffffffffffff1916827bffffffffffffffffffffffffffffffffffffffffffffffffffffffff191614806104fc57507f0e89341c000000000000000000000000000000000000000000000000000000007bffffffffffffffffffffffffffffffffffffffffffffffffffffffff1916827bffffffffffffffffffffffffffffffffffffffffffffffffffffffff1916145b8061050c575061050b826114bb565b5b9050919050565b61051c81611524565b50565b60606002805461052e9061305c565b80601f016020809104026020016040519081016040528092919081815260200182805461055a9061305c565b80156105a55780601f1061057c576101008083540402835291602001916105a5565b820191905f5260205f20905b81548152906001019060200180831161058857829003601f168201915b50505050509050919050565b5f6105ba611537565b90508073ffffffffffffffffffffffffffffffffffffffff168673ffffffffffffffffffffffffffffffffffffffff16141580156105ff57506105fd8682611386565b155b156106435780866040517fe237d92200000000000000000000000000000000000000000000000000000000815260040161063a92919061309b565b60405180910390fd5b610650868686868661153e565b505050505050565b5f60035f9054906101000a900473ffffffffffffffffffffffffffffffffffffffff1673ffffffffffffffffffffffffffffffffffffffff1663192c8b27836040518263ffffffff1660e01b81526004016106b391906130c2565b602060405180830381865afa1580156106ce573d5f803e3d5ffd5b505050506040513d601f19601f820116820180604052508101906106f291906130ef565b9050919050565b6060815183511461074557815183516040517f5b05999100000000000000000000000000000000000000000000000000000000815260040161073c92919061311a565b60405180910390fd5b5f835167ffffffffffffffff81111561076157610760612337565b5b60405190808252806020026020018201604052801561078f5781602001602082028036833780820191505090505b5090505f5b84518110156107fb576107cb6107b3828761163290919063ffffffff16565b6107c6838761164590919063ffffffff16565b6103dd565b8282815181106107de576107dd613141565b5b602002602001018181525050806107f49061319b565b9050610794565b508091505092915050565b5f60035f9054906101000a900473ffffffffffffffffffffffffffffffffffffffff1673ffffffffffffffffffffffffffffffffffffffff166370a08231836040518263ffffffff1660e01b815260040161086191906130c2565b602060405180830381865afa15801561087c573d5f803e3d5ffd5b505050506040513d601f19601f820116820180604052508101906108a091906130ef565b9050670de0b6b3a7640000816108b6919061320f565b9050919050565b60035f9054906101000a900473ffffffffffffffffffffffffffffffffffffffff1673ffffffffffffffffffffffffffffffffffffffff16630832065b3385670de0b6b3a764000085610910919061323f565b6040518463ffffffff1660e01b815260040161092e93929190613280565b5f604051808303815f87803b158015610945575f80fd5b505af1158015610957573d5f803e3d5ffd5b5050505060035f9054906101000a900473ffffffffffffffffffffffffffffffffffffffff1673ffffffffffffffffffffffffffffffffffffffff16634cc3600533836040518363ffffffff1660e01b81526004016109b79291906132b5565b5f604051808303815f87803b1580156109ce575f80fd5b505af11580156109e0573d5f803e3d5ffd5b5050505060045f9054906101000a900473ffffffffffffffffffffffffffffffffffffffff1673ffffffffffffffffffffffffffffffffffffffff166342842e0e3385856040518463ffffffff1660e01b8152600401610a4293929190613280565b5f604051808303815f87803b158015610a59575f80fd5b505af1158015610a6b573d5f803e3d5ffd5b5050505060045f9054906101000a900473ffffffffffffffffffffffffffffffffffffffff1673ffffffffffffffffffffffffffffffffffffffff1663171c00fd3385856040518463ffffffff1660e01b8152600401610acd93929190613280565b5f604051808303815f87803b158015610ae4575f80fd5b505af1158015610af6573d5f803e3d5ffd5b50505050610b1733600654600160405180602001604052805f815250611658565b60085f3373ffffffffffffffffffffffffffffffffffffffff1673ffffffffffffffffffffffffffffffffffffffff1681526020019081526020015f20600654908060018154018082558091505060019003905f5260205f20015f909190919091505560405180604001604052808281526020018381525060075f60065481526020019081526020015f205f820151815f01556020820151816001015590505060065f815480929190610bc99061319b565b9190505550505050565b60035f9054906101000a900473ffffffffffffffffffffffffffffffffffffffff1673ffffffffffffffffffffffffffffffffffffffff16639134709e670de0b6b3a764000083610c24919061323f565b336040518363ffffffff1660e01b8152600401610c429291906132dc565b5f604051808303815f87803b158015610c59575f80fd5b505af1158015610c6b573d5f803e3d5ffd5b5050505050565b610c84610c7d611537565b83836116ed565b5050565b60605f600567ffffffffffffffff811115610ca657610ca5612337565b5b604051908082528060200260200182016040528015610cdf57816020015b610ccc61212c565b815260200190600190039081610cc45790505b50905060045f9054906101000a900473ffffffffffffffffffffffffffffffffffffffff1673ffffffffffffffffffffffffffffffffffffffff166390deb05c846040518263ffffffff1660e01b8152600401610d3c91906130c2565b5f60405180830381865afa158015610d56573d5f803e3d5ffd5b505050506040513d5f823e3d601f19601f82011682018060405250810190610d7e91906135b0565b905080915050919050565b60605f60085f8473ffffffffffffffffffffffffffffffffffffffff1673ffffffffffffffffffffffffffffffffffffffff1681526020019081526020015f20805480602002602001604051908101604052809291908181526020018280548015610e1157602002820191905f5260205f20905b815481526020019060010190808311610dfd575b505050505090505f5b8151811015610e9d5760075f838381518110610e3957610e38613141565b5b602002602001015181526020019081526020015f206040518060400160405290815f8201548152602001600182015481525050838281518110610e7f57610e7e613141565b5b60200260200101819052508080610e959061319b565b915050610e1a565b5050919050565b60045f9054906101000a900473ffffffffffffffffffffffffffffffffffffffff1673ffffffffffffffffffffffffffffffffffffffff1663fa11db3333888888888888306040518963ffffffff1660e01b8152600401610f0c9897969594939291906135f7565b5f604051808303815f87803b158015610f23575f80fd5b505af1158015610f35573d5f803e3d5ffd5b50505050505050505050565b5f60608060608060608060045f9054906101000a900473ffffffffffffffffffffffffffffffffffffffff1673ffffffffffffffffffffffffffffffffffffffff1663383a4669896040518263ffffffff1660e01b8152600401610fa59190612253565b5f60405180830381865afa158015610fbf573d5f803e3d5ffd5b505050506040513d5f823e3d601f19601f82011682018060405250810190610fe7919061369d565b809750819850829950839a50849b50859c50869d5050505050505050919395979092949650565b60035f9054906101000a900473ffffffffffffffffffffffffffffffffffffffff1673ffffffffffffffffffffffffffffffffffffffff16630832065b3360055f9054906101000a900473ffffffffffffffffffffffffffffffffffffffff16670de0b6b3a764000085611082919061323f565b6040518463ffffffff1660e01b81526004016110a093929190613280565b5f604051808303815f87803b1580156110b7575f80fd5b505af11580156110c9573d5f803e3d5ffd5b5050505060035f9054906101000a900473ffffffffffffffffffffffffffffffffffffffff1673ffffffffffffffffffffffffffffffffffffffff16634cc3600533836040518363ffffffff1660e01b81526004016111299291906132b5565b5f604051808303815f87803b158015611140575f80fd5b505af1158015611152573d5f803e3d5ffd5b5050505060045f9054906101000a900473ffffffffffffffffffffffffffffffffffffffff1673ffffffffffffffffffffffffffffffffffffffff1663451591463360055f9054906101000a900473ffffffffffffffffffffffffffffffffffffffff16856040518463ffffffff1660e01b81526004016111d593929190613280565b5f604051808303815f87803b1580156111ec575f80fd5b505af11580156111fe573d5f803e3d5ffd5b5050505060045f9054906101000a900473ffffffffffffffffffffffffffffffffffffffff1673ffffffffffffffffffffffffffffffffffffffff1663171c00fd3360055f9054906101000a900473ffffffffffffffffffffffffffffffffffffffff16856040518463ffffffff1660e01b815260040161128193929190613280565b5f604051808303815f87803b158015611298575f80fd5b505af11580156112aa573d5f803e3d5ffd5b505050506112cb33600654600160405180602001604052805f815250611658565b60085f3373ffffffffffffffffffffffffffffffffffffffff1673ffffffffffffffffffffffffffffffffffffffff1681526020019081526020015f20600654908060018154018082558091505060019003905f5260205f20015f909190919091505560405180604001604052808281526020018381525060075f60065481526020019081526020015f205f820151815f01556020820151816001015590505060065f81548092919061137d9061319b565b91905055505050565b5f60015f8473ffffffffffffffffffffffffffffffffffffffff1673ffffffffffffffffffffffffffffffffffffffff1681526020019081526020015f205f8373ffffffffffffffffffffffffffffffffffffffff1673ffffffffffffffffffffffffffffffffffffffff1681526020019081526020015f205f9054906101000a900460ff16905092915050565b5f61141d611537565b90508073ffffffffffffffffffffffffffffffffffffffff168673ffffffffffffffffffffffffffffffffffffffff161415801561146257506114608682611386565b155b156114a65780866040517fe237d92200000000000000000000000000000000000000000000000000000000815260040161149d92919061309b565b60405180910390fd5b6114b38686868686611856565b505050505050565b5f7f01ffc9a7000000000000000000000000000000000000000000000000000000007bffffffffffffffffffffffffffffffffffffffffffffffffffffffff1916827bffffffffffffffffffffffffffffffffffffffffffffffffffffffff1916149050919050565b8060029081611533919061397f565b5050565b5f33905090565b5f73ffffffffffffffffffffffffffffffffffffffff168473ffffffffffffffffffffffffffffffffffffffff16036115ae575f6040517f57f447ce0000000000000000000000000000000000000000000000000000000081526004016115a591906130c2565b60405180910390fd5b5f73ffffffffffffffffffffffffffffffffffffffff168573ffffffffffffffffffffffffffffffffffffffff160361161e575f6040517f01a8351400000000000000000000000000000000000000000000000000000000815260040161161591906130c2565b60405180910390fd5b61162b858585858561195c565b5050505050565b5f60208202602084010151905092915050565b5f60208202602084010151905092915050565b5f73ffffffffffffffffffffffffffffffffffffffff168473ffffffffffffffffffffffffffffffffffffffff16036116c8575f6040517f57f447ce0000000000000000000000000000000000000000000000000000000081526004016116bf91906130c2565b60405180910390fd5b5f806116d48585611a08565b915091506116e55f8784848761195c565b505050505050565b5f73ffffffffffffffffffffffffffffffffffffffff168273ffffffffffffffffffffffffffffffffffffffff160361175d575f6040517fced3e10000000000000000000000000000000000000000000000000000000000815260040161175491906130c2565b60405180910390fd5b8060015f8573ffffffffffffffffffffffffffffffffffffffff1673ffffffffffffffffffffffffffffffffffffffff1681526020019081526020015f205f8473ffffffffffffffffffffffffffffffffffffffff1673ffffffffffffffffffffffffffffffffffffffff1681526020019081526020015f205f6101000a81548160ff0219169083151502179055508173ffffffffffffffffffffffffffffffffffffffff168373ffffffffffffffffffffffffffffffffffffffff167f17307eab39ab6107e8899845ad3d59bd9653f200f220920489ca2b5937696c31836040516118499190612306565b60405180910390a3505050565b5f73ffffffffffffffffffffffffffffffffffffffff168473ffffffffffffffffffffffffffffffffffffffff16036118c6575f6040517f57f447ce0000000000000000000000000000000000000000000000000000000081526004016118bd91906130c2565b60405180910390fd5b5f73ffffffffffffffffffffffffffffffffffffffff168573ffffffffffffffffffffffffffffffffffffffff1603611936575f6040517f01a8351400000000000000000000000000000000000000000000000000000000815260040161192d91906130c2565b60405180910390fd5b5f806119428585611a08565b91509150611953878784848761195c565b50505050505050565b61196885858585611a38565b5f73ffffffffffffffffffffffffffffffffffffffff168473ffffffffffffffffffffffffffffffffffffffff1614611a01575f6119a4611537565b905060018451036119f0575f6119c35f8661164590919063ffffffff16565b90505f6119d95f8661164590919063ffffffff16565b90506119e9838989858589611dce565b50506119ff565b6119fe818787878787611f7d565b5b505b5050505050565b60608060405191506001825283602083015260408201905060018152826020820152604081016040529250929050565b8051825114611a8257815181516040517f5b059991000000000000000000000000000000000000000000000000000000008152600401611a7992919061311a565b60405180910390fd5b5f611a8b611537565b90505f5b8351811015611c8d575f611aac828661164590919063ffffffff16565b90505f611ac2838661164590919063ffffffff16565b90505f73ffffffffffffffffffffffffffffffffffffffff168873ffffffffffffffffffffffffffffffffffffffff1614611be5575f805f8481526020019081526020015f205f8a73ffffffffffffffffffffffffffffffffffffffff1673ffffffffffffffffffffffffffffffffffffffff1681526020019081526020015f2054905081811015611b9157888183856040517f03dee4c5000000000000000000000000000000000000000000000000000000008152600401611b889493929190613a4e565b60405180910390fd5b8181035f808581526020019081526020015f205f8b73ffffffffffffffffffffffffffffffffffffffff1673ffffffffffffffffffffffffffffffffffffffff1681526020019081526020015f2081905550505b5f73ffffffffffffffffffffffffffffffffffffffff168773ffffffffffffffffffffffffffffffffffffffff1614611c7a57805f808481526020019081526020015f205f8973ffffffffffffffffffffffffffffffffffffffff1673ffffffffffffffffffffffffffffffffffffffff1681526020019081526020015f205f828254611c729190613a91565b925050819055505b505080611c869061319b565b9050611a8f565b506001835103611d48575f611cab5f8561164590919063ffffffff16565b90505f611cc15f8561164590919063ffffffff16565b90508573ffffffffffffffffffffffffffffffffffffffff168773ffffffffffffffffffffffffffffffffffffffff168473ffffffffffffffffffffffffffffffffffffffff167fc3d58168c5ae7397731d063d5bbf3d657854427343f4c083240f7aacaa2d0f628585604051611d3992919061311a565b60405180910390a45050611dc7565b8373ffffffffffffffffffffffffffffffffffffffff168573ffffffffffffffffffffffffffffffffffffffff168273ffffffffffffffffffffffffffffffffffffffff167f4a39dc06d4c0dbc64b70af90fd698a233a518aa5d07e595d983b8c0526c8f7fb8686604051611dbe929190613ac4565b60405180910390a45b5050505050565b5f8473ffffffffffffffffffffffffffffffffffffffff163b1115611f75578373ffffffffffffffffffffffffffffffffffffffff1663f23a6e6187878686866040518663ffffffff1660e01b8152600401611e2e959493929190613b4b565b6020604051808303815f875af1925050508015611e6957506040513d601f19601f82011682018060405250810190611e669190613bb7565b60015b611eea573d805f8114611e97576040519150601f19603f3d011682016040523d82523d5f602084013e611e9c565b606091505b505f815103611ee257846040517f57f447ce000000000000000000000000000000000000000000000000000000008152600401611ed991906130c2565b60405180910390fd5b805181602001fd5b63f23a6e6160e01b7bffffffffffffffffffffffffffffffffffffffffffffffffffffffff1916817bffffffffffffffffffffffffffffffffffffffffffffffffffffffff191614611f7357846040517f57f447ce000000000000000000000000000000000000000000000000000000008152600401611f6a91906130c2565b60405180910390fd5b505b505050505050565b5f8473ffffffffffffffffffffffffffffffffffffffff163b1115612124578373ffffffffffffffffffffffffffffffffffffffff1663bc197c8187878686866040518663ffffffff1660e01b8152600401611fdd959493929190613be2565b6020604051808303815f875af192505050801561201857506040513d601f19601f820116820180604052508101906120159190613bb7565b60015b612099573d805f8114612046576040519150601f19603f3d011682016040523d82523d5f602084013e61204b565b606091505b505f81510361209157846040517f57f447ce00000000000000000000000000000000000000000000000000000000815260040161208891906130c2565b60405180910390fd5b805181602001fd5b63bc197c8160e01b7bffffffffffffffffffffffffffffffffffffffffffffffffffffffff1916817bffffffffffffffffffffffffffffffffffffffffffffffffffffffff19161461212257846040517f57f447ce00000000000000000000000000000000000000000000000000000000815260040161211991906130c2565b60405180910390fd5b505b505050505050565b6040518060e001604052805f81526020016060815260200160608152602001606081526020016060815260200160608152602001606081525090565b5f604051905090565b5f80fd5b5f80fd5b5f73ffffffffffffffffffffffffffffffffffffffff82169050919050565b5f6121a282612179565b9050919050565b6121b281612198565b81146121bc575f80fd5b50565b5f813590506121cd816121a9565b92915050565b5f819050919050565b6121e5816121d3565b81146121ef575f80fd5b50565b5f81359050612200816121dc565b92915050565b5f806040838503121561221c5761221b612171565b5b5f612229858286016121bf565b925050602061223a858286016121f2565b9150509250929050565b61224d816121d3565b82525050565b5f6020820190506122665f830184612244565b92915050565b5f7fffffffff0000000000000000000000000000000000000000000000000000000082169050919050565b6122a08161226c565b81146122aa575f80fd5b50565b5f813590506122bb81612297565b92915050565b5f602082840312156122d6576122d5612171565b5b5f6122e3848285016122ad565b91505092915050565b5f8115159050919050565b612300816122ec565b82525050565b5f6020820190506123195f8301846122f7565b92915050565b5f80fd5b5f80fd5b5f601f19601f8301169050919050565b7f4e487b71000000000000000000000000000000000000000000000000000000005f52604160045260245ffd5b61236d82612327565b810181811067ffffffffffffffff8211171561238c5761238b612337565b5b80604052505050565b5f61239e612168565b90506123aa8282612364565b919050565b5f67ffffffffffffffff8211156123c9576123c8612337565b5b6123d282612327565b9050602081019050919050565b828183375f83830152505050565b5f6123ff6123fa846123af565b612395565b90508281526020810184848401111561241b5761241a612323565b5b6124268482856123df565b509392505050565b5f82601f8301126124425761244161231f565b5b81356124528482602086016123ed565b91505092915050565b5f602082840312156124705761246f612171565b5b5f82013567ffffffffffffffff81111561248d5761248c612175565b5b6124998482850161242e565b91505092915050565b5f602082840312156124b7576124b6612171565b5b5f6124c4848285016121f2565b91505092915050565b5f81519050919050565b5f82825260208201905092915050565b5f5b838110156125045780820151818401526020810190506124e9565b5f8484015250505050565b5f612519826124cd565b61252381856124d7565b93506125338185602086016124e7565b61253c81612327565b840191505092915050565b5f6020820190508181035f83015261255f818461250f565b905092915050565b5f67ffffffffffffffff82111561258157612580612337565b5b602082029050602081019050919050565b5f80fd5b5f6125a86125a384612567565b612395565b905080838252602082019050602084028301858111156125cb576125ca612592565b5b835b818110156125f457806125e088826121f2565b8452602084019350506020810190506125cd565b5050509392505050565b5f82601f8301126126125761261161231f565b5b8135612622848260208601612596565b91505092915050565b5f67ffffffffffffffff82111561264557612644612337565b5b61264e82612327565b9050602081019050919050565b5f61266d6126688461262b565b612395565b90508281526020810184848401111561268957612688612323565b5b6126948482856123df565b509392505050565b5f82601f8301126126b0576126af61231f565b5b81356126c084826020860161265b565b91505092915050565b5f805f805f60a086880312156126e2576126e1612171565b5b5f6126ef888289016121bf565b9550506020612700888289016121bf565b945050604086013567ffffffffffffffff81111561272157612720612175565b5b61272d888289016125fe565b935050606086013567ffffffffffffffff81111561274e5761274d612175565b5b61275a888289016125fe565b925050608086013567ffffffffffffffff81111561277b5761277a612175565b5b6127878882890161269c565b9150509295509295909350565b5f602082840312156127a9576127a8612171565b5b5f6127b6848285016121bf565b91505092915050565b5f67ffffffffffffffff8211156127d9576127d8612337565b5b602082029050602081019050919050565b5f6127fc6127f7846127bf565b612395565b9050808382526020820190506020840283018581111561281f5761281e612592565b5b835b81811015612848578061283488826121bf565b845260208401935050602081019050612821565b5050509392505050565b5f82601f8301126128665761286561231f565b5b81356128768482602086016127ea565b91505092915050565b5f806040838503121561289557612894612171565b5b5f83013567ffffffffffffffff8111156128b2576128b1612175565b5b6128be85828601612852565b925050602083013567ffffffffffffffff8111156128df576128de612175565b5b6128eb858286016125fe565b9150509250929050565b5f81519050919050565b5f82825260208201905092915050565b5f819050602082019050919050565b612927816121d3565b82525050565b5f612938838361291e565b60208301905092915050565b5f602082019050919050565b5f61295a826128f5565b61296481856128ff565b935061296f8361290f565b805f5b8381101561299f578151612986888261292d565b975061299183612944565b925050600181019050612972565b5085935050505092915050565b5f6020820190508181035f8301526129c48184612950565b905092915050565b5f805f606084860312156129e3576129e2612171565b5b5f6129f0868287016121bf565b9350506020612a01868287016121f2565b9250506040612a12868287016121f2565b9150509250925092565b612a25816122ec565b8114612a2f575f80fd5b50565b5f81359050612a4081612a1c565b92915050565b5f8060408385031215612a5c57612a5b612171565b5b5f612a69858286016121bf565b9250506020612a7a85828601612a32565b9150509250929050565b5f81519050919050565b5f82825260208201905092915050565b5f819050602082019050919050565b5f82825260208201905092915050565b5f612ac7826124cd565b612ad18185612aad565b9350612ae18185602086016124e7565b612aea81612327565b840191505092915050565b5f60e083015f830151612b0a5f86018261291e565b5060208301518482036020860152612b228282612abd565b91505060408301518482036040860152612b3c8282612abd565b91505060608301518482036060860152612b568282612abd565b91505060808301518482036080860152612b708282612abd565b91505060a083015184820360a0860152612b8a8282612abd565b91505060c083015184820360c0860152612ba48282612abd565b9150508091505092915050565b5f612bbc8383612af5565b905092915050565b5f602082019050919050565b5f612bda82612a84565b612be48185612a8e565b935083602082028501612bf685612a9e565b805f5b85811015612c315784840389528151612c128582612bb1565b9450612c1d83612bc4565b925060208a01995050600181019050612bf9565b50829750879550505050505092915050565b5f6020820190508181035f830152612c5b8184612bd0565b905092915050565b5f81519050919050565b5f82825260208201905092915050565b5f819050602082019050919050565b604082015f820151612ca05f85018261291e565b506020820151612cb3602085018261291e565b50505050565b5f612cc48383612c8c565b60408301905092915050565b5f602082019050919050565b5f612ce682612c63565b612cf08185612c6d565b9350612cfb83612c7d565b805f5b83811015612d2b578151612d128882612cb9565b9750612d1d83612cd0565b925050600181019050612cfe565b5085935050505092915050565b5f6020820190508181035f830152612d508184612cdc565b905092915050565b5f805f805f8060c08789031215612d7257612d71612171565b5b5f87013567ffffffffffffffff811115612d8f57612d8e612175565b5b612d9b89828a0161242e565b965050602087013567ffffffffffffffff811115612dbc57612dbb612175565b5b612dc889828a0161242e565b955050604087013567ffffffffffffffff811115612de957612de8612175565b5b612df589828a0161242e565b945050606087013567ffffffffffffffff811115612e1657612e15612175565b5b612e2289828a0161242e565b935050608087013567ffffffffffffffff811115612e4357612e42612175565b5b612e4f89828a0161242e565b92505060a087013567ffffffffffffffff811115612e7057612e6f612175565b5b612e7c89828a0161242e565b9150509295509295509295565b5f60e082019050612e9c5f83018a612244565b8181036020830152612eae818961250f565b90508181036040830152612ec2818861250f565b90508181036060830152612ed6818761250f565b90508181036080830152612eea818661250f565b905081810360a0830152612efe818561250f565b905081810360c0830152612f12818461250f565b905098975050505050505050565b5f8060408385031215612f3657612f35612171565b5b5f612f43858286016121f2565b9250506020612f54858286016121f2565b9150509250929050565b5f8060408385031215612f7457612f73612171565b5b5f612f81858286016121bf565b9250506020612f92858286016121bf565b9150509250929050565b5f805f805f60a08688031215612fb557612fb4612171565b5b5f612fc2888289016121bf565b9550506020612fd3888289016121bf565b9450506040612fe4888289016121f2565b9350506060612ff5888289016121f2565b925050608086013567ffffffffffffffff81111561301657613015612175565b5b6130228882890161269c565b9150509295509295909350565b7f4e487b71000000000000000000000000000000000000000000000000000000005f52602260045260245ffd5b5f600282049050600182168061307357607f821691505b6020821081036130865761308561302f565b5b50919050565b61309581612198565b82525050565b5f6040820190506130ae5f83018561308c565b6130bb602083018461308c565b9392505050565b5f6020820190506130d55f83018461308c565b92915050565b5f815190506130e9816121dc565b92915050565b5f6020828403121561310457613103612171565b5b5f613111848285016130db565b91505092915050565b5f60408201905061312d5f830185612244565b61313a6020830184612244565b9392505050565b7f4e487b71000000000000000000000000000000000000000000000000000000005f52603260045260245ffd5b7f4e487b71000000000000000000000000000000000000000000000000000000005f52601160045260245ffd5b5f6131a5826121d3565b91507fffffffffffffffffffffffffffffffffffffffffffffffffffffffffffffffff82036131d7576131d661316e565b5b600182019050919050565b7f4e487b71000000000000000000000000000000000000000000000000000000005f52601260045260245ffd5b5f613219826121d3565b9150613224836121d3565b925082613234576132336131e2565b5b828204905092915050565b5f613249826121d3565b9150613254836121d3565b9250828202613262816121d3565b915082820484148315176132795761327861316e565b5b5092915050565b5f6060820190506132935f83018661308c565b6132a0602083018561308c565b6132ad6040830184612244565b949350505050565b5f6040820190506132c85f83018561308c565b6132d56020830184612244565b9392505050565b5f6040820190506132ef5f830185612244565b6132fc602083018461308c565b9392505050565b5f67ffffffffffffffff82111561331d5761331c612337565b5b602082029050602081019050919050565b5f80fd5b5f80fd5b5f613348613343846123af565b612395565b90508281526020810184848401111561336457613363612323565b5b61336f8482856124e7565b509392505050565b5f82601f83011261338b5761338a61231f565b5b815161339b848260208601613336565b91505092915050565b5f60e082840312156133b9576133b861332e565b5b6133c360e0612395565b90505f6133d2848285016130db565b5f83015250602082015167ffffffffffffffff8111156133f5576133f4613332565b5b61340184828501613377565b602083015250604082015167ffffffffffffffff81111561342557613424613332565b5b61343184828501613377565b604083015250606082015167ffffffffffffffff81111561345557613454613332565b5b61346184828501613377565b606083015250608082015167ffffffffffffffff81111561348557613484613332565b5b61349184828501613377565b60808301525060a082015167ffffffffffffffff8111156134b5576134b4613332565b5b6134c184828501613377565b60a08301525060c082015167ffffffffffffffff8111156134e5576134e4613332565b5b6134f184828501613377565b60c08301525092915050565b5f61350f61350a84613303565b612395565b9050808382526020820190506020840283018581111561353257613531612592565b5b835b8181101561357957805167ffffffffffffffff8111156135575761355661231f565b5b80860161356489826133a4565b85526020850194505050602081019050613534565b5050509392505050565b5f82601f8301126135975761359661231f565b5b81516135a78482602086016134fd565b91505092915050565b5f602082840312156135c5576135c4612171565b5b5f82015167ffffffffffffffff8111156135e2576135e1612175565b5b6135ee84828501613583565b91505092915050565b5f6101008201905061360b5f83018b61308c565b818103602083015261361d818a61250f565b90508181036040830152613631818961250f565b90508181036060830152613645818861250f565b90508181036080830152613659818761250f565b905081810360a083015261366d818661250f565b905081810360c0830152613681818561250f565b905061369060e083018461308c565b9998505050505050505050565b5f805f805f805f60e0888a0312156136b8576136b7612171565b5b5f6136c58a828b016130db565b975050602088015167ffffffffffffffff8111156136e6576136e5612175565b5b6136f28a828b01613377565b965050604088015167ffffffffffffffff81111561371357613712612175565b5b61371f8a828b01613377565b955050606088015167ffffffffffffffff8111156137405761373f612175565b5b61374c8a828b01613377565b945050608088015167ffffffffffffffff81111561376d5761376c612175565b5b6137798a828b01613377565b93505060a088015167ffffffffffffffff81111561379a57613799612175565b5b6137a68a828b01613377565b92505060c088015167ffffffffffffffff8111156137c7576137c6612175565b5b6137d38a828b01613377565b91505092959891949750929550565b5f819050815f5260205f209050919050565b5f6020601f8301049050919050565b5f82821b905092915050565b5f6008830261383e7fffffffffffffffffffffffffffffffffffffffffffffffffffffffffffffffff82613803565b6138488683613803565b95508019841693508086168417925050509392505050565b5f819050919050565b5f61388361387e613879846121d3565b613860565b6121d3565b9050919050565b5f819050919050565b61389c83613869565b6138b06138a88261388a565b84845461380f565b825550505050565b5f90565b6138c46138b8565b6138cf818484613893565b505050565b5b818110156138f2576138e75f826138bc565b6001810190506138d5565b5050565b601f82111561393757613908816137e2565b613911846137f4565b81016020851015613920578190505b61393461392c856137f4565b8301826138d4565b50505b505050565b5f82821c905092915050565b5f6139575f198460080261393c565b1980831691505092915050565b5f61396f8383613948565b9150826002028217905092915050565b613988826124cd565b67ffffffffffffffff8111156139a1576139a0612337565b5b6139ab825461305c565b6139b68282856138f6565b5f60209050601f8311600181146139e7575f84156139d5578287015190505b6139df8582613964565b865550613a46565b601f1984166139f5866137e2565b5f5b82811015613a1c578489015182556001820191506020850194506020810190506139f7565b86831015613a395784890151613a35601f891682613948565b8355505b6001600288020188555050505b505050505050565b5f608082019050613a615f83018761308c565b613a6e6020830186612244565b613a7b6040830185612244565b613a886060830184612244565b95945050505050565b5f613a9b826121d3565b9150613aa6836121d3565b9250828201905080821115613abe57613abd61316e565b5b92915050565b5f6040820190508181035f830152613adc8185612950565b90508181036020830152613af08184612950565b90509392505050565b5f81519050919050565b5f82825260208201905092915050565b5f613b1d82613af9565b613b278185613b03565b9350613b378185602086016124e7565b613b4081612327565b840191505092915050565b5f60a082019050613b5e5f83018861308c565b613b6b602083018761308c565b613b786040830186612244565b613b856060830185612244565b8181036080830152613b978184613b13565b90509695505050505050565b5f81519050613bb181612297565b92915050565b5f60208284031215613bcc57613bcb612171565b5b5f613bd984828501613ba3565b91505092915050565b5f60a082019050613bf55f83018861308c565b613c02602083018761308c565b8181036040830152613c148186612950565b90508181036060830152613c288185612950565b90508181036080830152613c3c8184613b13565b9050969550505050505056fea264697066735822122073707ce4a796e74b40e22fa81a3e4dbd64f7af4a780e8283d5aa9f00c6a4d80164736f6c63430008140033",
  "immutableReferences": {},
  "source": "// SPDX-License-Identifier: MIT\npragma solidity ^0.8.20;\n\nimport \"@openzeppelin/contracts/token/ERC1155/ERC1155.sol\";\n// import \"@openzeppelin/contracts/token/ERC20/IERC20.sol\";\n// import \"@openzeppelin/contracts/token/ERC721/IERC721.sol\";\nimport \"./CCT_ERC721.sol\";\nimport \"./CST_ERC20.sol\";\n\ncontract TokenTransfer is ERC1155 {\n    CloudStoragetoken private cstToken;\n    CloudConfigToken private cctToken;\n    struct Data {\n        uint256 cstAmount;\n        uint256 cctTokenID;\n    }\n    address owner;\n    uint tokenID = 1;\n    mapping(uint => Data) rentalDetails;\n    mapping(address => uint256[]) rentalIDs;\n\n    constructor(address cstTokenAddress, address cctTokenAddress) ERC1155(\"URI\") {\n        cstToken = CloudStoragetoken(cstTokenAddress);\n        cctToken = CloudConfigToken(cctTokenAddress);\n        owner = msg.sender;\n    }\n\n    function setURI(string memory newURI) external {\n        _setURI(newURI);\n    }\n\n    function transferTokensToOwner(uint256 cctTokenID, uint256 cstAmount) external {\n\n        // Transfer ERC20 tokens from the sender to the contract\n        cstToken.transferCSTToken(msg.sender, owner, cstAmount*(10 ** 18));\n        cstToken.rentStorage(msg.sender,cstAmount);\n\n        // Transfer ERC721 token from the sender to the owner\n        // cctToken.safeTransferFrom(msg.sender, owner, cctTokenID);\n        cctToken.transferCCT(msg.sender,owner,cctTokenID);\n        cctToken.transferOwnership(msg.sender, owner, cctTokenID);\n\n        // Mint ERC1155 tokens to the sender\n        _mint(msg.sender, tokenID, 1, \"\");\n        rentalIDs[msg.sender].push(tokenID);\n        rentalDetails[tokenID] = Data(cstAmount,cctTokenID);\n        tokenID++;\n    }\n\n    function transferTokensToSomeone(address toaddress, uint256 cctTokenID, uint256 cstAmount) external {\n\n        // Transfer ERC20 tokens from the sender to the contract\n        cstToken.transferCSTToken(msg.sender, toaddress, cstAmount*(10 ** 18));\n        cstToken.rentStorage(msg.sender,cstAmount);\n\n        // Transfer ERC721 token from the sender to the owner\n        cctToken.safeTransferFrom(msg.sender, toaddress, cctTokenID);\n        cctToken.transferOwnership(msg.sender, toaddress, cctTokenID);\n\n        // Mint ERC1155 tokens to the sender\n        _mint(msg.sender, tokenID, 1, \"\");\n        rentalIDs[msg.sender].push(tokenID);\n        rentalDetails[tokenID] = Data(cstAmount,cctTokenID);\n        tokenID++;\n    }\n\n    function getCSTBalance(address user) public view returns (\n        uint balance\n    ){\n        balance = cstToken.balanceOf(user);\n        balance /= (10 ** 18);\n    }\n\n    function getDiskStorageRented(address user) public view returns (\n        uint storageRented\n    ){\n        storageRented = cstToken.getUserStorageBalance(user);\n    }\n\n    function getConfigDetails(address user) public view returns (\n        CloudConfigToken.ServerConfiguration[] memory\n    ){\n        CloudConfigToken.ServerConfiguration[] memory configs = new CloudConfigToken.ServerConfiguration[](5);\n        configs = cctToken.getConfigList(user);\n        return configs;\n    }\n\n    function buyCST(uint256 amount) external  {\n        cstToken.buyToken(amount*(10 ** 18), msg.sender);\n    }\n\n    function buyCCT(\n        string memory gpu,\n        string memory processor,\n        string memory ram,\n        string memory cores,\n        string memory os,\n        string memory imageURL\n    ) external {\n        cctToken.mintConfigToken(msg.sender,gpu, processor, ram, cores, os, imageURL,address(this));\n    }\n\n    function getRentalDetails(address user) public view returns (\n        Data[] memory configs\n    ) {\n        uint256[] memory arr = rentalIDs[user];\n\n        for (uint i=0; i<arr.length ; i++){\n            configs[i]= rentalDetails[arr[i]];\n        }\n    }\n\n    function getTokenDetails(uint256 tokenId) public view returns (\n            uint256 id,\n            string memory gpu,\n            string memory processor,\n            string memory ram,\n            string memory cores,\n            string memory os,\n            string memory imageURL\n        ) {\n            (id, gpu, processor, ram, cores, os, imageURL) = cctToken.getConfigData(tokenId);\n    }\n\n}\n",
  "sourcePath": "/Users/anujvadecha/Cloud-as-a-Blockchain-CaaB-/caab-contract/contracts/CAB_ERC1155.sol",
  "compiler": {
    "name": "solc",
    "version": "0.8.20+commit.a1b79de6.Emscripten.clang"
  },
  "schemaVersion": "3.4.16",
  "updatedAt": "2023-11-18T20:46:07.272Z",
  "networkType": "ethereum",
  "devdoc": {
    "errors": {
      "ERC1155InsufficientBalance(address,uint256,uint256,uint256)": [
        {
          "details": "Indicates an error related to the current `balance` of a `sender`. Used in transfers.",
          "params": {
            "balance": "Current balance for the interacting account.",
            "needed": "Minimum amount required to perform a transfer.",
            "sender": "Address whose tokens are being transferred.",
            "tokenId": "Identifier number of a token."
          }
        }
      ],
      "ERC1155InvalidApprover(address)": [
        {
          "details": "Indicates a failure with the `approver` of a token to be approved. Used in approvals.",
          "params": {
            "approver": "Address initiating an approval operation."
          }
        }
      ],
      "ERC1155InvalidArrayLength(uint256,uint256)": [
        {
          "details": "Indicates an array length mismatch between ids and values in a safeBatchTransferFrom operation. Used in batch transfers.",
          "params": {
            "idsLength": "Length of the array of token identifiers",
            "valuesLength": "Length of the array of token amounts"
          }
        }
      ],
      "ERC1155InvalidOperator(address)": [
        {
          "details": "Indicates a failure with the `operator` to be approved. Used in approvals.",
          "params": {
            "operator": "Address that may be allowed to operate on tokens without being their owner."
          }
        }
      ],
      "ERC1155InvalidReceiver(address)": [
        {
          "details": "Indicates a failure with the token `receiver`. Used in transfers.",
          "params": {
            "receiver": "Address to which tokens are being transferred."
          }
        }
      ],
      "ERC1155InvalidSender(address)": [
        {
          "details": "Indicates a failure with the token `sender`. Used in transfers.",
          "params": {
            "sender": "Address whose tokens are being transferred."
          }
        }
      ],
      "ERC1155MissingApprovalForAll(address,address)": [
        {
          "details": "Indicates a failure with the `operator`s approval. Used in transfers.",
          "params": {
            "operator": "Address that may be allowed to operate on tokens without being their owner.",
            "owner": "Address of the current owner of a token."
          }
        }
      ]
    },
    "events": {
      "ApprovalForAll(address,address,bool)": {
        "details": "Emitted when `account` grants or revokes permission to `operator` to transfer their tokens, according to `approved`."
      },
      "TransferBatch(address,address,address,uint256[],uint256[])": {
        "details": "Equivalent to multiple {TransferSingle} events, where `operator`, `from` and `to` are the same for all transfers."
      },
      "TransferSingle(address,address,address,uint256,uint256)": {
        "details": "Emitted when `value` amount of tokens of type `id` are transferred from `from` to `to` by `operator`."
      },
      "URI(string,uint256)": {
        "details": "Emitted when the URI for token type `id` changes to `value`, if it is a non-programmatic URI. If an {URI} event was emitted for `id`, the standard https://eips.ethereum.org/EIPS/eip-1155#metadata-extensions[guarantees] that `value` will equal the value returned by {IERC1155MetadataURI-uri}."
      }
    },
    "kind": "dev",
    "methods": {
      "balanceOf(address,uint256)": {
        "details": "See {IERC1155-balanceOf}."
      },
      "balanceOfBatch(address[],uint256[])": {
        "details": "See {IERC1155-balanceOfBatch}. Requirements: - `accounts` and `ids` must have the same length."
      },
      "isApprovedForAll(address,address)": {
        "details": "See {IERC1155-isApprovedForAll}."
      },
      "safeBatchTransferFrom(address,address,uint256[],uint256[],bytes)": {
        "details": "See {IERC1155-safeBatchTransferFrom}."
      },
      "safeTransferFrom(address,address,uint256,uint256,bytes)": {
        "details": "See {IERC1155-safeTransferFrom}."
      },
      "setApprovalForAll(address,bool)": {
        "details": "See {IERC1155-setApprovalForAll}."
      },
      "supportsInterface(bytes4)": {
        "details": "See {IERC165-supportsInterface}."
      },
      "uri(uint256)": {
        "details": "See {IERC1155MetadataURI-uri}. This implementation returns the same URI for *all* token types. It relies on the token type ID substitution mechanism https://eips.ethereum.org/EIPS/eip-1155#metadata[defined in the EIP]. Clients calling this function must replace the `\\{id\\}` substring with the actual token type ID."
      }
    },
    "version": 1
  },
  "userdoc": {
    "kind": "user",
    "methods": {},
    "version": 1
  }
}