{
  "contractName": "TokenTransfer",
  "abi": [
    {
      "inputs": [
        {
          "internalType": "address",
          "name": "cstTokenAddress",
          "type": "address"
        },
        {
          "internalType": "address",
          "name": "cctTokenAddress",
          "type": "address"
        }
      ],
      "stateMutability": "nonpayable",
      "type": "constructor"
    },
    {
      "inputs": [
        {
          "internalType": "address",
          "name": "sender",
          "type": "address"
        },
        {
          "internalType": "uint256",
          "name": "balance",
          "type": "uint256"
        },
        {
          "internalType": "uint256",
          "name": "needed",
          "type": "uint256"
        },
        {
          "internalType": "uint256",
          "name": "tokenId",
          "type": "uint256"
        }
      ],
      "name": "ERC1155InsufficientBalance",
      "type": "error"
    },
    {
      "inputs": [
        {
          "internalType": "address",
          "name": "approver",
          "type": "address"
        }
      ],
      "name": "ERC1155InvalidApprover",
      "type": "error"
    },
    {
      "inputs": [
        {
          "internalType": "uint256",
          "name": "idsLength",
          "type": "uint256"
        },
        {
          "internalType": "uint256",
          "name": "valuesLength",
          "type": "uint256"
        }
      ],
      "name": "ERC1155InvalidArrayLength",
      "type": "error"
    },
    {
      "inputs": [
        {
          "internalType": "address",
          "name": "operator",
          "type": "address"
        }
      ],
      "name": "ERC1155InvalidOperator",
      "type": "error"
    },
    {
      "inputs": [
        {
          "internalType": "address",
          "name": "receiver",
          "type": "address"
        }
      ],
      "name": "ERC1155InvalidReceiver",
      "type": "error"
    },
    {
      "inputs": [
        {
          "internalType": "address",
          "name": "sender",
          "type": "address"
        }
      ],
      "name": "ERC1155InvalidSender",
      "type": "error"
    },
    {
      "inputs": [
        {
          "internalType": "address",
          "name": "operator",
          "type": "address"
        },
        {
          "internalType": "address",
          "name": "owner",
          "type": "address"
        }
      ],
      "name": "ERC1155MissingApprovalForAll",
      "type": "error"
    },
    {
      "anonymous": false,
      "inputs": [
        {
          "indexed": true,
          "internalType": "address",
          "name": "account",
          "type": "address"
        },
        {
          "indexed": true,
          "internalType": "address",
          "name": "operator",
          "type": "address"
        },
        {
          "indexed": false,
          "internalType": "bool",
          "name": "approved",
          "type": "bool"
        }
      ],
      "name": "ApprovalForAll",
      "type": "event"
    },
    {
      "anonymous": false,
      "inputs": [
        {
          "indexed": true,
          "internalType": "address",
          "name": "operator",
          "type": "address"
        },
        {
          "indexed": true,
          "internalType": "address",
          "name": "from",
          "type": "address"
        },
        {
          "indexed": true,
          "internalType": "address",
          "name": "to",
          "type": "address"
        },
        {
          "indexed": false,
          "internalType": "uint256[]",
          "name": "ids",
          "type": "uint256[]"
        },
        {
          "indexed": false,
          "internalType": "uint256[]",
          "name": "values",
          "type": "uint256[]"
        }
      ],
      "name": "TransferBatch",
      "type": "event"
    },
    {
      "anonymous": false,
      "inputs": [
        {
          "indexed": true,
          "internalType": "address",
          "name": "operator",
          "type": "address"
        },
        {
          "indexed": true,
          "internalType": "address",
          "name": "from",
          "type": "address"
        },
        {
          "indexed": true,
          "internalType": "address",
          "name": "to",
          "type": "address"
        },
        {
          "indexed": false,
          "internalType": "uint256",
          "name": "id",
          "type": "uint256"
        },
        {
          "indexed": false,
          "internalType": "uint256",
          "name": "value",
          "type": "uint256"
        }
      ],
      "name": "TransferSingle",
      "type": "event"
    },
    {
      "anonymous": false,
      "inputs": [
        {
          "indexed": false,
          "internalType": "string",
          "name": "value",
          "type": "string"
        },
        {
          "indexed": true,
          "internalType": "uint256",
          "name": "id",
          "type": "uint256"
        }
      ],
      "name": "URI",
      "type": "event"
    },
    {
      "inputs": [
        {
          "internalType": "address",
          "name": "account",
          "type": "address"
        },
        {
          "internalType": "uint256",
          "name": "id",
          "type": "uint256"
        }
      ],
      "name": "balanceOf",
      "outputs": [
        {
          "internalType": "uint256",
          "name": "",
          "type": "uint256"
        }
      ],
      "stateMutability": "view",
      "type": "function",
      "constant": true
    },
    {
      "inputs": [
        {
          "internalType": "address[]",
          "name": "accounts",
          "type": "address[]"
        },
        {
          "internalType": "uint256[]",
          "name": "ids",
          "type": "uint256[]"
        }
      ],
      "name": "balanceOfBatch",
      "outputs": [
        {
          "internalType": "uint256[]",
          "name": "",
          "type": "uint256[]"
        }
      ],
      "stateMutability": "view",
      "type": "function",
      "constant": true
    },
    {
      "inputs": [
        {
          "internalType": "address",
          "name": "account",
          "type": "address"
        },
        {
          "internalType": "address",
          "name": "operator",
          "type": "address"
        }
      ],
      "name": "isApprovedForAll",
      "outputs": [
        {
          "internalType": "bool",
          "name": "",
          "type": "bool"
        }
      ],
      "stateMutability": "view",
      "type": "function",
      "constant": true
    },
    {
      "inputs": [
        {
          "internalType": "address",
          "name": "from",
          "type": "address"
        },
        {
          "internalType": "address",
          "name": "to",
          "type": "address"
        },
        {
          "internalType": "uint256[]",
          "name": "ids",
          "type": "uint256[]"
        },
        {
          "internalType": "uint256[]",
          "name": "values",
          "type": "uint256[]"
        },
        {
          "internalType": "bytes",
          "name": "data",
          "type": "bytes"
        }
      ],
      "name": "safeBatchTransferFrom",
      "outputs": [],
      "stateMutability": "nonpayable",
      "type": "function"
    },
    {
      "inputs": [
        {
          "internalType": "address",
          "name": "from",
          "type": "address"
        },
        {
          "internalType": "address",
          "name": "to",
          "type": "address"
        },
        {
          "internalType": "uint256",
          "name": "id",
          "type": "uint256"
        },
        {
          "internalType": "uint256",
          "name": "value",
          "type": "uint256"
        },
        {
          "internalType": "bytes",
          "name": "data",
          "type": "bytes"
        }
      ],
      "name": "safeTransferFrom",
      "outputs": [],
      "stateMutability": "nonpayable",
      "type": "function"
    },
    {
      "inputs": [
        {
          "internalType": "address",
          "name": "operator",
          "type": "address"
        },
        {
          "internalType": "bool",
          "name": "approved",
          "type": "bool"
        }
      ],
      "name": "setApprovalForAll",
      "outputs": [],
      "stateMutability": "nonpayable",
      "type": "function"
    },
    {
      "inputs": [
        {
          "internalType": "bytes4",
          "name": "interfaceId",
          "type": "bytes4"
        }
      ],
      "name": "supportsInterface",
      "outputs": [
        {
          "internalType": "bool",
          "name": "",
          "type": "bool"
        }
      ],
      "stateMutability": "view",
      "type": "function",
      "constant": true
    },
    {
      "inputs": [
        {
          "internalType": "uint256",
          "name": "",
          "type": "uint256"
        }
      ],
      "name": "uri",
      "outputs": [
        {
          "internalType": "string",
          "name": "",
          "type": "string"
        }
      ],
      "stateMutability": "view",
      "type": "function",
      "constant": true
    },
    {
      "inputs": [
        {
          "internalType": "string",
          "name": "newURI",
          "type": "string"
        }
      ],
      "name": "setURI",
      "outputs": [],
      "stateMutability": "nonpayable",
      "type": "function"
    },
    {
      "inputs": [
        {
          "internalType": "uint256",
          "name": "cctTokenID",
          "type": "uint256"
        },
        {
          "internalType": "uint256",
          "name": "cstAmount",
          "type": "uint256"
        }
      ],
      "name": "transferTokensToOwner",
      "outputs": [],
      "stateMutability": "nonpayable",
      "type": "function"
    },
    {
      "inputs": [
        {
          "internalType": "address",
          "name": "toaddress",
          "type": "address"
        },
        {
          "internalType": "uint256",
          "name": "cctTokenID",
          "type": "uint256"
        },
        {
          "internalType": "uint256",
          "name": "cstAmount",
          "type": "uint256"
        }
      ],
      "name": "transferTokensToSomeone",
      "outputs": [],
      "stateMutability": "nonpayable",
      "type": "function"
    },
    {
      "inputs": [
        {
          "internalType": "address",
          "name": "user",
          "type": "address"
        }
      ],
      "name": "getCSTBalance",
      "outputs": [
        {
          "internalType": "uint256",
          "name": "balance",
          "type": "uint256"
        }
      ],
      "stateMutability": "view",
      "type": "function",
      "constant": true
    },
    {
      "inputs": [
        {
          "internalType": "address",
          "name": "user",
          "type": "address"
        }
      ],
      "name": "getDiskStorageRented",
      "outputs": [
        {
          "internalType": "uint256",
          "name": "storageRented",
          "type": "uint256"
        }
      ],
      "stateMutability": "view",
      "type": "function",
      "constant": true
    },
    {
      "inputs": [
        {
          "internalType": "address",
          "name": "user",
          "type": "address"
        }
      ],
      "name": "getConfigDetails",
      "outputs": [
        {
          "components": [
            {
              "internalType": "uint256",
              "name": "id",
              "type": "uint256"
            },
            {
              "internalType": "string",
              "name": "gpu",
              "type": "string"
            },
            {
              "internalType": "string",
              "name": "processor",
              "type": "string"
            },
            {
              "internalType": "string",
              "name": "ram",
              "type": "string"
            },
            {
              "internalType": "string",
              "name": "cores",
              "type": "string"
            },
            {
              "internalType": "string",
              "name": "os",
              "type": "string"
            },
            {
              "internalType": "string",
              "name": "imageURL",
              "type": "string"
            }
          ],
          "internalType": "struct CloudConfigToken.ServerConfiguration[]",
          "name": "",
          "type": "tuple[]"
        }
      ],
      "stateMutability": "view",
      "type": "function",
      "constant": true
    },
    {
      "inputs": [
        {
          "internalType": "uint256",
          "name": "amount",
          "type": "uint256"
        }
      ],
      "name": "buyCST",
      "outputs": [],
      "stateMutability": "nonpayable",
      "type": "function"
    },
    {
      "inputs": [
        {
          "internalType": "string",
          "name": "gpu",
          "type": "string"
        },
        {
          "internalType": "string",
          "name": "processor",
          "type": "string"
        },
        {
          "internalType": "string",
          "name": "ram",
          "type": "string"
        },
        {
          "internalType": "string",
          "name": "cores",
          "type": "string"
        },
        {
          "internalType": "string",
          "name": "os",
          "type": "string"
        },
        {
          "internalType": "string",
          "name": "imageURL",
          "type": "string"
        }
      ],
      "name": "buyCCT",
      "outputs": [],
      "stateMutability": "nonpayable",
      "type": "function"
    },
    {
      "inputs": [
        {
          "internalType": "address",
          "name": "user",
          "type": "address"
        }
      ],
      "name": "getRentalDetails",
      "outputs": [
        {
          "components": [
            {
              "internalType": "uint256",
              "name": "cstAmount",
              "type": "uint256"
            },
            {
              "internalType": "uint256",
              "name": "cctTokenID",
              "type": "uint256"
            }
          ],
          "internalType": "struct TokenTransfer.Data[]",
          "name": "configs",
          "type": "tuple[]"
        }
      ],
      "stateMutability": "view",
      "type": "function",
      "constant": true
    }
  ],
  "bytecode": "0x6080604052600160065534801562000015575f80fd5b5060405162003ef438038062003ef483398181016040528101906200003b9190620001c5565b6040518060400160405280600381526020017f555249000000000000000000000000000000000000000000000000000000000081525062000082816200014b60201b60201c565b508160035f6101000a81548173ffffffffffffffffffffffffffffffffffffffff021916908373ffffffffffffffffffffffffffffffffffffffff1602179055508060045f6101000a81548173ffffffffffffffffffffffffffffffffffffffff021916908373ffffffffffffffffffffffffffffffffffffffff1602179055503360055f6101000a81548173ffffffffffffffffffffffffffffffffffffffff021916908373ffffffffffffffffffffffffffffffffffffffff160217905550505062000552565b80600290816200015c91906200046e565b5050565b5f80fd5b5f73ffffffffffffffffffffffffffffffffffffffff82169050919050565b5f6200018f8262000164565b9050919050565b620001a18162000183565b8114620001ac575f80fd5b50565b5f81519050620001bf8162000196565b92915050565b5f8060408385031215620001de57620001dd62000160565b5b5f620001ed85828601620001af565b92505060206200020085828601620001af565b9150509250929050565b5f81519050919050565b7f4e487b71000000000000000000000000000000000000000000000000000000005f52604160045260245ffd5b7f4e487b71000000000000000000000000000000000000000000000000000000005f52602260045260245ffd5b5f60028204905060018216806200028657607f821691505b6020821081036200029c576200029b62000241565b5b50919050565b5f819050815f5260205f209050919050565b5f6020601f8301049050919050565b5f82821b905092915050565b5f60088302620003007fffffffffffffffffffffffffffffffffffffffffffffffffffffffffffffffff82620002c3565b6200030c8683620002c3565b95508019841693508086168417925050509392505050565b5f819050919050565b5f819050919050565b5f62000356620003506200034a8462000324565b6200032d565b62000324565b9050919050565b5f819050919050565b620003718362000336565b6200038962000380826200035d565b848454620002cf565b825550505050565b5f90565b6200039f62000391565b620003ac81848462000366565b505050565b5b81811015620003d357620003c75f8262000395565b600181019050620003b2565b5050565b601f8211156200042257620003ec81620002a2565b620003f784620002b4565b8101602085101562000407578190505b6200041f6200041685620002b4565b830182620003b1565b50505b505050565b5f82821c905092915050565b5f620004445f198460080262000427565b1980831691505092915050565b5f6200045e838362000433565b9150826002028217905092915050565b62000479826200020a565b67ffffffffffffffff81111562000495576200049462000214565b5b620004a182546200026e565b620004ae828285620003d7565b5f60209050601f831160018114620004e4575f8415620004cf578287015190505b620004db858262000451565b8655506200054a565b601f198416620004f486620002a2565b5f5b828110156200051d57848901518255600182019150602085019450602081019050620004f6565b868310156200053d578489015162000539601f89168262000433565b8355505b6001600288020188555050505b505050505050565b61399480620005605f395ff3fe608060405234801561000f575f80fd5b5060043610610108575f3560e01c806375968a1e116100a0578063b6f9054e1161006f578063b6f9054e146102e8578063b7eb22ae14610318578063c2f6acec14610334578063e985e9c514610350578063f242432a1461038057610108565b806375968a1e146102645780638f1de79e14610280578063a22cb4651461029c578063a2bece58146102b857610108565b80632eb2c2d6116100dc5780632eb2c2d6146101b857806347e3432e146101d45780634e1273f414610204578063603d77ca1461023457610108565b8062fdd58e1461010c57806301ffc9a71461013c57806302fe53051461016c5780630e89341c14610188575b5f80fd5b610126600480360381019061012191906120f8565b61039c565b6040516101339190612145565b60405180910390f35b610156600480360381019061015191906121b3565b6103f1565b60405161016391906121f8565b60405180910390f35b6101866004803603810190610181919061234d565b6104d2565b005b6101a2600480360381019061019d9190612394565b6104de565b6040516101af9190612439565b60405180910390f35b6101d260048036038101906101cd91906125bb565b610570565b005b6101ee60048036038101906101e99190612686565b610617565b6040516101fb9190612145565b60405180910390f35b61021e60048036038101906102199190612771565b6106b8565b60405161022b919061289e565b60405180910390f35b61024e60048036038101906102499190612686565b6107c5565b60405161025b9190612145565b60405180910390f35b61027e600480360381019061027991906128be565b61087c565b005b61029a60048036038101906102959190612394565b610b92565b005b6102b660048036038101906102b19190612938565b610c31565b005b6102d260048036038101906102cd9190612686565b610c47565b6040516102df9190612b35565b60405180910390f35b61030260048036038101906102fd9190612686565b610d48565b60405161030f9190612c2a565b60405180910390f35b610332600480360381019061032d9190612c4a565b610e63565b005b61034e60048036038101906103499190612d7b565b610f00565b005b61036a60048036038101906103659190612db9565b611278565b60405161037791906121f8565b60405180910390f35b61039a60048036038101906103959190612df7565b611306565b005b5f805f8381526020019081526020015f205f8473ffffffffffffffffffffffffffffffffffffffff1673ffffffffffffffffffffffffffffffffffffffff1681526020019081526020015f2054905092915050565b5f7fd9b67a26000000000000000000000000000000000000000000000000000000007bffffffffffffffffffffffffffffffffffffffffffffffffffffffff1916827bffffffffffffffffffffffffffffffffffffffffffffffffffffffff191614806104bb57507f0e89341c000000000000000000000000000000000000000000000000000000007bffffffffffffffffffffffffffffffffffffffffffffffffffffffff1916827bffffffffffffffffffffffffffffffffffffffffffffffffffffffff1916145b806104cb57506104ca826113ad565b5b9050919050565b6104db81611416565b50565b6060600280546104ed90612eb7565b80601f016020809104026020016040519081016040528092919081815260200182805461051990612eb7565b80156105645780601f1061053b57610100808354040283529160200191610564565b820191905f5260205f20905b81548152906001019060200180831161054757829003601f168201915b50505050509050919050565b5f610579611429565b90508073ffffffffffffffffffffffffffffffffffffffff168673ffffffffffffffffffffffffffffffffffffffff16141580156105be57506105bc8682611278565b155b156106025780866040517fe237d9220000000000000000000000000000000000000000000000000000000081526004016105f9929190612ef6565b60405180910390fd5b61060f8686868686611430565b505050505050565b5f60035f9054906101000a900473ffffffffffffffffffffffffffffffffffffffff1673ffffffffffffffffffffffffffffffffffffffff1663192c8b27836040518263ffffffff1660e01b81526004016106729190612f1d565b602060405180830381865afa15801561068d573d5f803e3d5ffd5b505050506040513d601f19601f820116820180604052508101906106b19190612f4a565b9050919050565b6060815183511461070457815183516040517f5b0599910000000000000000000000000000000000000000000000000000000081526004016106fb929190612f75565b60405180910390fd5b5f835167ffffffffffffffff8111156107205761071f612229565b5b60405190808252806020026020018201604052801561074e5781602001602082028036833780820191505090505b5090505f5b84518110156107ba5761078a610772828761152490919063ffffffff16565b610785838761153790919063ffffffff16565b61039c565b82828151811061079d5761079c612f9c565b5b602002602001018181525050806107b390612ff6565b9050610753565b508091505092915050565b5f60035f9054906101000a900473ffffffffffffffffffffffffffffffffffffffff1673ffffffffffffffffffffffffffffffffffffffff166370a08231836040518263ffffffff1660e01b81526004016108209190612f1d565b602060405180830381865afa15801561083b573d5f803e3d5ffd5b505050506040513d601f19601f8201168201806040525081019061085f9190612f4a565b9050670de0b6b3a764000081610875919061306a565b9050919050565b60035f9054906101000a900473ffffffffffffffffffffffffffffffffffffffff1673ffffffffffffffffffffffffffffffffffffffff16630832065b3385670de0b6b3a7640000856108cf919061309a565b6040518463ffffffff1660e01b81526004016108ed939291906130db565b5f604051808303815f87803b158015610904575f80fd5b505af1158015610916573d5f803e3d5ffd5b5050505060035f9054906101000a900473ffffffffffffffffffffffffffffffffffffffff1673ffffffffffffffffffffffffffffffffffffffff16634cc3600533836040518363ffffffff1660e01b8152600401610976929190613110565b5f604051808303815f87803b15801561098d575f80fd5b505af115801561099f573d5f803e3d5ffd5b5050505060045f9054906101000a900473ffffffffffffffffffffffffffffffffffffffff1673ffffffffffffffffffffffffffffffffffffffff166342842e0e3385856040518463ffffffff1660e01b8152600401610a01939291906130db565b5f604051808303815f87803b158015610a18575f80fd5b505af1158015610a2a573d5f803e3d5ffd5b5050505060045f9054906101000a900473ffffffffffffffffffffffffffffffffffffffff1673ffffffffffffffffffffffffffffffffffffffff1663171c00fd3385856040518463ffffffff1660e01b8152600401610a8c939291906130db565b5f604051808303815f87803b158015610aa3575f80fd5b505af1158015610ab5573d5f803e3d5ffd5b50505050610ad633600654600160405180602001604052805f81525061154a565b60085f3373ffffffffffffffffffffffffffffffffffffffff1673ffffffffffffffffffffffffffffffffffffffff1681526020019081526020015f20600654908060018154018082558091505060019003905f5260205f20015f909190919091505560405180604001604052808281526020018381525060075f60065481526020019081526020015f205f820151815f01556020820151816001015590505060065f815480929190610b8890612ff6565b9190505550505050565b60035f9054906101000a900473ffffffffffffffffffffffffffffffffffffffff1673ffffffffffffffffffffffffffffffffffffffff16639134709e670de0b6b3a764000083610be3919061309a565b336040518363ffffffff1660e01b8152600401610c01929190613137565b5f604051808303815f87803b158015610c18575f80fd5b505af1158015610c2a573d5f803e3d5ffd5b5050505050565b610c43610c3c611429565b83836115df565b5050565b60605f600567ffffffffffffffff811115610c6557610c64612229565b5b604051908082528060200260200182016040528015610c9e57816020015b610c8b61201e565b815260200190600190039081610c835790505b50905060045f9054906101000a900473ffffffffffffffffffffffffffffffffffffffff1673ffffffffffffffffffffffffffffffffffffffff166390deb05c846040518263ffffffff1660e01b8152600401610cfb9190612f1d565b5f60405180830381865afa158015610d15573d5f803e3d5ffd5b505050506040513d5f823e3d601f19601f82011682018060405250810190610d3d919061340b565b905080915050919050565b60605f60085f8473ffffffffffffffffffffffffffffffffffffffff1673ffffffffffffffffffffffffffffffffffffffff1681526020019081526020015f20805480602002602001604051908101604052809291908181526020018280548015610dd057602002820191905f5260205f20905b815481526020019060010190808311610dbc575b505050505090505f5b8151811015610e5c5760075f838381518110610df857610df7612f9c565b5b602002602001015181526020019081526020015f206040518060400160405290815f8201548152602001600182015481525050838281518110610e3e57610e3d612f9c565b5b60200260200101819052508080610e5490612ff6565b915050610dd9565b5050919050565b60045f9054906101000a900473ffffffffffffffffffffffffffffffffffffffff1673ffffffffffffffffffffffffffffffffffffffff1663fa11db3333888888888888306040518963ffffffff1660e01b8152600401610ecb989796959493929190613452565b5f604051808303815f87803b158015610ee2575f80fd5b505af1158015610ef4573d5f803e3d5ffd5b50505050505050505050565b60035f9054906101000a900473ffffffffffffffffffffffffffffffffffffffff1673ffffffffffffffffffffffffffffffffffffffff16630832065b3360055f9054906101000a900473ffffffffffffffffffffffffffffffffffffffff16670de0b6b3a764000085610f74919061309a565b6040518463ffffffff1660e01b8152600401610f92939291906130db565b5f604051808303815f87803b158015610fa9575f80fd5b505af1158015610fbb573d5f803e3d5ffd5b5050505060035f9054906101000a900473ffffffffffffffffffffffffffffffffffffffff1673ffffffffffffffffffffffffffffffffffffffff16634cc3600533836040518363ffffffff1660e01b815260040161101b929190613110565b5f604051808303815f87803b158015611032575f80fd5b505af1158015611044573d5f803e3d5ffd5b5050505060045f9054906101000a900473ffffffffffffffffffffffffffffffffffffffff1673ffffffffffffffffffffffffffffffffffffffff1663451591463360055f9054906101000a900473ffffffffffffffffffffffffffffffffffffffff16856040518463ffffffff1660e01b81526004016110c7939291906130db565b5f604051808303815f87803b1580156110de575f80fd5b505af11580156110f0573d5f803e3d5ffd5b5050505060045f9054906101000a900473ffffffffffffffffffffffffffffffffffffffff1673ffffffffffffffffffffffffffffffffffffffff1663171c00fd3360055f9054906101000a900473ffffffffffffffffffffffffffffffffffffffff16856040518463ffffffff1660e01b8152600401611173939291906130db565b5f604051808303815f87803b15801561118a575f80fd5b505af115801561119c573d5f803e3d5ffd5b505050506111bd33600654600160405180602001604052805f81525061154a565b60085f3373ffffffffffffffffffffffffffffffffffffffff1673ffffffffffffffffffffffffffffffffffffffff1681526020019081526020015f20600654908060018154018082558091505060019003905f5260205f20015f909190919091505560405180604001604052808281526020018381525060075f60065481526020019081526020015f205f820151815f01556020820151816001015590505060065f81548092919061126f90612ff6565b91905055505050565b5f60015f8473ffffffffffffffffffffffffffffffffffffffff1673ffffffffffffffffffffffffffffffffffffffff1681526020019081526020015f205f8373ffffffffffffffffffffffffffffffffffffffff1673ffffffffffffffffffffffffffffffffffffffff1681526020019081526020015f205f9054906101000a900460ff16905092915050565b5f61130f611429565b90508073ffffffffffffffffffffffffffffffffffffffff168673ffffffffffffffffffffffffffffffffffffffff161415801561135457506113528682611278565b155b156113985780866040517fe237d92200000000000000000000000000000000000000000000000000000000815260040161138f929190612ef6565b60405180910390fd5b6113a58686868686611748565b505050505050565b5f7f01ffc9a7000000000000000000000000000000000000000000000000000000007bffffffffffffffffffffffffffffffffffffffffffffffffffffffff1916827bffffffffffffffffffffffffffffffffffffffffffffffffffffffff1916149050919050565b80600290816114259190613695565b5050565b5f33905090565b5f73ffffffffffffffffffffffffffffffffffffffff168473ffffffffffffffffffffffffffffffffffffffff16036114a0575f6040517f57f447ce0000000000000000000000000000000000000000000000000000000081526004016114979190612f1d565b60405180910390fd5b5f73ffffffffffffffffffffffffffffffffffffffff168573ffffffffffffffffffffffffffffffffffffffff1603611510575f6040517f01a835140000000000000000000000000000000000000000000000000000000081526004016115079190612f1d565b60405180910390fd5b61151d858585858561184e565b5050505050565b5f60208202602084010151905092915050565b5f60208202602084010151905092915050565b5f73ffffffffffffffffffffffffffffffffffffffff168473ffffffffffffffffffffffffffffffffffffffff16036115ba575f6040517f57f447ce0000000000000000000000000000000000000000000000000000000081526004016115b19190612f1d565b60405180910390fd5b5f806115c685856118fa565b915091506115d75f8784848761184e565b505050505050565b5f73ffffffffffffffffffffffffffffffffffffffff168273ffffffffffffffffffffffffffffffffffffffff160361164f575f6040517fced3e1000000000000000000000000000000000000000000000000000000000081526004016116469190612f1d565b60405180910390fd5b8060015f8573ffffffffffffffffffffffffffffffffffffffff1673ffffffffffffffffffffffffffffffffffffffff1681526020019081526020015f205f8473ffffffffffffffffffffffffffffffffffffffff1673ffffffffffffffffffffffffffffffffffffffff1681526020019081526020015f205f6101000a81548160ff0219169083151502179055508173ffffffffffffffffffffffffffffffffffffffff168373ffffffffffffffffffffffffffffffffffffffff167f17307eab39ab6107e8899845ad3d59bd9653f200f220920489ca2b5937696c318360405161173b91906121f8565b60405180910390a3505050565b5f73ffffffffffffffffffffffffffffffffffffffff168473ffffffffffffffffffffffffffffffffffffffff16036117b8575f6040517f57f447ce0000000000000000000000000000000000000000000000000000000081526004016117af9190612f1d565b60405180910390fd5b5f73ffffffffffffffffffffffffffffffffffffffff168573ffffffffffffffffffffffffffffffffffffffff1603611828575f6040517f01a8351400000000000000000000000000000000000000000000000000000000815260040161181f9190612f1d565b60405180910390fd5b5f8061183485856118fa565b91509150611845878784848761184e565b50505050505050565b61185a8585858561192a565b5f73ffffffffffffffffffffffffffffffffffffffff168473ffffffffffffffffffffffffffffffffffffffff16146118f3575f611896611429565b905060018451036118e2575f6118b55f8661153790919063ffffffff16565b90505f6118cb5f8661153790919063ffffffff16565b90506118db838989858589611cc0565b50506118f1565b6118f0818787878787611e6f565b5b505b5050505050565b60608060405191506001825283602083015260408201905060018152826020820152604081016040529250929050565b805182511461197457815181516040517f5b05999100000000000000000000000000000000000000000000000000000000815260040161196b929190612f75565b60405180910390fd5b5f61197d611429565b90505f5b8351811015611b7f575f61199e828661153790919063ffffffff16565b90505f6119b4838661153790919063ffffffff16565b90505f73ffffffffffffffffffffffffffffffffffffffff168873ffffffffffffffffffffffffffffffffffffffff1614611ad7575f805f8481526020019081526020015f205f8a73ffffffffffffffffffffffffffffffffffffffff1673ffffffffffffffffffffffffffffffffffffffff1681526020019081526020015f2054905081811015611a8357888183856040517f03dee4c5000000000000000000000000000000000000000000000000000000008152600401611a7a9493929190613764565b60405180910390fd5b8181035f808581526020019081526020015f205f8b73ffffffffffffffffffffffffffffffffffffffff1673ffffffffffffffffffffffffffffffffffffffff1681526020019081526020015f2081905550505b5f73ffffffffffffffffffffffffffffffffffffffff168773ffffffffffffffffffffffffffffffffffffffff1614611b6c57805f808481526020019081526020015f205f8973ffffffffffffffffffffffffffffffffffffffff1673ffffffffffffffffffffffffffffffffffffffff1681526020019081526020015f205f828254611b6491906137a7565b925050819055505b505080611b7890612ff6565b9050611981565b506001835103611c3a575f611b9d5f8561153790919063ffffffff16565b90505f611bb35f8561153790919063ffffffff16565b90508573ffffffffffffffffffffffffffffffffffffffff168773ffffffffffffffffffffffffffffffffffffffff168473ffffffffffffffffffffffffffffffffffffffff167fc3d58168c5ae7397731d063d5bbf3d657854427343f4c083240f7aacaa2d0f628585604051611c2b929190612f75565b60405180910390a45050611cb9565b8373ffffffffffffffffffffffffffffffffffffffff168573ffffffffffffffffffffffffffffffffffffffff168273ffffffffffffffffffffffffffffffffffffffff167f4a39dc06d4c0dbc64b70af90fd698a233a518aa5d07e595d983b8c0526c8f7fb8686604051611cb09291906137da565b60405180910390a45b5050505050565b5f8473ffffffffffffffffffffffffffffffffffffffff163b1115611e67578373ffffffffffffffffffffffffffffffffffffffff1663f23a6e6187878686866040518663ffffffff1660e01b8152600401611d20959493929190613861565b6020604051808303815f875af1925050508015611d5b57506040513d601f19601f82011682018060405250810190611d5891906138cd565b60015b611ddc573d805f8114611d89576040519150601f19603f3d011682016040523d82523d5f602084013e611d8e565b606091505b505f815103611dd457846040517f57f447ce000000000000000000000000000000000000000000000000000000008152600401611dcb9190612f1d565b60405180910390fd5b805181602001fd5b63f23a6e6160e01b7bffffffffffffffffffffffffffffffffffffffffffffffffffffffff1916817bffffffffffffffffffffffffffffffffffffffffffffffffffffffff191614611e6557846040517f57f447ce000000000000000000000000000000000000000000000000000000008152600401611e5c9190612f1d565b60405180910390fd5b505b505050505050565b5f8473ffffffffffffffffffffffffffffffffffffffff163b1115612016578373ffffffffffffffffffffffffffffffffffffffff1663bc197c8187878686866040518663ffffffff1660e01b8152600401611ecf9594939291906138f8565b6020604051808303815f875af1925050508015611f0a57506040513d601f19601f82011682018060405250810190611f0791906138cd565b60015b611f8b573d805f8114611f38576040519150601f19603f3d011682016040523d82523d5f602084013e611f3d565b606091505b505f815103611f8357846040517f57f447ce000000000000000000000000000000000000000000000000000000008152600401611f7a9190612f1d565b60405180910390fd5b805181602001fd5b63bc197c8160e01b7bffffffffffffffffffffffffffffffffffffffffffffffffffffffff1916817bffffffffffffffffffffffffffffffffffffffffffffffffffffffff19161461201457846040517f57f447ce00000000000000000000000000000000000000000000000000000000815260040161200b9190612f1d565b60405180910390fd5b505b505050505050565b6040518060e001604052805f81526020016060815260200160608152602001606081526020016060815260200160608152602001606081525090565b5f604051905090565b5f80fd5b5f80fd5b5f73ffffffffffffffffffffffffffffffffffffffff82169050919050565b5f6120948261206b565b9050919050565b6120a48161208a565b81146120ae575f80fd5b50565b5f813590506120bf8161209b565b92915050565b5f819050919050565b6120d7816120c5565b81146120e1575f80fd5b50565b5f813590506120f2816120ce565b92915050565b5f806040838503121561210e5761210d612063565b5b5f61211b858286016120b1565b925050602061212c858286016120e4565b9150509250929050565b61213f816120c5565b82525050565b5f6020820190506121585f830184612136565b92915050565b5f7fffffffff0000000000000000000000000000000000000000000000000000000082169050919050565b6121928161215e565b811461219c575f80fd5b50565b5f813590506121ad81612189565b92915050565b5f602082840312156121c8576121c7612063565b5b5f6121d58482850161219f565b91505092915050565b5f8115159050919050565b6121f2816121de565b82525050565b5f60208201905061220b5f8301846121e9565b92915050565b5f80fd5b5f80fd5b5f601f19601f8301169050919050565b7f4e487b71000000000000000000000000000000000000000000000000000000005f52604160045260245ffd5b61225f82612219565b810181811067ffffffffffffffff8211171561227e5761227d612229565b5b80604052505050565b5f61229061205a565b905061229c8282612256565b919050565b5f67ffffffffffffffff8211156122bb576122ba612229565b5b6122c482612219565b9050602081019050919050565b828183375f83830152505050565b5f6122f16122ec846122a1565b612287565b90508281526020810184848401111561230d5761230c612215565b5b6123188482856122d1565b509392505050565b5f82601f83011261233457612333612211565b5b81356123448482602086016122df565b91505092915050565b5f6020828403121561236257612361612063565b5b5f82013567ffffffffffffffff81111561237f5761237e612067565b5b61238b84828501612320565b91505092915050565b5f602082840312156123a9576123a8612063565b5b5f6123b6848285016120e4565b91505092915050565b5f81519050919050565b5f82825260208201905092915050565b5f5b838110156123f65780820151818401526020810190506123db565b5f8484015250505050565b5f61240b826123bf565b61241581856123c9565b93506124258185602086016123d9565b61242e81612219565b840191505092915050565b5f6020820190508181035f8301526124518184612401565b905092915050565b5f67ffffffffffffffff82111561247357612472612229565b5b602082029050602081019050919050565b5f80fd5b5f61249a61249584612459565b612287565b905080838252602082019050602084028301858111156124bd576124bc612484565b5b835b818110156124e657806124d288826120e4565b8452602084019350506020810190506124bf565b5050509392505050565b5f82601f83011261250457612503612211565b5b8135612514848260208601612488565b91505092915050565b5f67ffffffffffffffff82111561253757612536612229565b5b61254082612219565b9050602081019050919050565b5f61255f61255a8461251d565b612287565b90508281526020810184848401111561257b5761257a612215565b5b6125868482856122d1565b509392505050565b5f82601f8301126125a2576125a1612211565b5b81356125b284826020860161254d565b91505092915050565b5f805f805f60a086880312156125d4576125d3612063565b5b5f6125e1888289016120b1565b95505060206125f2888289016120b1565b945050604086013567ffffffffffffffff81111561261357612612612067565b5b61261f888289016124f0565b935050606086013567ffffffffffffffff8111156126405761263f612067565b5b61264c888289016124f0565b925050608086013567ffffffffffffffff81111561266d5761266c612067565b5b6126798882890161258e565b9150509295509295909350565b5f6020828403121561269b5761269a612063565b5b5f6126a8848285016120b1565b91505092915050565b5f67ffffffffffffffff8211156126cb576126ca612229565b5b602082029050602081019050919050565b5f6126ee6126e9846126b1565b612287565b9050808382526020820190506020840283018581111561271157612710612484565b5b835b8181101561273a578061272688826120b1565b845260208401935050602081019050612713565b5050509392505050565b5f82601f83011261275857612757612211565b5b81356127688482602086016126dc565b91505092915050565b5f806040838503121561278757612786612063565b5b5f83013567ffffffffffffffff8111156127a4576127a3612067565b5b6127b085828601612744565b925050602083013567ffffffffffffffff8111156127d1576127d0612067565b5b6127dd858286016124f0565b9150509250929050565b5f81519050919050565b5f82825260208201905092915050565b5f819050602082019050919050565b612819816120c5565b82525050565b5f61282a8383612810565b60208301905092915050565b5f602082019050919050565b5f61284c826127e7565b61285681856127f1565b935061286183612801565b805f5b83811015612891578151612878888261281f565b975061288383612836565b925050600181019050612864565b5085935050505092915050565b5f6020820190508181035f8301526128b68184612842565b905092915050565b5f805f606084860312156128d5576128d4612063565b5b5f6128e2868287016120b1565b93505060206128f3868287016120e4565b9250506040612904868287016120e4565b9150509250925092565b612917816121de565b8114612921575f80fd5b50565b5f813590506129328161290e565b92915050565b5f806040838503121561294e5761294d612063565b5b5f61295b858286016120b1565b925050602061296c85828601612924565b9150509250929050565b5f81519050919050565b5f82825260208201905092915050565b5f819050602082019050919050565b5f82825260208201905092915050565b5f6129b9826123bf565b6129c3818561299f565b93506129d38185602086016123d9565b6129dc81612219565b840191505092915050565b5f60e083015f8301516129fc5f860182612810565b5060208301518482036020860152612a1482826129af565b91505060408301518482036040860152612a2e82826129af565b91505060608301518482036060860152612a4882826129af565b91505060808301518482036080860152612a6282826129af565b91505060a083015184820360a0860152612a7c82826129af565b91505060c083015184820360c0860152612a9682826129af565b9150508091505092915050565b5f612aae83836129e7565b905092915050565b5f602082019050919050565b5f612acc82612976565b612ad68185612980565b935083602082028501612ae885612990565b805f5b85811015612b235784840389528151612b048582612aa3565b9450612b0f83612ab6565b925060208a01995050600181019050612aeb565b50829750879550505050505092915050565b5f6020820190508181035f830152612b4d8184612ac2565b905092915050565b5f81519050919050565b5f82825260208201905092915050565b5f819050602082019050919050565b604082015f820151612b925f850182612810565b506020820151612ba56020850182612810565b50505050565b5f612bb68383612b7e565b60408301905092915050565b5f602082019050919050565b5f612bd882612b55565b612be28185612b5f565b9350612bed83612b6f565b805f5b83811015612c1d578151612c048882612bab565b9750612c0f83612bc2565b925050600181019050612bf0565b5085935050505092915050565b5f6020820190508181035f830152612c428184612bce565b905092915050565b5f805f805f8060c08789031215612c6457612c63612063565b5b5f87013567ffffffffffffffff811115612c8157612c80612067565b5b612c8d89828a01612320565b965050602087013567ffffffffffffffff811115612cae57612cad612067565b5b612cba89828a01612320565b955050604087013567ffffffffffffffff811115612cdb57612cda612067565b5b612ce789828a01612320565b945050606087013567ffffffffffffffff811115612d0857612d07612067565b5b612d1489828a01612320565b935050608087013567ffffffffffffffff811115612d3557612d34612067565b5b612d4189828a01612320565b92505060a087013567ffffffffffffffff811115612d6257612d61612067565b5b612d6e89828a01612320565b9150509295509295509295565b5f8060408385031215612d9157612d90612063565b5b5f612d9e858286016120e4565b9250506020612daf858286016120e4565b9150509250929050565b5f8060408385031215612dcf57612dce612063565b5b5f612ddc858286016120b1565b9250506020612ded858286016120b1565b9150509250929050565b5f805f805f60a08688031215612e1057612e0f612063565b5b5f612e1d888289016120b1565b9550506020612e2e888289016120b1565b9450506040612e3f888289016120e4565b9350506060612e50888289016120e4565b925050608086013567ffffffffffffffff811115612e7157612e70612067565b5b612e7d8882890161258e565b9150509295509295909350565b7f4e487b71000000000000000000000000000000000000000000000000000000005f52602260045260245ffd5b5f6002820490506001821680612ece57607f821691505b602082108103612ee157612ee0612e8a565b5b50919050565b612ef08161208a565b82525050565b5f604082019050612f095f830185612ee7565b612f166020830184612ee7565b9392505050565b5f602082019050612f305f830184612ee7565b92915050565b5f81519050612f44816120ce565b92915050565b5f60208284031215612f5f57612f5e612063565b5b5f612f6c84828501612f36565b91505092915050565b5f604082019050612f885f830185612136565b612f956020830184612136565b9392505050565b7f4e487b71000000000000000000000000000000000000000000000000000000005f52603260045260245ffd5b7f4e487b71000000000000000000000000000000000000000000000000000000005f52601160045260245ffd5b5f613000826120c5565b91507fffffffffffffffffffffffffffffffffffffffffffffffffffffffffffffffff820361303257613031612fc9565b5b600182019050919050565b7f4e487b71000000000000000000000000000000000000000000000000000000005f52601260045260245ffd5b5f613074826120c5565b915061307f836120c5565b92508261308f5761308e61303d565b5b828204905092915050565b5f6130a4826120c5565b91506130af836120c5565b92508282026130bd816120c5565b915082820484148315176130d4576130d3612fc9565b5b5092915050565b5f6060820190506130ee5f830186612ee7565b6130fb6020830185612ee7565b6131086040830184612136565b949350505050565b5f6040820190506131235f830185612ee7565b6131306020830184612136565b9392505050565b5f60408201905061314a5f830185612136565b6131576020830184612ee7565b9392505050565b5f67ffffffffffffffff82111561317857613177612229565b5b602082029050602081019050919050565b5f80fd5b5f80fd5b5f6131a361319e846122a1565b612287565b9050828152602081018484840111156131bf576131be612215565b5b6131ca8482856123d9565b509392505050565b5f82601f8301126131e6576131e5612211565b5b81516131f6848260208601613191565b91505092915050565b5f60e0828403121561321457613213613189565b5b61321e60e0612287565b90505f61322d84828501612f36565b5f83015250602082015167ffffffffffffffff8111156132505761324f61318d565b5b61325c848285016131d2565b602083015250604082015167ffffffffffffffff8111156132805761327f61318d565b5b61328c848285016131d2565b604083015250606082015167ffffffffffffffff8111156132b0576132af61318d565b5b6132bc848285016131d2565b606083015250608082015167ffffffffffffffff8111156132e0576132df61318d565b5b6132ec848285016131d2565b60808301525060a082015167ffffffffffffffff8111156133105761330f61318d565b5b61331c848285016131d2565b60a08301525060c082015167ffffffffffffffff8111156133405761333f61318d565b5b61334c848285016131d2565b60c08301525092915050565b5f61336a6133658461315e565b612287565b9050808382526020820190506020840283018581111561338d5761338c612484565b5b835b818110156133d457805167ffffffffffffffff8111156133b2576133b1612211565b5b8086016133bf89826131ff565b8552602085019450505060208101905061338f565b5050509392505050565b5f82601f8301126133f2576133f1612211565b5b8151613402848260208601613358565b91505092915050565b5f602082840312156134205761341f612063565b5b5f82015167ffffffffffffffff81111561343d5761343c612067565b5b613449848285016133de565b91505092915050565b5f610100820190506134665f83018b612ee7565b8181036020830152613478818a612401565b9050818103604083015261348c8189612401565b905081810360608301526134a08188612401565b905081810360808301526134b48187612401565b905081810360a08301526134c88186612401565b905081810360c08301526134dc8185612401565b90506134eb60e0830184612ee7565b9998505050505050505050565b5f819050815f5260205f209050919050565b5f6020601f8301049050919050565b5f82821b905092915050565b5f600883026135547fffffffffffffffffffffffffffffffffffffffffffffffffffffffffffffffff82613519565b61355e8683613519565b95508019841693508086168417925050509392505050565b5f819050919050565b5f61359961359461358f846120c5565b613576565b6120c5565b9050919050565b5f819050919050565b6135b28361357f565b6135c66135be826135a0565b848454613525565b825550505050565b5f90565b6135da6135ce565b6135e58184846135a9565b505050565b5b81811015613608576135fd5f826135d2565b6001810190506135eb565b5050565b601f82111561364d5761361e816134f8565b6136278461350a565b81016020851015613636578190505b61364a6136428561350a565b8301826135ea565b50505b505050565b5f82821c905092915050565b5f61366d5f1984600802613652565b1980831691505092915050565b5f613685838361365e565b9150826002028217905092915050565b61369e826123bf565b67ffffffffffffffff8111156136b7576136b6612229565b5b6136c18254612eb7565b6136cc82828561360c565b5f60209050601f8311600181146136fd575f84156136eb578287015190505b6136f5858261367a565b86555061375c565b601f19841661370b866134f8565b5f5b828110156137325784890151825560018201915060208501945060208101905061370d565b8683101561374f578489015161374b601f89168261365e565b8355505b6001600288020188555050505b505050505050565b5f6080820190506137775f830187612ee7565b6137846020830186612136565b6137916040830185612136565b61379e6060830184612136565b95945050505050565b5f6137b1826120c5565b91506137bc836120c5565b92508282019050808211156137d4576137d3612fc9565b5b92915050565b5f6040820190508181035f8301526137f28185612842565b905081810360208301526138068184612842565b90509392505050565b5f81519050919050565b5f82825260208201905092915050565b5f6138338261380f565b61383d8185613819565b935061384d8185602086016123d9565b61385681612219565b840191505092915050565b5f60a0820190506138745f830188612ee7565b6138816020830187612ee7565b61388e6040830186612136565b61389b6060830185612136565b81810360808301526138ad8184613829565b90509695505050505050565b5f815190506138c781612189565b92915050565b5f602082840312156138e2576138e1612063565b5b5f6138ef848285016138b9565b91505092915050565b5f60a08201905061390b5f830188612ee7565b6139186020830187612ee7565b818103604083015261392a8186612842565b9050818103606083015261393e8185612842565b905081810360808301526139528184613829565b9050969550505050505056fea2646970667358221220b779c7227ba271cff8a2874eba6a008c5f7593e2b5ec09394cd5fb886f4854a564736f6c63430008140033",
  "immutableReferences": {},
  "source": "// SPDX-License-Identifier: MIT\r\npragma solidity ^0.8.20;\r\n\r\nimport \"@openzeppelin/contracts/token/ERC1155/ERC1155.sol\";\r\n// import \"@openzeppelin/contracts/token/ERC20/IERC20.sol\";\r\n// import \"@openzeppelin/contracts/token/ERC721/IERC721.sol\";\r\nimport \"./CCT_ERC721.sol\";\r\nimport \"./CST_ERC20.sol\";\r\n\r\ncontract TokenTransfer is ERC1155 {\r\n    CloudStoragetoken private cstToken;\r\n    CloudConfigToken private cctToken;\r\n    struct Data {\r\n        uint256 cstAmount;\r\n        uint256 cctTokenID;\r\n    }\r\n    address owner;\r\n    uint tokenID = 1;\r\n    mapping(uint => Data) rentalDetails;\r\n    mapping(address => uint256[]) rentalIDs;\r\n    \r\n    constructor(address cstTokenAddress, address cctTokenAddress) ERC1155(\"URI\") {\r\n        cstToken = CloudStoragetoken(cstTokenAddress);\r\n        cctToken = CloudConfigToken(cctTokenAddress);\r\n        owner = msg.sender;\r\n    }\r\n\r\n    function setURI(string memory newURI) external {\r\n        _setURI(newURI);\r\n    }\r\n\r\n    function transferTokensToOwner(uint256 cctTokenID, uint256 cstAmount) external {\r\n        \r\n        // Transfer ERC20 tokens from the sender to the contract\r\n        cstToken.transferCSTToken(msg.sender, owner, cstAmount*(10 ** 18));\r\n        cstToken.rentStorage(msg.sender,cstAmount);\r\n        \r\n        // Transfer ERC721 token from the sender to the owner\r\n        // cctToken.safeTransferFrom(msg.sender, owner, cctTokenID);\r\n        cctToken.transferCCT(msg.sender,owner,cctTokenID);\r\n        cctToken.transferOwnership(msg.sender, owner, cctTokenID);\r\n        \r\n        // Mint ERC1155 tokens to the sender\r\n        _mint(msg.sender, tokenID, 1, \"\");\r\n        rentalIDs[msg.sender].push(tokenID);\r\n        rentalDetails[tokenID] = Data(cstAmount,cctTokenID);\r\n        tokenID++;\r\n    }\r\n\r\n    function transferTokensToSomeone(address toaddress, uint256 cctTokenID, uint256 cstAmount) external {\r\n        \r\n        // Transfer ERC20 tokens from the sender to the contract\r\n        cstToken.transferCSTToken(msg.sender, toaddress, cstAmount*(10 ** 18));\r\n        cstToken.rentStorage(msg.sender,cstAmount);\r\n        \r\n        // Transfer ERC721 token from the sender to the owner\r\n        cctToken.safeTransferFrom(msg.sender, toaddress, cctTokenID);\r\n        cctToken.transferOwnership(msg.sender, toaddress, cctTokenID);\r\n        \r\n        // Mint ERC1155 tokens to the sender\r\n        _mint(msg.sender, tokenID, 1, \"\");\r\n        rentalIDs[msg.sender].push(tokenID);\r\n        rentalDetails[tokenID] = Data(cstAmount,cctTokenID);\r\n        tokenID++;\r\n    }\r\n\r\n    function getCSTBalance(address user) public view returns (\r\n        uint balance\r\n    ){\r\n        balance = cstToken.balanceOf(user);\r\n        balance /= (10 ** 18);\r\n    }\r\n\r\n    function getDiskStorageRented(address user) public view returns (\r\n        uint storageRented\r\n    ){\r\n        storageRented = cstToken.getUserStorageBalance(user);\r\n    }\r\n\r\n    function getConfigDetails(address user) public view returns (\r\n        CloudConfigToken.ServerConfiguration[] memory\r\n    ){\r\n        CloudConfigToken.ServerConfiguration[] memory configs = new CloudConfigToken.ServerConfiguration[](5);\r\n        configs = cctToken.getConfigList(user);\r\n        return configs;\r\n    }\r\n\r\n    function buyCST(uint256 amount) external  {\r\n        cstToken.buyToken(amount*(10 ** 18), msg.sender);\r\n    }\r\n\r\n    function buyCCT(\r\n        string memory gpu,\r\n        string memory processor,\r\n        string memory ram,\r\n        string memory cores,\r\n        string memory os,\r\n        string memory imageURL\r\n    ) external {\r\n        cctToken.mintConfigToken(msg.sender,gpu, processor, ram, cores, os, imageURL,address(this));\r\n    }\r\n\r\n    function getRentalDetails(address user) public view returns (\r\n        Data[] memory configs\r\n    ) {\r\n        uint256[] memory arr = rentalIDs[user];\r\n        \r\n        for (uint i=0; i<arr.length ; i++){\r\n            configs[i]= rentalDetails[arr[i]];\r\n        }\r\n    }\r\n\r\n}\r\n",
  "sourcePath": "C:\\Users\\parth\\Downloads\\College\\Fall 2023\\Blockchain\\Caab\\Cloud-as-a-Blockchain-CaaB-\\caab-contract\\contracts\\CAB_ERC1155.sol",
  "compiler": {
    "name": "solc",
    "version": "0.8.20+commit.a1b79de6.Emscripten.clang"
  },
  "schemaVersion": "3.4.16",
  "updatedAt": "2023-11-18T08:19:41.791Z",
  "networkType": "ethereum",
  "devdoc": {
    "errors": {
      "ERC1155InsufficientBalance(address,uint256,uint256,uint256)": [
        {
          "details": "Indicates an error related to the current `balance` of a `sender`. Used in transfers.",
          "params": {
            "balance": "Current balance for the interacting account.",
            "needed": "Minimum amount required to perform a transfer.",
            "sender": "Address whose tokens are being transferred.",
            "tokenId": "Identifier number of a token."
          }
        }
      ],
      "ERC1155InvalidApprover(address)": [
        {
          "details": "Indicates a failure with the `approver` of a token to be approved. Used in approvals.",
          "params": {
            "approver": "Address initiating an approval operation."
          }
        }
      ],
      "ERC1155InvalidArrayLength(uint256,uint256)": [
        {
          "details": "Indicates an array length mismatch between ids and values in a safeBatchTransferFrom operation. Used in batch transfers.",
          "params": {
            "idsLength": "Length of the array of token identifiers",
            "valuesLength": "Length of the array of token amounts"
          }
        }
      ],
      "ERC1155InvalidOperator(address)": [
        {
          "details": "Indicates a failure with the `operator` to be approved. Used in approvals.",
          "params": {
            "operator": "Address that may be allowed to operate on tokens without being their owner."
          }
        }
      ],
      "ERC1155InvalidReceiver(address)": [
        {
          "details": "Indicates a failure with the token `receiver`. Used in transfers.",
          "params": {
            "receiver": "Address to which tokens are being transferred."
          }
        }
      ],
      "ERC1155InvalidSender(address)": [
        {
          "details": "Indicates a failure with the token `sender`. Used in transfers.",
          "params": {
            "sender": "Address whose tokens are being transferred."
          }
        }
      ],
      "ERC1155MissingApprovalForAll(address,address)": [
        {
          "details": "Indicates a failure with the `operator`s approval. Used in transfers.",
          "params": {
            "operator": "Address that may be allowed to operate on tokens without being their owner.",
            "owner": "Address of the current owner of a token."
          }
        }
      ]
    },
    "events": {
      "ApprovalForAll(address,address,bool)": {
        "details": "Emitted when `account` grants or revokes permission to `operator` to transfer their tokens, according to `approved`."
      },
      "TransferBatch(address,address,address,uint256[],uint256[])": {
        "details": "Equivalent to multiple {TransferSingle} events, where `operator`, `from` and `to` are the same for all transfers."
      },
      "TransferSingle(address,address,address,uint256,uint256)": {
        "details": "Emitted when `value` amount of tokens of type `id` are transferred from `from` to `to` by `operator`."
      },
      "URI(string,uint256)": {
        "details": "Emitted when the URI for token type `id` changes to `value`, if it is a non-programmatic URI. If an {URI} event was emitted for `id`, the standard https://eips.ethereum.org/EIPS/eip-1155#metadata-extensions[guarantees] that `value` will equal the value returned by {IERC1155MetadataURI-uri}."
      }
    },
    "kind": "dev",
    "methods": {
      "balanceOf(address,uint256)": {
        "details": "See {IERC1155-balanceOf}."
      },
      "balanceOfBatch(address[],uint256[])": {
        "details": "See {IERC1155-balanceOfBatch}. Requirements: - `accounts` and `ids` must have the same length."
      },
      "isApprovedForAll(address,address)": {
        "details": "See {IERC1155-isApprovedForAll}."
      },
      "safeBatchTransferFrom(address,address,uint256[],uint256[],bytes)": {
        "details": "See {IERC1155-safeBatchTransferFrom}."
      },
      "safeTransferFrom(address,address,uint256,uint256,bytes)": {
        "details": "See {IERC1155-safeTransferFrom}."
      },
      "setApprovalForAll(address,bool)": {
        "details": "See {IERC1155-setApprovalForAll}."
      },
      "supportsInterface(bytes4)": {
        "details": "See {IERC165-supportsInterface}."
      },
      "uri(uint256)": {
        "details": "See {IERC1155MetadataURI-uri}. This implementation returns the same URI for *all* token types. It relies on the token type ID substitution mechanism https://eips.ethereum.org/EIPS/eip-1155#metadata[defined in the EIP]. Clients calling this function must replace the `\\{id\\}` substring with the actual token type ID."
      }
    },
    "version": 1
  },
  "userdoc": {
    "kind": "user",
    "methods": {},
    "version": 1
  }
}